:020000040000FA
:100000000C9458000C9480000C9480000C94800098
:100010000C9480000C9480000C9480000C94800060
:100020000C9480000C9480000C9480000C94800050
:100030000C9480000C9480000C9480000C94800040
:100040000C94CB060C9480000C9499060C947306C7
:100050000C9480000C9480000C9480000C94800020
:100060000C9415070C948000000000002500280067
:100070002B00040404040404040402020202020229
:10008000030303030303010204081020408001025C
:1000900004081020010204081020000000080002DB
:1000A0000100000304070000000000000000340805
:1000B00011241FBECFEFD8E0DEBFCDBF11E0A0E01E
:1000C000B1E0ECE5F9E102C005900D92AC37B10763
:1000D000D9F722E0ACE7B1E001C01D92A83EB2071B
:1000E000E1F710E0C8E5D0E004C02197FE010E94CE
:1000F000A60CC735D107C9F70E946D080C94AC0C4B
:100100000C94000008950895AF92BF92CF92DF92B1
:10011000EF92FF920F931F93CF93DF936C017B01BC
:100120008B01040F151FEB015E01AE18BF08C0174D
:10013000D10759F06991D601ED91FC910190F081C0
:10014000E02DC6010995892B79F7C501DF91CF9183
:100150001F910F91FF90EF90DF90CF90BF90AF90E5
:100160000895FC01538D448D252F30E0842F90E0BD
:10017000821B930B541710F0CF96089501970895A2
:10018000FC01918D828D981761F0A28DAE0FBF2F6B
:10019000B11D5D968C91928D9F5F9F73928F90E0C1
:1001A00008958FEF9FEF0895FC01918D828D981730
:1001B00031F0828DE80FF11D858D90E008958FEF6D
:1001C0009FEF0895FC01918D228D892F90E0805C36
:1001D0009F4F821B91098F73992708958FE392E0B7
:1001E0000E94E20021E0892B09F420E0822F08958B
:1001F00080E090E0892B29F00E94EE0081110C94A0
:1002000000000895FC01A48DA80FB92FB11DA35AB9
:10021000BF4F2C91848D90E001968F739927848F26
:10022000A689B7892C93A089B1898C918370806449
:100230008C93938D848D981306C00288F389E02DEA
:1002400080818F7D80830895EF92FF920F931F939B
:10025000CF93DF93EC0181E0888F9B8D8C8D981379
:100260001AC0E889F989808185FF15C09FB7F89485
:10027000EE89FF896083E889F989808183708064D1
:1002800080839FBF81E090E0DF91CF911F910F911C
:10029000FF90EF900895F62E0B8D10E00F5F1F4F2B
:1002A0000F731127E02E8C8D8E110CC00FB607FC3A
:1002B000FACFE889F989808185FFF5CFCE010E94C8
:1002C0000201F1CFEB8DEC0FFD2FF11DE35AFF4F33
:1002D000F0829FB7F8940B8FEA89FB898081806256
:1002E000CFCFCF93DF93EC01888D8823B9F0AA8913
:1002F000BB89E889F9898C9185FD03C0808186FDE1
:100300000DC00FB607FCF7CF8C9185FFF2CF80812F
:1003100085FFEDCFCE010E940201E9CFDF91CF91A1
:10032000089590E0FC01E656FF4F2491FC01EA5746
:10033000FF4F3491FC01EE58FF4FE491EE23C9F0DA
:10034000222339F0233001F1A8F4213019F12230B1
:1003500029F1F0E0EE0FFF1FE859FF4FA591B4918E
:100360008FB7F894EC91611126C030953E233C93F1
:100370008FBF08952730A9F02830C9F0243049F7FD
:10038000809180008F7D03C0809180008F77809363
:100390008000DFCF84B58F7784BDDBCF84B58F7DC0
:1003A000FBCF8091B0008F778093B000D2CF809147
:1003B000B0008F7DF9CF3E2BDACF3FB7F894809114
:1003C000E1019091E201A091E301B091E40126B531
:1003D000A89B05C02F3F19F00196A11DB11D3FBF7D
:1003E000BA2FA92F982F8827BC01CD01620F711D4C
:1003F000811D911D42E0660F771F881F991F4A9546
:10040000D1F708952091BD01260F3327331F2132E4
:100410003105ECF420911502FC0190E080E02430DD
:1004200069F082E00895A091BD012191AC0143568D
:100430005E4FA40FB52FB11D2C930196861798F32C
:100440008091BD01680F6093BD0180E0089581E057
:1004500008951092150281E0809314021092EF012A
:1004600061E082E10E94910161E083E10E949101DB
:10047000E9EBF0E080818E7F808380818D7F8083B7
:1004800088E48093B80085E48093BC000895CF93FE
:10049000DF9391E090939C018823B9F0C091B8005C
:1004A000D091BA008091BC008A7B8093BC0060E050
:1004B00082E10E94910160E083E10E9491010E942B
:1004C0002902D093BA00C093B800DF91CF9108956C
:1004D0008F929F92AF92BF92CF92DF92EF92FF9254
:1004E0000F931F93CF93DF93D0913E02D13208F048
:1004F000D7C0182FC0913D020E94DD016B017C0125
:100500008091150281116BC082E0809315021093D7
:1005100014028FEF8093130210921202D0931102F3
:10052000ADE1B2E0E1EFF1E080E0D81391C01092CC
:10053000F0018091F001CC0FC82BC093F0018091A5
:10054000EF01813009F088C01092EF010E94DD01B7
:100550006B017C018091F0018093BB0080911702B8
:1005600090911802A0911902B0911A02892B8A2B3E
:100570008B2BA1F00E94DD0100911702109118024F
:100580002091190230911A026C197D098E099F0978
:10059000061717072807390708F442C08091BC00E6
:1005A00083FDD8CF85EC8093BC000E94DD016B01F8
:1005B0007C0180911502823009F450C080911302B1
:1005C0008F3F09F46FC080911302803209F46CC030
:1005D00080911302803309F469C084E026C08091C1
:1005E000170290911802A0911902B0911A02892B5A
:1005F0008A2B8B2B09F484CF0E94DD018090170297
:1006000090901802A0901902B0901A026C197D09FE
:100610008E099F0986169706A806B90608F070CFBE
:10062000809116020E94470285E010921C021092EF
:100630003E0210921B02DF91CF911F910F91FF900C
:10064000EF90DF90CF90BF90AF909F908F900895E4
:100650009D9191938F5F69CF85EEA5CF8091170211
:1006600090911802A0911902B0911A02892B8A2B3D
:100670008B2B09F49ECF0E94DD010091170210918F
:1006800018022091190230911A026C197D098E0905
:100690009F09061717072807390708F08ACFC0CF28
:1006A00081E0C3CF80E0C1CF82E0BFCF83E0BDCF88
:1006B0000895E091EA018091E901E81730F4F0E053
:1006C000E458FE4F808190E008958FEF9FEF0895EA
:1006D0009091EA018091E9012FEF3FEF981748F4DC
:1006E000E92FF0E0E458FE4F208130E09F5F9093C7
:1006F000EA01C90108958091E9019091EA01891BFD
:10070000990B0895CF92DF92EF92FF920F931F9370
:10071000CF93DF937C01CB018A0120911B0222231E
:1007200089F0EB016B01C40ED51ECC15DD0569F017
:100730006991D701ED91FC910190F081E02DC70105
:100740000995F3CF642F0E940202C801DF91CF9177
:100750001F910F91FF90EF90DF90CF900895CF936E
:10076000DF931F92CDB7DEB7698320911B0222234E
:10077000F9F020913E02203258F021E030E0FC01F7
:100780003383228390E080E00F90DF91CF91089532
:1007900080911C02E82FF0E0E35EFD4F9981908389
:1007A0008F5F80931C0280933E0281E090E0ECCF4B
:1007B00061E0CE0101960E940202F7CFCF93DF9352
:1007C000EB0191E090931B029EE190933D02109209
:1007D0001C0210923E02682F8CED92E00E94AF0343
:1007E000019711F080E010C041E050E0BE018CEDB7
:1007F00092E00E948203EC0181E00E946802811174
:10080000F1CF81E0219771F7DF91CF91089590E0CA
:1008100080E00895FC0101900020E9F73197AF01D5
:10082000481B590BBC018FE392E00C9484008F921B
:100830009F92AF92BF920F931F93CF93DF93CDB749
:10084000DEB7A1970FB6F894DEBF0FBECDBF19A2D9
:10085000423008F44AE08E010F5D1F4F842E912C28
:10086000B12CA12CA50194010E94840CE62FB901A2
:10087000CA01EA30F4F4E05DD801EE938D01232B38
:10088000242B252B79F790E080E0109719F0CD010B
:100890000E940A04A1960FB6F894DEBF0FBECDBF2A
:1008A000DF91CF911F910F91BF90AF909F908F904C
:1008B0000895E95CE1CF4F925F926F927F928F92A1
:1008C0009F92AF92BF92CF92DF92EF92FF920F93DF
:1008D0001F93CF936B017C01742EAC019B010E948E
:1008E0007F0C882399F084E291E0CF911F910F91C2
:1008F000FF90EF90DF90CF90BF90AF909F908F9040
:100900007F906F905F904F900C940A0446015701BE
:10091000E894B7F82FEF3FEF4FE75FE7C501B40169
:100920000E947F0C81110DC02FEF3FEF4FE75FE773
:10093000C501B4010E94B50A18161CF488E291E0C2
:10094000D4CF2FEF3FEF4FE75FE4C701B6010E941E
:100950000D0C18161CF48CE291E0C7CF2FEF3FEF7F
:100960004FE75FECC701B6010E94B50A87FDF3CFE0
:1009700020E030E0A901C701B6010E94B50A10E0ED
:1009800000E087FF0AC06DE28FE392E00E9424013D
:100990008C01F7FAF094F7F8F094C0E060E070E0B2
:1009A00080E09FE37C1641F020E030E040E251E43B
:1009B0000E94BA0ACF5FF6CFA70196010E94490AAA
:1009C0002B013C010E942C0B4B015C014AE00E9470
:1009D00017047C01E00EF11ECC23C1F1C501B40166
:1009E0000E945B0B9B01AC01C301B2010E94480A4B
:1009F0004B015C016EE28FE392E00E942401E80E5D
:100A0000F91EC15018F120E030E040E251E4C50188
:100A1000B4010E94120C2B013C010E942C0B4B01D3
:100A2000B12CA12C4AE0C501B4010E941704E80EC4
:100A3000F91EC501B4010E945B0B9B01AC01C3010F
:100A4000B2010E94480A4B015C01DBCFC701CF9184
:100A50001F910F91FF90EF90DF90CF90BF90AF90DC
:100A60009F908F907F906F905F904F9008954F92DE
:100A70005F926F927F928F929F92AF92BF92EF920E
:100A8000FF920F931F93CF93DF937B018A0191E035
:100A900090931B029EE190933D0210921C021092D3
:100AA0003E02682F8CED92E00E94AF035C0181E072
:100AB0000E946802C82F8111CCC0AA94AB2809F00B
:100AC000C8C00E94DD014B015C01809115028111BB
:100AD00064C0D02F81E080931502809314029FEFB1
:100AE0009093130210921202900F90931102809330
:100AF000F0018091F0018C638093F0018091EF010F
:100B0000813009F082C01092EF010E94DD014B019B
:100B10005C018091F0018093BB008091170290915D
:100B20001802A0911902B0911A02892B8A2B8B2BE3
:100B3000A1F00E94DD0140901702509018026090D1
:100B4000190270901A02681979098A099B094616D8
:100B500057066806790608F441C08091BC0083FD01
:100B6000D8CF85EC8093BC000E94DD014B015C0175
:100B700080911502813009F44AC0809112028D17CC
:100B800010F4D0911202E1EFF1E0ACE7B1E0CD1743
:100B900049F181918D93CF5FFACF809117029091A7
:100BA0001802A0911902B0911A02892B8A2B8B2B63
:100BB00009F48BCF0E94DD0140901702509018027B
:100BC0006090190270901A02681979098A099B09C4
:100BD000461657066806790608F077CF8091160208
:100BE0000E9447021092EA01C093E901C017110662
:100BF00081F5E7010E0D1F1D0C171D07D1F18CEDBE
:100C000092E00E9468038993F7CF85EEABCF809185
:100C1000170290911802A0911902B0911A02892B23
:100C20008A2B8B2B09F4A4CF0E94DD014090170280
:100C3000509018026090190270901A026819790990
:100C40008A099B09461657066806790608F090CF70
:100C5000C5CF80E0DF91CF911F910F91FF90EF9072
:100C6000BF90AF909F908F907F906F905F904F90CC
:100C7000089581E0EFCF85ED8093BC00809117024D
:100C800090911802A0911902B0911A020796A11D25
:100C9000B11D23E0B695A795979587952A95D1F72D
:100CA0002091BC0024FD03C01092150208954091CC
:100CB0001702509118026091190270911A02452B87
:100CC000462B472B69F30097A105B10541F025E3B9
:100CD0002A95F1F700000197A109B109E1CF8091B0
:100CE00016020C9447021F920F920FB60F92112416
:100CF0002F933F934F935F936F937F938F939F9324
:100D0000AF93BF93EF93FF938FE392E00E940201B2
:100D1000FF91EF91BF91AF919F918F917F916F91D3
:100D20005F914F913F912F910F900FBE0F901F90A9
:100D300018951F920F920FB60F9211242F938F9335
:100D40009F93EF93FF93E0914F02F09150028081C7
:100D5000E0915502F091560282FD1BC09081809176
:100D600058028F5F8F7320915902821741F0E091F2
:100D70005802F0E0E15CFD4F958F80935802FF919F
:100D8000EF919F918F912F910F900FBE0F901F9019
:100D900018958081F4CF1F920F920FB60F921124F5
:100DA0002F933F938F939F93AF93BF938091EB01CA
:100DB0009091EC01A091ED01B091EE013091E00134
:100DC00023E0230F2D3758F50196A11DB11D209367
:100DD000E0018093EB019093EC01A093ED01B093BF
:100DE000EE018091E1019091E201A091E301B091C7
:100DF000E4010196A11DB11D8093E1019093E201F0
:100E0000A093E301B093E401BF91AF919F918F91C3
:100E10003F912F910F900FBE0F901F90189526E8CD
:100E2000230F0296A11DB11DD2CF1F920F920FB6B4
:100E30000F9211242F933F934F935F936F937F9360
:100E40008F939F93AF93BF93EF93FF938091B900DC
:100E5000887F803609F44AC0F0F5883209F4A7C0CB
:100E600018F5803109F49BC0B8F4882309F4F9C05F
:100E7000883009F494C0FF91EF91BF91AF919F9199
:100E80008F917F916F915F914F913F912F910F9033
:100E90000FBE0F901F901895883109F488C08032DA
:100EA00051F78093130214C0803409F49DC040F4BC
:100EB0008033B9F38833F9F68093130285ECB0C020
:100EC000803509F485C0883509F496C0883499F6D0
:100ED0000E943B06D0CF883909F48CC038F588379A
:100EE00029F050F4883611F0803729F683E080939A
:100EF00015021092DF0157C0883809F47BC0803991
:100F000019F0803809F0B7CF8091DF01803208F006
:100F100071C0E091DF0181E08E0F8093DF0180914D
:100F2000BB00F0E0E154FE4F80833DC0803B39F0D0
:100F3000E0F4803A09F479C0883A09F09CCF84E063
:100F4000809315021092BE011092BD01E091E7015D
:100F5000F091E80109958091BD0181110FC081E0F8
:100F60008093BD0110929D0109C0803C09F4A6CF79
:100F7000883C09F4A3CF883B09F07DCFE091BE0106
:100F800081E08E0F8093BE01F0E0E356FE4F80813A
:100F90008093BB009091BE018091BD0129C08091DA
:100FA000F0018093BB0085EC8093BC0064CF9091EE
:100FB000120280911102981758F5E091120281E017
:100FC0008E0F80931202F0E0EF50FE4F8081E9CF48
:100FD000E091120281E08E0F809312028091BB009B
:100FE000F0E0EF50FE4F8083909112028091110249
:100FF0009817C8F285E8D8CFE091120281E08E0FF1
:10100000809312028091BB00F0E0EF50FE4F80838E
:101010008091140281115CCF81E08093EF0184EA1A
:101020008093BC001092150226CF85EC8093BC0003
:10103000109215028091DF01803230F4E091DF01DF
:10104000F0E0E154FE4F10826091DF0170E0E0912A
:10105000E501F091E6018FEB91E009951092DF0137
:101060000ACF1092130234CFEFE3F2E01382128220
:1010700088EE93E0A0E0B0E084839583A683B783F5
:1010800024E031E03183208325EC30E0358724876C
:1010900024EC30E03787268720EC30E0318B208B42
:1010A00021EC30E0338B228B22EC30E0358B248B2B
:1010B00026EC30E0378B268B118E128E138E148E19
:1010C000ECEDF2E01382128284839583A683B783CA
:1010D00086E191E0918380830895CF93DF93CDB72C
:1010E000DEB72A970FB6F894DEBF0FBECDBF789457
:1010F00084B5826084BD84B5816084BD85B582601D
:1011000085BD85B5816085BD80916E0081608093CD
:101110006E00109281008091810082608093810036
:101120008091810081608093810080918000816046
:10113000809380008091B10084608093B1008091A1
:10114000B00081608093B00080917A0084608093C9
:101150007A0080917A00826080937A0080917A0090
:10116000816080937A0080917A00806880937A0011
:101170001092C100E0914F02F091500282E0808312
:10118000E0914B02F0914C021082E0914D02F091FF
:101190004E0280E1808310925702E0915302F09159
:1011A000540286E08083E0915102F09152028081E6
:1011B00080618083E0915102F091520280818860C9
:1011C0008083E0915102F091520280818068808397
:1011D000E0915102F091520280818F7D80831092C4
:1011E000EA011092E90110921C0210923E020E9444
:1011F000290282E890E09093E8018093E70183E878
:1012000090E09093E6018093E50141E050E0BE015B
:10121000665F7F4F89E00E943705882341F18A8508
:1012200080FF0AC046E050E0BE016F5F7F4F83E061
:101230000E9437058823D9F084E08987BE01675F63
:101240007F4F80E00E94DE03882389F080EE88874C
:10125000BE01685F7F4F81E00E94DE03882339F082
:101260001F82BE01695F7F4F82E00E94DE0300E0C3
:1012700010E08FB7F894C090EB01D090EC01E090B3
:10128000ED01F090EE018FBF41E050E0BE016F5FD5
:101290007F4F89E00E9437058823B9F0898180FD5E
:1012A00019C02FB7F8948091EB019091EC01A091B7
:1012B000ED01B091EE012FBF8C199D09AE09BF0958
:1012C000893E9340A105B105F8F28EE591E00E94B8
:1012D0000A0499C046E050E0BE016F5F7F4F83E093
:1012E0000E943705882389F36981062E000C770B4D
:1012F000962F88276A81680F792F711D072E000CA1
:10130000880B990B0E945D0B6B017C0120E030E0A3
:1013100040E855EC0E94B50A812C912C50ECA52E8A
:101320005FE7B52E882351F020E030E046E653E435
:10133000C701B6010E94BA0A4B015C016D81062EFD
:10134000000C770B962F88276E81680F792F711DFF
:10135000072E000C880B990B0E945D0B6B017C0122
:1013600020E030E040E855EC0E94B50A882309F4FB
:1013700059C020E030E046E653E4C701B6010E94C0
:10138000BA0A6B017C016B81062E000C770B962F3D
:1013900088276C81680F792F711D072E000C880B30
:1013A000990B0E945D0B2B013C0120E030E040E8EE
:1013B00055EC0E94B50A882309F463C020E030E0B0
:1013C00046E653E4C301B2010E94BA0A2B013C0174
:1013D00080E391E00E940A0442E0C501B4010E944A
:1013E0005B0481E591E00E940A0442E0C701B60176
:1013F0000E945B0486E591E00E940A0442E0C3017A
:10140000B2010E945B048BE591E00E940A040E94F5
:10141000DD014B015C0198EEC92E93E0D92EE12C41
:10142000F12C17C0C12CD12C30ECE32E3FE7F32E6A
:10143000AACF81E0C81AD108E108F10828EE820E8F
:1014400023E0921EA11CB11CC114D104E104F104DB
:1014500061F00E94DD01681979098A099B09683EDB
:1014600073408105910528F7F4CF0115110509F4A2
:1014700000CF0E94EE00882309F4FBCE0E940000FA
:10148000F8CE412C512C80EC682E8FE7782EA0CF1F
:101490005058BB27AA270E94600A0C94D30B0E94C5
:1014A000C50B38F00E94CC0B20F039F49F3F19F4A3
:1014B00026F40C94C20B0EF4E095E7FB0C94BC0BE5
:1014C000E92F0E94E40B58F3BA17620773078407E9
:1014D000950720F079F4A6F50C94060C0EF4E0952F
:1014E0000B2EBA2FA02D0B01B90190010C01CA01DE
:1014F000A0011124FF27591B99F0593F50F4503E89
:1015000068F11A16F040A22F232F342F4427585F7A
:10151000F3CF469537952795A795F0405395C9F792
:101520007EF41F16BA0B620B730B840BBAF091504A
:10153000A1F0FF0FBB1F661F771F881FC2F70EC0E9
:10154000BA0F621F731F841F48F4879577956795BC
:10155000B795F7959E3F08F0B0CF9395880F08F0A8
:101560009927EE0F9795879508950E94980B08F498
:1015700081E008950E94CE0A0C94D30B0E94CC0BFC
:1015800058F00E94C50B40F029F45F3F29F00C94FD
:10159000BC0B51110C94070C0C94C20B0E94E40B71
:1015A00068F39923B1F3552391F3951B550BBB2792
:1015B000AA2762177307840738F09F5F5F4F220FD7
:1015C000331F441FAA1FA9F335D00E2E3AF0E0E8CE
:1015D00032D091505040E695001CCAF72BD0FE2F18
:1015E00029D0660F771F881FBB1F261737074807AC
:1015F000AB07B0E809F0BB0B802DBF01FF27935864
:101600005F4F3AF09E3F510578F00C94BC0B0C9460
:10161000070C5F3FE4F3983ED4F386957795679582
:10162000B795F7959F5FC9F7880F911D9695879598
:1016300097F90895E1E0660F771F881FBB1F6217B7
:1016400073078407BA0720F0621B730B840BBA0B75
:10165000EE1F88F7E09508950E94EC0B88F09F57E5
:1016600098F0B92F9927B751B0F0E1F0660F771FC6
:10167000881F991F1AF0BA95C9F714C0B13091F0BC
:101680000E94060CB1E008950C94060C672F782F89
:101690008827B85F39F0B93FCCF386957795679581
:1016A000B395D9F73EF490958095709561957F4FED
:1016B0008F4F9F4F0895E89409C097FB3EF4909593
:1016C0008095709561957F4F8F4F9F4F9923A9F01B
:1016D000F92F96E9BB279395F695879577956795AA
:1016E000B795F111F8CFFAF4BB0F11F460FF1BC0EE
:1016F0006F5F7F4F8F4F9F4F16C0882311F096E981
:1017000011C0772321F09EE8872F762F05C066232E
:1017100071F096E8862F70E060E02AF09A95660FE7
:10172000771F881FDAF7880F9695879597F90895A0
:10173000990F0008550FAA0BE0E8FEEF16161706E2
:10174000E807F907C0F012161306E407F50798F04A
:10175000621B730B840B950B39F40A2661F0232B63
:10176000242B252B21F408950A2609F4A140A695DF
:101770008FEF811D811D089597F99F6780E870E0C4
:1017800060E008959FEF80EC089500240A941616F7
:10179000170618060906089500240A94121613065F
:1017A000140605060895092E0394000C11F48823ED
:1017B00052F0BB0F40F4BF2B11F460FF04C06F5F09
:1017C0007F4F8F4F9F4F089557FD9058440F551FDF
:1017D00059F05F3F71F04795880F97FB991F61F0B3
:1017E0009F3F79F087950895121613061406551F2A
:1017F000F2CF4695F1DF08C0161617061806991F96
:10180000F1CF86957105610508940895E894BB278A
:1018100066277727CB0197F908950E94980B08F463
:101820008FEF08950E94250C0C94D30B0E94C50BDA
:1018300038F00E94CC0B20F0952311F00C94BC0BD7
:101840000C94C20B11240C94070C0E94E40B70F34F
:10185000959FC1F3950F50E0551F629FF001729F55
:10186000BB27F00DB11D639FAA27F00DB11DAA1F64
:10187000649F6627B00DA11D661F829F2227B00DB1
:10188000A11D621F739FB00DA11D621F839FA00D3C
:10189000611D221F749F3327A00D611D231F849F8C
:1018A000600D211D822F762F6A2F11249F575040E3
:1018B0009AF0F1F088234AF0EE0FFF1FBB1F661F5E
:1018C000771F881F91505040A9F79E3F510580F027
:1018D0000C94BC0B0C94070C5F3FE4F3983ED4F3DC
:1018E000869577956795B795F795E7959F5FC1F7CB
:1018F000FE2B880F911D9695879597F908950E9464
:10190000980B880B990B0895A1E21A2EAA1BBB1BFA
:10191000FD010DC0AA1FBB1FEE1FFF1FA217B307BB
:10192000E407F50720F0A21BB30BE40BF50B661FD1
:10193000771F881F991F1A9469F760957095809595
:1019400090959B01AC01BD01CF010895EE0FFF1FE3
:101950000590F491E02D0994F894FFCF0000000069
:1019600024018400B1007101E200C000D400000035
:101970000000AF038203070458037B036803590385
:101980006E616E00696E66006F7666004D61676E0F
:1019900065746963206669656C64202847617573A6
:1019A0007320756E697473293A207820002C207991
:1019B00020002C207A20000D0A0043616E6E6F74A7
:1019C000206D656173757265206D61676E65746900
:0819D00063206669656C640088
:107E0000112484B714BE81FFF0D085E080938100F7
:107E100082E08093C00088E18093C10086E0809377
:107E2000C20080E18093C4008EE0C9D0259A86E02C
:107E300020E33CEF91E0309385002093840096BBD3
:107E4000B09BFECF1D9AA8958150A9F7CC24DD24C4
:107E500088248394B5E0AB2EA1E19A2EF3E0BF2EE7
:107E6000A2D0813461F49FD0082FAFD0023811F036
:107E7000013811F484E001C083E08DD089C08234E0
:107E800011F484E103C0853419F485E0A6D080C0E4
:107E9000853579F488D0E82EFF2485D0082F10E0AE
:107EA000102F00270E291F29000F111F8ED06801E7
:107EB0006FC0863521F484E090D080E0DECF843638
:107EC00009F040C070D06FD0082F6DD080E0C81688
:107ED00080E7D80618F4F601B7BEE895C0E0D1E017
:107EE00062D089930C17E1F7F0E0CF16F0E7DF06D8
:107EF00018F0F601B7BEE89568D007B600FCFDCFD4
:107F0000A601A0E0B1E02C9130E011968C91119780
:107F100090E0982F8827822B932B1296FA010C0160
:107F200087BEE89511244E5F5F4FF1E0A038BF0790
:107F300051F7F601A7BEE89507B600FCFDCF97BE46
:107F4000E89526C08437B1F42ED02DD0F82E2BD052
:107F50003CD0F601EF2C8F010F5F1F4F84911BD097
:107F6000EA94F801C1F70894C11CD11CFA94CF0C13
:107F7000D11C0EC0853739F428D08EE10CD085E9AC
:107F80000AD08FE07ACF813511F488E018D01DD067
:107F900080E101D065CF982F8091C00085FFFCCF94
:107FA0009093C60008958091C00087FFFCCF809118
:107FB000C00084FD01C0A8958091C6000895E0E648
:107FC000F0E098E1908380830895EDDF803219F02E
:107FD00088E0F5DFFFCF84E1DECF1F93182FE3DFCA
:107FE0001150E9F7F2DF1F91089580E0E8DFEE27F6
:047FF000FF270994CA
:027FFE00040479
:00000001FF
