:100000000C94D5000C94FD000C94FD000C94FD00A4
:100010000C94FD000C94FD000C94FD000C94FD006C
:100020000C94FD000C94FD000C94FD000C94FD005C
:100030000C94FD000C94FD000C94FD000C94FD004C
:100040000C9457040C94FD000C9425040C94FF03AD
:100050000C94FD000C94FD000C94FD000C94FD002C
:100060000C94A1040C94FD0000407A10F35A00A0F7
:10007000724E18090010A5D4E80000E87648170071
:1000800000E40B54020000CA9A3B000000E1F505B1
:10009000000080969800000040420F000000A086FB
:1000A00001000000102700000000E803000000002D
:1000B0006400000000000A000000000001000000D1
:1000C00000002C76D888DC674F0823DFC1DFAE59EB
:1000D000E1B1B796E5E3E453C63AE651997696E87E
:1000E000E6C28426EB898C9B62ED407C6FFCEFBC02
:1000F0009C9F40F2BAA56FA5F490055A2AF75C932D
:100100006B6CF9676DC11BFCE0E40D47FEF520E662
:10011000B500D0ED902E0300943577050080841E45
:10012000080000204E0A000000C80C333333330FA0
:10013000986E12831141EF8D2114893BE65516CF3D
:10014000FEE6DB18D1844B381BF77C1D901DA4BB49
:10015000E424203284725E228100C9F124ECA1E5FE
:100160003D2700000000250028002B0004040404A3
:100170000404040402020202020203030303030351
:10018000010204081020408001020408102001022E
:10019000040810200000000800020100000304070A
:1001A0000000000000000000C00511241FBECFEFBA
:1001B000D8E0DEBFCDBF22E0A4E7B1E001C01D92D0
:1001C000A43EB207E1F711E0A0E0B1E0E4E7FDE111
:1001D00002C005900D92A437B107D9F710E0C5ED24
:1001E000D0E004C02197FE010E94C00CC43DD1079D
:1001F000C9F70E94F9050C94B80E0C9400000895FC
:100200000895AF92BF92CF92DF92EF92FF920F9339
:100210001F93CF93DF936C017B018B01040F151F9C
:10022000EB015E01AE18BF08C017D10759F0699104
:10023000D601ED91FC910190F081E02DC601099568
:10024000892B79F7C501DF91CF911F910F91FF9015
:10025000EF90DF90CF90BF90AF900895FC01538D49
:10026000448D252F30E0842F90E0821B930B541790
:1002700010F0CF96089501970895FC01918D828D1D
:10028000981761F0A28DAE0FBF2FB11D5D968C91B6
:10029000928D9F5F9F73928F90E008958FEF9FEFF5
:1002A0000895FC01918D828D981731F0828DE80FB1
:1002B000F11D858D90E008958FEF9FEF0895FC016B
:1002C000918D228D892F90E0805C9F4F821B910938
:1002D0008F739927089587E392E00E945F0121E0E0
:1002E000892B09F420E0822F089580E090E0892B8B
:1002F00029F00E946B0181110C9400000895FC010B
:10030000A48DA80FB92FB11DA35ABF4F2C91848D76
:1003100090E001968F739927848FA689B7892C93D3
:10032000A089B1898C91837080648C93938D848D26
:10033000981306C00288F389E02D80818F7D808329
:100340000895EF92FF920F931F93CF93DF93EC01E9
:1003500081E0888F9B8D8C8D98131AC0E889F9896C
:10036000808185FF15C09FB7F894EE89FF8960836F
:10037000E889F98980818370806480839FBF81E0F0
:1003800090E0DF91CF911F910F91FF90EF90089532
:10039000F62E0B8D10E00F5F1F4F0F731127E02E0D
:1003A0008C8D8E110CC00FB607FCFACFE889F98945
:1003B000808185FFF5CFCE010E947F01F1CFEB8DCB
:1003C000EC0FFD2FF11DE35AFF4FF0829FB7F89419
:1003D0000B8FEA89FB8980818062CFCFCF93DF9337
:1003E000EC01888D8823B9F0AA89BB89E889F9894D
:1003F0008C9185FD03C0808186FD0DC00FB607FC82
:10040000F7CF8C9185FFF2CF808185FFEDCFCE01B4
:100410000E947F01E9CFDF91CF91089590E0FC0128
:10042000EC56FE4F2491FC01E058FE4F3491FC0144
:10043000E459FE4FE491EE23C9F0222339F0233032
:1004400001F1A8F4213019F1223029F1F0E0EE0F8A
:10045000FF1FEE59FE4FA591B4918FB7F894EC9120
:10046000611126C030953E233C938FBF08952730FD
:10047000A9F02830C9F0243049F7809180008F7DA1
:1004800003C0809180008F7780938000DFCF84B598
:100490008F7784BDDBCF84B58F7DFBCF8091B0009B
:1004A0008F778093B000D2CF8091B0008F7DF9CF4D
:1004B0003E2BDACF3FB7F8948091BD019091BE01F9
:1004C000A091BF01B091C00126B5A89B05C02F3FE8
:1004D00019F00196A11DB11D3FBFBA2FA92F982F6A
:1004E0008827BC01CD01620F711D811D911D42E065
:1004F000660F771F881F991F4A95D1F7089520919D
:100500009501260F3327331F21323105ECF420915A
:100510000F02FC0190E080E0243069F082E0089551
:10052000A09195012191AC014B585E4FA40FB52FBE
:10053000B11D2C930196861798F380919501680F51
:100540006093950180E0089581E0089510920F0274
:1005500081E080930E021092090261E082E10E9424
:100560000E0261E083E10E940E02E9EBF0E080817F
:100570008E7F808380818D7F808388E48093B80024
:1005800085E48093BC000895CF93DF9391E090932E
:1005900074018823B9F0C091B800D091BA0080915D
:1005A000BC008A7B8093BC0060E082E10E940E0266
:1005B00060E083E10E940E020E94A602D093BA007E
:1005C000C093B800DF91CF9108950895E09116028D
:1005D00080911502E81730F4F0E0E95EFD4F80816C
:1005E00090E008958FEF9FEF08959091160280910B
:1005F00015022FEF3FEF981748F4E92FF0E0E95E7E
:10060000FD4F208130E09F5F90931602C90108954D
:100610008091150290911602891B990B0895CF9233
:10062000DF92EF92FF920F931F93CF93DF937C01A2
:10063000CB018A012091E801222389F0EB016B01B3
:10064000C40ED51ECC15DD0569F06991D701ED9179
:10065000FC910190F081E02DC7010995F3CF642F43
:100660000E947F02C801DF91CF911F910F91FF90EF
:10067000EF90DF90CF900895CF93DF931F92CDB787
:10068000DEB769832091E8012223F9F02091E5018A
:10069000203258F021E030E0FC013383228390E0E7
:1006A00080E00F90DF91CF9108958091E601E82FCF
:1006B000F0E0EB53FE4F998190838F5F8093E601CA
:1006C0008093E50181E090E0ECCF61E0CE010196FE
:1006D0000E947F02F7CF90E080E0089542E050E072
:1006E0006AE271E087E392E00C940101CF93DF931B
:1006F000FC0101900020E9F73197AF01481B590B2D
:10070000BC0187E392E00E940101EC010E946E03AC
:100710008C0F9D1FDF91CF910895CF93DF93EC0154
:1007200088819981009711F00E94620D19821882C8
:100730001D821C821B821A82DF91CF9108950F9334
:100740001F93CF93DF93EC0188819981009759F033
:100750002A813B812617370730F081E0DF91CF9166
:100760001F910F9108958B016F5F7F4F0E94EB0DDA
:10077000009759F0998388831B830A832C813D81DC
:10078000232B59F7FC011082E8CF80E0E7CF85EDFD
:100790008093BC008091110290911202A0911302EB
:1007A000B09114020796A11DB11D23E0B695A7953F
:1007B000979587952A95D1F72091BC0024FD03C019
:1007C00010920F020895409111025091120260910F
:1007D000130270911402452B462B472B69F30097A7
:1007E000A105B10541F025E32A95F1F70000019735
:1007F000A109B109E1CF809110020C94C4021F92AB
:100800000F920FB60F9211242F933F934F935F9344
:100810006F937F938F939F93AF93BF93EF93FF93C8
:1008200087E392E00E947F01FF91EF91BF91AF912A
:100830009F918F917F916F915F914F913F912F91F8
:100840000F900FBE0F901F9018951F920F920FB62A
:100850000F9211242F938F939F93EF93FF93E09127
:100860004702F09148028081E0914D02F0914E02E2
:1008700082FD1BC09081809150028F5F8F73209109
:100880005102821741F0E0915002F0E0E95CFD4F27
:10089000958F80935002FF91EF919F918F912F91AF
:1008A0000F900FBE0F901F9018958081F4CF1F926C
:1008B0000F920FB60F9211242F933F938F939F9314
:1008C000AF93BF938091B9019091BA01A091BB0100
:1008D000B091BC013091B80123E0230F2D3758F5BA
:1008E0000196A11DB11D2093B8018093B901909389
:1008F000BA01A093BB01B093BC018091BD0190915E
:10090000BE01A091BF01B091C0010196A11DB11D12
:100910008093BD019093BE01A093BF01B093C0012D
:10092000BF91AF919F918F913F912F910F900FBEEB
:100930000F901F90189526E8230F0296A11DB11D58
:10094000D2CF1F920F920FB60F9211242F933F9385
:100950004F935F936F937F938F939F93AF93BF93C7
:10096000EF93FF938091B900887F803609F44AC0E5
:10097000F0F5883209F4A7C018F5803109F49BC05E
:10098000B8F4882309F4F9C0883009F494C0FF91C1
:10099000EF91BF91AF919F918F917F916F915F91F7
:1009A0004F913F912F910F900FBE0F901F90189570
:1009B000883109F488C0803251F780930D0214C049
:1009C000803409F49DC040F48033B9F38833F9F6DC
:1009D00080930D0285ECB0C0803509F485C0883560
:1009E00009F496C0883499F60E94C703D0CF88399D
:1009F00009F48CC038F5883729F050F4883611F0A6
:100A0000803729F683E080930F021092B70157C018
:100A1000883809F47BC0803919F0803809F0B7CFE5
:100A20008091B701803208F071C0E091B70181E098
:100A30008E0F8093B7018091BB00F0E0E956FE4F26
:100A400080833DC0803B39F0E0F4803A09F479C0FE
:100A5000883A09F09CCF84E080930F0210929601AF
:100A600010929501E091C301F091C4010995809124
:100A7000950181110FC081E080939501109275015D
:100A800009C0803C09F4A6CF883C09F4A3CF883B79
:100A900009F07DCFE091960181E08E0F8093960161
:100AA000F0E0EB58FE4F80818093BB00909196015F
:100AB0008091950129C080910A028093BB0085EC4A
:100AC0008093BC0064CF90910C0280910B02981728
:100AD00058F5E0910C0281E08E0F80930C02F0E05B
:100AE000E751FE4F8081E9CFE0910C0281E08E0F4B
:100AF00080930C028091BB00F0E0E751FE4F8083B1
:100B000090910C0280910B029817C8F285E8D8CF1B
:100B1000E0910C0281E08E0F80930C028091BB006B
:100B2000F0E0E751FE4F808380910E0281115CCF8F
:100B300081E08093090284EA8093BC0010920F0246
:100B400026CF85EC8093BC0010920F028091B701F4
:100B5000803230F4E091B701F0E0E956FE4F1082A8
:100B60006091B70170E0E091C101F091C20187E9A5
:100B700091E009951092B7010ACF10920D0234CF7F
:100B8000E7E3F2E01382128288EE93E0A0E0B0E0A7
:100B900084839583A683B7832AE031E03183208361
:100BA00025EC30E03587248724EC30E03787268732
:100BB00020EC30E0318B208B21EC30E0338B228B2A
:100BC00022EC30E0358B248B26EC30E0378B268B03
:100BD000118E128E138E148EE4EDF2E013821282C7
:100BE00084839583A683B7838CE191E0918380838E
:100BF0000895CF93DF93CDB7DEB7A7970FB6F894DC
:100C0000DEBF0FBECDBF789484B5826084BD84B54D
:100C1000816084BD85B5826085BD85B5816085BDF7
:100C200080916E00816080936E00109281008091AF
:100C30008100826080938100809181008160809337
:100C40008100809180008160809380008091B1005C
:100C500084608093B1008091B00081608093B00087
:100C600080917A00846080937A0080917A0082601B
:100C700080937A0080917A00816080937A008091DD
:100C80007A00806880937A001092C100E091470258
:100C9000F091480282E08083E0914302F0914402A7
:100CA0001082E0914502F091460280E1808310922B
:100CB0004F02E0914B02F0914C0286E08083E0917C
:100CC0004902F0914A02808180618083E09149026B
:100CD000F0914A02808188608083E0914902F0911E
:100CE0004A02808180688083E0914902F0914A0243
:100CF00080818F7D808310921602109215021092CF
:100D0000E6011092E5010E94A6028FEF90E0909319
:100D1000C4018093C30180E091E09093C20180936D
:100D2000C10181E08093E80183E28093E70160E103
:100D300084ED92E00E943C038C01F090E50120E2FA
:100D400081E02F1508F499C00E945A024B015C0102
:100D500080910F0281116BC082E080930F0281E0CD
:100D600080930E028FEF80930D0210920C02F0928E
:100D70000B02A5ECB1E0E9EEF1E080E0F81224C14D
:100D800010920A0280910A02866480930A0280917E
:100D90000902813009F01CC1109209020E945A0216
:100DA0006B017C0180910A028093BB00809111024B
:100DB00090911202A0911302B0911402892B8A2BF8
:100DC0008B2BA1F00E945A02809011029090120287
:100DD000A0901302B09014026C197D098E099F092E
:100DE00086169706A806B90608F442C08091BC0092
:100DF00083FDD8CF85EC8093BC000E945A026B0122
:100E00007C0180910F02823009F4E4C080910D02D0
:100E10008F3F09F401C180910D02803209F4FEC0B8
:100E200080910D02803309F4FBC084E026C08091DC
:100E3000110290911202A0911302B0911402892B19
:100E40008A2B8B2B09F484CF0E945A024090110206
:100E50005090120260901302709014026819790980
:100E60008A099B09461657066806790608F070CF6E
:100E7000809110020E94C40285E01092E601109257
:100E8000E5011092E8018111CDC00130110509F092
:100E9000C9C025EEE22E30E0C32E30E0D32EFF2471
:100EA000F39433243A9495EC292E0E945A024B0174
:100EB0005C0188EE482E83E0582E612C712C0E9434
:100EC0005A02681979098A099B09683E73408105AD
:100ED0009105A8F381E0481A51086108710828EECD
:100EE000820E23E0921EA11CB11C41145104610426
:100EF000710429F70E945A022B013C0180910F02D4
:100F0000811195C0F0920F02F0920E0230920D0204
:100F100010920C02F0920B02F0920A0280910A02E7
:100F2000866480930A0280910902813009F030C101
:100F3000109209020E945A022B013C0180910A0280
:100F40008093BB008091110290911202A091130234
:100F5000B0911402892B8A2B8B2BA1F00E945A028C
:100F6000009111021091120220911302309114028B
:100F7000641975098609970906171707280739079D
:100F800008F476C08091BC0083FDD8CF2092BC00CD
:100F90000E945A022B013C0180910F02813009F41A
:100FA000FAC080910C02823008F017C180910C02C7
:100FB000E9EEF1E0A7E1B2E090E0981709F45DC036
:100FC00021912D939F5FF9CF9D9191938F5FD6CE05
:100FD00085EE11CF8091110290911202A09113021F
:100FE000B0911402892B8A2B8B2B09F40ACF0E9413
:100FF0005A028090110290901202A0901302B090B9
:1010000014026C197D098E099F0986169706A80699
:10101000B90608F0F6CE2CCF80E02FCF82E02DCF9E
:1010200083E02BCF8DE291E00E947603FFCF809189
:10103000110290911202A0911302B0911402892B17
:101040008A2B8B2B09F45ACF0E945A02009111026D
:101050001091120220911302309114026419750943
:1010600086099709061717072807390708F046CF9A
:10107000809110020E94C40280E0109216028093B8
:101080001502823009F0ABC084ED92E00E94F502B7
:101090008C0184ED92E00E94F5021BA21AA21DA20F
:1010A0001CA21FA21EA2902FBC0190E080E00E9413
:1010B000890B2AE939E949E95FE30E944E0C8E0168
:1010C0000F5F1F4F22E044E00E9434095C0100974B
:1010D00009F095C0CE0182960E948D031A82198272
:1010E0001C821B821E821D826CE070E0CE01019684
:1010F0000E949F0381119BC0CE0101960E948D0327
:10110000AAA0BBA0A114B10409F49CC00EA11FA108
:1011100001151105B9F08D819E81080F191FB801C5
:10112000CE0101960E949F03882309F48BC0298178
:101130003A818D819E81B501820F931F0E94B10E6D
:101140001E830D830D811E810C5F1F4FB801CE01E0
:1011500001960E949F0381117AC0CE0101960E94E0
:101160008D034D815E8169817A8187E392E00E94DF
:1011700001010E946E0389819A81009711F00E94FB
:10118000620D8AA19BA1009771F10E94620D2BC094
:10119000E092BC00FDCE8091110290911202A091CC
:1011A0001302B0911402892B8A2B8B2B09F4F4CEF5
:1011B0000E945A0200911102109112022091130212
:1011C00030911402641975098609970906171707E3
:1011D0002807390708F0E0CE4BCF82E0E9CE87E45C
:1011E00091E00E947603C114D10409F45ECE0E94FE
:1011F0006B01882309F457CE0E94000054CEFC01F5
:1012000001900020E9F731978F01081B190BB801F5
:10121000CE0182960E949F03882309F45BCF1FA30F
:101220000EA3B5018AA19BA10E94B10E57CF8CE0FD
:1012300090E09E838D8362E671E089819A810E94AD
:10124000B10E5ECFCE0101960E948D037BCF298126
:101250003A818D819E816FE671E0820F931F0E941B
:10126000B10E1E830D837DCFEF920F931F93CF930B
:10127000DF93E80134E047FD34E1042E000C550B08
:1012800057FF03C0519541955109E32E022F242F9A
:10129000AE010E945209CE01DF91CF911F910F91B3
:1012A000EF900895A9E0B0E0E8E5F9E00C941D0C9A
:1012B0006A01F22EB02E102FFBE3AF2EA01608F419
:1012C0001BE31F5F012F27E0AE014F5F5F4F0E94BE
:1012D000B10ABC018981982F9970913009F43FC0FF
:1012E0009BE2E1FC04C09E2D9170E0FC3AC05E2DB3
:1012F0005071E82FE87083FF46C084E0911101C06F
:1013000083E0EF2DE81B8F1508F0E0E0D6018E2F6B
:1013100020E2552351F1992329F0D6019C93C6016F
:1013200001966C0196012D5F3F4FE2FE24C08EE4D2
:10133000D6018C9391E411969C93119712968C93FD
:10134000D9018E2F90E281111BC0E20FF32FF11D06
:1013500010828EEF9FEF2996ECE00C94390C9DE201
:10136000C6CF90E2C4CF2D9381508111FCCFCE0E19
:10137000D11CE0E0D0CF8EE6D6018C9391E6DBCF96
:101380009D938150E0CF482F447082FF3DC084E0A0
:10139000911101C083E08F1510F4EF2DE81BD601E9
:1013A0008E2F20E2552309F1992329F0D6019C9331
:1013B000C60101966C0196012D5F3F4FE2FE1BC0F6
:1013C00089E4D6018C938EE411968C93119786E470
:1013D00012968C93D9018E2F90E2882309F4B5CF11
:1013E0009D938150FACF2D9381508111FCCFCE0E69
:1013F000D11CE0E0D9CF89E6D6018C938EE6119618
:101400008C93119786E6E4CF9B0177FF02C030E012
:1014100020E0A1E0B0E0911102C0B0E0A0E0F9014D
:101420003196AE0FBF1F8B2C912CBB2009F461C0ED
:101430005401EFEFAE1ABE0AAA0DBB1DFA161B0629
:1014400019F014F04F2D4A1B511188C0E3FC59C00C
:101450007601A42FB0E2A1114FC0C40ED11C992374
:1014600009F45BC040E0D6011196F60190836D014E
:10147000552309F448C0012F060F9A81582F507147
:1014800084FF03C0913309F4015010160CF047C0DB
:10149000093008F008E0EEE2FE2E5B01A01AB10868
:1014A00085019194819491082F3F320729F4D60148
:1014B000FC92F60131966F016217730794F10217DF
:1014C00013077CF5DB01A21BB30BAA24A394B12C58
:1014D000AC0EBD1EAA0DBB1D11968C912150310979
:1014E000D601119628153905F4F0F60180836D01B7
:1014F000DBCFB12CA12CA0CFF701B1937F01A1507C
:10150000AACF9111B0CFD601942F50E302C05D93C2
:1015100091509111FCCFC40ED11C40E0ACCF01E042
:10152000BACF80E3DBCF6217730731F4963388F4C8
:10153000953311F4552369F0F6018083FD01842F62
:1015400090E2811108C0A40FB11D1C9290E080E0D0
:1015500002CF81E3F1CF91938150F3CF911183CFEB
:101560008ACF283008F027E03327DA01990F311DA0
:1015700087FD916000966105710539F432602E5F38
:101580003D9330E32A95E1F708959F3F30F080388E
:101590007105610509F03C5F3C5F3D93913008F0B7
:1015A0008068911DDF93CF931F930F93FF92EF926B
:1015B000192F987F9695E92F96959695E90FFF2715
:1015C000EE53FF4F99273327EE24FF24A701E701AD
:1015D00005900894079428F4360FE71EF81E491F5B
:1015E000511D660F771F881F991F0694A1F705905C
:1015F000079428F4E70EF81E491F561FC11D770FE8
:10160000881F991F661F0694A1F70590079428F478
:10161000F80E491F561FC71FD11D880F991F661F3F
:10162000771F0694A1F70590079420F4490F561FE1
:10163000C71FD81F990F661F771F881F0694A9F729
:1016400084911095177041F0D695C7955795479599
:10165000F794E7941A95C1F7E8E6F0E068941590DE
:10166000159135916591959105907FE27395E118FB
:10167000F10A430B560BC90BD009C0F7E10CF11E60
:10168000431F561FC91FD01D7EF4703311F48A9575
:10169000E6CFE894015030F0080F0AF40027021753
:1016A00008F4202F2395022F7A3328F079E37D93D5
:1016B0002A95E9F710C07D932A9589F606949795A7
:1016C0006795379517951794E118F10A430B560B58
:1016D000C90BD00998F023957E9173957A3308F061
:1016E00070E37C932013B8F77E9170617D9330F0A6
:1016F000839571E37D9370E32A95E1F71124EF90D0
:10170000FF900F911F91CF91DF91992787FD9095C1
:101710000895E89409C097FB3EF4909580957095E4
:1017200061957F4F8F4F9F4F9923A9F0F92F96E92D
:10173000BB279395F695879577956795B795F111A2
:10174000F8CFFAF4BB0F11F460FF1BC06F5F7F4F3F
:101750008F4F9F4F16C0882311F096E911C0772351
:1017600021F09EE8872F762F05C0662371F096E85A
:10177000862F70E060E02AF09A95660F771F881F29
:10178000DAF7880F9695879597F9089597F99F67E7
:1017900080E870E060E008959FEF80EC08950024F9
:1017A0000A941616170618060906089500240A94C6
:1017B00012161306140605060895092E0394000C4C
:1017C00011F4882352F0BB0F40F4BF2B11F460FFDB
:1017D00004C06F5F7F4F8F4F9F4F089557FD905804
:1017E000440F551F59F05F3F71F04795880F97FBE5
:1017F000991F61F09F3F79F087950895121613069F
:101800001406551FF2CF4695F1DF08C016161706CD
:101810001806991FF1CF8695710561050894089502
:10182000E894BB2766277727CB0197F908952F9275
:101830003F924F925F926F927F928F929F92AF9260
:10184000BF92CF92DF92EF92FF920F931F93CF93AD
:10185000DF93CDB7DEB7CA1BDB0B0FB6F894DEBF44
:101860000FBECDBF09942A88398848885F846E846A
:101870007D848C849B84AA84B984C884DF80EE80B4
:10188000FD800C811B81AA81B981CE0FD11D0FB6BD
:10189000F894DEBF0FBECDBFED0108950E94620C2B
:1018A0000C94DD0B0E94D60B58F00E94CF0B40F039
:1018B00029F45F3F29F00C94C60B51110C94110CC4
:1018C0000C94CC0B0E94EE0B68F39923B1F35523D3
:1018D00091F3951B550BBB27AA2762177307840743
:1018E00038F09F5F5F4F220F331F441FAA1FA9F3D9
:1018F00035D00E2E3AF0E0E832D091505040E695C7
:10190000001CCAF72BD0FE2F29D0660F771F881F27
:10191000BB1F261737074807AB07B0E809F0BB0B1A
:10192000802DBF01FF2793585F4F3AF09E3F51052E
:1019300078F00C94C60B0C94110C5F3FE4F3983EC6
:10194000D4F3869577956795B795F7959F5FC9F717
:10195000880F911D9695879597F90895E1E0660F98
:10196000771F881FBB1F621773078407BA0720F011
:10197000621B730B840BBA0BEE1F88F7E09508957A
:10198000EE0FFF1F0590F491E02D09940F931F9324
:10199000CF93DF938230910510F482E090E0E091E4
:1019A000E202F091E30230E020E0B0E0A0E0309706
:1019B00099F42115310509F44AC0281B390B24304C
:1019C0003105D8F58A819B816115710589F1FB018B
:1019D00093838283FE0111C0408151810281138172
:1019E00048175907E0F04817590799F4109761F024
:1019F00012960C93129713961C933296CF01DF9197
:101A0000CF911F910F9108950093E2021093E3028A
:101A1000F4CF2115310551F04217530738F0A901D1
:101A2000DB019A01BD01DF01F801C1CFEF01F9CF60
:101A30009093E3028093E202CDCFFE01E20FF31F09
:101A4000819391932250310939832883D7CF2091F4
:101A5000E0023091E102232B41F420910201309108
:101A600003013093E1022093E002209100013091C4
:101A700001012115310541F42DB73EB74091040114
:101A800050910501241B350BE091E002F091E10239
:101A9000E217F307A0F42E1B3F0B2817390778F045
:101AA000AC014E5F5F4F2417350748F04E0F5F1FA4
:101AB0005093E1024093E002819391939FCFF0E035
:101AC000E0E09CCFCF93DF930097E9F0FC013297E1
:101AD00013821282A091E202B091E302ED0130E0A4
:101AE00020E01097A1F420813181820F931F209173
:101AF000E0023091E1022817390709F061C0F09344
:101B0000E102E093E002DF91CF910895EA01CE1760
:101B1000DF07E8F54A815B819E0141155105B1F768
:101B2000E901FB83EA8349915991C40FD51FEC1752
:101B3000FD0761F4808191810296840F951FE90170
:101B400099838883828193819B838A83F0E0E0E09C
:101B500012968D919C9113970097B9F52D913C9118
:101B60001197CD010296820F931F2091E0023091D0
:101B7000E1022817390739F6309751F51092E30240
:101B80001092E202B093E102A093E002BCCFD383B3
:101B9000C28340815181840F951FC817D90761F412
:101BA0004E5F5F4F88819981480F591F5183408351
:101BB0008A819B81938382832115310509F0B0CFFF
:101BC000F093E302E093E2029ECFFD01DC01C0CF7F
:101BD00013821282D7CFB0E0A0E0E1EFFDE00C94D9
:101BE000190C8C01009751F4CB010E94C60C8C019A
:101BF000C801CDB7DEB7E0E10C94350CFC01E60F6F
:101C0000F71F9C0122503109E217F30708F49DC029
:101C1000D901CD91DC911197C617D70798F0C5303F
:101C2000D10530F3CE0104978617970708F3C61B3A
:101C3000D70B2297C193D1936D937C93CF010E94D0
:101C4000620DD6CF5B01AC1ABD0A4C018C0E9D1EF5
:101C5000A091E202B091E302512C412CF12CE12C35
:101C6000109731F58091E0029091E1028815990575
:101C700009F05CC04616570608F058C08091000174
:101C800090910101009741F48DB79EB740910401F6
:101C900050910501841B950BE817F90708F055C012
:101CA000F093E102E093E002F90171836083A0CF39
:101CB0008D919C91119712966C90129713967C902F
:101CC0001397A815B90559F56C0142E0C40ED11C53
:101CD000CA14DB0420F1AC014A195B09DA0112963F
:101CE000159780F06282738251834083D9016D938E
:101CF0007C93E114F10471F0D7011396FC93EE93F9
:101D0000129776CF22968C0F9D1FF90191838083C5
:101D1000F301EFCFF093E302E093E20269CF4816BC
:101D2000590608F42C017D01D3019ACFCB010E9402
:101D3000C60C7C01009749F0AE01B8010E94A80EC4
:101D4000C8010E94620D870153CF10E000E050CF20
:101D5000FB01DC0102C001900D9241505040D8F7C8
:101D60000895FB01DC0101900D920020E1F7089538
:041D7000F894FFCF15
:101D74000000E402800000000000A10101012E0126
:101D8400EE015F013D015101000000003C030F031F
:101D94006B03E5020803F502E6020D0A0043616ED7
:101DA4006E6F74207374617274206D6561737572E3
:101DB400656D656E74730043616E6E6F74206D653E
:101DC4006173757265206C756D696E6F7369747972
:101DD40021004C756D696E6F736974793A20002027
:041DE4006C757800A2
:00000001FF
