:100000000C945D000C9485000C9485000C94850084
:100010000C9485000C9485000C9485000C9485004C
:100020000C9485000C9485000C9485000C9485003C
:100030000C9485000C9485000C9485000C9485002C
:100040000C94CF020C9485000C949D020C947702C2
:100050000C9485000C9485000C9485000C9485000C
:100060000C9485000C94850000000008000201003B
:100070000003040700000000000000000000000072
:10008000250028002B0000000000240027002A0083
:10009000040404040404040402020202020203032E
:1000A0000303030301020408102040800102040836
:1000B0001020010204081020E40411241FBECFEF19
:1000C000D8E0DEBFCDBF13E0A0E0B1E0E2E3FAE0AC
:1000D00002C005900D92AC34B107D9F723E0ACE42F
:1000E000B3E001C01D92A23FB207E1F710E0CDE5F9
:1000F000D0E004C02197FE010E941105CC35D10744
:10010000C9F70E9419030C9417050C94000090E0A5
:10011000FC01EC55FF4F249180579F4FFC018491C7
:10012000882399F090E0880F991FFC01EA57FF4F50
:10013000A591B491FC01E458FF4F859194918FB73C
:10014000F894EC91E22BEC938FBF0895AF92BF929D
:10015000CF92DF92EF92FF920F931F93CF93DF9393
:100160006C017B018B01040F151FEB015E01AE18C2
:10017000BF08C017D10759F06991D601ED91FC91E4
:100180000190F081E02DC6010995892B79F7C50111
:10019000DF91CF911F910F91FF90EF90DF90CF9063
:1001A000BF90AF900895FC01538D448D252F30E012
:1001B000842F90E0821B930B541710F0CF96089574
:1001C00001970895FC01918D828D981761F0A28DA1
:1001D000AE0FBF2FB11D5D968C91928D9F5F9F7367
:1001E000928F90E008958FEF9FEF0895FC01918D1D
:1001F000828D981731F0828DE80FF11D858D90E08A
:1002000008958FEF9FEF0895FC01918D228D892F26
:1002100090E0805C9F4F821B91098F73992708950E
:1002200085E593E00E94040121E0892B09F420E098
:10023000822F089580E090E0892B29F00E94100120
:1002400081110C9400000895FC01A48DA80FB92F12
:10025000B11DA35ABF4F2C91848D90E001968F73EE
:100260009927848FA689B7892C93A089B1898C910D
:10027000837080648C93938D848D981306C002885C
:10028000F389E02D80818F7D80830895EF92FF9226
:100290000F931F93CF93DF93EC0181E0888F9B8DA9
:1002A0008C8D98131AC0E889F989808185FF15C063
:1002B0009FB7F894EE89FF896083E889F989808186
:1002C0008370806480839FBF81E090E0DF91CF9155
:1002D0001F910F91FF90EF900895F62E0B8D10E077
:1002E0000F5F1F4F0F731127E02E8C8D8E110CC0E6
:1002F0000FB607FCFACFE889F989808185FFF5CF31
:10030000CE010E942401F1CFEB8DEC0FFD2FF11DEA
:10031000E35AFF4FF0829FB7F8940B8FEA89FB896D
:1003200080818062CFCFCF93DF93EC01888D8823CB
:10033000B9F0AA89BB89E889F9898C9185FD03C048
:10034000808186FD0DC00FB607FCF7CF8C9185FF2D
:10035000F2CF808185FFEDCFCE010E942401E9CF4D
:10036000DF91CF91089590E0FC01E859FF4F24916F
:10037000FC01EC55FF4F3491FC01E057FF4FE49135
:10038000EE23C9F0222339F0233001F1A8F4213003
:1003900019F1223029F1F0E0EE0FFF1FE458FF4F72
:1003A000A591B4918FB7F894EC91611126C0309566
:1003B0003E233C938FBF08952730A9F02830C9F021
:1003C000243049F7809180008F7D03C080918000A8
:1003D0008F7780938000DFCF84B58F7784BDDBCFAC
:1003E00084B58F7DFBCF8091B0008F778093B00074
:1003F000D2CF8091B0008F7DF9CF3E2BDACF3FB7BF
:10040000F8948091510390915203A0915303B091BD
:10041000540326B5A89B05C02F3F19F00196A11DD6
:10042000B11D3FBFBA2FA92F982F8827BC01CD013E
:10043000620F711D811D911D42E0660F771F881F9D
:10044000991F4A95D1F708958F929F92AF92BF92CC
:10045000CF92DF92EF92FF920E94FF014B015C016D
:1004600084EFC82EDD24D394E12CF12C0E94FF01EF
:10047000681979098A099B09683E734081059105CD
:10048000A8F321E0C21AD108E108F10888EE880E2D
:1004900083E0981EA11CB11CC114D104E104F10435
:1004A00029F7FF90EF90DF90CF90BF90AF909F9093
:1004B0008F900895CF93DF93FC0101900020E9F71E
:1004C0003197AF01481B590BBC0185E593E00E94B1
:1004D000A600EC0142E050E062E171E085E593E0C6
:1004E0000E94A6008C0F9D1FDF91CF9108951F924F
:1004F0000F920FB60F9211242F933F934F935F9358
:100500006F937F938F939F93AF93BF93EF93FF93DB
:1005100085E593E00E942401FF91EF91BF91AF9197
:100520009F918F917F916F915F914F913F912F910B
:100530000F900FBE0F901F9018951F920F920FB63D
:100540000F9211242F938F939F93EF93FF93E0913A
:100550006503F09166038081E0916B03F0916C0379
:1005600082FD1BC0908180916E038F5F8F732091FD
:100570006F03821741F0E0916E03F0E0EB5AFC4FFD
:10058000958F80936E03FF91EF919F918F912F91A3
:100590000F900FBE0F901F9018958081F4CF1F927F
:1005A0000F920FB60F9211242F933F938F939F9327
:1005B000AF93BF9380914D0390914E03A0914F0351
:1005C000B091500330914C0323E0230F2D3758F5A1
:1005D0000196A11DB11D20934C0380934D03909370
:1005E0004E03A0934F03B093500380915103909119
:1005F0005203A0915303B09154030196A11DB11D64
:100600008093510390935203A0935303B0935403E8
:10061000BF91AF919F918F913F912F910F900FBEFE
:100620000F901F90189526E8230F0296A11DB11D6B
:10063000D2CF789484B5826084BD84B5816084BD56
:1006400085B5826085BD85B5816085BD80916E0070
:10065000816080936E0010928100809181008260A1
:1006600080938100809181008160809381008091DE
:1006700080008160809380008091B10084608093CD
:10068000B1008091B00081608093B00080917A00C9
:10069000846080937A0080917A00826080937A00EF
:1006A00080917A00816080937A0080917A008068DE
:1006B00080937A001092C100E0916503F091660387
:1006C00082E08083E0916103F09162031082E09107
:1006D0006303F09164038FEC808310926D03E091CB
:1006E0006903F0916A0386E08083E0916703F091EB
:1006F0006803808180618083E0916703F0916803E3
:10070000808188608083E0916703F0916803808135
:1007100080688083E0916703F091680380818F7D1A
:10072000808385E191E00E945A0280E00E94870068
:1007300081E00E94870082E00E94870083E00E949F
:10074000870084E00E94870085E00E94870086E0A1
:100750000E94870087E00E94870088E00E9487004F
:1007600089E00E9487008AE00E9487008BE00E9457
:1007700087008CE00E9487008DE00E948700C0E027
:10078000D0E08EE391E00E945A0261E080E00E9496
:10079000B3010E94240281E591E00E945A0260E0C8
:1007A00080E00E94B3010E94240283E691E00E944F
:1007B0005A0261E081E00E94B3010E94240286E7B0
:1007C00091E00E945A0260E081E00E94B3010E9421
:1007D000240288E891E00E945A0261E082E00E94CF
:1007E000B3010E9424028BE991E00E945A0260E06A
:1007F00082E00E94B3010E9424028DEA91E00E94EF
:100800005A0261E083E00E94B3010E94240280EC5E
:1008100091E00E945A0260E083E00E94B3010E94CE
:10082000240282ED91E00E945A0261E084E00E947D
:10083000B3010E94240285EE91E00E945A0260E01A
:1008400084E00E94B3010E94240287EF91E00E949D
:100850005A0261E085E00E94B3010E9424028AE00E
:1008600092E00E945A0260E085E00E94B3010E947B
:1008700024028CE192E00E945A0261E086E00E942C
:10088000B3010E9424028FE292E00E945A0260E0CB
:1008900086E00E94B3010E94240281E492E00E945B
:1008A0005A0261E087E00E94B3010E94240284E5BD
:1008B00092E00E945A0260E087E00E94B3010E9429
:1008C000240286E692E00E945A0261E088E00E94DB
:1008D000B3010E94240289E792E00E945A0260E07C
:1008E00088E00E94B3010E9424028BE892E00E94FB
:1008F0005A0261E089E00E94B3010E9424028EE95D
:1009000092E00E945A0260E089E00E94B3010E94D6
:10091000240280EB92E00E945A0261E08AE00E9489
:10092000B3010E94240284EC92E00E945A0260E02B
:100930008AE00E94B3010E94240287ED92E00E94A7
:100940005A0261E08BE00E94B3010E9424028BEE08
:1009500092E00E945A0260E08BE00E94B3010E9484
:1009600024028EEF92E00E945A0261E08CE00E9425
:10097000B3010E94240282E193E00E945A0260E0E7
:100980008CE00E94B3010E94240285E293E00E9461
:100990005A0261E08DE00E94B3010E94240289E3C3
:1009A00093E00E945A0260E08DE00E94B3010E9431
:1009B0002402209709F4E5CE0E941001882309F44F
:1009C000E0CE0E940000DDCEE5E5F3E01382128266
:1009D00088EE93E0A0E0B0E084839583A683B7839C
:1009E00084E091E09183808385EC90E09587848713
:1009F00084EC90E09787868780EC90E0918B808BE9
:100A000081EC90E0938B828B82EC90E0958B848BD1
:100A100086EC90E0978B868B118E128E138E148E3F
:100A20000895EE0FFF1F0590F491E02D0994F894BE
:020A3000FFCFF6
:100A3200000000004601A600D30093010401E20079
:100A4200F6000D0A00496E697469616C697A696E13
:100A520067204469676974616C2050696E73203045
:100A62002D3133206173204F757470757400536596
:100A72007474696E6720443020746F204869676817
:100A82000053657474696E6720443020746F204C83
:100A92006F770053657474696E6720443120746FF8
:100AA20020486967680053657474696E6720443131
:100AB20020746F204C6F770053657474696E6720E1
:100AC200443220746F204869676800536574746902
:100AD2006E6720443220746F204C6F770053657428
:100AE20074696E6720443320746F20486967680018
:100AF20053657474696E6720443320746F204C6FA1
:100B0200770053657474696E6720443420746F20D3
:100B1200486967680053657474696E6720443420BD
:100B2200746F204C6F770053657474696E6720444C
:100B32003520746F20486967680053657474696E64
:100B42006720443520746F204C6F770053657474AE
:100B5200696E6720443620746F20486967680053C5
:100B6200657474696E6720443620746F204C6F7709
:100B72000053657474696E6720443720746F20488F
:100B82006967680053657474696E6720443720741E
:100B92006F204C6F770053657474696E6720443818
:100BA20020746F20486967680053657474696E67C2
:100BB20020443820746F204C6F7700536574746939
:100BC2006E6720443920746F204869676800536556
:100BD2007474696E6720443920746F204C6F7700FB
:100BE20053657474696E672044313020746F2048F5
:100BF2006967680053657474696E672044313020F8
:100C0200746F204C6F770053657474696E6720446B
:100C1200313120746F2048696768005365747469C4
:100C22006E672044313120746F204C6F770053651A
:100C32007474696E672044313220746F204869678A
:100C4200680053657474696E672044313220746F92
:100C5200204C6F770053657474696E67204431339A
:100C620020746F20486967680053657474696E6701
:0C0C72002044313320746F204C6F770059
:00000001FF
