:020000040000FA
:100000000C9458000C9480000C9480000C94800098
:100010000C9480000C9480000C9480000C94800060
:100020000C9480000C9480000C9480000C94800050
:100030000C9480000C9480000C9480000C94800040
:100040000C94CE050C9480000C949C050C947605C1
:100050000C9480000C9480000C9480000C94800020
:100060000C9418060C948000000000002500280065
:100070002B00040404040404040402020202020229
:10008000030303030303010204081020408001025C
:1000900004081020010204081020000000080002DB
:1000A0000100000304070000000000000000370703
:1000B00011241FBECFEFD8E0DEBFCDBF23E0AEEDF1
:1000C000B1E001C01D92AA34B207E1F711E0A0E04F
:1000D000B1E0E2E1F4E102C005900D92AE3DB1075E
:1000E000D9F710E0C8E5D0E004C02197FE010E94D6
:1000F000010AC735D107C9F70E9470070C94070A97
:100100000C9400009091A00280919F022FEF3FEF8E
:10011000981748F4E92FF0E0E158FD4F208130E0D6
:100120009F5F9093A002C90108959091A0028091D1
:100130009F022FEF3FEF981748F4E92FF0E0E158C6
:10014000FD4F208130E09F5F9093A002C901089588
:1001500091E090937E0280937D0210927C02109237
:100160007B02089508950895AF92BF92CF92DF92D7
:10017000EF92FF920F931F93CF93DF936C017B015C
:100180008B01040F151FEB015E01AE18BF08C017ED
:10019000D10759F06991D601ED91FC910190F08160
:1001A000E02DC6010995892B79F7C501DF91CF9123
:1001B0001F910F91FF90EF90DF90CF90BF90AF9085
:1001C0000895FC01538D448D252F30E0842F90E05D
:1001D000821B930B541710F0CF9608950197089542
:1001E000FC01918D828D981761F0A28DAE0FBF2F0B
:1001F000B11D5D968C91928D9F5F9F73928F90E061
:1002000008958FEF9FEF0895FC01918D828D9817CF
:1002100031F0828DE80FF11D858D90E008958FEF0C
:100220009FEF0895FC01918D228D892F90E0805CD5
:100230009F4F821B91098F739927089581EA92E05D
:100240000E94120121E0892B09F420E0822F0895F9
:1002500080E090E0892B29F00E941E0181110C940E
:1002600000000895FC01A48DA80FB92FB11DA35A59
:10027000BF4F2C91848D90E001968F739927848FC6
:10028000A689B7892C93A089B1898C9183708064E9
:100290008C93938D848D981306C00288F389E02D8A
:1002A00080818F7D80830895EF92FF920F931F933B
:1002B000CF93DF93EC0181E0888F9B8D8C8D981319
:1002C0001AC0E889F989808185FF15C09FB7F89425
:1002D000EE89FF896083E889F98980818370806471
:1002E00080839FBF81E090E0DF91CF911F910F91BC
:1002F000FF90EF900895F62E0B8D10E00F5F1F4FCB
:100300000F731127E02E8C8D8E110CC00FB607FCD9
:10031000FACFE889F989808185FFF5CFCE010E9467
:100320003201F1CFEB8DEC0FFD2FF11DE35AFF4FA2
:10033000F0829FB7F8940B8FEA89FB8980818062F5
:10034000CFCFCF93DF93EC01888D8823B9F0AA89B2
:10035000BB89E889F9898C9185FD03C0808186FD80
:100360000DC00FB607FCF7CF8C9185FFF2CF8081CF
:1003700085FFEDCFCE010E943201E9CFDF91CF9111
:10038000089590E0FC01E656FF4F2491FC01EA57E6
:10039000FF4F3491FC01EE58FF4FE491EE23C9F07A
:1003A000222339F0233001F1A8F4213019F1223051
:1003B00029F1F0E0EE0FFF1FE859FF4FA591B4912E
:1003C0008FB7F894EC91611126C030953E233C9391
:1003D0008FBF08952730A9F02830C9F0243049F79D
:1003E000809180008F7D03C0809180008F77809303
:1003F0008000DFCF84B58F7784BDDBCF84B58F7D60
:10040000FBCF8091B0008F778093B000D2CF8091E6
:10041000B0008F7DF9CF3E2BDACF3FB7F8948091B3
:10042000270290912802A0912902B0912A0226B5B4
:10043000A89B05C02F3F19F00196A11DB11D3FBF1C
:10044000BA2FA92F982F8827BC01CD01620F711DEB
:10045000811D911D42E0660F771F881F991F4A95E5
:10046000D1F708952091FF01260F3327331F213242
:100470003105ECF420917502FC0190E080E024301D
:1004800069F082E00895A091FF012191AC014152F1
:100490005E4FA40FB52FB11D2C930196861798F3CC
:1004A0008091FF01680F6093FF0180E0089581E073
:1004B00008951092750281E08093740210926F0289
:1004C00061E082E10E94C10161E083E10E94C1011B
:1004D000E9EBF0E080818E7F808380818D7F808357
:1004E00088E48093B80085E48093BC000895CF939E
:1004F000DF9391E09093DE018823B9F0C091B800BA
:10050000D091BA008091BC008A7B8093BC0060E0EF
:1005100082E10E94C10160E083E10E94C1010E946A
:100520005902D093BA00C093B800DF91CF910895DB
:10053000CF92DF92EF92FF920F931F93CF93DF93AF
:10054000D0917B0281E0D13208F09CC0C0917D0245
:100550000E940D026B017C018091750281116CC0BB
:1005600082E08093750281E0809374028FEF809324
:10057000730210927202D0937102AFE2B2E0EFE424
:10058000F2E080E0D8138DC010927002809170026A
:10059000CC0FC82BC093700280916F02813009F09C
:1005A00084C010926F020E940D026B017C01809149
:1005B00070028093BB008091770290917802A091A5
:1005C0007902B0917A02892B8A2B8B2BA1F00E94A1
:1005D0000D020091770210917802209179023091FA
:1005E0007A026C197D098E099F09061717072807DB
:1005F000390708F442C08091BC0083FDD8CF85EC58
:100600008093BC000E940D026B017C0180917502F9
:10061000823009F44CC0809173028F3F09F469C0A5
:1006200080917302803209F466C080917302803336
:1006300009F463C084E026C080917702909178022B
:10064000A0917902B0917A02892B8A2B8B2B09F425
:1006500083CF0E940D0200917702109178022091C1
:10066000790230917A026C197D098E099F0906176B
:1006700017072807390708F06FCF809176020E948C
:10068000770285E010927C0210927B0210927E022B
:10069000DF91CF911F910F91FF90EF90DF90CF905E
:1006A00008959D9191938F5F6DCF85EEA9CF809135
:1006B000770290917802A0917902B0917A02892B09
:1006C0008A2B8B2B09F4A2CF0E940D020091770296
:1006D000109178022091790230917A026C197D098B
:1006E0008E099F09061717072807390708F08ECFCC
:1006F000C4CF80E0C7CF82E0C5CF83E0C3CF0895E9
:10070000E091A00280919F02E81730F4F0E0E158F8
:10071000FD4F808190E008958FEF9FEF08958091C5
:100720009F029091A002891B990B0895CF92DF92AE
:10073000EF92FF920F931F93CF93DF937C01CB0136
:100740008A0120917E02222389F0EB016B01C40E05
:10075000D51ECC15DD0569F06991D701ED91FC91AD
:100760000190F081E02DC7010995F3CF642F0E941D
:100770003202C801DF91CF911F910F91FF90EF904E
:10078000DF90CF900895CF93DF931F92CDB7DEB760
:10079000698320917E022223F9F020917B0220328E
:1007A00058F021E030E0FC013383228390E080E0C8
:1007B0000F90DF91CF91089580917C02E82FF0E0B7
:1007C000E15DFD4F998190838F5F80937C028093E0
:1007D0007B0281E090E0ECCF61E0CE0101960E94C7
:1007E0003202F7CF682F8EE393E00C94C30390E0BE
:1007F00080E00895FC0101900020E9F73197AF01F6
:10080000481B590BBC0181EA92E00C94B4008F9212
:100810009F92AF92BF920F931F93CF93DF93CDB769
:10082000DEB7A1970FB6F894DEBF0FBECDBF19A2F9
:10083000423008F44AE08E010F5D1F4F842E912C48
:10084000B12CA12CA50194010E94DF09E62FB9016A
:10085000CA01EA30F4F4E05DD801EE938D01232B58
:10086000242B252B79F790E080E0109719F0CD012B
:100870000E94FA03A1960FB6F894DEBF0FBECDBF5B
:10088000DF91CF911F910F91BF90AF909F908F906C
:100890000895E95CE1CFCF93DF930E94FA03EC0166
:1008A00084E291E00E94FA038C0F9D1FDF91CF91AB
:1008B00008950C94FA03CF92DF92EF92FF920F9378
:1008C0001F930E940D026B017C01809175028111C2
:1008D00063C081E080937502809374029FEF9093D0
:1008E00073021092720210927102809370028091D2
:1008F0007002806D8093700280916F02813009F0E8
:100900007CC010926F020E940D026B017C018091ED
:1009100070028093BB008091770290917802A09141
:100920007902B0917A02892B8A2B8B2BA1F00E943D
:100930000D02009177021091780220917902309196
:100940007A026C197D098E099F0906171707280777
:10095000390708F442C08091BC0083FDD8CF85ECF4
:100960008093BC000E940D026B017C018091750296
:10097000813009F444C080917202811162C080917B
:100980007202AFE4B2E0EFE7F2E090E0981751F1C5
:100990002D9121939F5FFACF8091770290917802F9
:1009A000A0917902B0917A02892B8A2B8B2B09F4C2
:1009B0008CCF0E940D020091770210917802209155
:1009C000790230917A026C197D098E099F09061708
:1009D00017072807390708F078CF809176020E9420
:1009E000770280E01092A00280939F021F910F91E6
:1009F000FF90EF90DF90CF90089585EEB1CF80917A
:100A0000770290917802A0917902B0917A02892BB5
:100A10008A2B8B2B09F4AACF0E940D02009177023A
:100A2000109178022091790230917A026C197D0937
:100A30008E099F09061717072807390708F096CF70
:100A4000CCCF81E09ECF88E60E94A80082E090E0B3
:100A50000E94F2030E9498020E945B040E9495008B
:100A600026E0969587952A95E1F781700895682F7D
:100A700070E090E080E04AE00C94070485ED8093FC
:100A8000BC008091770290917802A0917902B09198
:100A90007A020796A11DB11D23E0B695A7959795FB
:100AA00087952A95D1F72091BC0024FD03C01092B0
:100AB0007502089540917702509178026091790211
:100AC00070917A02452B462B472B69F30097A105BD
:100AD000B10541F025E32A95F1F700000197A1093E
:100AE000B109E1CF809176020C9477021F920F92A8
:100AF0000FB60F9211242F933F934F935F936F93F1
:100B00007F938F939F93AF93BF93EF93FF9381EA6C
:100B100092E00E943201FF91EF91BF91AF919F91BE
:100B20008F917F916F915F914F913F912F910F9096
:100B30000FBE0F901F9018951F920F920FB60F9235
:100B400011242F938F939F93EF93FF93E091B10222
:100B5000F091B2028081E091B702F091B80282FD7B
:100B60001BC090818091BA028F5F8F732091BB026E
:100B7000821741F0E091BA02F0E0EF55FD4F958FFA
:100B80008093BA02FF91EF919F918F912F910F90D7
:100B90000FBE0F901F9018958081F4CF1F920F9277
:100BA0000FB60F9211242F933F938F939F93AF9380
:100BB000BF938091230290912402A0912502B091CD
:100BC00026023091220223E0230F2D3758F501969B
:100BD000A11DB11D20932202809323029093240231
:100BE000A0932502B09326028091270290912802BB
:100BF000A0912902B0912A020196A11DB11D8093F6
:100C0000270290932802A0932902B0932A02BF9151
:100C1000AF919F918F913F912F910F900FBE0F90A9
:100C20001F90189526E8230F0296A11DB11DD2CF63
:100C30001F920F920FB60F9211242F933F934F9351
:100C40005F936F937F938F939F93AF93BF93EF9334
:100C5000FF938091B900887F803609F44AC0F0F58F
:100C6000883209F4A7C018F5803109F49BC0B8F4A4
:100C7000882309F4F9C0883009F494C0FF91EF91FA
:100C8000BF91AF919F918F917F916F915F914F91A4
:100C90003F912F910F900FBE0F901F9018958831A4
:100CA00009F488C0803251F78093730214C08034F5
:100CB00009F49DC040F48033B9F38833F9F680938A
:100CC000730285ECB0C0803509F485C0883509F41D
:100CD00096C0883499F60E943E05D0CF883909F431
:100CE0008CC038F5883729F050F4883611F08037F9
:100CF00029F683E0809375021092210257C088384C
:100D000009F47BC0803919F0803809F0B7CF8091A1
:100D10002102803208F071C0E091210281E08E0F43
:100D2000809321028091BB00F0E0EF5FFD4F808354
:100D30003DC0803B39F0E0F4803A09F479C0883A4C
:100D400009F09CCF84E0809375021092000210920B
:100D5000FF01E0912D02F0912E0209958091FF0193
:100D600081110FC081E08093FF011092DF0109C063
:100D7000803C09F4A6CF883C09F4A3CF883B09F056
:100D80007DCFE091000281E08E0F80930002F0E0C1
:100D9000E152FE4F80818093BB00909100028091D0
:100DA000FF0129C0809170028093BB0085EC809385
:100DB000BC0064CF9091720280917102981758F52F
:100DC000E091720281E08E0F80937202F0E0E15BAD
:100DD000FD4F8081E9CFE091720281E08E0F809318
:100DE00072028091BB00F0E0E15BFD4F8083909147
:100DF0007202809171029817C8F285E8D8CFE0910D
:100E0000720281E08E0F809372028091BB00F0E04D
:100E1000E15BFD4F80838091740281115CCF81E0A2
:100E200080936F0284EA8093BC001092750226CFF3
:100E300085EC8093BC001092750280912102803273
:100E400030F4E0912102F0E0EF5FFD4F10826091FD
:100E5000210270E0E0912B02F0912C0281E092E0FF
:100E60000995109221020ACF1092730234CFE1EA61
:100E7000F2E01382128288EE93E0A0E0B0E0848377
:100E80009583A683B78324E031E03183208325EC6A
:100E900030E03587248724EC30E03787268720EC44
:100EA00030E0318B208B21EC30E0338B228B22EC35
:100EB00030E0358B248B26EC30E0378B268B118E7F
:100EC000128E138E148EEEE3F3E01382128284836B
:100ED0009583A683B78386E191E09183808308950B
:100EE000789484B5826084BD84B5816084BD85B505
:100EF000826085BD85B5816085BD80916E00816011
:100F000080936E00109281008091810082608093B6
:100F100081008091810081608093810080918000B8
:100F20008160809380008091B10084608093B100E3
:100F30008091B00081608093B00080917A008460DD
:100F400080937A0080917A00826080937A00809109
:100F50007A00816080937A0080917A008068809323
:100F60007A001092C100E091B102F091B20282E0E9
:100F70008083E091AD02F091AE021082E091AF0269
:100F8000F091B0028FEC80831092B902E091B5022B
:100F9000F091B60286E08083E091B302F091B40252
:100FA000808180618083E091B302F091B4028081FE
:100FB00088608083E091B302F091B4028081806800
:100FC0008083E091B302F091B40280818F7D8083B1
:100FD0001092A00210929F0210927C0210927B024B
:100FE0000E94590282EB90E090932E0280932D0292
:100FF00083EB90E090932C0280932B0288E60E9472
:10100000A8000E94980284E291E00E94FA0387E21D
:1010100091E00E944B0488E391E00E94590488E625
:101020000E94A80090E080E00E94F2030E949802D3
:101030000E945B040E94950087FD62C08CE491E0F1
:101040000E944B048BE691E00E9459040E94230504
:10105000811159C088E791E00E944B048AE891E031
:101060000E94590488E60E94A80087E090E00E9450
:10107000F2030E9498020E945B040E94950087FF81
:1010800045C08CE491E00E944B0483EA91E00E9409
:10109000590488E60E94A80087E090E00E94F203CD
:1010A0000E9498020E945B040E949500B4E095950E
:1010B0008795BA95E1F780FF2CC08CE491E00E94FF
:1010C0004B04C0E0D0E088E60E94A80083E090E0F6
:1010D0000E94F2030E9498020E945B040E94950005
:1010E00081508730E8F4E82FF0E0E758F74F0C9490
:1010F000010A8C08B909BC09BF09C209C509C80998
:1011000080E591E09DCF81E891E0A6CF80EA91E073
:10111000BACF80EA91E0D3CF86EB91E00E945904E8
:1011200084EB91E00E94590488E60E94A80084E0C4
:1011300090E00E94F2030E9498020E945B040E94C9
:1011400095009C01E4E035952795EA95E1F72F702D
:101150003327922F990F990F291B220F820F0E947C
:10116000370582ED91E00E94590488E60E94A800AC
:1011700085E090E00E94F2030E9498020E945B04C6
:101180000E9495009C01F4E035952795FA95E1F7CA
:101190002F703327922F990F990F291B220F820F3F
:1011A0000E94370582ED91E00E94590488E60E9472
:1011B000A80086E090E00E94F2030E9498020E943C
:1011C0005B040E9495009C01A4E035952795AA95A3
:1011D000E1F72F703327922F990F990F622F691B18
:1011E000660F860F682F70E06053784F072E000C53
:1011F000880B990B4AE00E94070484EB91E00E945F
:1012000059040E942305F82E88E60E94A80082E077
:1012100090E00E94F2030E9498020E945B040E94E8
:101220009500F110B8C0AC0174E0559547957A95DA
:10123000E1F74F705527942F990F990F491B440FD1
:10124000840F0E94370584ED91E00E94590488E6DE
:101250000E94A80081E090E00E94F2030E949802A0
:101260000E945B040E9495009C0144E035952795FF
:101270004A95E1F72F703327922F990F990F291B69
:10128000220F820F0E94370584ED91E00E945904DD
:1012900088E60E94A80090E080E00E94F2030E948D
:1012A00098020E945B040E9495008F77282F30E0FF
:1012B00054E0359527955A95E1F7922F990F990F9C
:1012C000291B220F820F0E9437050E9423058130BF
:1012D000E1F40E9423058130C1F488E60E94A80051
:1012E00082E090E00E94F2030E9498020E945B0458
:1012F0000E94950025E0969587952A95E1F780FD57
:101300005BC086ED91E00E94590484E291E00E9466
:10131000FA030E940D026B017C0188EE882E83E0A7
:10132000982EA12CB12C0E940D026C197D098E09FA
:101330009F09683E734081059105A8F321E0821A58
:101340009108A108B10888EEC80E83E0D81EE11C00
:10135000F11C81149104A104B10429F7209709F428
:10136000B2CE0E941E01882309F4ADCE0E94000077
:10137000AACE8AEB91E0D2CE8EEB91E0CFCE82EC7A
:1013800091E0CCCE86EC91E0C9CE8AEC91E0C6CE5D
:101390008EEC91E0C3CE482F4F79242F30E064E0EB
:1013A000359527956A95E1F7822F880F880F922F40
:1013B000981B892F880F44CF8AED91E0A4CFA1E23A
:1013C0001A2EAA1BBB1BFD010DC0AA1FBB1FEE1FBF
:1013D000FF1FA217B307E407F50720F0A21BB30B0A
:1013E000E40BF50B661F771F881F991F1A9469F786
:1013F00060957095809590959B01AC01BD01CF01E2
:101400000895EE0FFF1F0590F491E02D0994F894D4
:10141000FFCF000000005401B400E100A10112015F
:10142000F000040100000000C3039603F7037F03EC
:101430008F03820080030D0A002A2A2A2052544377
:101440002031333037202A2A2A00497320436C6F19
:10145000636B2052756E6E696E67203A2000596585
:1014600073004E6F2E2054696D65206D6179206286
:101470006520496E616363757261746500486F75BC
:1014800072204D6F6465203A2000323420486F7519
:10149000727300313220486F757273004973204FA8
:1014A00075742050696E20456E61626C6564203AE7
:1014B00020004E6F004973205351574520456E61FF
:1014C000626C6564203A200053554E004D4F4E002B
:1014D000545545005745440054485500465249006C
:1014E000534154002D003A0020414D0020504D0042
:107E0000112484B714BE81FFF0D085E080938100F7
:107E100082E08093C00088E18093C10086E0809377
:107E2000C20080E18093C4008EE0C9D0259A86E02C
:107E300020E33CEF91E0309385002093840096BBD3
:107E4000B09BFECF1D9AA8958150A9F7CC24DD24C4
:107E500088248394B5E0AB2EA1E19A2EF3E0BF2EE7
:107E6000A2D0813461F49FD0082FAFD0023811F036
:107E7000013811F484E001C083E08DD089C08234E0
:107E800011F484E103C0853419F485E0A6D080C0E4
:107E9000853579F488D0E82EFF2485D0082F10E0AE
:107EA000102F00270E291F29000F111F8ED06801E7
:107EB0006FC0863521F484E090D080E0DECF843638
:107EC00009F040C070D06FD0082F6DD080E0C81688
:107ED00080E7D80618F4F601B7BEE895C0E0D1E017
:107EE00062D089930C17E1F7F0E0CF16F0E7DF06D8
:107EF00018F0F601B7BEE89568D007B600FCFDCFD4
:107F0000A601A0E0B1E02C9130E011968C91119780
:107F100090E0982F8827822B932B1296FA010C0160
:107F200087BEE89511244E5F5F4FF1E0A038BF0790
:107F300051F7F601A7BEE89507B600FCFDCF97BE46
:107F4000E89526C08437B1F42ED02DD0F82E2BD052
:107F50003CD0F601EF2C8F010F5F1F4F84911BD097
:107F6000EA94F801C1F70894C11CD11CFA94CF0C13
:107F7000D11C0EC0853739F428D08EE10CD085E9AC
:107F80000AD08FE07ACF813511F488E018D01DD067
:107F900080E101D065CF982F8091C00085FFFCCF94
:107FA0009093C60008958091C00087FFFCCF809118
:107FB000C00084FD01C0A8958091C6000895E0E648
:107FC000F0E098E1908380830895EDDF803219F02E
:107FD00088E0F5DFFFCF84E1DECF1F93182FE3DFCA
:107FE0001150E9F7F2DF1F91089580E0E8DFEE27F6
:047FF000FF270994CA
:027FFE00040479
:00000001FF
