:100000000C945D000C9485000C9485000C94850084
:100010000C9485000C9485000C9485000C9485004C
:100020000C9485000C9485000C9485000C9485003C
:100030000C9485000C9485000C9485000C9485002C
:100040000C9440030C9485000C940E030C94E8026D
:100050000C9485000C9485000C9485000C9485000C
:100060000C9485000C9485000000000024002700FB
:100070002A0000000000250028002B0004040404CE
:100080000404040402020202020203030303030342
:10009000010204081020408001020408102001021F
:1000A00004081020000000080002010000030407FB
:1000B00000000000000000008A0311241FBECFEFE3
:1000C000D8E0DEBFCDBF11E0A0E0B1E0E0E2F5E1B5
:1000D00002C005900D92AA32B107D9F722E0AAE238
:1000E000B1E001C01D92A231B207E1F710E0CDE509
:1000F000D0E004C02197FE010E94790ACC35D107D7
:10010000C9F70E940F040C948E0A0C940000AF9261
:10011000BF92CF92DF92EF92FF920F931F93CF93F4
:10012000DF936C017B018B01040F151FEB015E0156
:10013000AE18BF08C017D10759F06991D601ED91EB
:10014000FC910190F081E02DC6010995892B79F78A
:10015000C501DF91CF911F910F91FF90EF90DF903C
:10016000CF90BF90AF900895FC01538D448D252F03
:1001700030E0842F90E0821B930B541710F0CF9641
:10018000089501970895FC01918D828D981761F073
:10019000A28DAE0FBF2FB11D5D968C91928D9F5F8A
:1001A0009F73928F90E008958FEF9FEF0895FC0169
:1001B000918D828D981731F0828DE80FF11D858D1C
:1001C00090E008958FEF9FEF0895FC01918D228DAF
:1001D000892F90E0805C9F4F821B91098F73992734
:1001E000089583E391E00E94E50021E0892B09F462
:1001F00020E0822F089580E090E0892B29F00E9472
:10020000F10081110C9400000895FC01A48DA80F49
:10021000B92FB11DA35ABF4F2C91848D90E0019648
:100220008F739927848FA689B7892C93A089B18968
:100230008C91837080648C93938D848D981306C009
:100240000288F389E02D80818F7D80830895EF926D
:10025000FF920F931F93CF93DF93EC0181E0888F80
:100260009B8D8C8D98131AC0E889F989808185FF50
:1002700015C09FB7F894EE89FF896083E889F989F2
:1002800080818370806480839FBF81E090E0DF91F4
:10029000CF911F910F91FF90EF900895F62E0B8D47
:1002A00010E00F5F1F4F0F731127E02E8C8D8E1102
:1002B0000CC00FB607FCFACFE889F989808185FF69
:1002C000F5CFCE010E940501F1CFEB8DEC0FFD2F94
:1002D000F11DE35AFF4FF0829FB7F8940B8FEA8924
:1002E000FB8980818062CFCFCF93DF93EC01888D33
:1002F0008823B9F0AA89BB89E889F9898C9185FDA1
:1003000003C0808186FD0DC00FB607FCF7CF8C912E
:1003100085FFF2CF808185FFEDCFCE010E940501E0
:10032000E9CFDF91CF91089590E0FC01EC55FF4FAC
:100330002491FC01E057FF4F3491FC01E458FF4F3A
:10034000E491EE23C9F0222339F0233001F1A8F41F
:10035000213019F1223029F1F0E0EE0FFF1FEE58A5
:10036000FF4FA591B4918FB7F894EC91611126C01D
:1003700030953E233C938FBF08952730A9F0283055
:10038000C9F0243049F7809180008F7D03C08091AF
:1003900080008F7780938000DFCF84B58F7784BD16
:1003A000DBCF84B58F7DFBCF8091B0008F778093BA
:1003B000B000D2CF8091B0008F7DF9CF3E2BDACF45
:1003C000CF93DF9390E0FC01E057FF4F24918458D6
:1003D0009F4FFC0184918823D1F090E0880F991FF2
:1003E000FC01E859FF4FA591B491FC01EE58FF4F75
:1003F000C591D49161110EC09FB7F8948C91E22FF2
:10040000E0958E238C932881E223E8839FBFDF91C0
:10041000CF9108958FB7F894EC91E22BEC938FBFB6
:10042000F6CF3FB7F89480912F0190913001A091C1
:100430003101B091320126B5A89B05C02F3F19F0BC
:100440000196A11DB11D3FBFBA2FA92F982F882754
:10045000BC01CD01620F711D811D911D42E0660F2F
:10046000771F881F991F4A95D1F7089580E290E081
:10047000089580E890E00895FC01248935892F3F94
:10048000320751F061E0FC0186899789019709F4F0
:1004900060E0822F0C9494010895CF92DF92EF9246
:1004A000FF92FC01248935892F3F320729F0FC0196
:1004B0006689822F0E9494010E9411026B017C01C7
:1004C0000E9411026C197D098E099F096230710525
:1004D00081059105A8F3FF90EF90DF90CF900895EC
:1004E000EF92FF920F931F93CF93DF938C017B01C9
:1004F000C1E0D0E0D801ED91FC910190F081E02DB8
:10050000C80109958C179D0734F0CE15DF0571F4ED
:10051000F801D18FC08FD80158968D919C91DF91B1
:10052000CF911F910F91FF90EF900895CC0FDD1F99
:10053000E1CF0F931F93CF93DF93EC010E947002E2
:100540008EAD9FAD019649F08E01005C1F4FF80102
:10055000808191818F3F980739F4888D998DDF9143
:10056000CF911F910F91089561E00E94E00161E039
:10057000888D998D08970CF460E0F80180810E94C5
:100580009401888D998D84309105E9F05CF4813077
:10059000910581F0029709F761E08EAD0E94E001BC
:1005A00061E00DC080319105B9F38032910559F0B9
:1005B000089799F661E08EAD0E94E00160E08EAD93
:1005C0000E949401CACF60E08EAD0E94E001C5CFC9
:1005D0001F920F920FB60F9211242F933F934F93B8
:1005E0005F936F937F938F939F93AF93BF93EF939B
:1005F000FF9383E391E00E940501FF91EF91BF918A
:10060000AF919F918F917F916F915F914F913F91AA
:100610002F910F900FBE0F901F9018951F920F9261
:100620000FB60F9211242F938F939F93EF93FF9305
:10063000E0914301F09144018081E0914901F09102
:100640004A0182FD1BC0908180914C018F5F8F73A6
:1006500020914D01821741F0E0914C01F0E0ED5CFA
:10066000FE4F958F80934C01FF91EF919F918F9159
:100670002F910F900FBE0F901F9018958081F4CF8F
:100680001F920F920FB60F9211242F933F938F93C7
:100690009F93AF93BF9380912B0190912C01A091D8
:1006A0002D01B0912E0130912A0123E0230F2D3727
:1006B00058F50196A11DB11D20932A0180932B01AD
:1006C00090932C01A0932D01B0932E0180912F01C6
:1006D00090913001A0913101B09132010196A11D9C
:1006E000B11D80932F0190933001A0933101B093FD
:1006F0003201BF91AF919F918F913F912F910F90B8
:100700000FBE0F901F90189526E8230F0296A11D8B
:10071000B11DD2CFE3E3F1E01382128288EE93E0C1
:10072000A0E0B0E084839583A683B78384E091E062
:100730009183808385EC90E09587848784EC90E0BA
:100740009787868780EC90E0918B808B81EC90E09E
:10075000938B828B82EC90E0958B848B86EC90E07F
:10076000978B868B118E128E138E148EE0EDF1E036
:1007700016821782108611861286138614861586B5
:1007800088EC90E0978786878AE090E0918B808B59
:1007900089E090E0938B828B8FEF9FEF958B848B1A
:1007A00081E090E0978B868B918F808F128E138ED5
:1007B000148E158E178E168E88EE93E091A380A36B
:1007C00093A382A314A615A616A617A610A611A673
:1007D00012A613A615AE14AE10AA11AA12AA13AA35
:1007E00014AA15AA16AA17AA10AE11AE12AE13AE0D
:1007F000128213821482158214A215A216A217A2C5
:1008000086E191E0918380838BE090E097AF86AFA3
:100810008CE090E090931102809310020895CF93A2
:10082000DF93CDB7DEB72E970FB6F894DEBF0FBEBD
:10083000CDBF789484B5826084BD84B5816084BD69
:1008400085B5826085BD85B5816085BD80916E006E
:10085000816080936E00109281008091810082609F
:1008600080938100809181008160809381008091DC
:1008700080008160809380008091B10084608093CB
:10088000B1008091B00081608093B00080917A00C7
:10089000846080937A0080917A00826080937A00ED
:1008A00080917A00816080937A0080917A008068DC
:1008B00080937A001092C10061E089E00E94E0011B
:1008C00061E08AE00E94E00161E08BE00E94E001CB
:1008D00061E08CE00E94E001E0914301F09144016D
:1008E00082E08083E0913F01F09140011082E0912D
:1008F0004101F09142018FEC808310924B01E09115
:100900004701F091480186E08083E0914501F09134
:100910004601808180618083E0914501F09146012C
:10092000808188608083E0914501F091460180815B
:1009300080688083E0914501F091460180818F7D40
:10094000808347E050E06EE171E083E391E00E9434
:10095000870042E050E066E271E083E391E00E94AC
:10096000870061E08091E0010E94E00161E08091F8
:10097000E0010E94940161E08091E2010E94E001A7
:1009800060E08091E2010E9494018091E4019091E5
:10099000E5018F3F980739F061E00E94E00180EDAA
:1009A00091E00E943C0280E090E0A0E8BFE38093E9
:1009B000EA019093EB01A093EC01B093ED0161E0AB
:1009C00070E080ED91E00E94990280ED91E00E943C
:1009D0004D0280ED91E00E944D0270E0272E70E004
:1009E000372E8091DE019091DF019A838983C09038
:1009F000E801D090E90128E631E0DC010E943D0ADF
:100A00009B01AC010D2C000CEE08FF08C701B601DC
:100A10000E940E0A28E631E040E050E00E941E0AE3
:100A2000DA01C90180959095A095B0958827B7FD0A
:100A300083959927AA27BB2790930D0280930C02D8
:100A40001092D6011092D7011092D8011092D901BC
:100A500029013A0177FE08C0709460945094409444
:100A6000411C511C611C711C4092F8015092F9010B
:100A70006092FA017092FB011092F4011092F5015C
:100A80001092F6011092F7011092D2011092D30148
:100A90001092D4011092D5018090EA019090EB0160
:100AA000A090EC01B090ED01A981BA81BD01BB0F0E
:100AB000880B990B0E94BA0869837A838B839C8385
:100AC000C701B6010E94BA086B017C018091EE015A
:100AD0009091EF01019709F095C129813A814B81ED
:100AE0005C81C501B4010E94460920E030E040E786
:100AF00052E40E94100869837A838B839C8320913F
:100B0000F0013091F1013E872D879B01AC010E94DD
:100B100046094B015C016D857E85660F771F072EA8
:100B2000000C880B990B0E94BA089B01AC01C5010F
:100B3000B4010E941008A70196010E9446090E9474
:100B400082084B015C018092FC019092FD01A09211
:100B5000FE01B092FF010091F2011091F301C80172
:100B6000012E000CAA0BBB0B8D839E83AF83B8872D
:100B70008D859E85092E000CAA0BBB0B89879A8751
:100B8000AB87BC879C01AD01C501B4010E940E0A70
:100B90002D813E814F8158850E941E0A20930002BC
:100BA000309301024093020250930302820E931E7F
:100BB000A41EB51E481459046A047B0434F5A3012D
:100BC00092016D817E818F8198850E940E0A2D850C
:100BD0003E85200F311F032E000C440B550B0E9445
:100BE0001E0A2093FC013093FD014093FE015093B7
:100BF000FF01421A530A640A750A40920002509299
:100C00000102609202027092030269857A858B85E7
:100C10009C850E94BA089B01AC0160E070E080E016
:100C200090E40E941008A70196010E9410080E94FB
:100C3000B90920E03AE045E259E40E9446090E94E1
:100C400082086093040270930502809306029093D9
:100C5000070229813A814B815C8160E074E284E77C
:100C600099E40E941008A70196010E9410080E94B2
:100C70008208609308027093090280930A0290939D
:100C80000B028091F8019091F901A091FA01B091C5
:100C9000FB01181619061A061B060CF0B0C1C0900D
:100CA000DA01D090DB01E090DC01F090DD01C114AD
:100CB000D104E104F104E1F08090D6019090D701D5
:100CC000A090D801B090D90181149104A104B1047D
:100CD00021F40E9411024B015C010E94110268196B
:100CE00079098A099B096C157D058E059F05A8F376
:100CF00060910C028091E0010E94940161E080917A
:100D0000E2010E9494010E94110269837A838B831D
:100D10009C838090040290900502A0900602B090FF
:100D200007028091F8019091F901A091FA01B09128
:100D3000FB01181619061A061B060CF0FBC09C01D5
:100D4000AD0121503109410951092093F801309337
:100D5000F9014093FA015093FB01C090F401D09047
:100D6000F501E090F601F090F7019FEFC91AD90A5A
:100D7000E90AF90AC092F401D092F501E092F60175
:100D8000F092F7018091EE019091EF01019709F047
:100D9000D1C0211531054105510509F4CBC0809121
:100DA000000290910102A0910202B0910302821709
:100DB0009307A407B5070CF078C08091FC019091CF
:100DC000FD01A091FE01B091FF018C159D05AE05BE
:100DD000BF050CF4AFC0C816D906EA06FB060CF432
:100DE000F4C08091080290910902A0910A02B0918A
:100DF0000B028093040290930502A0930602B09325
:100E0000070298C01092FC011092FD011092FE01A1
:100E10001092FF0110920002109201021092020241
:100E20001092030229813A814B815C8160EC71EE62
:100E300084E69CE40E941008A70196010E94100815
:100E4000A50194010E9410080E9482086B017C0198
:100E5000C0920802D0920902E0920A02F0920B02BC
:100E6000A30192010E940E0A97FD09C0C0920402DC
:100E7000D0920502E0920602F092070202CFC3016F
:100E8000B2010E94BA089B01AC0160E070E0CB01A6
:100E90000E9410080E948208609304027093050269
:100EA0008093060290930702ECCE4090D2015090BE
:100EB000D3016090D4017090D501ACEFBFEF0E94D8
:100EC000520A6B017C01AFEFCA1ADA0AEA0AFA0A7F
:100ED000C501B401660F771F881F991F640D751D2A
:100EE000861D971DA70196010E941E0AD501C40107
:100EF000821B930BA40BB50B809304029093050205
:100F0000A0930602B0930702BC01CD01660F771FC4
:100F1000881F991F640D751D861D971DA7019601D9
:100F20000E941E0A6093D2017093D3018093D40172
:100F30009093D5010E9411026B017C010E94110265
:100F4000C616D706E806F906C9F360E08091E2010B
:100F50000E9494010E9411026093D6017093D70100
:100F60008093D8019093D90129813A81621B730B38
:100F7000CB01B0E0A0E088159905AA05BB05D0F526
:100F8000881A990AAA0ABB0A8092DA019092DB01B8
:100F9000A092DC01B092DD018091DA019091DB0139
:100FA000A091DC01B091DD01892B8A2B8B2B09F0FC
:100FB00068CE2114310409F414CD0E94F100882375
:100FC00009F40FCD0E9400000CCD4090D20150904A
:100FD000D3016090D4017090D50142E0CC0CDD1CAF
:100FE000EE1CFF1C4A95D1F7BFEFCB1ADB0AEB0AC8
:100FF000FB0A6ECF812C912C54018394C5CF1092A3
:10100000D6011092D7011092D8011092D9011092F6
:10101000DA011092DB011092DC011092DD01BCCFED
:101020000E9424080C940C090E94050958F00E94A3
:10103000FE0840F029F45F3F29F00C94F5085111A7
:101040000C9440090C94FB080E941D0968F3992335
:10105000B1F3552391F3951B550BBB27AA276217B4
:101060007307840738F09F5F5F4F220F331F441FC1
:10107000AA1FA9F335D00E2E3AF0E0E832D09150F5
:101080005040E695001CCAF72BD0FE2F29D0660FE2
:10109000771F881FBB1F261737074807AB07B0E825
:1010A00009F0BB0B802DBF01FF2793585F4F3AF02B
:1010B0009E3F510578F00C94F5080C9440095F3F71
:1010C000E4F3983ED4F3869577956795B795F795B1
:1010D0009F5FC9F7880F911D9695879597F9089599
:1010E000E1E0660F771F881FBB1F62177307840735
:1010F000BA0720F0621B730B840BBA0BEE1F88F744
:10110000E09508950E9489086894B1110C944009F3
:1011100008950E94250988F09F5798F0B92F9927C4
:10112000B751B0F0E1F0660F771F881F991F1AF0D2
:10113000BA95C9F714C0B13091F00E943F09B1E0EF
:1011400008950C943F09672F782F8827B85F39F0EE
:10115000B93FCCF3869577956795B395D9F73EF46B
:1011600090958095709561957F4F8F4F9F4F089513
:10117000E89409C097FB3EF4909580957095619531
:101180007F4F8F4F9F4F9923A9F0F92F96E9BB27E7
:101190009395F695879577956795B795F111F8CF63
:1011A000FAF4BB0F11F460FF1BC06F5F7F4F8F4FCE
:1011B0009F4F16C0882311F096E911C0772321F0C4
:1011C0009EE8872F762F05C0662371F096E8862F5C
:1011D00070E060E02AF09A95660F771F881FDAF7B3
:1011E000880F9695879597F9089597F99F6780E8F6
:1011F00070E060E008959FEF80EC089500240A9469
:101200001616170618060906089500240A941216E1
:101210001306140605060895092E0394000C11F414
:10122000882352F0BB0F40F4BF2B11F460FF04C0C1
:101230006F5F7F4F8F4F9F4F089557FD9058440F1A
:10124000551F59F05F3F71F04795880F97FB991F25
:1012500061F09F3F79F087950895121613061406E2
:10126000551FF2CF4695F1DF08C01616170618066F
:10127000991FF1CF86957105610508940895E8944A
:10128000BB2766277727CB0197F908950E94590954
:101290000C940C090E94FE0838F00E94050920F009
:1012A000952311F00C94F5080C94FB0811240C9470
:1012B00040090E941D0970F3959FC1F3950F50E0FE
:1012C000551F629FF001729FBB27F00DB11D639FF8
:1012D000AA27F00DB11DAA1F649F6627B00DA11D9E
:1012E000661F829F2227B00DA11D621F739FB00D44
:1012F000A11D621F839FA00D611D221F749F3327B4
:10130000A00D611D231F849F600D211D822F762F4C
:101310006A2F11249F5750409AF0F1F088234AF029
:10132000EE0FFF1FBB1F661F771F881F9150504095
:10133000A9F79E3F510580F00C94F5080C944009E4
:101340005F3FE4F3983ED4F3869577956795B7951C
:10135000F795E7959F5FC1F7FE2B880F911D969536
:10136000879597F9089519F416F40C94FB080C94DA
:10137000F9090E942509B8F39923C9F3B6F39F57D9
:10138000550B87FF0E94070A0024A0E640EA90015F
:1013900080585695979528F4805C660F771F881FB4
:1013A00020F026173707480730F4621B730B840BB5
:1013B000202931294A2BA6951794079420253125F9
:1013C0004A2758F7660F771F881F20F02617370720
:1013D000480730F4620B730B840B200D311D411D47
:1013E000A09581F7B901842F9158880F969587951C
:1013F00008959F3F31F0915020F487957795679538
:10140000B795880F911D9695879597F908959150F6
:101410005040660F771F881FD2F70895DB018F9326
:101420009F930E94440ABF91AF91A29F800D911D8E
:10143000A39F900DB29F900D11240895052E97FB48
:101440001EF400940E94350A57FD07D00E94570AE7
:1014500007FC03D04EF40C94350A50954095309516
:1014600021953F4F4F4F5F4F089590958095709510
:1014700061957F4F8F4F9F4F08950E947F0AB7FF5E
:101480000895821B930B08950E947F0AA59F900DDB
:10149000B49F900DA49F800D911D11240895B7FF56
:1014A0000C94440A0E94440A821B930B0895A1E203
:1014B0001A2EAA1BBB1BFD010DC0AA1FBB1FEE1FCE
:1014C000FF1FA217B307E407F50720F0A21BB30B19
:1014D000E40BF50B661F771F881F991F1A9469F795
:1014E00060957095809590959B01AC01BD01CF01F1
:1014F0000895EE0FFF1F0590F491E02D0994A29F2F
:10150000B001B39FC001A39F700D811D1124911DD7
:10151000B29F700D811D1124911D0895F894FFCF85
:101520000000000027018700B4007401E500C3003B
:10153000D70000000000360299024D023C024452DE
:0A1540005638383334000D0A00005D
:00000001FF
