:100000000C945D000C9485000C9485000C94850084
:100010000C9485000C9485000C9485000C9485004C
:100020000C9485000C9485000C9485000C9485003C
:100030000C9485000C9485000C9485000C9485002C
:100040000C9499030C9485000C9467030C94410361
:100050000C9485000C9485000C9485000C9485000C
:100060000C9485000C94850000000008000201003B
:100070000003040700000000000000000000000072
:10008000250028002B0000000000240027002A0083
:10009000040404040404040402020202020203032E
:1000A0000303030301020408102040800102040836
:1000B0001020010204081020E30311241FBECFEF1B
:1000C000D8E0DEBFCDBF11E0A0E0B1E0E2E5FCE0AA
:1000D00002C005900D92AC31B107D9F721E0ACE137
:1000E000B1E001C01D92AE3DB207E1F710E0CDE5F1
:1000F000D0E004C02197FE010E940D06CC35D10747
:10010000C9F70E9444040C9427060C94000090E068
:10011000FC01EC55FF4F249180579F4FFC018491C7
:10012000882399F090E0880F991FFC01EA57FF4F50
:10013000A591B491FC01E458FF4F859194918FB73C
:10014000F894EC91E22BEC938FBF0895AF92BF929D
:10015000CF92DF92EF92FF920F931F93CF93DF9393
:100160006C017B018B01040F151FEB015E01AE18C2
:10017000BF08C017D10759F06991D601ED91FC91E4
:100180000190F081E02DC6010995892B79F7C50111
:10019000DF91CF911F910F91FF90EF90DF90CF9063
:1001A000BF90AF900895FC01538D448D252F30E012
:1001B000842F90E0821B930B541710F0CF96089574
:1001C00001970895FC01918D828D981761F0A28DA1
:1001D000AE0FBF2FB11D5D968C91928D9F5F9F7367
:1001E000928F90E008958FEF9FEF0895FC01918D1D
:1001F000828D981731F0828DE80FF11D858D90E08A
:1002000008958FEF9FEF0895FC01918D228D892F26
:1002100090E0805C9F4F821B91098F73992708950E
:1002200087E291E00E94040121E0892B09F420E09B
:10023000822F089580E090E0892B29F00E94100120
:1002400081110C9400000895FC01A48DA80FB92F12
:10025000B11DA35ABF4F2C91848D90E001968F73EE
:100260009927848FA689B7892C93A089B1898C910D
:10027000837080648C93938D848D981306C002885C
:10028000F389E02D80818F7D80830895EF92FF9226
:100290000F931F93CF93DF93EC0181E0888F9B8DA9
:1002A0008C8D98131AC0E889F989808185FF15C063
:1002B0009FB7F894EE89FF896083E889F989808186
:1002C0008370806480839FBF81E090E0DF91CF9155
:1002D0001F910F91FF90EF900895F62E0B8D10E077
:1002E0000F5F1F4F0F731127E02E8C8D8E110CC0E6
:1002F0000FB607FCFACFE889F989808185FFF5CF31
:10030000CE010E942401F1CFEB8DEC0FFD2FF11DEA
:10031000E35AFF4FF0829FB7F8940B8FEA89FB896D
:1003200080818062CFCFCF93DF93EC01888D8823CB
:10033000B9F0AA89BB89E889F9898C9185FD03C048
:10034000808186FD0DC00FB607FCF7CF8C9185FF2D
:10035000F2CF808185FFEDCFCE010E942401E9CF4D
:10036000DF91CF91089590E0FC01E859FF4F24916F
:10037000FC01EC55FF4F3491FC01E057FF4FE49135
:10038000EE23C9F0222339F0233001F1A8F4213003
:1003900019F1223029F1F0E0EE0FFF1FE458FF4F72
:1003A000A591B4918FB7F894EC91611126C0309566
:1003B0003E233C938FBF08952730A9F02830C9F021
:1003C000243049F7809180008F7D03C080918000A8
:1003D0008F7780938000DFCF84B58F7784BDDBCFAC
:1003E00084B58F7DFBCF8091B0008F778093B00074
:1003F000D2CF8091B0008F7DF9CF3E2BDACFCF9353
:10040000DF93EC018091CC019091CD01029749F4EA
:10041000C130D10509F43BC06CF560E0209709F4C8
:1004200037C08091CC019091CD01049749F4C1303F
:10043000D10509F45CC00CF037C0209709F442C024
:100440008091CC019091CD01059709F0E5C0CA30AB
:10045000D10508F0E1C0FE01E05DFD4F0C940D06F2
:100460008F029B02AC02C202DD02DF02E602F20250
:1004700003030A03C230D105A9F060E0C330D105FF
:1004800081F68091D0010E94B30160E006C061E076
:100490008091D0010E94B30161E08091D2010E945D
:1004A000B301BFCF61E0EDCFC230D10539F1C33028
:1004B000D10509F0C5CF61E08091D0010E94B30160
:1004C00060E022C061E08091D0010E94B30160E051
:1004D0008091D2010E94B30161E08091D4010E9419
:1004E000B30160E08091D6010E94B301A9CF60E022
:1004F0008091D0010E94B30161E0EACF60E0809179
:10050000D0010E94B30161E08091D2010E94B30149
:1005100060E08091D4010E94B30161E0E3CF60E02C
:100520008091D0010E94B30161E08091D2010E94CC
:10053000B30161E00BC060E08091D0010E94B30183
:1005400061E08091D2010E94B30160E08091D4010A
:100550000E94B30160E010C060E08091D0010E9471
:10056000B30161E08091D2010E94B30160E080910B
:10057000D4010E94B30161E08091D6010E94B301D1
:1005800061E015C060E08091D0010E94B30161E09C
:100590008091D2010E94B30160E08091D4010E9459
:1005A000B30161E08091D6010E94B30160E08091C7
:1005B000D801DF91CF910C94B30161E0E4CF61E009
:1005C0008091D0010E94B30160E0E2CF61E08091B0
:1005D000D0010E94B30160E08091D2010E94B3017A
:1005E00061E0DBCF61E08091D0010E94B30160E067
:1005F0008091D2010E94B30161E08091D4010E94F8
:10060000B30160E0CFCF61E08091D0010E94B301DF
:1006100060E08BCF60E0F8CFDF91CF9108953FB7D6
:10062000F8948091210190912201A0912301B09131
:10063000240126B5A89B05C02F3F19F00196A11DE6
:10064000B11D3FBFBA2FA92F982F8827BC01CD011C
:10065000620F711D811D911D42E0660F771F881F7B
:10066000991F4A95D1F70895FC0101900020E9F700
:100670003197AF01481B590BBC0187E291E00C9404
:10068000A6001F920F920FB60F9211242F933F9343
:100690004F935F936F937F938F939F93AF93BF938A
:1006A000EF93FF9387E291E00E942401FF91EF9185
:1006B000BF91AF919F918F917F916F915F914F917A
:1006C0003F912F910F900FBE0F901F9018951F9282
:1006D0000F920FB60F9211242F938F939F93EF9346
:1006E000FF93E0913701F09138018081E0913D0165
:1006F000F0913E0182FD1BC09081809140018F5F8F
:100700008F7320914101821741F0E0914001F0E0A8
:10071000E95DFE4F958F80934001FF91EF919F918E
:100720008F912F910F900FBE0F901F901895808181
:10073000F4CF1F920F920FB60F9211242F933F9375
:100740008F939F93AF93BF9380911D0190911E0152
:10075000A0911F01B091200130911C0123E0230FD3
:100760002D3758F50196A11DB11D20931C018093D2
:100770001D0190931E01A0931F01B0932001809151
:10078000210190912201A0912301B09124010196B1
:10079000A11DB11D8093210190932201A0932301FB
:1007A000B0932401BF91AF919F918F913F912F9171
:1007B0000F900FBE0F901F90189526E8230F0296FA
:1007C000A11DB11DD2CFCF93DF93E7E2F1E01382F9
:1007D000128288EE93E0A0E0B0E084839583A68344
:1007E000B78384E091E09183808385EC90E09587E6
:1007F000848784EC90E09787868780EC90E0918BEB
:10080000808B81EC90E0938B828B82EC90E0958BD7
:10081000848B86EC90E0978B868B118E128E138ED4
:10082000148EC4ECD1E01B861A86198218821E8AA7
:100830001F8A188E198E88EC90E09F838E838EE03D
:1008400090E09D878C878FE090E09F878E8780E186
:1008500090E0998B888B81E190E09B8B8A8B8EE076
:100860000E9487008E850E94870088890E948700E9
:100870008A890E9487001D8A1C8A84E090E09987FB
:100880008887DF91CF910895CF93DF93CDB7DEB7FF
:10089000A1970FB6F894DEBF0FBECDBF789484B594
:1008A000826084BD84B5816084BD85B5826085BD6C
:1008B00085B5816085BD80916E00816080936E00FA
:1008C00010928100809181008260809381008091EC
:1008D000810081608093810080918000816080939D
:1008E00080008091B10084608093B1008091B0005D
:1008F00081608093B00080917A00846080937A0058
:1009000080917A00826080937A0080917A00816081
:1009100080937A0080917A00806880937A001092A8
:10092000C100E0913701F091380182E08083E091CD
:100930003301F09134011082E0913501F0913601DC
:1009400080E1808310923F01E0913B01F0913C01F6
:1009500086E08083E0913901F0913A0180818061E5
:100960008083E0913901F0913A0180818860808331
:10097000E0913901F0913A01808180688083E091B3
:100980003901F0913A0180818F7D808381E00E945E
:10099000870061E081E00E94B30182E00E9487004D
:1009A00061E082E00E94B3019AE0292E312C04E03C
:1009B00010E02AE0422E512C612C712C21E030E015
:1009C0003093C5012093C4010E940F03C090DA0147
:1009D000D090DB01E090DC01F090DD019B01AC01E7
:1009E0002C193D094E095F0969017A018090C60101
:1009F0009090C701A090C801B090C901C814D90453
:100A0000EA04FB0408F36093DA017093DB0180933E
:100A1000DC019093DD018091CE019091CF01209176
:100A2000C4013091C5012130310509F498C0892BEA
:100A300009F48CC08091CE019091CF0101979093E1
:100A4000CF018093CE018091CE019091CF01209172
:100A5000CC013091CD01B8012530310509F4B10147
:100A60000E94D7050E94FF0182E191E00E943403B9
:100A7000C0902501D09026010D2C000CEE08FF0837
:100A8000F7FE7FC06DE287E291E00E9446012227D7
:100A90003327A9012C193D094E095F0919A2CE017E
:100AA00081967C01CA01B901A30192010E94EB0564
:100AB000605DF70162937F01211531054105510504
:100AC00089F7E114F10419F0C7010E94340389E1A8
:100AD00091E00E94340380912501909126010196B6
:100AE00090932601809325010E940F034B015C0126
:100AF00084EFC82EDD24D394E12CF12C0E940F0347
:100B0000681979098A099B09683E73408105910536
:100B1000A8F3F1E0CF1AD108E108F10828EE820E1F
:100B200023E0921EA11CB11CC114D104E104F10404
:100B300029F740E050E0452B09F440CF0E94100116
:100B4000882309F43BCF0E94000038CF8091CA016E
:100B50009091CB019093CF018093CE016BCF019602
:100B60009093CF018093CE012091CA013091CB01A7
:100B70008217930709F067CF1092CF011092CE0130
:100B800062CFA701960119A2CE0181967C01CA010C
:100B9000B901A30192010E94EB05605DF701629328
:100BA0007F01211531054105510589F78ACF97FB52
:100BB000072E16F4009407D077FD09D00E94130683
:100BC00007FC05D03EF4909581959F4F0895709550
:100BD00061957F4F0895A1E21A2EAA1BBB1BFD0150
:100BE0000DC0AA1FBB1FEE1FFF1FA217B307E4070C
:100BF000F50720F0A21BB30BE40BF50B661F771F64
:100C0000881F991F1A9469F7609570958095909543
:100C10009B01AC01BD01CF010895EE0FFF1F0590B0
:100C2000F491E02D0994AA1BBB1B51E107C0AA1F38
:100C3000BB1FA617B70710F0A61BB70B881F991F7D
:100C40005A95A9F780959095BC01CD010895F89427
:020C5000FFCFD4
:100C5200000000004601A600D30093010401E20057
:0C0C6200F60073746570733A000D0A0010
:00000001FF
