:100000000C9458000C9480000C9480000C94800098
:100010000C9480000C9480000C9480000C94800060
:100020000C9480000C9480000C9480000C94800050
:100030000C9480000C9480000C9480000C94800040
:100040000C941E080C9480000C94EC070C94C607CA
:100050000C9480000C9480000C9480000C94800020
:100060000C9468080C948000000000002500280013
:100070002B00040404040404040402020202020229
:10008000030303030303010204081020408001025C
:1000900004081020010204081020000000080002DB
:1000A00001000003040700000000000000008309B5
:1000B00011241FBECFEFD8E0DEBFCDBF11E0A0E01E
:1000C000B1E0EAE7FCE102C005900D92A83EB1075D
:1000D000D9F723E0A8EEB1E001C01D92A735B20721
:1000E000E1F710E0C8E5D0E004C02197FE010E94CE
:1000F000350EC735D107C9F70E94C5090C943B0ED0
:100100000C940000AF92BF92CF92DF92EF92FF92D9
:100110000F931F93CF93DF936C017B018B01040F2F
:10012000151FEB015E01AE18BF08C017D10759F0CB
:100130006991D601ED91FC910190F081E02DC6010D
:100140000995892B79F7C501DF91CF911F910F9107
:10015000FF90EF90DF90CF90BF90AF900895FC019B
:10016000538D448D252F30E0842F90E0821B930B1C
:10017000541710F0CF96089501970895FC01918DC2
:10018000828D981761F0A28DAE0FBF2FB11D5D96C5
:100190008C91928D9F5F9F73928F90E008958FEF67
:1001A0009FEF0895FC01918D828D981731F0828D1B
:1001B000E80FF11D858D90E008958FEF9FEF089572
:1001C000FC01918D228D892F90E0805C9F4F821BD6
:1001D00091098F739927089587EA92E00E94E000C1
:1001E00021E0892B09F420E0822F089580E090E03F
:1001F000892B29F00E94EC0081110C9400000895D5
:10020000FC01A48DA80FB92FB11DA35ABF4F2C918B
:10021000848D90E001968F739927848FA689B78982
:100220002C93A089B1898C91837080648C93938D79
:10023000848D981306C00288F389E02D80818F7D1C
:1002400080830895EF92FF920F931F93CF93DF93D4
:10025000EC0181E0888F9B8D8C8D98131AC0E88902
:10026000F989808185FF15C09FB7F894EE89FF89D1
:100270006083E889F98980818370806480839FBF6F
:1002800081E090E0DF91CF911F910F91FF90EF906F
:100290000895F62E0B8D10E00F5F1F4F0F7311277F
:1002A000E02E8C8D8E110CC00FB607FCFACFE889BA
:1002B000F989808185FFF5CFCE010E940001F1CF41
:1002C000EB8DEC0FFD2FF11DE35AFF4FF0829FB72E
:1002D000F8940B8FEA89FB8980818062CFCFCF931E
:1002E000DF93EC01888D8823B9F0AA89BB89E8895E
:1002F000F9898C9185FD03C0808186FD0DC00FB604
:1003000007FCF7CF8C9185FFF2CF808185FFEDCF81
:10031000CE010E940001E9CFDF91CF91089590E0D6
:10032000FC01E656FF4F2491FC01EA57FF4F349140
:10033000FC01EE58FF4FE491EE23C9F0222339F07F
:10034000233001F1A8F4213019F1223029F1F0E035
:10035000EE0FFF1FE859FF4FA591B4918FB7F894A6
:10036000EC91611126C030953E233C938FBF0895D8
:100370002730A9F02830C9F0243049F78091800057
:100380008F7D03C0809180008F7780938000DFCFC6
:1003900084B58F7784BDDBCF84B58F7DFBCF809113
:1003A000B0008F778093B000D2CF8091B0008F7D66
:1003B000F9CF3E2BDACF3FB7F8948091510290915C
:1003C0005202A0915302B091540226B5A89B05C0D9
:1003D0002F3F19F00196A11DB11D3FBFBA2FA92FC4
:1003E000982F8827BC01CD01620F711D811D911DC1
:1003F00042E0660F771F881F991F4A95D1F708952D
:100400008F929F92AF92BF92CF92DF92EF92FF9224
:100410006B017C010E94DB014B015C01C114D10422
:10042000E104F104B9F00E94DB01681979098A0935
:100430009B09683E73408105910580F321E0C21A53
:10044000D108E108F10888EE880E83E0981EA11C0F
:10045000B11CE4CFFF90EF90DF90CF90BF90AF90B2
:100460009F908F9008951F93CF93DF93C1E0C09327
:100470000802882399F1D091B8001091BA008091B8
:10048000BC008A7B8093BC0060E082E10E948F0107
:1004900060E083E10E948F0110927B02C0937A0298
:1004A0001092750261E082E10E948F0161E083E1B8
:1004B0000E948F018091B9008E7F8093B900809156
:1004C000B9008D7F8093B90088E48093B80085E4FB
:1004D0008093BC001093BA00D093B800DF91CF9105
:1004E0001F91089520912902260F3327331F2132AF
:1004F0003105ECF420917B02FC0190E080E0243097
:1005000069F082E00895A09129022191AC01475F32
:100510005D4FA40FB52FB11D2C930196861798F34C
:1005200080912902680F6093290280E0089581E09C
:1005300008950895E091820280918102E81730F4D5
:10054000F0E0ED57FD4F808190E008958FEF9FEF31
:10055000089590918202809181022FEF3FEF9817CA
:1005600048F4E92FF0E0ED57FD4F208130E09F5F28
:1005700090938202C9010895809181029091820234
:10058000891B990B0895CF92DF92EF92FF920F9300
:100590001F93CF93DF937C01CB018A012091A602A8
:1005A000222389F0EB016B01C40ED51ECC15DD05AD
:1005B00069F06991D701ED91FC910190F081E02DF6
:1005C000C7010995F3CF642F0E947202C801DF9121
:1005D000CF911F910F91FF90EF90DF90CF900895F2
:1005E000CF93DF931F92CDB7DEB769832091A60228
:1005F0002223F9F02091A302203258F021E030E0CC
:10060000FC013383228390E080E00F90DF91CF9153
:1006100008958091A402E82FF0E0E851FE4F9981FF
:1006200090838F5F8093A4028093A30281E090E087
:10063000ECCF61E0CE0101960E947202F7CFCF921B
:10064000DF92EF92FF920F931F93CF93DF93D0919E
:10065000A30281E0D13208F09CC0C091A5020E94A3
:10066000DB016B017C0180917B0281116CC082E017
:1006700080937B0281E080937A028FEF80937902EE
:1006800010927802D0937702A8EEB1E0E5E5F2E0AF
:1006900080E0D8138DC01092760280917602CC0F44
:1006A000C82BC093760280917502813009F084C016
:1006B000109275020E94DB016B017C018091760231
:1006C0008093BB0080917D0290917E02A0917F0279
:1006D000B0918002892B8A2B8B2BA1F00E94DB0129
:1006E00000917D0210917E0220917F023091800264
:1006F0006C197D098E099F09061717072807390706
:1007000008F442C08091BC0083FDD8CF85EC809373
:10071000BC000E94DB016B017C0180917B02823076
:1007200009F44CC0809179028F3F09F469C080912F
:100730007902803209F466C080917902803309F42D
:1007400063C084E026C080917D0290917E02A091DA
:100750007F02B0918002892B8A2B8B2B09F483CFE7
:100760000E94DB0100917D0210917E0220917F02A8
:10077000309180026C197D098E099F0906171707B1
:100780002807390708F06FCF80917C020E9433025E
:1007900085E01092A4021092A3021092A602DF91AB
:1007A000CF911F910F91FF90EF90DF90CF90089520
:1007B0009D9191938F5F6DCF85EEA9CF80917D0242
:1007C00090917E02A0917F02B0918002892B8A2BAA
:1007D0008B2B09F4A2CF0E94DB0100917D021091C6
:1007E0007E0220917F02309180026C197D098E0972
:1007F0009F09061717072807390708F08ECFC4CFBF
:1008000080E0C7CF82E0C5CF83E0C3CF90E080E037
:100810000895FC0101900020E9F73197AF01481BD2
:10082000590BBC0187EA92E00C9482008F929F9250
:10083000AF92BF920F931F93CF93DF93CDB7DEB7E5
:10084000A1970FB6F894DEBF0FBECDBF19A24230FC
:1008500008F44AE08E010F5D1F4F842E912CB12CBD
:10086000A12CA50194010E94130EE62FB901CA0123
:10087000EA30F4F4E05DD801EE938D01232B242BB4
:10088000252B79F790E080E0109719F0CD010E94B8
:100890000904A1960FB6F894DEBF0FBECDBFDF915D
:1008A000CF911F910F91BF90AF909F908F9008951F
:1008B000E95CE1CF8F929F92AF92BF92CF92DF928D
:1008C000EF92FF920F931F93CF93DF93C82F8A016C
:1008D000809152039091530321E02093A602C0938C
:1008E000A5021092A4021092A302DC01ED91FC91EA
:1008F0000190F081E02D099580915203909153036E
:100900000E941F0380935403882381F08AE491E0BE
:100910000E9409046091540370E090E080E04AE096
:100920000E94160487E591E00E9409040E94DB0101
:100930006B017C0180917B02811165C081E0809315
:100940007B0280937A029FEF909379021092780253
:10095000809377028093760280917602CC0FC82B29
:10096000C093760280917502813009F09CC010928C
:1009700075020E94DB016B017C01809176028093FD
:10098000BB0080917D0290917E02A0917F02B09188
:100990008002892B8A2B8B2BA1F00E94DB01809097
:1009A0007D0290907E02A0907F02B09080026C1930
:1009B0007D098E099F0986169706A806B90608F4D0
:1009C00043C08091BC0083FDD8CF85EC8093BC00F0
:1009D0000E94DB016B017C0180917B02813009F474
:1009E00064C080917802823008F081C080917802E2
:1009F000A5E5B2E0E3E8F2E090E0981751F12D911F
:100A000021939F5FFACF80917D0290917E02A09109
:100A10007F02B0918002892B8A2B8B2B09F48ACF1D
:100A20000E94DB0180907D0290907E02A0907F0268
:100A3000B09080026C197D098E099F098616970671
:100A4000A806B90608F076CF80917C020E94330296
:100A500080E01092820280938102D1E0C0E0FF2406
:100A6000F3948091520390915303DC01ED91FC913A
:100A70000084F185E02D0995892B09F445C0C11149
:100A800043C08091520390915303DC01ED91FC919E
:100A90000284F385E02DDD2361F10995F8011082D0
:100AA0008183DF25DECF85EE91CF80917D0290910D
:100AB0007E02A0917F02B0918002892B8A2B8B2B22
:100AC00009F48ACF0E94DB0180907D0290907E0223
:100AD000A0907F02B09080026C197D098E099F0959
:100AE00086169706A806B90608F076CFADCF82E045
:100AF0007FCF0995D8012D913C911197822B932B93
:100B00008D939C93C1E0CDCF8C2FDF91CF911F911E
:100B10000F91FF90EF90DF90CF90BF90AF909F909C
:100B20008F9008950F931F93CF93DF9300D0CDB78D
:100B3000DEB700E513E0AE014F5F5F4F60E0F80104
:100B400081810E945A0429813A81F8019081A9018A
:100B500002C0559547959A95E2F7CA010F900F90FC
:100B6000DF91CF911F910F9108954F925F926F92F5
:100B70007F928F929F92AF92BF92CF92DF92EF922D
:100B8000FF920F931F93CF936B017C01742EAC01E6
:100B90009B010E940E0E882399F08AE591E0CF9187
:100BA0001F910F91FF90EF90DF90CF90BF90AF908B
:100BB0009F908F907F906F905F904F900C9409045E
:100BC00046015701E894B7F82FEF3FEF4FE75FE793
:100BD000C501B4010E940E0E81110DC02FEF3FEF31
:100BE0004FE75FE7C501B4010E943D0C18161CF4E5
:100BF0008EE591E0D4CF2FEF3FEF4FE75FE4C701E1
:100C0000B6010E949C0D18161CF482E691E0C7CF35
:100C10002FEF3FEF4FE75FECC701B6010E943D0C9D
:100C200087FDF3CF20E030E0A901C701B6010E94A3
:100C30003D0C10E000E087FF0AC06DE287EA92E019
:100C40000E9422018C01F7FAF094F7F8F094C0E0CA
:100C500060E070E080E09FE37C1641F020E030E04F
:100C600040E251E40E94420CCF5FF6CFA70196010B
:100C70000E94D10B2B013C010E94BB0C4B015C017B
:100C80004AE00E9416047C01E00EF11ECC23C1F163
:100C9000C501B4010E94EA0C9B01AC01C301B20181
:100CA0000E94D00B4B015C016EE287EA92E00E9449
:100CB0002201E80EF91EC15018F120E030E040E2B8
:100CC00051E4C501B4010E94A10D2B013C010E9419
:100CD000BB0C4B01B12CA12C4AE0C501B4010E9410
:100CE0001604E80EF91EC501B4010E94EA0C9B012E
:100CF000AC01C301B2010E94D00B4B015C01DBCF00
:100D0000C701CF911F910F91FF90EF90DF90CF908F
:100D1000BF90AF909F908F907F906F905F904F901B
:100D20000895CF93DF93EA01A0915203B09153034A
:100D300091E09093A6028093A5021092A4021092D3
:100D4000A302ED91FC9111970190F081E02DCD016E
:100D5000099580915203909153036981DC01ED91D3
:100D6000FC910190F081E02D0995809152039091C2
:100D70005303DC01ED91FC910190F081E02D68813D
:100D8000099580915203909153030E941F03809311
:100D90005403882381F08AE491E00E940904609161
:100DA000540370E090E080E04AE00E94160487E57A
:100DB00091E00E94090481E090915403911180E038
:100DC000DF91CF910895DF92EF92FF920F931F93DF
:100DD000CF93DF9300D0CDB7DEB7F82EE62ED42E1A
:100DE0008901AE014F5F5F4F61E00E945A04898123
:100DF0009A8121E030E002C0220F331FDA94E2F73B
:100E0000215031090E2C02C0220F331F0A94E2F741
:100E100002C0000F111FEA94E2F7082719272023C8
:100E20003123282739273A832983AE014F5F5F4F4B
:100E300061E08F2D0E9491060F900F90DF91CF916E
:100E40001F910F91FF90EF90DF900895EF92FF9226
:100E50000F931F93CF93DF9300D0CDB7DEB7182F3A
:100E6000062F7A01AE014F5F5F4F61E00E945A0486
:100E700049815A8181E090E002C0880F991F0A954C
:100E8000E2F7EF28A1F0842B952B9A838983AE019A
:100E90004F5F5F4F61E0812F0E9491060F900F908E
:100EA000DF91CF911F910F91FF90EF900895809562
:100EB000909584239523E9CFCF92DF92EF92FF9212
:100EC000CF93DF936C01990FEE08FF08F7FE1FC068
:100ED0006DE287EA92E00E942201EC016627772703
:100EE000CB016C197D098E099F094AE00E94160406
:100EF000C80FD91F87E591E00E9409048C0F9D1F40
:100F0000DF91CF91FF90EF90DF90CF9008954AE06E
:100F1000C701B6010E941604EC01ECCF85ED809369
:100F2000BC0080917D0290917E02A0917F02B091E1
:100F300080020796A11DB11D23E0B695A795979550
:100F400087952A95D1F72091BC0024FD03C010920B
:100F50007B02089540917D0250917E0260917F0254
:100F600070918002452B462B472B69F30097A10512
:100F7000B10541F025E32A95F1F700000197A10999
:100F8000B109E1CF80917C020C9433021F920F9241
:100F90000FB60F9211242F933F934F935F936F934C
:100FA0007F938F939F93AF93BF93EF93FF9387EAC2
:100FB00092E00E940001FF91EF91BF91AF919F914C
:100FC0008F917F916F915F914F913F912F910F90F2
:100FD0000FBE0F901F9018951F920F920FB60F9291
:100FE00011242F938F939F93EF93FF93E091B70278
:100FF000F091B8028081E091BD02F091BE0282FDC5
:101000001BC090818091C0028F5F8F732091C102BD
:10101000821741F0E091C002F0E0E955FD4F958F55
:101020008093C002FF91EF919F918F912F910F902C
:101030000FBE0F901F9018958081F4CF1F920F92D2
:101040000FB60F9211242F933F938F939F93AF93DB
:10105000BF9380914D0290914E02A0914F02B091AA
:10106000500230914C0223E0230F2D3758F50196A2
:10107000A11DB11D20934C0280934D0290934E020E
:10108000A0934F02B093500280915102909152026E
:10109000A0915302B09154020196A11DB11D8093FD
:1010A000510290935202A0935302B0935402BF9105
:1010B000AF919F918F913F912F910F900FBE0F9005
:1010C0001F90189526E8230F0296A11DB11DD2CFBF
:1010D0001F920F920FB60F9211242F933F934F93AD
:1010E0005F936F937F938F939F93AF93BF93EF9390
:1010F000FF938091B900887F803609F44AC0F0F5EB
:10110000883209F4A5C018F5803109F499C0B8F403
:10111000882309F4F5C0883009F492C0FF91EF915B
:10112000BF91AF919F918F917F916F915F914F91FF
:101130003F912F910F900FBE0F901F9018958831FF
:1011400009F486C0803251F78093790214C080344C
:1011500009F49BC040F48033B9F38833F9F68093E7
:10116000790285ECAEC0803509F483C0883509F476
:1011700094C0883499F60E948E07D0CF883909F43C
:101180008AC038F5883729F050F4883611F0803756
:1011900029F683E080937B0210924B0255C0883879
:1011A00009F479C0803919F0803809F0B7CF8091FF
:1011B0004B02803208F06FC0E0914B0281E08E0F4D
:1011C00080934B028091BB00F0E0E55DFD4F808392
:1011D0003BC0803B39F0D0F4803A09F477C0883ABC
:1011E00009F09CCF84E080937B0210922A02109237
:1011F0002902F0E0E0E009958091290281110FC0F9
:1012000081E0809329021092090209C0803C09F410
:10121000A8CF883C09F4A5CF883B09F07FCFE091A7
:101220002A0281E08E0F80932A02F0E0E75FFD4FF3
:1012300080818093BB0090912A028091290229C06D
:10124000809176028093BB0085EC8093BC0066CFD2
:101250009091780280917702981758F5E091780282
:1012600081E08E0F80937802F0E0EB5AFD4F808191
:10127000E9CFE091780281E08E0F8093780280912F
:10128000BB00F0E0EB5AFD4F808390917802809193
:1012900077029817C8F285E8D8CFE091780281E00C
:1012A0008E0F809378028091BB00F0E0EB5AFD4FE7
:1012B000808380917A0281115ECF81E080937502F4
:1012C00084EA8093BC0010927B0228CF85EC809347
:1012D000BC0010927B0280914B02803230F4E0918E
:1012E0004B02F0E0E55DFD4F108260914B0270E033
:1012F0008BE292E0F0E0E0E0099510924B020ECF15
:101300001092790238CFE7EAF2E01382128288EE77
:1013100093E0A0E0B0E084839583A683B7832AE2BC
:1013200031E03183208325EC30E03587248724ECBD
:1013300030E03787268720EC30E0318B208B21ECA2
:1013400030E0338B228B22EC30E0358B248B26EC83
:1013500030E0378B268B118E128E138E148EE4E4C0
:10136000F3E01382128284839583A683B7838CE390
:1013700091E091838083E0E5F3E084E0808398E46A
:10138000918392E0958386830895CF93DF9300D075
:1013900000D000D0CDB7DEB7789484B5826084BD2C
:1013A00084B5816084BD85B5826085BD85B5816069
:1013B00085BD80916E00816080936E0010928100E7
:1013C00080918100826080938100809181008160A2
:1013D0008093810080918000816080938000809163
:1013E000B10084608093B1008091B00081608093EF
:1013F000B00080917A00846080937A0080917A00B6
:10140000826080937A0080917A00816080937A0074
:1014100080917A00806880937A001092C100E091F8
:10142000B702F091B80282E08083E091B302F091BC
:10143000B4021082E091B502F091B6028FEC808385
:101440001092BF02E091BB02F091BC0286E0808363
:10145000E091B902F091BA02808180618083E091CD
:10146000B902F091BA02808188608083E091B9026C
:10147000F091BA02808180688083E091B902F09196
:10148000BA0280818F7D808360ED77E080E090E01C
:101490000E94000286E691E00E94090487E591E03F
:1014A0000E94090484E493E09093530380935203D1
:1014B00088E48093510324E030E043E06CE00E9434
:1014C000E30681E08093550321E030E043E069E0EA
:1014D000809151030E94E30650E040E068E0809173
:1014E00051030E94260784E08093560324E030E0F5
:1014F00043E065E0809151030E94E30650E040E044
:1015000064E0809151030E94260750E040E063E0D0
:10151000809151030E94260750E040E062E08091F4
:1015200051030E94260723E030E042E060E0809112
:1015300051030E94E306E091550323ED32E243E8B4
:101540005AE3E63050F424E0E29FF0011124E25F18
:10155000FE4F20813181428153811091510360E01F
:1015600070E080E89FE30E94420C0E94B40C7F7000
:101570008091500302C0660F771F8A95E2F77E8341
:101580006D83AE014B5F5F4F62E0812F0E94910639
:10159000E091550323ED32E243E85AE3E63050F49C
:1015A00084E0E89FF0011124E25FFE4F2081318149
:1015B000428153811091510360E070E080E090E43B
:1015C0000E94420C0E94B40C7F708091500302C0B4
:1015D000660F771F8A95E2F77C836B83AE014D5FC0
:1015E0005F4F63E0812F0E9491068EE791E00E9499
:1015F0000904AE014F5F5F4F61E0809151030E948B
:101600005A0469817A8190E080E040E10E941604EA
:1016100087E591E00E9409048CE891E00E940904AA
:10162000AE014F5F5F4F60E0809151030E945A040A
:1016300069817A8190E080E040E10E94160487E5AC
:1016400091E00E94090441E050E06FE08091510375
:101650000E942607E091560360E070E0CB01E7307E
:1016600048F4F0E0EE0FFF1FE050FF4F6081718102
:1016700090E080E00E9400028EE991E00E9409045F
:10168000AE014F5F5F4F61E0809151030E945A04A9
:101690008A81881F8827881F90E00E945C078FEA54
:1016A00091E00E9409040E9492050E945C078EEB63
:1016B00091E00E9409040E949205BC01990F880BD9
:1016C000990B0E94EC0CE091550323ED32E243E8C4
:1016D0005AE3E63050F424E0E29FF0011124E25F87
:1016E000FE4F20813181428153810E94A10D42E051
:1016F0000E94B50587E591E00E94090400E010E032
:1017000068EE73E080E090E00E9400020E94920583
:10171000BC01990F880B990B0E94EC0C6B017C01AA
:101720000E949205BC01990F880B990B0E94EC0C4A
:10173000E091550323ED32E243E85AE3E63050F4FA
:1017400024E0E29FF0011124E25FFE4F208131810D
:10175000428153810E94A10D4B015C018DEC91E00F
:101760000E94090442E0C701B6010E94B5058AED56
:1017700091E00E94090442E0C501B4010E94B50550
:1017800087E591E00E9409040115110509F4B8CF1D
:101790000E94EC00882309F4B3CF0E940000B0CF70
:1017A0005058BB27AA270E94E80B0C94620D0E9498
:1017B000540D38F00E945B0D20F039F49F3F19F46E
:1017C00026F40C94510D0EF4E095E7FB0C944B0DB0
:1017D000E92F0E94730D58F3BA1762077307840745
:1017E000950720F079F4A6F50C94950D0EF4E0958C
:1017F0000B2EBA2FA02D0B01B90190010C01CA01CB
:10180000A0011124FF27591B99F0593F50F4503E75
:1018100068F11A16F040A22F232F342F4427585F67
:10182000F3CF469537952795A795F0405395C9F77F
:101830007EF41F16BA0B620B730B840BBAF0915037
:10184000A1F0FF0FBB1F661F771F881FC2F70EC0D6
:10185000BA0F621F731F841F48F4879577956795A9
:10186000B795F7959E3F08F0B0CF9395880F08F095
:101870009927EE0F9795879508950E94270D08F4F4
:1018800081E008950E94560C0C94620D0E945B0D3D
:1018900058F00E94540D40F029F45F3F29F00C9459
:1018A0004B0D51110C94960D0C94510D0E94730D1B
:1018B00068F39923B1F3552391F3951B550BBB277F
:1018C000AA2762177307840738F09F5F5F4F220FC4
:1018D000331F441FAA1FA9F335D00E2E3AF0E0E8BB
:1018E00032D091505040E695001CCAF72BD0FE2F05
:1018F00029D0660F771F881FBB1F26173707480799
:10190000AB07B0E809F0BB0B802DBF01FF27935850
:101910005F4F3AF09E3F510578F00C944B0D0C94BC
:10192000960D5F3FE4F3983ED4F3869577956795DF
:10193000B795F7959F5FC9F7880F911D9695879585
:1019400097F90895E1E0660F771F881FBB1F6217A4
:1019500073078407BA0720F0621B730B840BBA0B62
:10196000EE1F88F7E09508950E94BB0C6894B111B2
:101970000C94960D08950E947B0D88F09F5798F067
:10198000B92F9927B751B0F0E1F0660F771F881F84
:10199000991F1AF0BA95C9F714C0B13091F00E949E
:1019A000950DB1E008950C94950D672F782F882739
:1019B000B85F39F0B93FCCF3869577956795B395C5
:1019C000D9F73EF490958095709561957F4F8F4F34
:1019D0009F4F0895E89409C097FB3EF49095809539
:1019E000709561957F4F8F4F9F4F9923A9F0F92FE5
:1019F00096E9BB279395F695879577956795B79563
:101A0000F111F8CFFAF4BB0F11F460FF1BC06F5F48
:101A10007F4F8F4F9F4F16C0882311F096E911C05A
:101A2000772321F09EE8872F762F05C0662371F07B
:101A300096E8862F70E060E02AF09A95660F771F8F
:101A4000881FDAF7880F9695879597F90895990F6B
:101A50000008550FAA0BE0E8FEEF16161706E80778
:101A6000F907C0F012161306E407F50798F0621B99
:101A7000730B840B950B39F40A2661F0232B242B6E
:101A8000252B21F408950A2609F4A140A6958FEF8D
:101A9000811D811D089597F99F6780E870E060E0DF
:101AA00008959FEF80EC089500240A9416161706F7
:101AB00018060906089500240A941216130614063F
:101AC00005060895092E0394000C11F4882352F0A2
:101AD000BB0F40F4BF2B11F460FF04C06F5F7F4F5A
:101AE0008F4F9F4F089557FD9058440F551F59F041
:101AF0005F3F71F04795880F97FB991F61F09F3FFB
:101B000079F087950895121613061406551FF2CF23
:101B10004695F1DF08C0161617061806991FF1CF73
:101B200086957105610508940895E894BB2766279A
:101B30007727CB0197F908950E94270D08F48FEFBE
:101B400008950E94B40D0C94620D0E94540D38F05B
:101B50000E945B0D20F0952311F00C944B0D0C941A
:101B6000510D11240C94960D0E94730D70F3959FE6
:101B7000C1F3950F50E0551F629FF001729FBB2784
:101B8000F00DB11D639FAA27F00DB11DAA1F649F20
:101B90006627B00DA11D661F829F2227B00DA11DD3
:101BA000621F739FB00DA11D621F839FA00D611D59
:101BB000221F749F3327A00D611D231F849F600D7A
:101BC000211D822F762F6A2F11249F5750409AF0A3
:101BD000F1F088234AF0EE0FFF1FBB1F661F771F2F
:101BE000881F91505040A9F79E3F510580F00C94FA
:101BF0004B0D0C94960D5F3FE4F3983ED4F386951D
:101C000077956795B795F795E7959F5FC1F7FE2B99
:101C1000880F911D9695879597F908950E94270D35
:101C2000880B990B0895A1E21A2EAA1BBB1BFD017C
:101C30000DC0AA1FBB1FEE1FFF1FA217B307E407AB
:101C4000F50720F0A21BB30BE40BF50B661F771F03
:101C5000881F991F1A9469F76095709580959095E3
:101C60009B01AC01BD01CF010895EE0FFF1F059050
:0A1C7000F491E02D0994F894FFCFE1
:101C7A00841EA00FF8073E047102A0012F013DB493
:101C8A00443BD322033BD322833AD322033AD322BF
:101C9A008339D32203390000000022018200AF00F9
:101CAA006F01E000BE00D20000000000F002C30293
:101CBA0006049902BC02A9029A02493243206572BB
:101CCA00726F72203A20000D0A006E616E00696E12
:101CDA0066006F76660041445331783178204C694A
:101CEA006272617279204578616D706C6500616419
:101CFA006320636F6E666967203D2000616463201C
:101D0A00636F6E76657273696F6E203D2000616441
:101D1A006320617661696C61626C65203D200061B7
:101D2A006463206469676974616C203D20006164A2
:101D3A006320766F6C74616765203D20006164637F
:101D4A002076616C7565203D20002C20766F6C74BE
:081D5A00616765203D200000D7
:00000001FF
