:100000000C9462000C948A000C948A000C948A0070
:100010000C948A000C948A000C948A000C948A0038
:100020000C948A000C948A000C948A000C948A0028
:100030000C948A000C948A000C948A000C948A0018
:100040000C9475030C948A000C9443030C941D03C8
:100050000C948A000C948A000C948A000C948A00F8
:100060000C948A000C948A000000000025002800EF
:100070002B0000000000240027002A0000000000E0
:1000800023002600290004040404040404040202DA
:100090000202020203030303030301020408102007
:1000A0004080010204081020010204081020000012
:1000B0000008000201000003040700000000000027
:1000C00000007B0511241FBECFEFD8E0DEBFCDBFFF
:1000D00011E0A0E0B1E0ECE1F0E102C005900D928A
:1000E000A637B107D9F722E0A6E7B1E001C01D921B
:1000F000A432B207E1F710E0C2E6D0E004C02197D5
:10010000FE010E940608C136D107C9F70E94BF034D
:100110000C940C080C940000AF92BF92CF92DF9227
:10012000EF92FF920F931F93CF93DF936C017B01AC
:100130008B01040F151FEB015E01AE18BF08C0173D
:10014000D10759F06991D601ED91FC910190F081B0
:10015000E02DC6010995892B79F7C501DF91CF9173
:100160001F910F91FF90EF90DF90CF90BF90AF90D5
:100170000895FC01538D448D252F30E0842F90E0AD
:10018000821B930B541710F0CF9608950197089592
:10019000FC01918D828D981761F0A28DAE0FBF2F5B
:1001A000B11D5D968C91928D9F5F9F73928F90E0B1
:1001B00008958FEF9FEF0895FC01918D828D981720
:1001C00031F0828DE80FF11D858D90E008958FEF5D
:1001D0009FEF0895FC01918D228D892F90E0805C26
:1001E0009F4F821B91098F739927089587E891E0AB
:1001F0000E94EA0021E0892B09F420E0822F089573
:1002000080E090E0892B29F00E94F60081110C9487
:1002100000000895FC01A48DA80FB92FB11DA35AA9
:10022000BF4F2C91848D90E001968F739927848F16
:10023000A689B7892C93A089B1898C918370806439
:100240008C93938D848D981306C00288F389E02DDA
:1002500080818F7D80830895EF92FF920F931F938B
:10026000CF93DF93EC0181E0888F9B8D8C8D981369
:100270001AC0E889F989808185FF15C09FB7F89475
:10028000EE89FF896083E889F989808183708064C1
:1002900080839FBF81E090E0DF91CF911F910F910C
:1002A000FF90EF900895F62E0B8D10E00F5F1F4F1B
:1002B0000F731127E02E8C8D8E110CC00FB607FC2A
:1002C000FACFE889F989808185FFF5CFCE010E94B8
:1002D0000A01F1CFEB8DEC0FFD2FF11DE35AFF4F1B
:1002E000F0829FB7F8940B8FEA89FB898081806246
:1002F000CFCFCF93DF93EC01888D8823B9F0AA8903
:10030000BB89E889F9898C9185FD03C0808186FDD0
:100310000DC00FB607FCF7CF8C9185FFF2CF80811F
:1003200085FFEDCFCE010E940A01E9CFDF91CF9189
:100330000895833081F028F4813099F08230A9F05B
:1003400008958730A9F08830C9F08430B1F48091E5
:1003500080008F7D03C0809180008F778093800024
:10036000089584B58F7784BD089584B58F7DFBCFC4
:100370008091B0008F778093B00008958091B00095
:100380008F7DF9CFFC0101900020E9F73197AF0193
:10039000481B590BBC0187E891E00C948C008F92AC
:1003A0009F92AF92BF920F931F93CF93DF93CDB7DE
:1003B000DEB7A1970FB6F894DEBF0FBECDBF19A26E
:1003C000423008F44AE08E010F5D1F4F842E912CBD
:1003D000B12CA12CA50194010E94E407E62FB901DC
:1003E000CA01EA30F4F4E05DD801EE938D01232BCD
:1003F000242B252B79F790E080E0109719F0CD01A0
:100400000E94C201A1960FB6F894DEBF0FBECDBF09
:10041000DF91CF911F910F91BF90AF909F908F90E0
:100420000895E95CE1CF4F925F926F927F928F9235
:100430009F92AF92BF92CF92DF92EF92FF920F9373
:100440001F93CF936B017C01742EAC019B010E9422
:10045000DF07882399F082E191E0CF911F910F91FE
:10046000FF90EF90DF90CF90BF90AF909F908F90D4
:100470007F906F905F904F900C94C201460157019E
:10048000E894B7F82FEF3FEF4FE75FE7C501B401FE
:100490000E94DF0781110DC02FEF3FEF4FE75FE7AD
:1004A000C501B4010E94150618161CF486E191E0FE
:1004B000D4CF2FEF3FEF4FE75FE4C701B6010E94B3
:1004C0006D0718161CF48AE191E0C7CF2FEF3FEFBC
:1004D0004FE75FECC701B6010E94150687FDF3CF19
:1004E00020E030E0A901C701B6010E94150610E026
:1004F00000E087FF0AC06DE287E891E00E942C01CE
:100500008C01F7FAF094F7F8F094C0E060E070E046
:1005100080E09FE37C1641F020E030E040E251E4CF
:100520000E941A06CF5FF6CFA70196010E94A90587
:100530002B013C010E948C064B015C014AE00E94A9
:10054000CF017C01E00EF11ECC23C1F1C501B40145
:100550000E94BB069B01AC01C301B2010E94A80529
:100560004B015C016EE287E891E00E942C01E80EED
:10057000F91EC15018F120E030E040E251E4C5011D
:10058000B4010E9472072B013C010E948C064B01B2
:10059000B12CA12C4AE0C501B4010E94CF01E80EA4
:1005A000F91EC501B4010E94BB069B01AC01C30149
:1005B000B2010E94A8054B015C01DBCFC701CF91BE
:1005C0001F910F91FF90EF90DF90CF90BF90AF9071
:1005D0009F908F907F906F905F904F900895CF92F3
:1005E000DF92EF92FF92CF93DF936B017C01F7FED6
:1005F0001FC06DE287E891E00E942C01EC016627A4
:100600007727CB016C197D098E099F094AE00E946A
:10061000CF01C80FD91F8EE191E00E94C2018C0F5B
:100620009D1FDF91CF91FF90EF90DF90CF900895C5
:100630004AE00E94CF01EC01EECF1F920F920FB65D
:100640000F9211242F933F934F935F936F937F9358
:100650008F939F93AF93BF93EF93FF9387E891E0BE
:100660000E940A01FF91EF91BF91AF919F918F91ED
:100670007F916F915F914F913F912F910F900FBE9E
:100680000F901F9018951F920F920FB60F92112482
:100690002F938F939F93EF93FF93E0919701F091A6
:1006A00098018081E0919D01F0919E0182FD1BC027
:1006B00090818091A0018F5F8F732091A10182179B
:1006C00041F0E091A001F0E0E957FE4F958F809353
:1006D000A001FF91EF919F918F912F910F900FBEED
:1006E0000F901F9018958081F4CF1F920F920FB634
:1006F0000F9211242F933F938F939F93AF93BF93A8
:1007000080917B0190917C01A0917D01B0917E014F
:1007100030917A0123E0230F2D3758F50196A11D62
:10072000B11D20937A0180937B0190937C01A0936B
:100730007D01B0937E018091760190917701A09127
:100740007801B09179010196A11DB11D80937601C8
:1007500090937701A0937801B0937901BF91AF9105
:100760009F918F913F912F910F900FBE0F901F90EF
:10077000189526E8230F0296A11DB11DD2CF7894BB
:1007800084B5826084BD84B5816084BD85B5826096
:1007900085BD85B5816085BD80916E008160809347
:1007A0006E001092810080918100826080938100B0
:1007B00080918100816080938100809180008160C0
:1007C000809380008091B10084608093B10080911B
:1007D000B00081608093B00080917A008460809343
:1007E0007A0080917A00826080937A0080917A000A
:1007F000816080937A0080917A00806880937A008B
:100800001092C100E0919701F091980182E08083FD
:10081000E0919301F09194011082E0919501F091A3
:1008200096018FEC808310929F01E0919B01F091E3
:100830009C0186E08083E0919901F0919A0180818A
:1008400080618083E0919901F0919A0180818860B4
:100850008083E0919901F0919A0180818068808382
:10086000E0919901F0919A0180818F7D8083C6EAA1
:10087000D0E002E910E06AEBE62E60E0F62E70E0D0
:10088000C72E70E0D72E81E291E00E94C2018EE176
:1008900091E00E94C201FE012491F8018491882315
:1008A00099F090E0880F991FFC01EE58FF4FA59139
:1008B000B491FC01E859FF4F859194918FB7F8945A
:1008C0009C91292B2C938FBFF7018491FE01A4905A
:1008D000F801B490BB2091F081110E949901EB2D99
:1008E000F0E0EE0FFF1FE859FF4FA591B4918FB7CD
:1008F000F8949C91A094A922AC928FBF8DE391E0D3
:100900000E94C2012FB7F89460917B0170917C0125
:1009100080917D0190917E012FBF60938301709340
:10092000840180938501909386010E94EF02FE016D
:100930002491F80184918823C9F090E0880F991FD1
:10094000FC01EE58FF4FA591B491FC01E859FF4F0F
:10095000459154913FB7F8949C91822F80959823AC
:100960009C93FA019081892380833FBFF701849192
:10097000FE01A490F801B490BB2009F47AC0811163
:100980000E949901EB2DF0E0EE0FFF1FE458FF4F9E
:10099000A591B4918C91A82209F46BC080E291E0FA
:1009A0000E94C2018EE191E00E94C2012FB7F8942B
:1009B00060917B0170917C0180917D0190917E011D
:1009C0002FBF60937F01709380018093810190938A
:1009D00082010E94EF0280907F0190908001A090A0
:1009E0008101B09082018091830190918401A09156
:1009F0008501B0918601881A990AAA0ABB0A88E47F
:100A000091E00E94C201C501B4010E94EF02C5013C
:100A1000B4010E94BD062FE632E143E85AE30E948A
:100A2000720720E034E244E759E40E941A064B01C1
:100A30005C0185E591E00E94C20142E0C501B4017C
:100A40000E9413028EE191E00E94C20125E93FEB72
:100A500046ED55E3C501B4010E94150687FF0EC09F
:100A600085E9882E8FEB982E86EDA82E85E3B82E8B
:100A700017C08BE391E00E94C20178CF2DEB37E3E2
:100A800046E058E3C501B4010E946D07181644F40E
:100A90009DEB892E97E3992E96E0A92E98E3B92E27
:100AA00084E691E00E94C20125E93FEB46ED55E363
:100AB000C501B4010E94A80520E030E048EC52E4F2
:100AC0000E94720721E833E04FEF57E30E941A06B5
:100AD00042E00E9413028EE191E00E94C201C11423
:100AE000D10409F4D0CE0E94F600882309F4CBCEBD
:100AF0000E940000C8CEE7E8F1E01382128288EE7F
:100B000093E0A0E0B0E084839583A683B78384E07C
:100B100091E09183808385EC90E09587848784ECD5
:100B200090E09787868780EC90E0918B808B81ECBA
:100B300090E0938B828B82EC90E0958B848B86EC9B
:100B400090E0978B868B118E128E138E148E0895E3
:100B50005058BB27AA270E94C0050C9433070E9457
:100B6000250738F00E942C0720F039F49F3F19F434
:100B700026F40C9422070EF4E095E7FB0C941C0776
:100B8000E92F0E94440758F3BA17620773078407D6
:100B9000950720F079F4A6F50C9466070EF4E0951D
:100BA0000B2EBA2FA02D0B01B90190010C01CA0127
:100BB000A0011124FF27591B99F0593F50F4503ED2
:100BC00068F11A16F040A22F232F342F4427585FC4
:100BD000F3CF469537952795A795F0405395C9F7DC
:100BE0007EF41F16BA0B620B730B840BBAF0915094
:100BF000A1F0FF0FBB1F661F771F881FC2F70EC033
:100C0000BA0F621F731F841F48F487957795679505
:100C1000B795F7959E3F08F0B0CF9395880F08F0F1
:100C20009927EE0F9795879508950E94F80608F486
:100C300081E008950E942E060C9433070E942C0731
:100C400058F00E94250740F029F45F3F29F00C94EA
:100C50001C0751110C9467070C9422070E9444074B
:100C600068F39923B1F3552391F3951B550BBB27DB
:100C7000AA2762177307840738F09F5F5F4F220F20
:100C8000331F441FAA1FA9F335D00E2E3AF0E0E817
:100C900032D091505040E695001CCAF72BD0FE2F61
:100CA00029D0660F771F881FBB1F261737074807F5
:100CB000AB07B0E809F0BB0B802DBF01FF279358AD
:100CC0005F4F3AF09E3F510578F00C941C070C944E
:100CD00067075F3FE4F3983ED4F386957795679571
:100CE000B795F7959F5FC9F7880F911D96958795E2
:100CF00097F90895E1E0660F771F881FBB1F621701
:100D000073078407BA0720F0621B730B840BBA0BBE
:100D1000EE1F88F7E09508950E944C0788F09F57D2
:100D200098F0B92F9927B751B0F0E1F0660F771F0F
:100D3000881F991F1AF0BA95C9F714C0B13091F005
:100D40000E946607B1E008950C946607672F782F1C
:100D50008827B85F39F0B93FCCF3869577956795CA
:100D6000B395D9F73EF490958095709561957F4F36
:100D70008F4F9F4F0895E89409C097FB3EF49095DC
:100D80008095709561957F4F8F4F9F4F9923A9F064
:100D9000F92F96E9BB279395F695879577956795F3
:100DA000B795F111F8CFFAF4BB0F11F460FF1BC037
:100DB0006F5F7F4F8F4F9F4F16C0882311F096E9CA
:100DC00011C0772321F09EE8872F762F05C0662378
:100DD00071F096E8862F70E060E02AF09A95660F31
:100DE000771F881FDAF7880F9695879597F90895EA
:100DF000990F0008550FAA0BE0E8FEEF161617062C
:100E0000E807F907C0F012161306E407F50798F093
:100E1000621B730B840B950B39F40A2661F0232BAC
:100E2000242B252B21F408950A2609F4A140A69528
:100E30008FEF811D811D089597F99F6780E870E00D
:100E400060E008959FEF80EC089500240A94161640
:100E5000170618060906089500240A9412161306A8
:100E6000140605060895092E0394000C11F4882336
:100E700052F0BB0F40F4BF2B11F460FF04C06F5F52
:100E80007F4F8F4F9F4F089557FD9058440F551F28
:100E900059F05F3F71F04795880F97FB991F61F0FC
:100EA0009F3F79F087950895121613061406551F73
:100EB000F2CF4695F1DF08C0161617061806991FDF
:100EC000F1CF86957105610508940895E894BB27D4
:100ED00066277727CB0197F908950E94F80608F452
:100EE0008FEF08950E9485070C9433070E94250711
:100EF00038F00E942C0720F0952311F00C941C0769
:100F00000C94220711240C9467070E94440770F385
:100F1000959FC1F3950F50E0551F629FF001729F9E
:100F2000BB27F00DB11D639FAA27F00DB11DAA1FAD
:100F3000649F6627B00DA11D661F829F2227B00DFA
:100F4000A11D621F739FB00DA11D621F839FA00D85
:100F5000611D221F749F3327A00D611D231F849FD5
:100F6000600D211D822F762F6A2F11249F5750402C
:100F70009AF0F1F088234AF0EE0FFF1FBB1F661FA7
:100F8000771F881F91505040A9F79E3F510580F070
:100F90000C941C070C9467075F3FE4F3983ED4F36E
:100FA000869577956795B795F795E7959F5FC1F714
:100FB000FE2B880F911D9695879597F908950E94AD
:100FC000F806880B990B0895A1E21A2EAA1BBB1BE9
:100FD000FD010DC0AA1FBB1FEE1FFF1FA217B30705
:100FE000E407F50720F0A21BB30BE40BF50B661F1B
:100FF000771F881F991F1A9469F7609570958095DF
:1010000090959B01AC01BD01CF010895EE0FFF1F2C
:0C1010000590F491E02D0994F894FFCFB6
:10101C00000000002C018C00B9007901EA00C80026
:10102C00DC006E616E00696E66006F7666000D0AFC
:10103C00004D6561737572696E67204D6F697374CD
:10104C00757265204C6576656C2E2E2E0050726F75
:10105C006265204C6F772000526973652054696D6E
:10106C0065203A200043617061636974616E636549
:10107C00203A20004D6F697374757265204C65764B
:06108C00656C203A200013
:00000001FF
