:020000040000FA
:100000000C9458000C9480000C9480000C94800098
:100010000C9480000C9480000C9480000C94800060
:100020000C9480000C9480000C9480000C94800050
:100030000C9480000C9480000C9480000C94800040
:100040000C94C1060C9480000C948F060C946906E5
:100050000C9480000C9480000C9480000C94800020
:100060000C940B070C948000000000002500280071
:100070002B00040404040404040402020202020229
:10008000030303030303010204081020408001025C
:1000900004081020010204081020000000080002DB
:1000A00001000003040700000000000000002A080F
:1000B00011241FBECFEFD8E0DEBFCDBF11E0A0E01E
:1000C000B1E0E4E2F9E102C005900D92AE36B1076D
:1000D000D9F722E0AEE6B1E001C01D92AC3DB20717
:1000E000E1F710E0C8E5D0E004C02197FE010E94CE
:1000F0008A0CC735D107C9F70E9463080C94900C8D
:100100000C94000008950895AF92BF92CF92DF92B1
:10011000EF92FF920F931F93CF93DF936C017B01BC
:100120008B01040F151FEB015E01AE18BF08C0174D
:10013000D10759F06991D601ED91FC910190F081C0
:10014000E02DC6010995892B79F7C501DF91CF9183
:100150001F910F91FF90EF90DF90CF90BF90AF90E5
:100160000895FC01538D448D252F30E0842F90E0BD
:10017000821B930B541710F0CF96089501970895A2
:10018000FC01918D828D981761F0A28DAE0FBF2F6B
:10019000B11D5D968C91928D9F5F9F73928F90E0C1
:1001A00008958FEF9FEF0895FC01918D828D981730
:1001B00031F0828DE80FF11D858D90E008958FEF6D
:1001C0009FEF0895FC01918D228D892F90E0805C36
:1001D0009F4F821B91098F739927089583E392E0C3
:1001E0000E94E20021E0892B09F420E0822F08958B
:1001F00080E090E0892B29F00E94EE0081110C94A0
:1002000000000895FC01A48DA80FB92FB11DA35AB9
:10021000BF4F2C91848D90E001968F739927848F26
:10022000A689B7892C93A089B1898C918370806449
:100230008C93938D848D981306C00288F389E02DEA
:1002400080818F7D80830895EF92FF920F931F939B
:10025000CF93DF93EC0181E0888F9B8D8C8D981379
:100260001AC0E889F989808185FF15C09FB7F89485
:10027000EE89FF896083E889F989808183708064D1
:1002800080839FBF81E090E0DF91CF911F910F911C
:10029000FF90EF900895F62E0B8D10E00F5F1F4F2B
:1002A0000F731127E02E8C8D8E110CC00FB607FC3A
:1002B000FACFE889F989808185FFF5CFCE010E94C8
:1002C0000201F1CFEB8DEC0FFD2FF11DE35AFF4F33
:1002D000F0829FB7F8940B8FEA89FB898081806256
:1002E000CFCFCF93DF93EC01888D8823B9F0AA8913
:1002F000BB89E889F9898C9185FD03C0808186FDE1
:100300000DC00FB607FCF7CF8C9185FFF2CF80812F
:1003100085FFEDCFCE010E940201E9CFDF91CF91A1
:10032000089590E0FC01E656FF4F2491FC01EA5746
:10033000FF4F3491FC01EE58FF4FE491EE23C9F0DA
:10034000222339F0233001F1A8F4213019F12230B1
:1003500029F1F0E0EE0FFF1FE859FF4FA591B4918E
:100360008FB7F894EC91611126C030953E233C93F1
:100370008FBF08952730A9F02830C9F0243049F7FD
:10038000809180008F7D03C0809180008F77809363
:100390008000DFCF84B58F7784BDDBCF84B58F7DC0
:1003A000FBCF8091B0008F778093B000D2CF809147
:1003B000B0008F7DF9CF3E2BDACF3FB7F894809114
:1003C000B3019091B401A091B501B091B60126B5E9
:1003D000A89B05C02F3F19F00196A11DB11D3FBF7D
:1003E000BA2FA92F982F8827BC01CD01620F711D4C
:1003F000811D911D42E0660F771F881F991F4A9546
:10040000D1F7089520918F01260F3327331F213212
:100410003105ECF420910902FC0190E080E02430E9
:1004200069F082E00895A0918F012191AC014159BA
:100430005E4FA40FB52FB11D2C930196861798F32C
:1004400080918F01680F60938F0180E0089581E0B3
:1004500008951092090281E0809308021092E3014E
:1004600061E082E10E94910161E083E10E949101DB
:10047000E9EBF0E080818E7F808380818D7F8083B7
:1004800088E48093B80085E48093BC000895CF93FE
:10049000DF9391E090936E018823B9F0C091B8008A
:1004A000D091BA008091BC008A7B8093BC0060E050
:1004B00082E10E94910160E083E10E9491010E942B
:1004C0002902D093BA00C093B800DF91CF9108956C
:1004D0008F929F92AF92BF92CF92DF92EF92FF9254
:1004E0000F931F93CF93DF93D0913202D13208F054
:1004F000D7C0182FC09131020E94DD016B017C0131
:100500008091090281116BC082E0809309021093EF
:1005100008028FEF8093070210920602D093050223
:10052000A1E1B2E0E5EEF1E080E0D81391C01092D5
:10053000E4018091E401CC0FC82BC093E4018091C9
:10054000E301813009F088C01092E3010E94DD01CF
:100550006B017C018091E4018093BB0080910B02D0
:1005600090910C02A0910D02B0910E02892B8A2B62
:100570008B2BA1F00E94DD0100910B0210910C0267
:1005800020910D0230910E026C197D098E099F0990
:10059000061717072807390708F442C08091BC00E6
:1005A00083FDD8CF85EC8093BC000E94DD016B01F8
:1005B0007C0180910902823009F450C080910702C9
:1005C0008F3F09F46FC080910702803209F46CC03C
:1005D00080910702803309F469C084E026C08091CD
:1005E0000B0290910C02A0910D02B0910E02892B8A
:1005F0008A2B8B2B09F484CF0E94DD0180900B02A3
:1006000090900C02A0900D02B0900E026C197D0922
:100610008E099F0986169706A806B90608F070CFBE
:1006200080910A020E94470285E010921002109207
:10063000320210920F02DF91CF911F910F91FF9024
:10064000EF90DF90CF90BF90AF909F908F900895E4
:100650009D9191938F5F69CF85EEA5CF80910B021D
:1006600090910C02A0910D02B0910E02892B8A2B61
:100670008B2B09F49ECF0E94DD0100910B0210919B
:100680000C0220910D0230910E026C197D098E0929
:100690009F09061717072807390708F08ACFC0CF28
:1006A00081E0C3CF80E0C1CF82E0BFCF83E0BDCF88
:1006B0000895E091C0018091BF01E81730F4F0E0A7
:1006C000EF53FE4F808190E008958FEF9FEF0895E4
:1006D0009091C0018091BF012FEF3FEF981748F430
:1006E000E92FF0E0EF53FE4F208130E09F5F9093C1
:1006F000C001C90108958091BF019091C001891B7B
:10070000990B0895CF92DF92EF92FF920F931F9370
:10071000CF93DF937C01CB018A0120910F0222232A
:1007200089F0EB016B01C40ED51ECC15DD0569F017
:100730006991D701ED91FC910190F081E02DC70105
:100740000995F3CF642F0E940202C801DF91CF9177
:100750001F910F91FF90EF90DF90CF900895CF936E
:10076000DF9341E050E0BC0180ED92E00E94820303
:10077000EC0181E00E946802811103C081E02197B1
:1007800009F080E0DF91CF910895CF93DF931F921E
:10079000CDB7DEB7698320910F022223F9F02091B3
:1007A0003202203258F021E030E0FC013383228312
:1007B00090E080E00F90DF91CF910895809110023A
:1007C000E82FF0E0EF5EFD4F998190838F5F80937B
:1007D00010028093320281E090E0ECCF61E0CE0124
:1007E00001960E940202F7CF90E080E008954F92B8
:1007F0005F926F927F928F929F92AF92BF92DF92A1
:10080000EF92FF920F931F93CF93DF93D62EE72E95
:100810008A019091E10121E020930F02909331022F
:100820001092100210923202682F606880ED92E000
:100830000E94C5035C0181E00E946802C82F8111FB
:10084000D0C0AA94AB2809F0CCC0D091E1010E949D
:10085000DD014B015C0180910902811165C0F02E20
:1008600081E080930902809308029FEF9093070232
:1008700010920602900F909305028093E4018091FC
:10088000E401DD0FD82BD093E4018091E3018130A6
:1008900009F083C01092E3010E94DD014B015C016D
:1008A0008091E4018093BB0080910B0290910C0237
:1008B000A0910D02B0910E02892B8A2B8B2BA1F0F7
:1008C0000E94DD0140900B0250900C0260900D02DE
:1008D00070900E02681979098A099B094616570615
:1008E0006806790608F441C08091BC0083FDD8CF2A
:1008F00085EC8093BC000E94DD014B015C0180917E
:100900000902813009F44BC0809106028F1510F462
:10091000F0900602A5EEB1E0E1ECF1E0CF1549F16F
:100920008D918193CF5FFACF80910B0290910C0251
:10093000A0910D02B0910E02892B8A2B8B2B09F40A
:100940008ACF0E94DD0140900B0250900C02609013
:100950000D0270900E02681979098A099B094616E2
:1009600057066806790608F076CF80910A020E9441
:1009700047021092C001C093BF01C017110689F54C
:10098000CD2DDE2D0C0F1D1FC017D107D9F180ED25
:1009900092E00E9468038993F7CF85EEAACF8091F9
:1009A0000B0290910C02A0910D02B0910E02892BC6
:1009B0008A2B8B2B09F4A3CF0E94DD0140900B0200
:1009C00050900C0260900D0270900E026819790927
:1009D0008A099B09461657066806790608F08FCFE4
:1009E000C4CF80E0DF91CF911F910F91FF90EF90E6
:1009F000DF90BF90AF909F908F907F906F905F90AF
:100A00004F90089581E0EECFFC0101900020E9F7BE
:100A10003197AF01481B590BBC0183E392E00C9462
:100A200084008F929F92AF92BF920F931F93CF93A8
:100A3000DF93CDB7DEB7A1970FB6F894DEBF0FBE38
:100A4000CDBF19A2423008F44AE08E010F5D1F4F5E
:100A5000842E912CB12CA12CA50194010E94680C2C
:100A6000E62FB901CA01EA30F4F4E05DD801EE9353
:100A70008D01232B242B252B79F790E080E0109714
:100A800019F0CD010E940405A1960FB6F894DEBFBF
:100A90000FBECDBFDF91CF911F910F91BF90AF904F
:100AA0009F908F900895E95CE1CF4F925F926F9293
:100AB0007F928F929F92AF92BF92CF92DF92EF92EE
:100AC000FF920F931F93CF936B017C01742EAC01A7
:100AD0009B010E94630C882399F084E291E0CF91FE
:100AE0001F910F91FF90EF90DF90CF90BF90AF904C
:100AF0009F908F907F906F905F904F900C94040523
:100B000046015701E894B7F82FEF3FEF4FE75FE753
:100B1000C501B4010E94630C81110DC02FEF3FEF9E
:100B20004FE75FE7C501B4010E94990A18161CF44B
:100B300088E291E0D4CF2FEF3FEF4FE75FE4C701AA
:100B4000B6010E94F10B18161CF48CE291E0C7CF9D
:100B50002FEF3FEF4FE75FECC701B6010E94990A04
:100B600087FDF3CF20E030E0A901C701B6010E9464
:100B7000990A10E000E087FF0AC06DE283E392E08B
:100B80000E9424018C01F7FAF094F7F8F094C0E089
:100B900060E070E080E09FE37C1641F020E030E010
:100BA00040E251E40E949E0ACF5FF6CFA701960172
:100BB0000E942D0A2B013C010E94100B4B015C018D
:100BC0004AE00E9411057C01E00EF11ECC23C1F128
:100BD000C501B4010E943F0B9B01AC01C301B201EE
:100BE0000E942C0A4B015C016EE283E392E00E94BA
:100BF0002401E80EF91EC15018F120E030E040E277
:100C000051E4C501B4010E94F60B2B013C010E9486
:100C1000100B4B01B12CA12C4AE0C501B4010E947C
:100C20001105E80EF91EC501B4010E943F0B9B019E
:100C3000AC01C301B2010E942C0A4B015C01DBCF65
:100C4000C701CF911F910F91FF90EF90DF90CF9050
:100C5000BF90AF909F908F907F906F905F904F90DC
:100C6000089585ED8093BC0080910B0290910C0259
:100C7000A0910D02B0910E020796A11DB11D23E0B7
:100C8000B695A795979587952A95D1F72091BC00A1
:100C900024FD03C010920902089540910B02509167
:100CA0000C0260910D0270910E02452B462B472BD2
:100CB00069F30097A105B10541F025E32A95F1F705
:100CC00000000197A109B109E1CF80910A020C94BB
:100CD00047021F920F920FB60F9211242F933F934A
:100CE0004F935F936F937F938F939F93AF93BF9334
:100CF000EF93FF9383E392E00E940201FF91EF9153
:100D0000BF91AF919F918F917F916F915F914F9123
:100D10003F912F910F900FBE0F901F9018951F922B
:100D20000F920FB60F9211242F938F939F93EF93EF
:100D3000FF93E0914302F09144028081E0914902E7
:100D4000F0914A0282FD1BC0908180914C028F5F1E
:100D50008F7320914D02821741F0E0914C02F0E038
:100D6000ED5CFD4F958F80934C02FF91EF919F9129
:100D70008F912F910F900FBE0F901F90189580812B
:100D8000F4CF1F920F920FB60F9211242F933F931F
:100D90008F939F93AF93BF938091BB019091BC01C0
:100DA000A091BD01B091BE013091B20123E0230FAB
:100DB0002D3758F50196A11DB11D2093B2018093E6
:100DC000BB019093BC01A093BD01B093BE01809183
:100DD000B3019091B401A091B501B091B601019613
:100DE000A11DB11D8093B3019093B401A093B501EF
:100DF000B093B601BF91AF919F918F913F912F9189
:100E00000F900FBE0F901F90189526E8230F0296A3
:100E1000A11DB11DD2CF1F920F920FB60F921124B8
:100E20002F933F934F935F936F937F938F939F93F2
:100E3000AF93BF93EF93FF938091B900887F803683
:100E400009F44AC0F0F5883209F4A7C018F58031DA
:100E500009F49BC0B8F4882309F4F9C0883009F478
:100E600094C0FF91EF91BF91AF919F918F917F912E
:100E70006F915F914F913F912F910F900FBE0F9007
:100E80001F901895883109F488C0803251F78093FB
:100E9000070214C0803409F49DC040F48033B9F3D4
:100EA0008833F9F68093070285ECB0C0803509F4E9
:100EB00085C0883509F496C0883499F60E943106B9
:100EC000D0CF883909F48CC038F5883729F050F430
:100ED000883611F0803729F683E08093090210925A
:100EE000B10157C0883809F47BC0803919F08038C7
:100EF00009F0B7CF8091B101803208F071C0E09164
:100F0000B10181E08E0F8093B1018091BB00F0E0D0
:100F1000EF56FE4F80833DC0803B39F0E0F4803ACD
:100F200009F479C0883A09F09CCF84E080930902E3
:100F30001092900110928F01E091B901F091BA01E5
:100F4000099580918F0181110FC081E080938F01FD
:100F500010926F0109C0803C09F4A6CF883C09F4C7
:100F6000A3CF883B09F07DCFE091900181E08E0F07
:100F700080939001F0E0E159FE4F80818093BB00A7
:100F80009091900180918F0129C08091E40180931C
:100F9000BB0085EC8093BC0064CF909106028091E9
:100FA0000502981758F5E091060281E08E0F8093B4
:100FB0000602F0E0EB51FE4F8081E9CFE09106029E
:100FC00081E08E0F809306028091BB00F0E0EB5130
:100FD000FE4F808390910602809105029817C8F217
:100FE00085E8D8CFE091060281E08E0F809306025B
:100FF0008091BB00F0E0EB51FE4F808380910802AE
:1010000081115CCF81E08093E30184EA8093BC008E
:101010001092090226CF85EC8093BC001092090241
:101020008091B101803230F4E091B101F0E0EF56EF
:10103000FE4F10826091B10170E0E091B701F09134
:10104000B80181E991E009951092B1010ACF10929F
:10105000070234CFE3E3F2E01382128288EE93E0DA
:10106000A0E0B0E084839583A683B78324E031E0D9
:101070003183208325EC30E03587248724EC30E071
:101080003787268720EC30E0318B208B21EC30E055
:10109000338B228B22EC30E0358B248B26EC30E036
:1010A000378B268B118E128E138E148EE0EDF2E0AC
:1010B0001382128284839583A683B78386E191E0AD
:1010C000918380830895CF93DF93CDB7DEB72997BF
:1010D0000FB6F894DEBF0FBECDBF789484B58260A2
:1010E00084BD84B5816084BD85B5826085BD85B5CC
:1010F000816085BD80916E00816080936E0010924A
:1011000081008091810082608093810080918100C4
:101110008160809381008091800081608093800055
:101120008091B10084608093B1008091B0008160B3
:101130008093B00080917A00846080937A008091DF
:101140007A00826080937A0080917A008160809337
:101150007A0080917A00806880937A001092C100B2
:10116000E0914302F091440282E08083E0913F02EB
:10117000F09140021082E0914102F091420280E140
:10118000808310924B02E0914702F091480286E082
:101190008083E0914502F0914602808180618083E6
:1011A000E0914502F0914602808188608083E09161
:1011B0004502F0914602808180688083E09145027B
:1011C000F091460280818F7D808389E190E0909349
:1011D000E2018093E1011092C0011092BF011092D0
:1011E0001002109232020E94290282E890E090934D
:1011F000BA018093B90183E890E09093B80180939D
:10120000B70141E050E0BE01675F7F4F87E20E9477
:10121000F7038823F1F1898583FF0AC046E050E097
:10122000BE016F5F7F4F88E20E94F703882389F138
:1012300088EB88878091E10111E010930F02809381
:101240003102109210021092320263EA80ED92E0B5
:101250000E94C5030197E9F4CE0108960E94AF03EE
:101260008823B9F087E28F838091E10110930F0208
:1012700080933102109210021092320260EA80EDE7
:1012800092E00E94C503019721F4CE0107960E94C7
:10129000AF0300E010E08FB7F894C090BB01D0908E
:1012A000BC01E090BD01F090BE018FBF41E050E075
:1012B000BE016F5F7F4F87E20E94F7038823B9F07A
:1012C000898183FD17C02FB7F8948091BB0190915D
:1012D000BC01A091BD01B091BE012FBF8C199D0929
:1012E000AE09BF09893E9340A105B105F8F282E538
:1012F00091E07BC046E050E0BE016F5F7F4F88E227
:101300000E94F703882399F36A8180E16802B001A3
:101310001124898190E024E0959587952A95E1F73D
:10132000680F791F072E000C880B990B0E94410B48
:1013300026EA3BE944E45CE30E94F60B4B015C01C6
:101340006C8120E16202B00111248B8190E034E0D5
:10135000959587953A95E1F7680F791F072E000C50
:10136000880B990B0E94410B26EA3BE944E45CE3BD
:101370000E94F60B6B017C016E8180E16802B00176
:1013800011248D8190E044E0959587954A95E1F789
:10139000680F791F072E000C880B990B0E94410BD8
:1013A00026EA3BE944E45CE30E94F60B2B013C0196
:1013B00080E391E00E94040542E0C501B4010E946F
:1013C000550581E491E00E94040542E0C701B601A1
:1013D0000E94550587E491E00E94040542E0C301A4
:1013E000B2010E9455058DE491E00E9404058FE44E
:1013F00091E00E9404050E94DD014B015C0188EE32
:10140000C82E83E0D82EE12CF12C0E94DD01681952
:1014100079098A099B09683E734081059105A8F303
:1014200021E0C21AD108E108F10888EE880E83E0B5
:10143000981EA11CB11CC114D104E104F10429F7C8
:101440000115110509F427CF0E94EE00882309F445
:1014500022CF0E9400001FCF5058BB27AA270E940E
:10146000440A0C94B70B0E94A90B38F00E94B00BF1
:1014700020F039F49F3F19F426F40C94A60B0EF4D7
:10148000E095E7FB0C94A00BE92F0E94C80B58F3E2
:10149000BA17620773078407950720F079F4A6F559
:1014A0000C94EA0B0EF4E0950B2EBA2FA02D0B0135
:1014B000B90190010C01CA01A0011124FF27591B99
:1014C00099F0593F50F4503E68F11A16F040A22F9F
:1014D000232F342F4427585FF3CF46953795279510
:1014E000A795F0405395C9F77EF41F16BA0B620B0F
:1014F000730B840BBAF09150A1F0FF0FBB1F661F56
:10150000771F881FC2F70EC0BA0F621F731F841F98
:1015100048F4879577956795B795F7959E3F08F0BE
:10152000B0CF9395880F08F09927EE0F9795879580
:1015300008950E947C0B08F481E008950E94B20A8D
:101540000C94B70B0E94B00B58F00E94A90B40F00E
:1015500029F45F3F29F00C94A00B51110C94EB0B74
:101560000C94A60B0E94C80B68F39923B1F3552382
:1015700091F3951B550BBB27AA27621773078407A6
:1015800038F09F5F5F4F220F331F441FAA1FA9F33C
:1015900035D00E2E3AF0E0E832D091505040E6952A
:1015A000001CCAF72BD0FE2F29D0660F771F881F8B
:1015B000BB1F261737074807AB07B0E809F0BB0B7E
:1015C000802DBF01FF2793585F4F3AF09E3F510592
:1015D00078F00C94A00B0C94EB0B5F3FE4F3983E77
:1015E000D4F3869577956795B795F7959F5FC9F77B
:1015F000880F911D9695879597F90895E1E0660FFC
:10160000771F881FBB1F621773078407BA0720F074
:10161000621B730B840BBA0BEE1F88F7E0950895DD
:101620000E94D00B88F09F5798F0B92F9927B75197
:10163000B0F0E1F0660F771F881F991F1AF0BA9576
:10164000C9F714C0B13091F00E94EA0BB1E00895DF
:101650000C94EA0B672F782F8827B85F39F0B93FD1
:10166000CCF3869577956795B395D9F73EF4909529
:101670008095709561957F4F8F4F9F4F0895E894A7
:1016800009C097FB3EF490958095709561957F4FCA
:101690008F4F9F4F9923A9F0F92F96E9BB27939578
:1016A000F695879577956795B795F111F8CFFAF488
:1016B000BB0F11F460FF1BC06F5F7F4F8F4F9F4FB9
:1016C00016C0882311F096E911C0772321F09EE817
:1016D000872F762F05C0662371F096E8862F70E07D
:1016E00060E02AF09A95660F771F881FDAF7880F57
:1016F0009695879597F90895990F0008550FAA0BAD
:10170000E0E8FEEF16161706E807F907C0F0121614
:101710001306E407F50798F0621B730B840B950B17
:1017200039F40A2661F0232B242B252B21F408956C
:101730000A2609F4A140A6958FEF811D811D089509
:1017400097F99F6780E870E060E008959FEF80EC74
:10175000089500240A941616170618060906089517
:1017600000240A9412161306140605060895092E7D
:101770000394000C11F4882352F0BB0F40F4BF2BEC
:1017800011F460FF04C06F5F7F4F8F4F9F4F08952C
:1017900057FD9058440F551F59F05F3F71F0479522
:1017A000880F97FB991F61F09F3F79F08795089507
:1017B000121613061406551FF2CF4695F1DF08C026
:1017C000161617061806991FF1CF86957105610543
:1017D00008940895E894BB2766277727CB0197F9EB
:1017E00008950E947C0B08F48FEF08950E94090C65
:1017F0000C94B70B0E94A90B38F00E94B00B20F09C
:10180000952311F00C94A00B0C94A60B11240C94AE
:10181000EB0B0E94C80B70F3959FC1F3950F50E03E
:10182000551F629FF001729FBB27F00DB11D639F92
:10183000AA27F00DB11DAA1F649F6627B00DA11D38
:10184000661F829F2227B00DA11D621F739FB00DDE
:10185000A11D621F839FA00D611D221F749F33274E
:10186000A00D611D231F849F600D211D822F762FE7
:101870006A2F11249F5750409AF0F1F088234AF0C4
:10188000EE0FFF1FBB1F661F771F881F9150504030
:10189000A9F79E3F510580F00C94A00B0C94EB0B24
:1018A0005F3FE4F3983ED4F3869577956795B795B7
:1018B000F795E7959F5FC1F7FE2B880F911D9695D1
:1018C000879597F908950E947C0B880B990B0895D2
:1018D000A1E21A2EAA1BBB1BFD010DC0AA1FBB1F34
:1018E000EE1FFF1FA217B307E407F50720F0A21BA6
:1018F000B30BE40BF50B661F771F881F991F1A9413
:1019000069F760957095809590959B01AC01BD013C
:10191000CF010895EE0FFF1F0590F491E02D09947B
:10192000F894FFCF0000000024018400B100710191
:10193000E200C000D40000000000C5038203F403ED
:1019400058037B03680359036E616E00696E66007D
:101950006F766600416363656C65726174696F6E72
:101960003A20782000672C20792000672C207A20EC
:101970000067000D0A0043616E6E6F74206D656133
:101980007375726520616363656C65726174696FFC
:021990006E00E7
:107E0000112484B714BE81FFF0D085E080938100F7
:107E100082E08093C00088E18093C10086E0809377
:107E2000C20080E18093C4008EE0C9D0259A86E02C
:107E300020E33CEF91E0309385002093840096BBD3
:107E4000B09BFECF1D9AA8958150A9F7CC24DD24C4
:107E500088248394B5E0AB2EA1E19A2EF3E0BF2EE7
:107E6000A2D0813461F49FD0082FAFD0023811F036
:107E7000013811F484E001C083E08DD089C08234E0
:107E800011F484E103C0853419F485E0A6D080C0E4
:107E9000853579F488D0E82EFF2485D0082F10E0AE
:107EA000102F00270E291F29000F111F8ED06801E7
:107EB0006FC0863521F484E090D080E0DECF843638
:107EC00009F040C070D06FD0082F6DD080E0C81688
:107ED00080E7D80618F4F601B7BEE895C0E0D1E017
:107EE00062D089930C17E1F7F0E0CF16F0E7DF06D8
:107EF00018F0F601B7BEE89568D007B600FCFDCFD4
:107F0000A601A0E0B1E02C9130E011968C91119780
:107F100090E0982F8827822B932B1296FA010C0160
:107F200087BEE89511244E5F5F4FF1E0A038BF0790
:107F300051F7F601A7BEE89507B600FCFDCF97BE46
:107F4000E89526C08437B1F42ED02DD0F82E2BD052
:107F50003CD0F601EF2C8F010F5F1F4F84911BD097
:107F6000EA94F801C1F70894C11CD11CFA94CF0C13
:107F7000D11C0EC0853739F428D08EE10CD085E9AC
:107F80000AD08FE07ACF813511F488E018D01DD067
:107F900080E101D065CF982F8091C00085FFFCCF94
:107FA0009093C60008958091C00087FFFCCF809118
:107FB000C00084FD01C0A8958091C6000895E0E648
:107FC000F0E098E1908380830895EDDF803219F02E
:107FD00088E0F5DFFFCF84E1DECF1F93182FE3DFCA
:107FE0001150E9F7F2DF1F91089580E0E8DFEE27F6
:047FF000FF270994CA
:027FFE00040479
:00000001FF
