:100000000C9462000C948A000C948A000C948A0070
:100010000C948A000C948A000C948A000C948A0038
:100020000C948A000C948A000C948A000C948A0028
:100030000C948A000C948A000C948A000C948A0018
:100040000C9465020C948A000C94D5020C94AF02B7
:100050000C948A000C948A000C948A000C948A00F8
:100060000C948A000C948A000000000024002700F1
:100070002A0000000000250028002B0000000000DE
:1000800023002600290004040404040404040202DA
:100090000202020203030303030301020408102007
:1000A0004080010204081020010204081020000012
:1000B0000008000201000003040700000000000027
:1000C00000004C0411241FBECFEFD8E0DEBFCDBF2F
:1000D00011E0A0E0B1E0E6E4F9E002C005900D9285
:1000E000A83EB107D9F722E0A8EEB1E001C01D9209
:1000F000A239B207E1F710E0C2E6D0E004C02197D0
:10010000FE010E949B04C136D107C9F70E94070374
:100110000C94A1040C940000AF92BF92CF92DF9296
:10012000EF92FF920F931F93CF93DF936C017B01AC
:100130008B01040F151FEB015E01AE18BF08C0173D
:10014000D10759F06991D601ED91FC910190F081B0
:10015000E02DC6010995892B79F7C501DF91CF9173
:100160001F910F91FF90EF90DF90CF90BF90AF90D5
:100170000895FC01538D448D252F30E0842F90E0AD
:10018000821B930B541710F0CF9608950197089592
:10019000FC01918D828D981761F0A28DAE0FBF2F5B
:1001A000B11D5D968C91928D9F5F9F73928F90E0B1
:1001B00008958FEF9FEF0895FC01918D828D981720
:1001C00031F0828DE80FF11D858D90E008958FEF5D
:1001D0009FEF0895FC01918D228D892F90E0805C26
:1001E0009F4F821B91098F739927089585EF91E0A6
:1001F0000E94EA0021E0892B09F420E0822F089573
:1002000080E090E0892B29F00E94F60081110C9487
:1002100000000895FC01A48DA80FB92FB11DA35AA9
:10022000BF4F2C91848D90E001968F739927848F16
:10023000A689B7892C93A089B1898C918370806439
:100240008C93938D848D981306C00288F389E02DDA
:1002500080818F7D80830895EF92FF920F931F938B
:10026000CF93DF93EC0181E0888F9B8D8C8D981369
:100270001AC0E889F989808185FF15C09FB7F89475
:10028000EE89FF896083E889F989808183708064C1
:1002900080839FBF81E090E0DF91CF911F910F910C
:1002A000FF90EF900895F62E0B8D10E00F5F1F4F1B
:1002B0000F731127E02E8C8D8E110CC00FB607FC2A
:1002C000FACFE889F989808185FFF5CFCE010E94B8
:1002D0000A01F1CFEB8DEC0FFD2FF11DE35AFF4F1B
:1002E000F0829FB7F8940B8FEA89FB898081806246
:1002F000CFCFCF93DF93EC01888D8823B9F0AA8903
:10030000BB89E889F9898C9185FD03C0808186FDD0
:100310000DC00FB607FCF7CF8C9185FFF2CF80811F
:1003200085FFEDCFCE010E940A01E9CFDF91CF9189
:100330000895833081F028F4813099F08230A9F05B
:1003400008958730A9F08830C9F08430B1F48091E5
:1003500080008F7D03C0809180008F778093800024
:10036000089584B58F7784BD089584B58F7DFBCFC4
:100370008091B0008F778093B00008958091B00095
:100380008F7DF9CFCF93DF93282F30E0F901E2552D
:10039000FF4F8491F901E656FF4FD491F901EA57D6
:1003A000FF4FC491CC23A1F081110E949901EC2F41
:1003B000F0E0EE0FFF1FE458FF4FA591B491EC91D0
:1003C000ED2381E090E009F480E0DF91CF91089582
:1003D00080E090E0FACF1F93CF93DF93282F30E097
:1003E000F901E255FF4F8491F901E656FF4FD49190
:1003F000F901EA57FF4FC491CC23A9F0162F8111C0
:100400000E949901EC2FF0E0EE0FFF1FEE58FF4F16
:10041000A591B4918FB7F894EC91111108C0D095C3
:10042000DE23DC938FBFDF91CF911F910895DE2BE8
:10043000F8CFCF93DF9390E0FC01E656FF4F249175
:100440008A579F4FFC0184918823D1F090E0880F58
:10045000991FFC01E859FF4FA591B491FC01EE589A
:10046000FF4FC591D49161110EC09FB7F8948C9144
:10047000E22FE0958E238C932881E223E8839FBFAF
:10048000DF91CF9108958FB7F894EC91E22BEC9324
:100490008FBFF6CFFC0101900020E9F73197AF0143
:1004A000481B590BBC0185EF91E00C948C00CF9355
:1004B000DF930E944A02EC0182E191E00E944A022D
:1004C0008C0F9D1FDF91CF9108951F920F920FB651
:1004D0000F9211242F933F938F939F93AF93BF93CA
:1004E0008091F1019091F201A091F301B091F4019A
:1004F0003091F00123E0230F2D3758F50196A11D0F
:10050000B11D2093F0018093F1019093F201A0932B
:10051000F301B093F4018091EC019091ED01A09171
:10052000EE01B091EF010196A11DB11D8093EC0188
:100530009093ED01A093EE01B093EF01BF91AF91C5
:100540009F918F913F912F910F900FBE0F901F9011
:10055000189526E8230F0296A11DB11DD2CF1F9238
:100560000F920FB60F9211242F933F934F935F93E7
:100570006F937F938F939F93AF93BF93EF93FF936B
:1005800085EF91E00E940A01FF91EF91BF91AF9139
:100590009F918F917F916F915F914F913F912F919B
:1005A0000F900FBE0F901F9018951F920F920FB6CD
:1005B0000F9211242F938F939F93EF93FF93E091CA
:1005C0000502F09106028081E0910B02F0910C028D
:1005D00082FD1BC0908180910E028F5F8F732091EE
:1005E0000F02821741F0E0910E02F0E0EB50FE4F57
:1005F000958F80930E02FF91EF919F918F912F9194
:100600000F900FBE0F901F9018958081F4CFCF935D
:10061000DF93CDB7DEB7A1970FB6F894DEBF0FBE5C
:10062000CDBF789484B5826084BD84B5816084BD7B
:1006300085B5826085BD85B5816085BD80916E0080
:10064000816080936E0010928100809181008260B1
:1006500080938100809181008160809381008091EE
:1006600080008160809380008091B10084608093DD
:10067000B1008091B00081608093B00080917A00D9
:10068000846080937A0080917A00826080937A00FF
:1006900080917A00816080937A0080917A008068EE
:1006A00080937A001092C10010E061E0812F0E94D7
:1006B00019021F5F1830C9F760E08BE00E94190231
:1006C00060E08CE00E94190260E08DE00E94190257
:1006D000E0910502F091060282E08083E091010240
:1006E000F09102021082E0910302F09104028FEC7B
:1006F000808310920D02E0910902F0910A0286E0D7
:100700008083E0910702F0910802808180618083FC
:10071000E0910702F0910802808188608083E09177
:100720000702F0910802808180688083E0910702CF
:10073000F091080280818F7D808385E191E00E94A5
:10074000570286E391E00E94570280E591E00E9403
:10075000570280E891E00E94570286EB91E00E94E8
:1007600057028AE0882E912CA12CB12C00E010E0D9
:100770008DE00E94C20131E020E0019709F030E0F5
:10078000E32EF22E8CE00E94C201019719F482E060
:10079000E80EF11C8BE00E94C201019719F494E06D
:1007A000E90EF11CF092EB01E092EA018091E80180
:1007B0009091E9018E159F0509F44CC082ED91E0FE
:1007C0000E944A02C090EA01D090EB010D2C000C6F
:1007D000EE08FF08F7FE4AC06DE285EF91E00E9447
:1007E0002C0122273327A9012C193D094E095F0945
:1007F00019A2FE01B1967F01CA01B901A5019401B8
:100800000E947904605DF70162937F012115310533
:100810004105510589F7E114F10419F0C7010E945F
:100820004A0282E191E00E944A02F12C60E08F2DA1
:100830000E94EB01F394F8E0FF12F8CFF090EA0188
:10084000E090EB0161E08F2D0E94EB01F092E80156
:10085000E092E9010115110509F48ACF0E94F60022
:10086000882309F485CF0E94000082CFA70196015A
:1008700019A2CE0181967C01CA01B901A50194019A
:100880000E947904605DF70162937F0121153105B3
:100890004105510589F7BFCFE5EFF1E013821282E0
:1008A00088EE93E0A0E0B0E084839583A683B783CD
:1008B00084E091E09183808385EC90E09587848744
:1008C00084EC90E09787868780EC90E0918B808B1A
:1008D00081EC90E0938B828B82EC90E0958B848B03
:1008E00086EC90E0978B868B118E128E138E148E71
:1008F0000895A1E21A2EAA1BBB1BFD010DC0AA1F61
:10090000BB1FEE1FFF1FA217B307E407F50720F078
:10091000A21BB30BE40BF50B661F771F881F991FF3
:100920001A9469F760957095809590959B01AC013C
:10093000BD01CF010895EE0FFF1F0590F491E02D4A
:060940000994F894FFCFBA
:10094600000000002C018C00B9007901EA00C80003
:10095600DC000D0A00496E697469616C697A656428
:100966002053657269616C20436F6D6D756E6963A6
:100976006174696F6E00436F6E76657274204269AA
:100986006E61727920746F20446563696D616C00D5
:100996005573652074686520737769746368657339
:1009A60020746F20696E707574206120332D626922
:1009B600742062696E6172792076616C75652000BB
:1009C6004E4F54453A205468652070696E73206115
:1009D6007265206D61707065642061732069322CC8
:1009E6002069312C206930203D3E2031312C2031C8
:1009F600322C2031330020202020202069652E2033
:100A060050696E20313120697320746865204D531A
:100A16004200446563696D616C2045717569766154
:080A26006C656E74203A20009B
:00000001FF
