:100000000C9462000C948A000C948A000C948A0070
:100010000C948A000C948A000C948A000C948A0038
:100020000C948A000C948A000C948A000C948A0028
:100030000C948A000C948A000C948A000C948A0018
:100040000C9435080C948A000C9403080C94DD077A
:100050000C948A000C948A000C948A000C948A00F8
:100060000C947F080C948A000000000023002600F6
:10007000290000000000240027002A0000000000E2
:10008000250028002B0004040404040404040202D4
:100090000202020203030303030301020408102007
:1000A0004080010204081020010204081020000012
:1000B0000008000201000003040700000000000027
:1000C00000009E0911241FBECFEFD8E0DEBFCDBFD8
:1000D00011E0A0E0B1E0E4E7FEE102C005900D927E
:1000E000A238B107D9F723E0A2E8B1E001C01D9220
:1000F000A130B207E1F710E0C2E6D0E004C02197DA
:10010000FE010E94FE0DC136D107C9F70E94E80921
:100110000C94380F0C94000008950895AF92BF928C
:10012000CF92DF92EF92FF920F931F93CF93DF93C3
:100130006C017B018B01040F151FEB015E01AE18F2
:10014000BF08C017D10759F06991D601ED91FC9114
:100150000190F081E02DC6010995892B79F7C50141
:10016000DF91CF911F910F91FF90EF90DF90CF9093
:10017000BF90AF900895FC01538D448D252F30E042
:10018000842F90E0821B930B541710F0CF960895A4
:1001900001970895FC01918D828D981761F0A28DD1
:1001A000AE0FBF2FB11D5D968C91928D9F5F9F7397
:1001B000928F90E008958FEF9FEF0895FC01918D4D
:1001C000828D981731F0828DE80FF11D858D90E0BA
:1001D00008958FEF9FEF0895FC01918D228D892F57
:1001E00090E0805C9F4F821B91098F73992708953F
:1001F00085E492E00E94EC0021E0892B09F420E0E4
:10020000822F089580E090E0892B29F00E94F80069
:1002100081110C9400000895FC01A48DA80FB92F42
:10022000B11DA35ABF4F2C91848D90E001968F731E
:100230009927848FA689B7892C93A089B1898C913D
:10024000837080648C93938D848D981306C002888C
:10025000F389E02D80818F7D80830895EF92FF9256
:100260000F931F93CF93DF93EC0181E0888F9B8DD9
:100270008C8D98131AC0E889F989808185FF15C093
:100280009FB7F894EE89FF896083E889F9898081B6
:100290008370806480839FBF81E090E0DF91CF9185
:1002A0001F910F91FF90EF900895F62E0B8D10E0A7
:1002B0000F5F1F4F0F731127E02E8C8D8E110CC016
:1002C0000FB607FCFACFE889F989808185FFF5CF61
:1002D000CE010E940C01F1CFEB8DEC0FFD2FF11D33
:1002E000E35AFF4FF0829FB7F8940B8FEA89FB899E
:1002F00080818062CFCFCF93DF93EC01888D8823FC
:10030000B9F0AA89BB89E889F9898C9185FD03C078
:10031000808186FD0DC00FB607FCF7CF8C9185FF5D
:10032000F2CF808185FFEDCFCE010E940C01E9CF95
:10033000DF91CF910895833081F028F4813099F0D6
:100340008230A9F008958730A9F08830C9F0843050
:10035000B1F4809180008F7D03C0809180008F7701
:1003600080938000089584B58F7784BD089584B507
:100370008F7DFBCF8091B0008F778093B000089580
:100380008091B0008F7DF9CF1F93CF93DF93282FFB
:1003900030E0F901E255FF4F8491F901E656FF4F35
:1003A000D491F901EA57FF4FC491CC23A9F0162F3D
:1003B00081110E949B01EC2FF0E0EE0FFF1FE4582B
:1003C000FF4FA591B4918FB7F894EC91111108C02B
:1003D000D095DE23DC938FBFDF91CF911F910895DD
:1003E000DE2BF8CFCF93DF9390E0FC01E656FF4F72
:1003F00024918A579F4FFC0184918823D1F090E08B
:10040000880F991FFC01EE58FF4FA591B491FC0194
:10041000E458FF4FC591D49161110EC09FB7F89475
:100420008C91E22FE0958E238C932881E223E88340
:100430009FBFDF91CF9108958FB7F894EC91E22B95
:10044000EC938FBFF6CF3FB7F8948091CB0190919A
:10045000CC01A091CD01B091CE0126B5A89B05C0DD
:100460002F3F19F00196A11DB11D3FBFBA2FA92F33
:10047000982F8827BC01CD01620F711D811D911D30
:1004800042E0660F771F881F991F4A95D1F708959C
:1004900008954F925F926F927F928F929F92AF9248
:1004A000BF92CF92DF92EF92FF920F931F93CF9361
:1004B000DF93782E642E522E07E010E0912CEE246C
:1004C000E394F12CC62FD0E0CE0182559F4F6C01F2
:1004D000FE01E656FF4F5F01CA57DF4F990C60E0FF
:1004E000872D0E94C401B701002E01C0660F0A9437
:1004F000EAF76521862D0E94C40161E0872D0E94E4
:10050000C401F6018491F5018490FE0144904420D9
:1005100081F081110E949B01E42DF0E0EE0FFF1F9E
:10052000E859FF4FA591B4918C91882211F06894FD
:1005300090F80150110990F6892DDF91CF911F910C
:100540000F91FF90EF90DF90CF90BF90AF909F9072
:100550008F907F906F905F904F90089508952091B5
:10056000A301260F3327331F21323105ECF42091EC
:100570001B02FC0190E080E0243069F082E00895E5
:10058000A091A3012191AC014D575E4FA40FB52F4F
:10059000B11D2C930196861798F38091A301680FE3
:1005A0006093A30180E0089581E0089510921B02FA
:1005B00081E080931A021092F50161E082E10E94CD
:1005C000C40161E083E10E94C401E9EBF0E08081B5
:1005D0008E7F808380818D7F808388E48093B800C4
:1005E00085E48093BC000895CF93DF9391E09093CE
:1005F00082018823B9F0C091B800D091BA008091EF
:10060000BC008A7B8093BC0060E082E10E94C40150
:1006100060E083E10E94C4010E94D602D093BA0038
:10062000C093B800DF91CF9108958F929F92AF92BF
:10063000BF92CF92DF92EF92FF920F931F93CF93CF
:10064000DF93D0914402D13208F0D7C0182FC09167
:1006500043020E9423026B017C0180911B028111E5
:100660006BC082E080931B0210931A028FEF80937D
:10067000190210921802D0931702A3E2B2E0E7EF3A
:10068000F1E080E0D81391C01092F6018091F6015C
:10069000CC0FC82BC093F6018091F501813009F091
:1006A00088C01092F5010E9423026B017C018091A9
:1006B000F6018093BB0080911D0290911E02A091D3
:1006C0001F02B0912002892B8A2B8B2BA1F00E9454
:1006D000230200911D0210911E0220911F023091F1
:1006E00020026C197D098E099F0906171707280734
:1006F000390708F442C08091BC0083FDD8CF85EC57
:100700008093BC000E9423026B017C0180911B023C
:10071000823009F450C0809119028F3F09F46FC0F4
:1007200080911902803209F46CC0809119028033E3
:1007300009F469C084E026C080911D0290911E02D8
:10074000A0911F02B0912002892B8A2B8B2B09F4D8
:1007500084CF0E94230280901D0290901E02A090E0
:100760001F02B09020026C197D098E099F09861620
:100770009706A806B90608F070CF80911C020E9467
:10078000F40285E01092220210924402109221029B
:10079000DF91CF911F910F91FF90EF90DF90CF905D
:1007A000BF90AF909F908F9008959D9191938F5F90
:1007B00069CF85EEA5CF80911D0290911E02A09178
:1007C0001F02B0912002892B8A2B8B2B09F49ECF1C
:1007D0000E94230200911D0210911E0220911F020F
:1007E000309120026C197D098E099F0906171707A1
:1007F0002807390708F08ACFC0CF81E0C3CF80E057
:10080000C1CF82E0BFCF83E0BDCFCF92DF92EF9226
:10081000FF920F931F93CF93DF93D82FC62F613290
:1008200008F098C00E9423026B017C0180911B029A
:1008300081116BC081E080931B0280931A029FEFAD
:1008400090931902109218029C0F909317028093B4
:10085000F6018091F601DD0FD82BD093F60180913F
:10086000F501813009F078C01092F5010E94230251
:100870006B017C018091F6018093BB0080911D0289
:1008800090911E02A0911F02B0912002892B8A2B09
:100890008B2BA1F00E94230200911D0210911E02D9
:1008A00020911F02309120026C197D098E099F0949
:1008B000061717072807390708F448C08091BC00BD
:1008C00083FDD8CF85EC8093BC000E9423026B018E
:1008D0007C0180911B02813009F440C08091180294
:1008E0008C1710F4C0911802E7EFF1E0A5EDB1E02C
:1008F00080E08C1355C08C2FDF91CF911F910F9109
:10090000FF90EF90DF90CF90089580911D0290911D
:100910001E02A0911F02B0912002892B8A2B8B2BE3
:1009200009F484CF0E94230200911D0210911E023F
:1009300020911F02309120026C197D098E099F09B8
:10094000061717072807390708F070CF80911C0297
:100950000E94F402C0E0CFCF85EEB5CF80911D029A
:1009600090911E02A0911F02B0912002892B8A2B28
:100970008B2B09F4AECF0E94230200911D0210912F
:100980001E0220911F02309120026C197D098E09F0
:100990009F09061717072807390708F09ACFD6CFFF
:1009A00091919D938F5FA5CF0895E091D40180919F
:1009B000D301E81730F4F0E0EB52FE4F808190E075
:1009C00008958FEF9FEF08959091D4018091D30106
:1009D0002FEF3FEF981748F4E92FF0E0EB52FE4F6E
:1009E000208130E09F5F9093D401C90108958091E8
:1009F000D3019091D401891B990B0895CF92DF9276
:100A0000EF92FF920F931F93CF93DF937C01CB0163
:100A10008A0120912102222389F0EB016B01C40E8F
:100A2000D51ECC15DD0569F06991D701ED91FC91DA
:100A30000190F081E02DC7010995F3CF642F0E944A
:100A4000AF02C801DF91CF911F910F91FF90EF90FE
:100A5000DF90CF900895CF93DF931F92CDB7DEB78D
:100A60006983209121022223F9F02091440220324F
:100A700058F021E030E0FC013383228390E080E0F5
:100A80000F90DF91CF91089580912202E82FF0E03E
:100A9000ED5DFD4F998190838F5F8093220280935B
:100AA000440281E090E0ECCF61E0CE0101960E942B
:100AB000AF02F7CF90E080E00895FC0101900020A4
:100AC000E9F73197AF01481B590BBC0185E492E06F
:100AD0000C948E008F929F92AF92BF920F931F93B0
:100AE000CF93DF93CDB7DEB7A1970FB6F894DEBFF3
:100AF0000FBECDBF19A2423008F44AE08E010F5D4F
:100B00001F4F842E912CB12CA12CA50194010E9481
:100B1000DC0DE62FB901CA01EA30F4F4E05DD8013A
:100B2000EE938D01232B242B252B79F790E080E089
:100B3000109719F0CD010E945D05A1960FB6F894AB
:100B4000DEBF0FBECDBFDF91CF911F910F91BF9040
:100B5000AF909F908F900895E95CE1CF4F925F92A4
:100B60006F927F928F929F92AF92BF92CF92DF92BD
:100B7000EF92FF920F931F93CF936B017C01742E22
:100B8000AC019B010E94D70D882399F088E391E086
:100B9000CF911F910F91FF90EF90DF90CF90BF907A
:100BA000AF909F908F907F906F905F904F900C943C
:100BB0005D0546015701E894B7F82FEF3FEF4FE787
:100BC0005FE7C501B4010E94D70D81110DC02FEF61
:100BD0003FEF4FE75FE7C501B4010E940D0C181607
:100BE0001CF48CE391E0D4CF2FEF3FEF4FE75FE4AD
:100BF000C701B6010E94650D18161CF480E491E04F
:100C0000C7CF2FEF3FEF4FE75FECC701B6010E9460
:100C10000D0C87FDF3CF20E030E0A901C701B6013C
:100C20000E940D0C10E000E087FF0AC06DE285E431
:100C300092E00E942E018C01F7FAF094F7F8F094FC
:100C4000C0E060E070E080E09FE37C1641F020E0CF
:100C500030E040E251E40E94120CCF5FF6CFA701D2
:100C600096010E94A10B2B013C010E94840C4B01B8
:100C70005C014AE00E946A057C01E00EF11ECC2373
:100C8000C1F1C501B4010E94B30C9B01AC01C301C9
:100C9000B2010E94A00B4B015C016EE285E492E080
:100CA0000E942E01E80EF91EC15018F120E030E03C
:100CB00040E251E4C501B4010E946A0D2B013C01E0
:100CC0000E94840C4B01B12CA12C4AE0C501B40157
:100CD0000E946A05E80EF91EC501B4010E94B30C1A
:100CE0009B01AC01C301B2010E94A00B4B015C014E
:100CF000DBCFC701CF911F910F91FF90EF90DF9055
:100D0000CF90BF90AF909F908F907F906F905F90AB
:100D10004F9008950F931F93CF93DF93EC01162FFD
:100D20008D85882359F18E8591E0909321028093DF
:100D30004302109222021092440282EE92E00E943C
:100D40002B0581E00E94150362E08E850E94050458
:100D50001092D4018093D30182EE92E00E94E404C9
:100D6000C82F82EE92E00E94E40400E0182F0C2BC2
:100D7000C801DF91CF911F910F91089560E08C859C
:100D80000E94C401212F206C4A856B8589850E94B1
:100D900049022FEF4A856B8589850E944902082FF9
:100DA0002FEF4A856B8589850E944902182F61E0E3
:100DB0008C850E94C401DCCF0C94A00E0F931F936E
:100DC000CF93DF938C01EB0188E2FB0111928A95AE
:100DD000E9F74BE050E064E471E0CE010E94290F96
:100DE0001B8681E090E0A0E0B0E08C879D87AE8715
:100DF000BF87F8014381548165817681488B598B87
:100E00006A8B7B8B8C8B9D8BAE8BBF8B1CA21DA2A8
:100E10001EA21FA28AE098EEACE1B3EC888F998FF6
:100E2000AA8FBB8F8AE098EEACE1B3E48C8F9D8FE4
:100E3000AE8FBF8F83EA9FEAA0E2BDE388A399A3A8
:100E4000AAA3BBA3DF91CF911F910F9108950F9398
:100E50001F93CF93DF938C01EB01FB01349680E26B
:100E6000DF011D928A95E9F784E290E0A0E0B0E00E
:100E700088839983AA83BB83F80183819481A581A8
:100E8000B6818C839D83AE83BF8381E090E0A0E038
:100E9000B0E088879987AA87BB87188A198A1A8A37
:100EA0001B8A62E3C8010E948A06BC01990F880B65
:100EB000990B0E94B50C2FE632E143E85BE30E94F8
:100EC0006A0D2AE038EE4CE151E40E946A0D6C8B09
:100ED0007D8B8E8B9F8B64E3C8010E948A06BC01C8
:100EE000990F880B990B0E94B50C2FE632E143E86D
:100EF0005BE30E946A0D2AE038EE4CE151E40E9467
:100F00006A0D688F798F8A8F9B8F66E3C8010E9474
:100F10008A06BC01990F880B990B0E94B50C2FE62D
:100F200032E143E85BE30E946A0D2AE038EE4CE1CF
:100F300051E40E946A0D6C8F7D8F8E8F9F8F81E0B0
:100F4000DF91CF911F910F91089585ED8093BC00A3
:100F500080911D0290911E02A0911F02B09120026B
:100F60000796A11DB11D23E0B695A7959795879586
:100F70002A95D1F72091BC0024FD03C010921B02DA
:100F8000089540911D0250911E0260911F027091C0
:100F90002002452B462B472B69F30097A105B1058D
:100FA00041F025E32A95F1F700000197A109B10965
:100FB000E1CF80911C020C94F4021F920F920FB6A5
:100FC0000F9211242F933F934F935F936F937F93CF
:100FD0008F939F93AF93BF93EF93FF9385E492E03A
:100FE0000E940C01FF91EF91BF91AF919F918F9162
:100FF0007F916F915F914F913F912F910F900FBE15
:101000000F901F9018951F920F920FB60F921124F8
:101010002F938F939F93EF93FF93E0915502F0915D
:1010200056028081E0915B02F0915C0282FD1BC060
:10103000908180915E028F5F8F7320915F02821793
:1010400041F0E0915E02F0E0EB5BFD4F958F809305
:101050005E02FF91EF919F918F912F910F900FBEA4
:101060000F901F9018958081F4CF1F920F920FB6AA
:101070000F9211242F933F938F939F93AF93BF931E
:101080008091C7019091C801A091C901B091CA0196
:101090003091C60123E0230F2D3758F50196A11D8D
:1010A000B11D2093C6018093C7019093C801A093FE
:1010B000C901B093CA018091CB019091CC01A0915C
:1010C000CD01B091CE010196A11DB11D8093CB0140
:1010D0009093CC01A093CD01B093CE01BF91AF917D
:1010E0009F918F913F912F910F900FBE0F901F9066
:1010F000189526E8230F0296A11DB11DD2CF1F928D
:101100000F920FB60F9211242F933F934F935F933B
:101110006F937F938F939F93AF93BF93EF93FF93BF
:101120008091B900887F803609F44AC0F0F5883292
:1011300009F4A7C018F5803109F49BC0B8F48823DE
:1011400009F4F9C0883009F494C0FF91EF91BF9180
:10115000AF919F918F917F916F915F914F913F914F
:101160002F910F900FBE0F901F901895883109F4A2
:1011700088C0803251F78093190214C0803409F47A
:101180009DC040F48033B9F38833F9F68093190297
:1011900085ECB0C0803509F485C0883509F496C067
:1011A000883499F60E94A507D0CF883909F48CC0FD
:1011B00038F5883729F050F4883611F0803729F651
:1011C00083E080931B021092C50157C0883809F450
:1011D0007BC0803919F0803809F0B7CF8091C50104
:1011E000803208F071C0E091C50181E08E0F8093DC
:1011F000C5018091BB00F0E0EB55FE4F80833DC000
:10120000803B39F0E0F4803A09F479C0883A09F07B
:101210009CCF84E080931B021092A4011092A30142
:10122000E091D101F091D20109958091A301811142
:101230000FC081E08093A3011092830109C0803C1C
:1012400009F4A6CF883C09F4A3CF883B09F07DCFF1
:10125000E091A40181E08E0F8093A401F0E0ED57AE
:10126000FE4F80818093BB009091A4018091A301E7
:1012700029C08091F6018093BB0085EC8093BC006F
:1012800064CF9091180280911702981758F5E09159
:10129000180281E08E0F80931802F0E0E950FE4FB3
:1012A0008081E9CFE091180281E08E0F80931802CF
:1012B0008091BB00F0E0E950FE4F808390911802CE
:1012C000809117029817C8F285E8D8CFE0911802EC
:1012D00081E08E0F809318028091BB00F0E0E9500E
:1012E000FE4F808380911A0281115CCF81E0809350
:1012F000F50184EA8093BC0010921B0226CF85EC96
:101300008093BC0010921B028091C501803230F4A2
:10131000E091C501F0E0EB55FE4F10826091C501F0
:1013200070E0E091CF01F091D00185EA91E009955C
:101330001092C5010ACF1092190234CFE5E4F2E011
:101340001382128288EE93E0A0E0B0E0848395835C
:10135000A683B7832AE031E03183208325EC30E097
:101360003587248724EC30E03787268720EC30E06F
:10137000318B208B21EC30E0338B228B22EC30E060
:10138000358B248B26EC30E0378B268B118E128E1A
:10139000138E148EE2EEF2E0138212828483958320
:1013A000A683B7838CE191E091838083EEEEF2E037
:1013B0008EE291E0918380838FEF9FEFDC01838346
:1013C0009483A583B6831086178281E0858708956C
:1013D000CF93DF93CDB7DEB7A4970FB6F894DEBFF7
:1013E0000FBECDBF789484B5826084BD84B5816022
:1013F00084BD85B5826085BD85B5816085BD8091E0
:101400006E00816080936E00109281008091810057
:10141000826080938100809181008160809381004F
:10142000809180008160809380008091B100846011
:101430008093B1008091B00081608093B000809172
:101440007A00846080937A0080917A008260809331
:101450007A0080917A00816080937A0080917A008E
:10146000806880937A001092C100E0915502F0915B
:10147000560282E08083E0915102F0915202108284
:10148000E0915302F09154028FEC808310925D0240
:10149000E0915902F0915A0286E08083E091570270
:1014A000F0915802808180618083E0915702F09131
:1014B0005802808188608083E0915702F091580241
:1014C000808180688083E0915702F091580280818A
:1014D0008F7D808383E58093FC028091FB028823CB
:1014E00009F448C01092D4011092D3011092220244
:1014F000109244020E94D6028CE890E09093D201B0
:101500008093D1018DE890E09093D0018093CF013A
:101510008091FB02882309F44CC08091FC0291E089
:10152000909321028093430210922202109244026F
:1015300060E082EE92E00E942B0581E00E9415039C
:1015400061E08091FC020E9405041092D401809316
:10155000D30182EE92E00E94E404182F153E09F4B4
:1015600046C08CE491E00E945D0588E691E00E940F
:101570005D05FFCF61E08091FA020E94F20161E017
:101580008091FA020E94C40161E08091F7020E94FA
:10159000F20161E08091F7020E94C40161E0809154
:1015A000F8020E94F20160E08091F9020E94F201CB
:1015B000AFCF60E08091FA020E94C40120E8409120
:1015C000F8026091F9028091F7020E9449022FEF20
:1015D0004091F8026091F9028091F7020E9449025D
:1015E000182F61E08091FA020E94C401B7CF809168
:1015F000FB02882309F487C08091FC0291E090935C
:1016000021028093430210922202109244026DE262
:1016100082EE92E00E942B0568E082EE92E00E944A
:101620002B0581E00E94150300E010E0BE016F5F12
:101630007F4F8EEE92E00E9427078BE691E00E949A
:101640005D056D897E898F89988D42E00E94AE0587
:101650008FE691E00E945D0582E791E00E945D05C2
:10166000698D7A8D8B8D9C8D42E00E94AE058FE650
:1016700091E00E945D0586E791E00E945D056D8D19
:101680007E8D8F8D98A142E00E94AE058FE691E09D
:101690000E945D058AE791E00E945D0588E691E081
:1016A0000E945D050E9423024B015C0184EFC82E5D
:1016B000DD24D394E12CF12C0E94230268197909CE
:1016C0008A099B09683E734081059105A8F321E0D2
:1016D000C21AD108E108F10888EE880E83E0981E4E
:1016E000A11CB11CC114D104E104F10429F70115B6
:1016F000110509F49BCF0E94F800882309F496CFC6
:101700000E94000093CF60E08091FA020E94C40121
:101710002DE24091F8026091F9028091F7020E9457
:10172000490228E04091F8026091F9028091F702A5
:101730000E94490261E08091FA020E94C40174CFC4
:101740005058BB27AA270E94B80B0C942B0D0E945F
:101750001D0D38F00E94240D20F039F49F3F19F43C
:1017600026F40C941A0D0EF4E095E7FB0C94140D7E
:10177000E92F0E943C0D58F3BA17620773078407DC
:10178000950720F079F4A6F50C945E0D0EF4E09523
:101790000B2EBA2FA02D0B01B90190010C01CA012B
:1017A000A0011124FF27591B99F0593F50F4503ED6
:1017B00068F11A16F040A22F232F342F4427585FC8
:1017C000F3CF469537952795A795F0405395C9F7E0
:1017D0007EF41F16BA0B620B730B840BBAF0915098
:1017E000A1F0FF0FBB1F661F771F881FC2F70EC037
:1017F000BA0F621F731F841F48F48795779567950A
:10180000B795F7959E3F08F0B0CF9395880F08F0F5
:101810009927EE0F9795879508950E94F00C08F48C
:1018200081E008950E94260C0C942B0D0E94240D3B
:1018300058F00E941D0D40F029F45F3F29F00C94F0
:10184000140D51110C945F0D0C941A0D0E943C0D57
:1018500068F39923B1F3552391F3951B550BBB27DF
:10186000AA2762177307840738F09F5F5F4F220F24
:10187000331F441FAA1FA9F335D00E2E3AF0E0E81B
:1018800032D091505040E695001CCAF72BD0FE2F65
:1018900029D0660F771F881FBB1F261737074807F9
:1018A000AB07B0E809F0BB0B802DBF01FF279358B1
:1018B0005F4F3AF09E3F510578F00C94140D0C9454
:1018C0005F0D5F3FE4F3983ED4F386957795679577
:1018D000B795F7959F5FC9F7880F911D96958795E6
:1018E00097F90895E1E0660F771F881FBB1F621705
:1018F00073078407BA0720F0621B730B840BBA0BC3
:10190000EE1F88F7E09508950E94440D88F09F57D8
:1019100098F0B92F9927B751B0F0E1F0660F771F13
:10192000881F991F1AF0BA95C9F714C0B13091F009
:101930000E945E0DB1E008950C945E0D672F782F24
:101940008827B85F39F0B93FCCF3869577956795CE
:10195000B395D9F73EF490958095709561957F4F3A
:101960008F4F9F4F0895E89409C097FB3EF49095E0
:101970008095709561957F4F8F4F9F4F9923A9F068
:10198000F92F96E9BB279395F695879577956795F7
:10199000B795F111F8CFFAF4BB0F11F460FF1BC03B
:1019A0006F5F7F4F8F4F9F4F16C0882311F096E9CE
:1019B00011C0772321F09EE8872F762F05C066237C
:1019C00071F096E8862F70E060E02AF09A95660F35
:1019D000771F881FDAF7880F9695879597F90895EE
:1019E000990F0008550FAA0BE0E8FEEF1616170630
:1019F000E807F907C0F012161306E407F50798F098
:101A0000621B730B840B950B39F40A2661F0232BB0
:101A1000242B252B21F408950A2609F4A140A6952C
:101A20008FEF811D811D089597F99F6780E870E011
:101A300060E008959FEF80EC089500240A94161644
:101A4000170618060906089500240A9412161306AC
:101A5000140605060895092E0394000C11F488233A
:101A600052F0BB0F40F4BF2B11F460FF04C06F5F56
:101A70007F4F8F4F9F4F089557FD9058440F551F2C
:101A800059F05F3F71F04795880F97FB991F61F000
:101A90009F3F79F087950895121613061406551F77
:101AA000F2CF4695F1DF08C0161617061806991FE3
:101AB000F1CF86957105610508940895E894BB27D8
:101AC00066277727CB0197F908950E94F00C08F458
:101AD0008FEF08950E947D0D0C942B0D0E941D0D1B
:101AE00038F00E94240D20F0952311F00C94140D71
:101AF0000C941A0D11240C945F0D0E943C0D70F390
:101B0000959FC1F3950F50E0551F629FF001729FA2
:101B1000BB27F00DB11D639FAA27F00DB11DAA1FB1
:101B2000649F6627B00DA11D661F829F2227B00DFE
:101B3000A11D621F739FB00DA11D621F839FA00D89
:101B4000611D221F749F3327A00D611D231F849FD9
:101B5000600D211D822F762F6A2F11249F57504030
:101B60009AF0F1F088234AF0EE0FFF1FBB1F661FAB
:101B7000771F881F91505040A9F79E3F510580F074
:101B80000C94140D0C945F0D5F3FE4F3983ED4F376
:101B9000869577956795B795F795E7959F5FC1F718
:101BA000FE2B880F911D9695879597F908950E94B1
:101BB000F00C880B990B0895A1E21A2EAA1BBB1BEF
:101BC000FD010DC0AA1FBB1FEE1FFF1FA217B30709
:101BD000E407F50720F0A21BB30BE40BF50B661F1F
:101BE000771F881F991F1A9469F7609570958095E3
:101BF00090959B01AC01BD01CF010895EE0FFF1F31
:101C00000590F491E02D09940F931F93CF93DF93E8
:101C10008230910510F482E090E0E091FF02F091B3
:101C2000000330E020E0B0E0A0E0309799F4211507
:101C3000310509F44AC0281B390B24303105D8F589
:101C40008A819B816115710589F1FB0193838283F0
:101C5000FE0111C04081518102811381481759074B
:101C6000E0F04817590799F4109761F012960C9319
:101C7000129713961C933296CF01DF91CF911F914B
:101C80000F9108950093FF0210930003F4CF2115E4
:101C9000310551F04217530738F0A901DB019A01D1
:101CA000BD01DF01F801C1CFEF01F9CF909300032F
:101CB0008093FF02CDCFFE01E20FF31F819391933A
:101CC0002250310939832883D7CF2091FD023091EA
:101CD000FE02232B41F42091020130910301309345
:101CE000FE022093FD022091000130910101211597
:101CF000310541F42DB73EB74091040150910501E3
:101D0000241B350BE091FD02F091FE02E217F30770
:101D1000A0F42E1B3F0B2817390778F0AC014E5F5B
:101D20005F4F2417350748F04E0F5F1F5093FE0298
:101D30004093FD02819391939FCFF0E0E0E09CCF30
:101D4000CF93DF930097E9F0FC0132971382128260
:101D5000A091FF02B0910003ED0130E020E0109768
:101D6000A1F420813181820F931F2091FD023091D7
:101D7000FE022817390709F061C0F093FE02E093D4
:101D8000FD02DF91CF910895EA01CE17DF07E8F554
:101D90004A815B819E0141155105B1F7E901FB8341
:101DA000EA8349915991C40FD51FEC17FD0761F4DF
:101DB000808191810296840F951FE9019983888320
:101DC000828193819B838A83F0E0E0E012968D917B
:101DD0009C9113970097B9F52D913C911197CD01E6
:101DE0000296820F931F2091FD023091FE02281768
:101DF000390739F6309751F5109200031092FF021F
:101E0000B093FE02A093FD02BCCFD383C283408176
:101E10005181840F951FC817D90761F44E5F5F4F3A
:101E200088819981480F591F518340838A819B8102
:101E3000938382832115310509F0B0CFF09300031D
:101E4000E093FF029ECFFD01DC01C0CF138212821E
:101E5000D7CFFB01DC014150504048F001900D927A
:101E60000020C9F701C01D9241505040E0F708958D
:041E7000F894FFCF14
:101E7400000001038000000000002E018E00BB0062
:101E84007B01EC00CA00DE00000000002B05FE040C
:101E94005A05D404F704E404D50400000000480201
:101EA400DC06AE022707DE066E616E00696E660010
:101EB4006F7666004144584C333435004E6F2041F0
:101EC40044584C3334352073656E736F72206465E7
:101ED4007465637465642E000D0A00583A2000206E
:101EE4002000593A20005A3A20006D2F735E3220A8
:021EF4000000EC
:00000001FF
