:100000000C945D000C9485000C9485000C94850084
:100010000C9485000C9485000C9485000C9485004C
:100020000C9485000C9485000C9485000C9485003C
:100030000C9485000C9485000C9485000C9485002C
:100040000C940B110C9485000C94D9100C94B310E3
:100050000C9485000C9485000C9485000C9485000C
:100060000C9485000C94850000000008000201003B
:100070000003040700000000000000000000000072
:10008000250028002B0000000000240027002A0083
:10009000040404040404040402020202020203032E
:1000A0000303030301020408102040800102040836
:1000B0001020010204081020551111241FBECFEF9B
:1000C000D8E0DEBFCDBF12E0A0E0B1E0ECEEFEE292
:1000D00002C005900D92A433B107D9F723E0A4E341
:1000E000B2E001C01D92A433B207E1F710E0CDE504
:1000F000D0E004C02197FE010E943516CC35D1070F
:10010000C9F70E94EF110C9474170C94000090E052
:10011000FC01EC55FF4F249180579F4FFC018491C7
:10012000882399F090E0880F991FFC01EA57FF4F50
:10013000A591B491FC01E458FF4F859194918FB73C
:10014000F894EC91E22BEC938FBF089520E3FC012F
:1001500020833296862F82958F706F706A3030F4CC
:10016000605D6293682F8111F5CF0895695CF9CFC6
:10017000AF92BF92CF92DF92EF92FF920F931F93B5
:10018000CF93DF936C017B018B01040F151FEB01F3
:100190005E01AE18BF08C017D10759F06991D601AA
:1001A000ED91FC910190F081E02DC6010995892B1C
:1001B00079F7C501DF91CF911F910F91FF90EF90DB
:1001C000DF90CF90BF90AF900895FC01538D448D88
:1001D000252F30E0842F90E0821B930B541710F0F2
:1001E000CF96089501970895FC01918D828D9817FF
:1001F00061F0A28DAE0FBF2FB11D5D968C91928DD7
:100200009F5F9F73928F90E008958FEF9FEF089507
:10021000FC01918D828D981731F0828DE80FF11DD0
:10022000858D90E008958FEF9FEF0895FC01918DEB
:10023000228D892F90E0805C9F4F821B91098F73E4
:100240009927089581E492E00E94160121E0892B0C
:1002500009F420E0822F089580E090E0892B29F0B6
:100260000E94220181110C9400000895FC01A48DCC
:10027000A80FB92FB11DA35ABF4F2C91848D90E0C8
:1002800001968F739927848FA689B7892C93A089AB
:10029000B1898C91837080648C93938D848D981335
:1002A00006C00288F389E02D80818F7D80830895C8
:1002B000EF92FF920F931F93CF93DF93EC0181E0B6
:1002C000888F9B8D8C8D98131AC0E889F98980815D
:1002D00085FF15C09FB7F894EE89FF896083E88990
:1002E000F98980818370806480839FBF81E090E082
:1002F000DF91CF911F910F91FF90EF900895F62E0F
:100300000B8D10E00F5F1F4F0F731127E02E8C8DA8
:100310008E110CC00FB607FCFACFE889F9898081ED
:1003200085FFF5CFCE010E943601F1CFEB8DEC0FAA
:10033000FD2FF11DE35AFF4FF0829FB7F8940B8F0A
:10034000EA89FB8980818062CFCFCF93DF93EC0174
:10035000888D8823B9F0AA89BB89E889F9898C91AD
:1003600085FD03C0808186FD0DC00FB607FCF7CF69
:100370008C9185FFF2CF808185FFEDCFCE010E9469
:100380003601E9CFDF91CF91089590E0FC01E85963
:10039000FF4F2491FC01EC55FF4F3491FC01E057D5
:1003A000FF4FE491EE23C9F0222339F0233001F10D
:1003B000A8F4213019F1223029F1F0E0EE0FFF1FEF
:1003C000E458FF4FA591B4918FB7F894EC91611167
:1003D00026C030953E233C938FBF08952730A9F067
:1003E0002830C9F0243049F7809180008F7D03C008
:1003F000809180008F7780938000DFCF84B58F77E6
:1004000084BDDBCF84B58F7DFBCF8091B0008F772B
:100410008093B000D2CF8091B0008F7DF9CF3E2B7A
:10042000DACF3FB7F8948091390290913A02A091C7
:100430003B02B0913C0226B5A89B05C02F3F19F0A6
:100440000196A11DB11D3FBFBA2FA92F982F882754
:10045000BC01CD01620F711D811D911D42E0660F2F
:10046000771F881F991F4A95D1F708958F929F9201
:10047000AF92BF92CF92DF92EF92FF924B015C015D
:100480000E9411026B017C010E9411026C197D090E
:100490008E099F09683E734081059105A8F321E00C
:1004A000821A9108A108B10888EEC80E83E0D81E10
:1004B000E11CF11C81149104A104B10429F7FF90FF
:1004C000EF90DF90CF90BF90AF909F908F90089566
:1004D0002FB7F894609135027091360280913702FF
:1004E000909138022FBF089561E080913E020C94F4
:1004F000C50160E080913E020C94C50108958EBD57
:1005000000000DB407FEFDCF8EB508958CBD9DBDD6
:100510000895CF93DF93D82FC62F8091DE0290915C
:10052000DF020E9486020E94790280E00E947F0220
:100530008D2F0E947F028C2F0E947F0280E00E94FC
:100540007F02C82F0E9474028C2FDF91CF910895F3
:10055000DF92EF92FF920F931F93CF93DF93D82FE9
:10056000D92EC62F7A0189018091DE029091DF0297
:100570000E9486020E9479028D2D0E947F028D2F9B
:100580000E947F028C2F0E947F02E701E00EF11E85
:10059000CE15DF0521F089910E947F02F9CF0E94DC
:1005A0007402C801DF91CF911F910F91FF90EF90DE
:1005B000DF9008951F93CF93DF93182FD62FC42F6A
:1005C0008091DE029091DF020E9486020E947902F1
:1005D00080E00E947F02812F0E947F028D2F0E9467
:1005E0007F028C2F0E947F020E94740281E0DF91C3
:1005F000CF911F9108950F931F93CF93C82F80938E
:100600003E0268EE73E080E090E00E9436028C2F9C
:100610000E948700CFB7F89480913D02811124C0D9
:10062000EAE9F0E08491EEEAF0E09491E82FF0E05E
:10063000EE0FFF1FEA57FF4FA591B491EC91E9230C
:1006400021F461E08AE00E94C5018AE00E948700EF
:100650008CB580618CBD8CB580648CBD8DE00E94B2
:1006600087008BE00E94870080913D028F5F80931E
:100670003D02CFBF60E090E080E00E948902482FF9
:10068000406864E090E080E00E94DA02CCE008E09C
:1006900010E042E06C2F8EE190E00E94DA0242E02E
:1006A0006C2F8FE190E00E94DA0201501109C05EC8
:1006B0000115110571F7CF911F910F9108959B01BD
:1006C0008295880F807E6CE0680FC9010C94DA0275
:1006D000CF93DF93EC01898D9A8D892B41F0E881CE
:1006E000F9810284F385E02DCE010995F4CFDF91E5
:1006F000CF910895CF93DF931F92CDB7DEB7698373
:10070000DC01ED91FC910280F381E02D41E050E0AD
:10071000BE016F5F7F4F09950F90DF91CF910895D4
:100720001F93CF93DF93FB01DC0158961C921E921E
:1007300057972281211109C02381211106C02481EC
:10074000211103C02581222339F14115510521F1E1
:10075000EA01DC011C961C91AF014E5F5F4F612FD7
:100760006295660F607E645F24E030E08CE090E08C
:100770000E94A8024D2F60E170E0812F0E945F036C
:100780004C2F61E170E0812F0E945F0381E090E0D7
:10079000DF91CF911F91089590E080E0F9CFFC01A7
:1007A000818D928D0895FC0185899689089521E8AF
:1007B00031E0FC0131832083FB0141895289638947
:1007C0007489FC014283538364837583089580E0B8
:1007D0000895FC019485FB018485981303C081E092
:1007E000983009F480E0089521E0FC018485883088
:1007F00009F420E0822F08950895CF93DF931F928C
:10080000CDB7DEB76983DC01ED91FC910280F38105
:10081000E02D41E050E0BE016F5F7F4F09950F90E2
:10082000DF91CF910895DC01ED91FC91028CF38D65
:10083000E02D099591E0892708959B018295880F05
:10084000807E68E0680FC9010C948902CF93C82F9D
:10085000462F61E070E00E945F0361E070E08C2F42
:100860000E941D048111F9CFCF910895CF93C82F15
:1008700060E170E00E9426044FEF62E070E08C2F90
:10088000CF910C945F030F931F93CF93DF93C82FE7
:10089000D62F8A010E9436044D2F70E060E08C2F25
:1008A0000E945F0301151105B9F0412F64E070E06B
:1008B0008C2F0E945F03402F65E070E08C2F0E9418
:1008C0005F0361E070E08C2F0E94260481E0DF91DD
:1008D000CF911F910F91089500913F021091400216
:1008E0000F5F1F4F1093400200933F02DECFCF9364
:1008F000DF93EC018C85883021F00E94360488E07B
:100900008C87DF91CF910895BF92CF92DF92EF92C3
:10091000FF920F931F93CF93DF93B82E6B017A0151
:10092000890164E270E00E941D04C82F65E270E056
:100930008B2D0E941D04D0E0DC2FCC278C0D9D2D2B
:10094000911DC80FD91F6B2D6295660F607E6C5E7E
:100950009801A701CE010E94A802C00FD11F4D2F00
:1009600064E270E08B2D0E945F034C2F65E270E023
:100970008B2DDF91CF911F910F91FF90EF90DF9022
:10098000CF90BF900C945F03AF92BF92CF92DF9253
:10099000EF92FF920F931F93CF93DF93F82E5B019B
:1009A0006A01E22E68E270E00E941D04082F10E048
:1009B000102F002769E270E08F2D0E941D04E801CE
:1009C000C80FD11D8091DE029091DF020E94860245
:1009D0000E9479028D2F0E947F028C2F0E947F023D
:1009E0008F2D8295880F807E885E0E947F02850110
:1009F000AC0CBD1C80E00E947F02F80181938F0146
:100A0000EA15FB05B9F70E947402E11018C0CC0D7D
:100A1000DD1D4D2F68E270E08F2D0E945F034C2F8B
:100A200069E270E08F2DDF91CF911F910F91FF90C0
:100A3000EF90DF90CF90BF90AF900C945F03DF9169
:100A4000CF911F910F91FF90EF90DF90CF90BF90CB
:100A5000AF9008950F931F93CF93DF931F92CDB75D
:100A6000DEB78C01DC01ED91FC910084F185E02D75
:100A70000995892B91F021E041E050E0BE016F5FC4
:100A80007F4FF80184850E94C404898190E00F9013
:100A9000DF91CF911F910F9108958FEF9FEFF7CFC7
:100AA000CF93DF931F92CDB7DEB7FC01218D328D3E
:100AB0008FEF9FEF232B59F021E041E050E0BE0182
:100AC0006F5F7F4F84850E94C404898190E00F90FE
:100AD000DF91CF9108951F93CF93DF93182F66E294
:100AE00070E00E941D04C82FD0E0DC2FCC2767E205
:100AF00070E0812F0E941D048C0F9D2F911DDF91AE
:100B0000CF911F910895FF920F931F93CF93DF937F
:100B1000F82E10E000E08F2D0E946B05EC01892B70
:100B200021F08F2D0E946B058C01C017D10799F71A
:100B3000CE01DF91CF911F910F91FF900895FC019D
:100B40008485883011F00C94830590E080E008954E
:100B50001F93CF93DF93182F60E270E00E941D0473
:100B6000C82FD0E0DC2FCC2761E270E0812F0E94FB
:100B70001D048C0F9D2F911DDF91CF911F91089522
:100B8000FF920F931F93CF93DF93F82E10E000E0B6
:100B90008F2D0E94A805EC01892B21F08F2D0E943A
:100BA000A8058C01C017D10799F7CE01DF91CF912D
:100BB0001F910F91FF900895AF92BF92CF92DF9255
:100BC000FF920F931F93CF93DF938C015B01EA0198
:100BD000FC01C788D08CF4848F2D0E94C0058C172F
:100BE0009D0720F48F2D0E94C005EC019E01A501F8
:100BF000B6018F2D0E948404F8018789908D8C0F97
:100C00009D1F908F878BCE01DF91CF911F910F9108
:100C1000FF90DF90CF90BF90AF900895FC01848546
:100C2000883021F063E070E00C941D0480E00895AA
:100C3000CF93DF93FC0124852830D9F0EC010E948A
:100C40000E06843189F0882379F0883169F021E03B
:100C50008C3159F4E881F9810084F185E02DCE01D1
:100C6000099521E0892B09F420E0822FDF91CF91B3
:100C7000089580E0FBCFCF92DF92EF92FF92CF9367
:100C8000DF93EC018C85883049F168E070E00E94C8
:100C900026040E9468026B017C01CE010E940E06B0
:100CA000882391F00E9468026C197D098E099F09C2
:100CB000683E73408105910538F461E070E080E0A2
:100CC00090E00E943602E9CFCE010E940E068823F2
:100CD00019F08C850E94360488E08C87DF91CF91D3
:100CE000FF90EF90DF90CF900895CF92DF92EF9238
:100CF000FF921F93CF93DF93182F6B017A010E940D
:100D00008305EC010097D9F463E070E0812F0E9425
:100D10001D04843159F0882349F0C1E0D0E08C31C2
:100D200011F4D0E0C0E0D195C195D109CE01DF9199
:100D3000CF911F91FF90EF90DF90CF900895E8162C
:100D4000F9060CF4E7011C161D0684F720E0AE013D
:100D5000B601812F0E94C40460E470E0812F0E94DC
:100D60002604E4CFCF93DF93FC01218D328D211532
:100D7000310529F48FEF9FEFDF91CF910895EC01BA
:100D800084854217530708F0A9010E9475061816BA
:100D9000190684F7298D3A8D281B390B3A8F298F34
:100DA000EBCF0F931F93CF93DF931F92CDB7DEB797
:100DB000FC01218D328D232B41F48FEF9FEF0F909B
:100DC000DF91CF911F910F9108958C0141E050E088
:100DD000BE016F5F7F4FFC0184850E947506181667
:100DE00019065CF7F801818D928D0197928F818FA2
:100DF000898190E0E4CFFC0184850C947506CF9343
:100E0000DF931F92CDB7DEB741E050E0BE016F5FC8
:100E10007F4FFC0184850E9475061816190634F46C
:100E2000898190E00F90DF91CF9108958FEF9FEF30
:100E3000F9CFCF93FC01C48560E270E08C2F0E9453
:100E4000260462E070E08C2F0E941D0484FD11C016
:100E500062E070E08C2F0E941D0483FFF2CF48E116
:100E600062E070E08C2F0E945F0390E080E0CF9101
:100E7000089540E162E070E08C2F0E945F0381E002
:100E800090E0F5CFEF92FF921F93CF93DF93FC0199
:100E90002485283039F080E0DF91CF911F91FF90B9
:100EA000EF9008957B01EC0110E063E070E0812F8A
:100EB0000E941D0481110EC01C878C85883059F357
:100EC000FE86ED861A8E198EA70162E00E94430409
:100ED00081E0E2CF883181F31F5F183031F7EDCF29
:100EE0008F929F92AF92BF92CF92DF92EF92FF923A
:100EF0000F931F93CF936C015B017A01FC01C485B2
:100F0000C830A1F481E090E0F60193838283F12C54
:100F1000E12CC701CF911F910F91FF90EF90DF90CF
:100F2000CF90BF90AF909F908F9008958A014130ED
:100F3000584010F000E018E08C2F0E94C0054C01D2
:100F400063E070E08C2F0E941D04873111F08C311A
:100F500009F58016910680F39801A50170E060E024
:100F60008C2F0E94840460E270E08C2F0E94260483
:100F700062E070E08C2F0E941D0484FD0EC063E0CF
:100F800070E08C2F0E941D048111F2CF8C2F0E94E3
:100F90003604B8CF10E000E0DFCF40E162E070E05F
:100FA0008C2F0E945F03012B09F0B3CFABCFDF92F0
:100FB000EF92FF920F931F93CF93DF93FC01248551
:100FC000283051F090E080E0DF91CF911F910F9198
:100FD000FF90EF90DF9008957A01EB018C01D12C06
:100FE00063E070E08D2D0E941D04811128C0F8017E
:100FF000D486F8018485883029F32091000130914E
:1010000001012F5F3F4F19F130930101209300013F
:10101000409100015091010161E00E9443048A81E6
:101020008F3FC1F48B818F3F01F58C818F3FE9F4B5
:101030008D818F3FD1F488E0F8018487C3CF8B7F07
:101040008831A9F2D394F8E0DF12CACFD2CF20E0E2
:1010500034E0DACF811109C08B81811106C08C8107
:10106000811103C08D81882331F3E114F10419F358
:10107000F801D484AE014E5F5F4F6D2D6295660F0F
:10108000607E645F24E030E08CE090E00E94A80283
:101090004F2D60E170E08D2D0E945F034E2D61E1C8
:1010A00070E08D2D0E945F0364E070E08D2D0E9442
:1010B0002604C8010E940E06873161F061E070E0ED
:1010C00080E090E00E943602C8010E940E06811165
:1010D000F0CFB1CF81E090E077CF90E080E008954D
:1010E00024E030E0AC0164E08FE090E00C94A802D2
:1010F000EF92FF921F93CF93DF93CDB7DEB7C25429
:10110000D1090FB6F894DEBF0FBECDBFFC018281BE
:101110009381A481B58123968CAF9DAFAEAFBFAF55
:10112000239711E023961FAF239723964CAD5DAD17
:101130006EAD7FAD23974BAB5CAB6DAB7EAB8DA73C
:101140009EA7AFA7B8AB18AB4DA55EA56FA578A9B4
:101150004FA358A769A77AA71EAB4BA95CA96DA995
:101160007EA949A35AA36BA37CA321E831E03C8B61
:101170002B8B4FEF4D8B4E8B4F8B188E3E872D87D1
:101180001AA74FA158A569A57AA54F87588B698BD7
:101190007A8B1CA349A15AA16BA17CA149875A87CC
:1011A0006B877C873A8329838B839C83AD83BE8343
:1011B00088EFE82E82E0F82EF70184850E94FB027A
:1011C00026E030E041E151E064E089E090E00E94F7
:1011D000A802CE0103960E94700824E030E0AE0120
:1011E000415F5F4F64E081E090E00E94A80224E04C
:1011F00030E0AE014B5E5F4F64E085E090E00E941E
:10120000A8021C8789859A85AB85BC85F7018283F6
:101210009383A483B583CE5BDF4F0FB6F894DEBF14
:101220000FBECDBFDF91CF911F91FF90EF9008953A
:10123000DC01ED91FC91048CF58DE02D0994DC012D
:1012400081E891E08D939D9384E0FB0101900D92E4
:101250008A95E1F708950F931F93CF93DF93CDB74E
:10126000DEB728970FB6F894DEBF0FBECDBF8C0156
:10127000DC01ED91FC910680F781E02D0995F801E4
:1012800084850E948305892BB1F148E050E0BE01BE
:101290006F5F7F4FD8011C968C910E9475061816BF
:1012A0001906F4F4D801519684E0FE0131960190BC
:1012B0000D928A95E1F78D8190E0982F88272E81F5
:1012C000820F911DF801968B858B8F81282F30E03E
:1012D000322F22278885820F932F911D928F818F25
:1012E00028960FB6F894DEBF0FBECDBFDF91CF9129
:1012F0001F910F91089590E080E0F2CF4F925F929E
:101300006F927F928F929F92AF92BF92CF92DF9215
:10131000EF92FF920F931F93CF93DF93CDB7DEB77A
:1013200063970FB6F894DEBF0FBECDBF7C016B0193
:101330003A01FB01DB018D918111FDCF30E020E00E
:1013400090E080E05AE04191442301F1843091051E
:101350000CF042C04E3269F42F3F310509F0E4F53C
:10136000D301A80FB91F12962C93019630E020E00C
:10137000EACF529FB001539F700D1124242F440FC8
:10138000330B20533109260F371FDDCF2F3F310597
:1013900009F014F584309105FCF4680E791EF30110
:1013A0002283CC24C394D12CC60163960FB6F89443
:1013B000DEBF0FBECDBFDF91CF911F910F91FF9088
:1013C000EF90DF90CF90BF90AF909F908F907F90E5
:1013D0006F905F904F900895F7014281538164812F
:1013E000758180910D0390910E03A0910F03B09130
:1013F0001003481759076A077B0709F400C28701E1
:10140000085F1F4F0E9468026F7077277C5FC801DA
:101410000E944207813009F0F7C181E891E09A8388
:101420008983F70182819381A481B5818B839C8319
:10143000AD83BE8345E350E0BE016F5F7F4FC801BF
:101440000E949003892B31F4D12CC12CC8010E9439
:101450007704AACF0E946802F7017783668342E08F
:1014600050E0B7016A5F7F4FC8010E94DC0581E050
:1014700090E09A83898342E050E0BE016F5F7F4F26
:10148000C8010E94DC0580E091E09A83898342E0F4
:1014900050E0BE016F5F7F4FC8010E94DC051A82D9
:1014A000198242E050E0BE016F5F7F4FC8010E9489
:1014B000DC0542E050E0BE016F5F7F4FC8010E9433
:1014C000DC0542E050E0BE016F5F7F4FC8010E9423
:1014D000DC055601F6018081882301F16501F601E2
:1014E00081912F01882311F08E32B1F446018A18C0
:1014F0009B081814190474F48D8641E050E0BE0175
:10150000635F7F4FC8010E94DC05A401B501C801DB
:101510000E94DC055201DECF6201E1CF1D8641E071
:1015200050E0BE01635F7F4FC8010E94DC05C12C03
:10153000DD24D394DA82C98242E050E0BE016F5FBD
:101540007F4FC8010E94DC05DA82C98242E050E088
:10155000BE016F5F7F4FC8010E94DC05C8010E9479
:101560001907892B09F470CFF3E0AF2EB12C2301BA
:1015700022E0420E511C43C0F70142815381648135
:101580007581818D928DA38DB48D481759076A0797
:101590007B0709F02AC1858D968DC59709F025C175
:1015A00081A192A10C970CF425C14CE050E0BE0142
:1015B0006F5F7F4FC8010E94B2068B819C81982784
:1015C000892798279A8B898BF70146815781298132
:1015D0003A814217530711F497FD2FC0C8010E94AA
:1015E0006803ECEFCE2EDD24DA9481E0A81AB1086E
:1015F00009F42CCFFFEFCF16DF0609F027CF0E94AA
:1016000068023B014C01C8010E942B0918161906FB
:101610000CF4B2CF0E94680266197709880999090B
:10162000693873418105910508F0DBC062E370E021
:1016300080E090E00E943602E6CF8F709270892B96
:1016400041F0C8010E9468037BEFC72EDD24DA94C5
:10165000CCCF6F807884762467247624D12CC12C5B
:1016600061147104D1F4C8010E9468036AEFC62EA8
:10167000DD24DA94BACF8D85811117C0C8010E948C
:10168000D106C8010E94D106C8010E94D106C80136
:101690000E94D106FFEFCF1ADF0A8D819E81982725
:1016A00089279827C816D906A8F441E050E0BE0162
:1016B000635F7F4FC8010E94B2068D858823D9F2EF
:1016C0008D859FEF980F9D878823A9F2C8010E94FE
:1016D000D106F6CF912C812C41E050E0BE016D5E29
:1016E0007F4FC8010E94B2068B89982F907C61F4CD
:1016F000882389F08B899FEF980F9B8B882341F07B
:10170000C8010E94D106F6CFC8010E94D1061B8AEB
:101710008B898111E1CF42E050E0BE01615F7F4FD4
:10172000C8010E94B20642E050E0BE01635F7F4FF5
:10173000C8010E94B206C8010E94D106C8010E94D9
:10174000D106C8010E94D106C8010E94D10642E01C
:1017500050E0BE016F5E7F4FC8010E94B2068F85C8
:10176000988981159140E9F4CD84DE84DC24CD2470
:10177000DC2481E0C816D104A1F489899A898115F5
:10178000944041F0C8010E94680357EFC52EDD2444
:10179000DA942BCF44E050E0B201C8010E94B206B7
:1017A00024CFD12CC12C89899A89982789279827F9
:1017B000C816D90638F4C8010E94D106FFEFCF1A27
:1017C000DF0AF1CF2FEF821A920A6814790409F028
:1017D00083CFC8010E94680346EFC42EDD24DA944B
:1017E00004CFCC24CA94DC2C00CF2EEFC22EDD24F3
:1017F000DA94FBCE9DEFC92EDD24DA94F6CE8EEF7F
:10180000C82EDD24DA94D0CDD12CC12CCDCDCF92F1
:10181000DF92EF92FF920F931F93CF93DF93CDB799
:10182000DEB7AF970FB6F894DEBF0FBECDBF7C0119
:101830006A0101E811E01A8309831C861B8688EE81
:1018400093E0A0E0B0E08D879E87AF87B88B85E2FC
:1018500091E09A87898788E08D8B198F088F1A8E7F
:101860001B8E1C8E1D8E1BA70AA71CA61DA61EA6BE
:101870001FA68091FA029091FB02A091FC02B09108
:10188000FD028EA39FA3A8A7B9A78B839C83AD83DA
:10189000BE8318861F82AE01465D5F4FCE01019662
:1018A0000E947E0981309105B1F4D701ED91FC9140
:1018B0000488F589E02D1DA30CA38CA59DA5AEA5DC
:1018C000BFA58EA39FA3A8A7B9A7A601BE016C5D63
:1018D0007F4FC7010995AF960FB6F894DEBF0FBED4
:1018E000CDBFDF91CF911F910F91FF90EF90DF90CF
:1018F000CF900895CF92DF92EF92FF920F931F93B4
:10190000CF93DF93CDB7DEB7AF970FB6F894DEBFB6
:101910000FBECDBF7C016A0101E811E01A83098383
:101920001C861B8688EE93E0A0E0B0E08D879E8742
:10193000AF87B88B85E291E09A87898788E08D8BA5
:10194000198F088F1A8E1B8E1C8E1D8E1BA70AA73F
:101950001CA61DA61EA61FA68091FA029091FB024E
:10196000A091FC02B091FD028EA39FA3A8A7B9A7E6
:101970008B839C83AD83BE8318861F82AE01465D38
:101980005F4FCE0101960E947E0981309105B1F42E
:10199000D701ED91FC910684F785E02D1DA30CA3E2
:1019A0008CA59DA5AEA5BFA58EA39FA3A8A7B9A7EB
:1019B000A601BE016C5D7F4FC7010995AF960FB6BA
:1019C000F894DEBF0FBECDBFDF91CF911F910F9175
:1019D000FF90EF90DF90CF900895FB0101900020E1
:1019E000E9F73197AF01461B570BDC01ED91FC91F4
:1019F0000280F381E02D09948F929F92AF92BF9263
:101A0000EF92FF920F931F93CF93DF93CDB7DEB783
:101A1000A1970FB6F894DEBF0FBECDBF7C01FA01CF
:101A2000CB0119A2223008F42AE08E010F5D1F4F6E
:101A3000822E912CB12CA12CBF01A50194010E94F2
:101A4000FD15F901CA016A300CF5605DD8016E938D
:101A50008D01232B242B252B79F790E080E0109724
:101A600021F0BD01C7010E94ED0CA1960FB6F894BC
:101A7000DEBF0FBECDBFDF91CF911F910F91FF90C1
:101A8000EF90BF90AF909F908F900895695CDECFEC
:101A90000F931F93CF93DF93EC010E94ED0C8C0109
:101AA00063E871E0CE010E94ED0C800F911FDF9181
:101AB000CF911F910F9108958F929F92AF92BF92F5
:101AC000CF92DF92EF92FF920F931F93CF93DF930A
:101AD0007C01EB016C0182E0C80ED11C4701E5E0FE
:101AE0008E0E911C10E000E0F60141916F0150E074
:101AF00070E060E02AE0CE010E94FC0C5C01E8810D
:101B0000F9810190F081E02D6EE2CE0109958A0DF8
:101B10009B1D080F191FC814D90431F7F70145811F
:101B200050E070E060E02AE0CE010E94FC0C800FE3
:101B3000911FDF91CF911F910F91FF90EF90DF9058
:101B4000CF90BF90AF909F908F9008952F923F922B
:101B50004F925F926F927F928F929F92AF92BF92BD
:101B6000DF92EF92FF920F931F93CF93DF93CDB746
:101B7000DEB7E4970FB6F894DEBF0FBECDBF7C0191
:101B80004A015B0119010E9468022B013C01870197
:101B9000055B1F4FC8010E942B09181619069CF0FF
:101BA0000E946802641975098609970986169706C6
:101BB000A806B90608F4C6C162E370E080E090E0D0
:101BC0000E943602E7CF42E250E0BE016F5F7F4FD6
:101BD000C8010E94B2068981823009F0AEC1F801C5
:101BE000858996898334910509F0A7C16D817E812D
:101BF0008F8198850E942E162B013C01F1014082B5
:101C000051826282738246E050E0B701685F7F4F85
:101C1000CE014D960E946017892B99F4F7018081BF
:101C20009181A281B381481659066A067B0648F065
:101C300084819581A681B78184159505A605B70590
:101C4000E8F4C8010E946803D12C8D2DE4960FB6EC
:101C5000F894DEBF0FBECDBFDF91CF911F910F91E2
:101C6000FF90EF90DF90BF90AF909F908F907F900C
:101C70006F905F904F903F902F90089589899A8937
:101C8000AB89BC8986879787A08BB18B8EECA82EF9
:101C9000B12CC8010E94D106F1E0AF1AB108C9F712
:101CA000D12CC7014E964C01F701E45AFF4FFAA719
:101CB000E9A740969CA78BA7F297FEA7EDA70897E8
:101CC00098AB8FA77097FAABE9AB1701F2E22F0E32
:101CD000311C40979CAB8BABF801818D928D18160F
:101CE00019060CF02BC1C8010E94D1068F30910556
:101CF00009F4A8C08CF58330910509F46CC08CF40C
:101D0000009751F3019709F45BC0C8010E94D10606
:101D1000B82EBA94FFEFBF16F9F2C8010E94D1069F
:101D2000F8CF8630910509F472C00C9771F7C8019D
:101D30000E94D1065C01BB24C50101960E943B169E
:101D4000F701958B848BA501BC01C8010E9418097D
:101D5000F701848995898AC08633910509F48BC07F
:101D600074F48333910509F4CEC0C59771F6C801A8
:101D70000E94D106C8010E94D106D82EADCF8B3368
:101D8000910509F4AAC08F3F910509F4A5CFCA9720
:101D900009F0BBCFC8010E94D10644E050E06DA518
:101DA0007EA5C8010E94B206F70162A573A584A5AD
:101DB00095A50E942E1662A773A784A795A78CCF1E
:101DC000C8010E94D10644E050E06BA97CA9C8017B
:101DD0000E94B20681CFC8010E94D106A82E44E01D
:101DE00050E069A97AA9C8010E94B206712C612C41
:101DF0008A2D8450990B5C016A147B040CF06CCF23
:101E0000C8010E94D1069FEF691A790AF5CFC8016F
:101E10000E94D106A82E44E050E0B101C8010E9402
:101E2000B206712C612CEA2DE450FF0B5F016A149D
:101E30007B040CF051CFC8010E94D106FFEF6F1A4E
:101E40007F0AF5CFC8010E94D1065C01BB24C50101
:101E500001960E943B16F701938B828BA501BC0172
:101E6000C8010E941809F70182899389A80EB91E3A
:101E7000F501108231CFC8010E94D106B82EF701BA
:101E8000868D811109C0878D811106C080A18111C5
:101E900003C081A18823A1F0E9A5FAA54080518063
:101EA00062807380B401CE0183960E941F098DA1C8
:101EB0009EA1AFA1B8A584159505A605B70521F487
:101EC00044E050E0B40183CFBA94FFEFBF1609F4A9
:101ED00003CFC8010E94D106F7CFC8010E94D106E6
:101EE00044E050E06BA57CA5C8010E94B206F70152
:101EF00066A577A580A991A90E942E1666A777A747
:101F000080AB91ABE9CEC8010E94D10644E050E01D
:101F10006FA578A9C8010E94B206F70166A177A152
:101F200080A591A50E942E1666A377A380A791A7EE
:101F300062AB73AB84AB95ABCFCED12CC8010E9402
:101F4000680383CEDD24DA9480CE7F928F929F92B5
:101F5000AF92BF92CF92DF92EF92FF920F931F93B7
:101F6000CF93DF93CDB7DEB7A6970FB6F894DEBF59
:101F70000FBECDBF8C01762E942E852E20E2A22E90
:101F8000CE0101967C01DC01EA2D1D92EA95E9F76C
:101F90006801FBE4CF0ED11C81E891E09AA389A3EC
:101FA0008FEF8BA38CA38DA38EA343E450E0BE01DF
:101FB0006F5D7F4FC6010E949003019609F4BFC078
:101FC00081E089838A8386E0B82EBB821C82D80197
:101FD00014966D917D918D919C9117970E942E166C
:101FE0006D837E838F83988789869A8680E890E0C8
:101FF0009C878B874CE150E0B701C6010E94DC054D
:10200000FE0137968AE1DF011D928A95E9F74801C2
:10201000B8E08B0E911CF401D70101900D92BA9497
:10202000E1F740E150E0B701C6010E94DC05F7018D
:102030001192AA94E9F796E0A92EB12C40E250E063
:10204000B701C6010E94DC05F1E0AF1AB108B1F793
:1020500083E6898392E89A8393E59B838C8385E367
:102060008D8381E08E837F829DE3988797E09987B7
:102070008A8786E0F401DE011B9601900D928A9515
:10208000E1F78CE0898B8A8B66E871E0CE0143969C
:102090000E946D17D8011B966C91CE0149960E9443
:1020A000A600F8016485CE014B960E94A600D801D7
:1020B0001D966C91CE014D960E94A6004EE150E017
:1020C000B701C6010E94DC05B3E07B121EC082E3AB
:1020D000898384E08A83F80196859B8397859C8316
:1020E00090899D8391899E8396E39F838887868DBF
:1020F0008987878D8A8780A18B8781A18C874CE017
:1021000050E0B701C6010E94DC0587E3898386E0C1
:102110008A8391E09B8393E09C838D838FE08E8301
:102120008AE38F838BE388878FEF898749E050E0CC
:10213000B701C6010E94DC05C6010E941907A696D8
:102140000FB6F894DEBF0FBECDBFDF91CF911F91C8
:102150000F91FF90EF90DF90CF90BF90AF909F9046
:102160008F907F9008951F920F920FB60F921124B7
:102170002F933F934F935F936F937F938F939F938F
:10218000AF93BF93EF93FF9381E492E00E943601F7
:10219000FF91EF91BF91AF919F918F917F916F913F
:1021A0005F914F913F912F910F900FBE0F901F9015
:1021B00018951F920F920FB60F9211242F938F93A1
:1021C0009F93EF93FF93E0915102F091520280812F
:1021D000E0915702F091580282FD1BC090818091DE
:1021E0005A028F5F8F7320915B02821741F0E0915A
:1021F0005A02F0E0EF5BFD4F958F80935A02FF91FA
:10220000EF919F918F912F910F900FBE0F901F9084
:1022100018958081F4CF1F920F920FB60F92112460
:102220002F933F938F939F93AF93BF9380913502EA
:1022300090913602A0913702B09138023091340269
:1022400023E0230F2D3758F50196A11DB11D2093D2
:1022500034028093350290933602A0933702B093F4
:1022600038028091390290913A02A0913B02B091DC
:102270003C020196A11DB11D8093390290933A0250
:10228000A0933B02B0933C02BF91AF919F918F917D
:102290003F912F910F900FBE0F901F90189526E839
:1022A000230F0296A11DB11DD2CFE1E4F2E013820B
:1022B000128248EE53E060E070E044835583668309
:1022C00077838DE491E09183808385EC90E095871E
:1022D000848784EC90E09787868780EC90E0918BF0
:1022E000808B81EC90E0938B828B82EC90E0958BDD
:1022F000848B86EC90E0978B868B118E128E138EDA
:10230000148EEEEDF2E080E5808381E08183E0EEE3
:10231000F2E081E891E0918380831282138214823B
:102320001582E6EEF2E0918380831282138214829A
:102330001582ECEEF2E09183808312821382148284
:102340001582E2EFF2E0918380831282138214827D
:102350001582E5E0F3E09183808312821382148278
:102360001582E8EFF2E09183808312821382148257
:102370001582138612862AE02487EBE0F3E091832E
:1023800080831282138214821582E1E1F3E091834B
:1023900080831282138214821582EAE2F3E0918331
:1023A00080831282138214821582E4E2F3E0918327
:1023B000808380EC828388EA8383148281EB858327
:1023C000E7E1F3E0138212824483558366837783C7
:1023D0008FE591E09183808388E084870895CF938F
:1023E000DF93CDB7DEB72B970FB6F894DEBF0FBEE5
:1023F000CDBF789484B5826084BD84B5816084BD8E
:1024000085B5826085BD85B5816085BD80916E0092
:10241000816080936E0010928100809181008260C3
:102420008093810080918100816080938100809100
:1024300080008160809380008091B10084608093EF
:10244000B1008091B00081608093B00080917A00EB
:10245000846080937A0080917A00826080937A0011
:1024600080917A00816080937A0080917A00806800
:1024700080937A001092C100E0915102F0915202D3
:1024800082E08083E0914D02F0914E021082E09153
:102490004F02F09150028FEC808310925902E0912C
:1024A0005502F091560286E08083E0915302F0914C
:1024B0005402808180618083E0915302F091540244
:1024C000808188608083E0915302F0915402808182
:1024D00080688083E0915302F091540280818F7D67
:1024E00080838091020390910303009711F00E9472
:1024F000D71686E690E00E943B1626E6DC011D9288
:102500002A95E9F7FC01E55BFF4F1382128248EE42
:1025100053E060E070E0448355836683778325E26F
:1025200031E03183208328E024873F9601E811E0E1
:102530001183008312821382148215829093030305
:1025400080930203809104030E94FB0226E030E0A6
:1025500041E151E064E089E090E00E94A8021A8322
:1025600009831B821C821D821E82CE0103960E945B
:1025700070080091020310910303F80116A217A23C
:1025800010A611A612A613A614A615A616A617A67F
:1025900010AA11AA12AE13AE14AE15AE1801BEE306
:1025A0002B0E311C80E69AEEA0E0B0E0F1018083B2
:1025B0009183A283B383C8018E5B9F4F9B878A87D9
:1025C00088E893E1A0E0B0E0EA85FB858083918311
:1025D000A283B383F8013E9684E1DF011D928A95C0
:1025E000E9F786E0E1E1F1E0D801189601900D925B
:1025F0008A95E1F7F801E65BFF4FF887EF831082D9
:102600000E9473152FEC37E040E050E00E94CB159C
:10261000DC01CB010196A11DB11DF80184839583D6
:10262000A683B78380839183A283B3835801FBE49D
:10263000AF0EB11CC5010E94770464E470E0C501CF
:102640000E944207882309F4E7C10E9468022B0117
:102650003C0148EEC42E43E0D42EE12CF12C912C09
:10266000812CAF81B8858C918330A9F18111FFC095
:10267000F80184819581A681B7810196A11DB11DC4
:1026800084839583A683B7830E94680264197509C1
:1026900086099709A70196010E94FD15A90161E02D
:1026A000C8010E94A50F81E0AF81B8858C93F1E04D
:1026B0008F169104B1F20E946802641975098609A7
:1026C0009709D1012D913D914D915C9126173707C6
:1026D0004807590720F6C5010E947704F801848154
:1026E0009581A681B7810196A11DB11D8483958333
:1026F000A683B7838A94892809F08EC1609102036A
:1027000070910303625F7F4FCE0101960E941F0903
:10271000CE0103960E94700860910203709103033A
:10272000665E7F4FCE0101960E941F0924E030E0D3
:10273000AE014D5F5F4F64E081E090E00E94A8022F
:1027400060910203709103036A5E7F4FCE01019690
:102750000E941F0924E030E0AE014D5F5F4F64E04E
:1027600085E090E00E94A80260910203709103034B
:102770006E5D7F4FCE0101960E941F098B819C8167
:10278000AD81BE818093FA029093FB02A093FC027C
:10279000B093FD02E0910203F091030382899389D3
:1027A0009093FF028093FE028489958990930103A0
:1027B0008093000368EE73E080E090E00E943602B0
:1027C0006DE871E081E492E00E94480D40E550E040
:1027D00062E071E087E193E00E947A0C892B09F4B2
:1027E00008C16BE971E081E492E00E94480D65EA5E
:1027F00071E087E193E00E94480D64EC71E087E1AD
:1028000093E00E94480D69ED71E087E193E00E943A
:10281000480D63E871E087E193E00E94ED0C00E071
:1028200010E087E193E00E949F05892B49F087E142
:1028300093E00E94FF06682F81E492E00E94580115
:1028400087E193E00E9418068111DAC063E871E025
:1028500081E492E00E94ED0C6DEF71E081E492E082
:102860000E94480D87E193E00E943B06FFCF843031
:1028700001F5F80184819581A681B7810196A11D9A
:10288000B11D84839583A683B7830E94680264196F
:10289000750986099709A70196010E94FD15A901EE
:1028A00063E0C8010E94A50FE2E0AF81B885EC9318
:1028B000FECE813051F5AA85BB854D915D916D911C
:1028C0007C919E012F5F3F4FC8010E94A60D898712
:1028D000823009F086C089819A81AB81BC81F80180
:1028E00084839583A683B7830E946802641975095F
:1028F00086099709A70196010E94FD15A90163E0C9
:10290000C8010E94A50FE985D0CF823009F0CFCE53
:10291000AA85BB854D915D916D917C919E012F5F44
:102920003F4FC8010E94A60D8987853009F052C02B
:1029300083E0EF81F8858083F80186A197A1A0A5A7
:10294000B1A5892B8A2B8B2B41F484E893E0A0E07E
:10295000B0E086A397A3A0A7B1A7F80182A593A58D
:10296000A4A5B5A5892B8A2B8B2B61F486A197A1F1
:10297000A0A5B1A5B695A7959795879582A793A78A
:10298000A4A7B5A7F80182A593A5A4A5B5A546A5BA
:1029900057A560A971A9452B462B472B51F4AC01D3
:1029A000BD01440F551F661F771F46A757A760AB91
:1029B00071ABF80182AB93ABA4ABB5AB86A597A581
:1029C000A0A9B1A986AB97ABA0AFB1AF882483947F
:1029D000912C6DCEF985F63021F4AF81B8851C922B
:1029E00066CEB985BF3F09F062CEEF81F8851082CF
:1029F0005ECE6BEE71E081E492E00E94480D0FCF55
:102A00000115110509F40DCF0E942201882309F454
:102A100008CF0E94000005CF6CE072E081E492E0F4
:102A20000E94480D81E891E09A8389838091260372
:102A300090912703A0912803B09129038B839C8355
:102A4000AD83BE83CE0101960E947808B3CE8F92EB
:102A50009F92AF92BF92CF92DF92EF92FF92CF936D
:102A6000DF93EC01688179818A819B816115710511
:102A70008105910521F464E279ED8BE597E02DE184
:102A800033EF41E050E00E94CB1549015A019B0110
:102A9000AC01A7EAB1E40E94EA156B017C01ACEE3F
:102AA000B4EFA50194010E94F815C60ED71EE81ECA
:102AB000F91EF7FE06C081E0C81AD108E10880E8D7
:102AC000F80AC882D982EA82FB82C701B6019F77E1
:102AD000DF91CF91FF90EF90DF90CF90BF90AF90BC
:102AE0009F908F9008958F929F92AF92BF92CF92B6
:102AF000DF92EF92FF92609117017091180180911F
:102B0000190190911A01611571058105910521F452
:102B100064E279ED8BE597E02DE133EF41E050E0A1
:102B20000E94CB1549015A019B01AC01A7EAB1E40F
:102B30000E94EA156B017C01ACEEB4EFA501940193
:102B40000E94F815C60ED71EE81EF91EF7FE06C035
:102B500081E0C81AD108E10880E8F80AC09217019C
:102B6000D0921801E0921901F0921A01C701B60142
:102B70009F77FF90EF90DF90CF90BF90AF909F90A6
:102B80008F90089560931701709318018093190135
:102B900090931A010895052E97FB1EF400940E944D
:102BA000E21557FD07D00E94FD1507FC03D04EF437
:102BB0000C94E21550954095309521953F4F4F4F1D
:102BC0005F4F089590958095709561957F4F8F4FD9
:102BD0009F4F08950E941F16A59F900DB49F900DC2
:102BE000A49F800D911D11240895B7FF0C94EA1540
:102BF0000E94EA15821B930B0895A1E21A2EAA1BCC
:102C0000BB1BFD010DC0AA1FBB1FEE1FFF1FA2179C
:102C1000B307E407F50720F0A21BB30BE40BF50B99
:102C2000661F771F881F991F1A9469F76095709522
:102C3000809590959B01AC01BD01CF010895A29FA5
:102C4000B001B39FC001A39F700D811D1124911D80
:102C5000B29F700D811D1124911D0895692796273B
:102C600069277827872778270895EE0FFF1F05909B
:102C7000F491E02D09940F931F93CF93DF9382304B
:102C8000910510F482E090E0E0913203F09133037B
:102C900030E020E0B0E0A0E0309799F42115310554
:102CA00009F44AC0281B390B24303105D8F58A8134
:102CB0009B816115710589F1FB0193838283FE017C
:102CC00011C0408151810281138148175907E0F0FA
:102CD0004817590799F4109761F012960C931297C0
:102CE00013961C933296CF01DF91CF911F910F91D4
:102CF00008950093320310933303F4CF2115310567
:102D000051F04217530738F0A901DB019A01BD01C8
:102D1000DF01F801C1CFEF01F9CF90933303809326
:102D20003203CDCFFE01E20FF31F81939193225026
:102D3000310939832883D7CF209130033091310373
:102D4000232B41F420911D0130911E01309331035A
:102D50002093300320911B0130911C012115310576
:102D600041F42DB73EB740911F0150912001241B23
:102D7000350BE0913003F0913103E217F307A0F433
:102D80002E1B3F0B2817390778F0AC014E5F5F4FC1
:102D90002417350748F04E0F5F1F509331034093BF
:102DA0003003819391939FCFF0E0E0E09CCFCF93ED
:102DB000DF930097E9F0FC01329713821282A09111
:102DC0003203B0913303ED0130E020E01097A1F41D
:102DD00020813181820F931F209130033091310384
:102DE0002817390709F061C0F0933103E0933003ED
:102DF000DF91CF910895EA01CE17DF07E8F54A8108
:102E00005B819E0141155105B1F7E901FB83EA831E
:102E100049915991C40FD51FEC17FD0761F48081CA
:102E200091810296840F951FE9019983888382819D
:102E300093819B838A83F0E0E0E012968D919C91D0
:102E400013970097B9F52D913C911197CD010296FA
:102E5000820F931F209130033091310328173907D7
:102E600039F6309751F51092330310923203B09334
:102E70003103A0933003BCCFD383C28340815181FF
:102E8000840F951FC817D90761F44E5F5F4F888183
:102E90009981480F591F518340838A819B81938375
:102EA00082832115310509F0B0CFF0933303E0930D
:102EB00032039ECFFD01DC01C0CF13821282D7CF37
:102EC000FB01DC0104C08D910190801921F4415077
:102ED0005040C8F7881B990B0895FB01DC01019055
:0C2EE0000D920020E1F70895F894FFCF58
:102EEC0000047777772E676F6F676C652E636F6D55
:102EFC0000DEADBEEFFEED010000000000340380EB
:102F0C0000000000007A03DC056D086803CF03D1D4
:102F1C000650054207E70377049003070C19072BAB
:102F2C0009B2061809D703D303000000005801B8F2
:102F3C0000E500A5011601F400080100000000FDE9
:102F4C000370076D08FC039F05FF062A05D7077A57
:102F5C000CFB063B061806F403E9031304000000FF
:102F6C00005C0D0D0A0057495A6E657400636F6E54
:102F7C006E656374696E672E2E2E00636F6E6E65C0
:102F8C006374656400474554202F736561726368F0
:102F9C003F713D61726475696E6F20485454502FB7
:102FAC00312E3100486F73743A207777772E676F24
:102FBC006F676C652E636F6D00436F6E6E65637427
:102FCC00696F6E3A20636C6F736500636F6E6E652C
:102FDC006374696F6E206661696C65640064697303
:102FEC00636F6E6E656374696E672E004661696C03
:102FFC00656420746F20636F6E66696775726520F7
:10300C0045746865726E6574207573696E672044CB
:04301C0048435000D5
:00000001FF
