:100000000C9416010C943E010C943E010C943E019C
:100010000C943E010C943E010C943E010C943E0164
:100020000C943E010C943E010C943E010C943E0154
:100030000C943E010C943E010C943E010C943E0144
:100040000C949F060C943E010C946D060C9447068C
:100050000C943E010C943E010C943E010C943E0124
:100060000C94E9060C943E0107634236B79BD8A76F
:100070001A39685618AEBAAB558C1D3CB7CC5763CD
:10008000BD6DEDFD753EF6177231BF000000803F7B
:1000900008000000BE922449123EABAAAA2ABECD97
:1000A000CCCC4C3E00000080BEABAAAAAA3E000009
:1000B0000000BF000000803F000000000008417801
:1000C000D3BB4387D1133D190E3CC3BD4282AD2B38
:1000D0003E68EC8276BED98FE1A93E4C80EFFFBE30
:1000E00001C4FF7F3F000000000000407A10F35A77
:1000F00000A0724E18090010A5D4E80000E8764868
:10010000170000E40B54020000CA9A3B000000E113
:10011000F505000080969800000040420F000000A6
:10012000A08601000000102700000000E803000086
:1001300000006400000000000A0000000000010050
:10014000000000002C76D888DC674F0823DFC1DF71
:10015000AE59E1B1B796E5E3E453C63AE651997674
:1001600096E8E6C28426EB898C9B62ED407C6FFCAE
:10017000EFBC9C9F40F2BAA56FA5F490055A2AF7F0
:100180005C936B6CF9676DC11BFCE0E40D47FEF5F9
:1001900020E6B500D0ED902E030094357705008061
:1001A000841E080000204E0A000000C80C333333C0
:1001B000330F986E12831141EF8D2114893BE65560
:1001C00016CFFEE6DB18D1844B381BF77C1D901D43
:1001D000A4BBE424203284725E228100C9F124ECA5
:1001E000A1E53D2700000000250028002B000404A5
:1001F00004040404040402020202020203030303CF
:1002000003030102040810204080010204081020AA
:100210000102040810200000000800020100000391
:1002200004070000000000000000080811241FBEA1
:10023000CFEFD8E0DEBFCDBF22E0AAE5B1E001C03C
:100240001D92A43DB207E1F711E0A0E0B1E0E8E9BA
:10025000F5E202C005900D92AA35B107D9F711E079
:10026000C6E1D1E004C02197FE010E94D210C53141
:10027000D107C9F70E9441080C94CA120C940000DF
:1002800008950895AF92BF92CF92DF92EF92FF92BE
:100290000F931F93CF93DF936C017B018B01040FAE
:1002A000151FEB015E01AE18BF08C017D10759F04A
:1002B0006991D601ED91FC910190F081E02DC6018C
:1002C0000995892B79F7C501DF91CF911F910F9186
:1002D000FF90EF90DF90CF90BF90AF900895FC011A
:1002E000538D448D252F30E0842F90E0821B930B9B
:1002F000541710F0CF96089501970895FC01918D41
:10030000828D981761F0A28DAE0FBF2FB11D5D9643
:100310008C91928D9F5F9F73928F90E008958FEFE5
:100320009FEF0895FC01918D828D981731F0828D99
:10033000E80FF11D858D90E008958FEF9FEF0895F0
:10034000FC01918D228D892F90E0805C9F4F821B54
:1003500091098F739927089587E292E00E94A00186
:1003600021E0892B09F420E0822F089580E090E0BD
:10037000892B29F00E94AC0181110C940000089592
:10038000FC01A48DA80FB92FB11DA35ABF4F2C910A
:10039000848D90E001968F739927848FA689B78901
:1003A0002C93A089B1898C91837080648C93938DF8
:1003B000848D981306C00288F389E02D80818F7D9B
:1003C00080830895EF92FF920F931F93CF93DF9353
:1003D000EC0181E0888F9B8D8C8D98131AC0E88981
:1003E000F989808185FF15C09FB7F894EE89FF8950
:1003F0006083E889F98980818370806480839FBFEE
:1004000081E090E0DF91CF911F910F91FF90EF90ED
:100410000895F62E0B8D10E00F5F1F4F0F731127FD
:10042000E02E8C8D8E110CC00FB607FCFACFE88938
:10043000F989808185FFF5CFCE010E94C001F1CFFF
:10044000EB8DEC0FFD2FF11DE35AFF4FF0829FB7AC
:10045000F8940B8FEA89FB8980818062CFCFCF939C
:10046000DF93EC01888D8823B9F0AA89BB89E889DC
:10047000F9898C9185FD03C0808186FD0DC00FB682
:1004800007FCF7CF8C9185FFF2CF808185FFEDCF00
:10049000CE010E94C001E9CFDF91CF91089590E095
:1004A000FC01EA5EFD4F2491FC01EE5FFD4F3491AB
:1004B000FC01E251FE4FE491EE23C9F0222339F012
:1004C000233001F1A8F4213019F1223029F1F0E0B4
:1004D000EE0FFF1FEC51FE4FA591B4918FB7F8942A
:1004E000EC91611126C030953E233C938FBF089557
:1004F0002730A9F02830C9F0243049F780918000D6
:100500008F7D03C0809180008F7780938000DFCF44
:1005100084B58F7784BDDBCF84B58F7DFBCF809191
:10052000B0008F778093B000D2CF8091B0008F7DE4
:10053000F9CF3E2BDACF3FB7F8948091A301909189
:10054000A401A091A501B091A60126B5A89B05C064
:100550002F3F19F00196A11DB11D3FBFBA2FA92F42
:10056000982F8827BC01CD01620F711D811D911D3F
:1005700042E0660F771F881F991F4A95D1F70895AB
:1005800020917B01260F3327331F21323105ECF4F4
:100590002091FD01FC0190E080E0243069F082E0D0
:1005A0000895A0917B012191AC01455A5E4FA40FA3
:1005B000B52FB11D2C930196861798F380917B017E
:1005C000680F60937B0180E0089581E008951092A8
:1005D000FD0181E08093FC011092D70161E082E18E
:1005E0000E944F0261E083E10E944F02E9EBF0E0DC
:1005F00080818E7F808380818D7F808388E480935B
:10060000B80085E48093BC000895CF93DF9391E018
:1006100090935A018823B9F0C091B800D091BA00E4
:100620008091BC008A7B8093BC0060E082E10E94E4
:100630004F0260E083E10E944F020E94E702D093E4
:10064000BA00C093B800DF91CF9108958F929F9226
:10065000AF92BF92CF92DF92EF92FF920F931F93D0
:10066000CF93DF93D0912602D13208F0D7C0182F54
:10067000C09125020E949B026B017C018091FD01CB
:1006800081116BC082E08093FD011093FC018FEF1C
:100690008093FB011092FA01D093F901A5E0B2E03A
:1006A000E9EDF1E080E0D81391C01092D80180917B
:1006B000D801CC0FC82BC093D8018091D7018130CD
:1006C00009F088C01092D7010E949B026B017C0147
:1006D0008091D8018093BB008091FF01909100022E
:1006E000A0910102B0910202892B8A2B8B2BA1F0E1
:1006F0000E949B020091FF011091000220910102D3
:10070000309102026C197D098E099F09061717079F
:100710002807390708F442C08091BC0083FDD8CF78
:1007200085EC8093BC000E949B026B017C01809150
:10073000FD01823009F450C08091FB018F3F09F424
:100740006FC08091FB01803209F46CC08091FB0185
:10075000803309F469C084E026C08091FF01909144
:100760000002A0910102B0910202892B8A2B8B2BEF
:1007700009F484CF0E949B028090FF0190900002B8
:10078000A0900102B09002026C197D098E099F09A8
:1007900086169706A806B90608F070CF8091FE016C
:1007A0000E94050385E01092040210922602109226
:1007B0000302DF91CF911F910F91FF90EF90DF9097
:1007C000CF90BF90AF909F908F9008959D919193FF
:1007D0008F5F69CF85EEA5CF8091FF0190910002D8
:1007E000A0910102B0910202892B8A2B8B2B09F474
:1007F0009ECF0E949B020091FF0110910002209168
:100800000102309102026C197D098E099F090617B9
:1008100017072807390708F08ACFC0CF81E0C3CF78
:1008200080E0C1CF82E0BFCF83E0BDCF0895E091EB
:10083000AC018091AB01E81730F4F0E0E355FE4FD6
:10084000808190E008958FEF9FEF08959091AC0123
:100850008091AB012FEF3FEF981748F4E92FF0E0BC
:10086000E355FE4F208130E09F5F9093AC01C901BA
:1008700008958091AB019091AC01891B990B08956B
:10088000CF92DF92EF92FF920F931F93CF93DF935C
:100890007C01CB018A0120910302222389F0EB0124
:1008A0006B01C40ED51ECC15DD0569F06991D70129
:1008B000ED91FC910190F081E02DC7010995F3CFF6
:1008C000642F0E94C002C801DF91CF911F910F9148
:1008D000FF90EF90DF90CF900895CF93DF931F921A
:1008E000CDB7DEB76983209103022223F9F020916E
:1008F0002602203258F021E030E0FC0133832283CD
:1009000090E080E00F90DF91CF91089580910402F4
:10091000E82FF0E0EB5FFD4F998190838F5F80932C
:1009200004028093260281E090E0ECCF61E0CE01EA
:1009300001960E94C002F7CF90E080E008951F93D7
:10094000CF93DF93142F91E09093030280932502BD
:100950001092040210922602606884EC92E00E94D9
:100960006D04EC01019729F4612F84EC92E00E9460
:100970006D0481E00E942603811103C081E021976C
:1009800009F080E0DF91CF911F91089542E050E09F
:100990006AE271E087E292E00C9442018F929F92AA
:1009A000AF92BF92CF92DF92EF92FF920F931F937D
:1009B000CF93DF938B012091CD0131E0309303027F
:1009C000209325021092040210922602806A682F5A
:1009D00084EC92E00E946D047C0181E00E94260379
:1009E000C82F882371F080E0DF91CF911F910F9184
:1009F000FF90EF90DF90CF90BF90AF909F908F903F
:100A00000895EA94EF2879F7D091CD010E949B02D6
:100A10006B017C018091FD01811164C081E08093B4
:100A2000FD018093FC019FEF9093FB011092FA016E
:100A30008093F9018093D8018091D801DD0FD82BE4
:100A4000D093D8018091D701813009F088C01092ED
:100A5000D7010E949B026B017C018091D801809399
:100A6000BB008091FF0190910002A0910102B09122
:100A70000202892B8A2B8B2BA1F00E949B02809073
:100A8000FF0190900002A0900102B09002026C1948
:100A90007D098E099F0986169706A806B90608F4EF
:100AA00042C08091BC0083FDD8CF85EC8093BC0010
:100AB0000E949B026B017C018091FD01813009F451
:100AC00050C08091FA01823008F06DC08091FA0127
:100AD000A9EDB1E0EDEAF1E0C81749F19D919193DC
:100AE000CF5FFACF8091FF0190910002A0910102A7
:100AF000B0910202892B8A2B8B2B09F48BCF0E9499
:100B00009B028090FF0190900002A0900102B090A3
:100B100002026C197D098E099F0986169706A806A0
:100B2000B90608F077CF8091FE010E94050310926C
:100B3000AC01C093AB01C23009F055CF84EC92E018
:100B40000E942604C82F84EC92E00E94260420E034
:100B5000382F2C2BF8013183208381E045CF85EE9F
:100B6000A5CF8091FF0190910002A0910102B09168
:100B70000202892B8A2B8B2B09F49ECF0E949B02A9
:100B80008090FF0190900002A0900102B0900202BC
:100B90006C197D098E099F0986169706A806B90665
:100BA00008F08ACFC0CF82E093CFCF93DF93EC01E0
:100BB00088819981009711F00E947411198218821E
:100BC0001D821C821B821A82DF91CF9108950F93A0
:100BD0001F93CF93DF93EC0188819981009759F09F
:100BE0002A813B812617370730F081E0DF91CF91D2
:100BF0001F910F9108958B016F5F7F4F0E94FD1130
:100C0000009759F0998388831B830A832C813D8147
:100C1000232B59F7FC011082E8CF80E0E7CF85ED68
:100C20008093BC008091FF0190910002A09101028D
:100C3000B09102020796A11DB11D23E0B695A795BC
:100C4000979587952A95D1F72091BC0024FD03C084
:100C50001092FD0108954091FF01509100026091B2
:100C6000010270910202452B462B472B69F3009736
:100C7000A105B10541F025E32A95F1F700000197A0
:100C8000A109B109E1CF8091FE010C9405031F92E7
:100C90000F920FB60F9211242F933F934F935F93B0
:100CA0006F937F938F939F93AF93BF93EF93FF9334
:100CB00087E292E00E94C001FF91EF91BF91AF9156
:100CC0009F918F917F916F915F914F913F912F9164
:100CD0000F900FBE0F901F9018951F920F920FB696
:100CE0000F9211242F938F939F93EF93FF93E09193
:100CF0003702F09138028081E0913D02F0913E028E
:100D000082FD1BC09081809140028F5F8F73209184
:100D10004102821741F0E0914002F0E0E95DFD4FB1
:100D2000958F80934002FF91EF919F918F912F912A
:100D30000F900FBE0F901F9018958081F4CF1F92D7
:100D40000F920FB60F9211242F933F938F939F937F
:100D5000AF93BF9380919F019091A001A091A101B9
:100D6000B091A20130919E0123E0230F2D3758F559
:100D70000196A11DB11D20939E0180939F01909328
:100D8000A001A093A101B093A2018091A301909131
:100D9000A401A091A501B091A6010196A11DB11DCC
:100DA0008093A3019093A401A093A501B093A60101
:100DB000BF91AF919F918F913F912F910F900FBE57
:100DC0000F901F90189526E8230F0296A11DB11DC4
:100DD000D2CF1F920F920FB60F9211242F933F93F1
:100DE0004F935F936F937F938F939F93AF93BF9333
:100DF000EF93FF938091B900887F803609F44AC051
:100E0000F0F5883209F4A7C018F5803109F49BC0C9
:100E1000B8F4882309F4F9C0883009F494C0FF912C
:100E2000EF91BF91AF919F918F917F916F915F9162
:100E30004F913F912F910F900FBE0F901F901895DB
:100E4000883109F488C0803251F78093FB0114C0C7
:100E5000803409F49DC040F48033B9F38833F9F647
:100E60008093FB0185ECB0C0803509F485C08835DE
:100E700009F496C0883499F60E940F06D0CF8839BD
:100E800009F48CC038F5883729F050F4883611F011
:100E9000803729F683E08093FD0110929D0157C0B1
:100EA000883809F47BC0803919F0803809F0B7CF51
:100EB00080919D01803208F071C0E0919D0181E038
:100EC0008E0F80939D018091BB00F0E0E358FE4FB0
:100ED00080833DC0803B39F0E0F4803A09F479C06A
:100EE000883A09F09CCF84E08093FD0110927C0148
:100EF00010927B01E091A901F091AA0109958091DE
:100F00007B0181110FC081E080937B0110925B0116
:100F100009C0803C09F4A6CF883C09F4A3CF883BE4
:100F200009F07DCFE0917C0181E08E0F80937C0100
:100F3000F0E0E55AFE4F80818093BB0090917C01E8
:100F400080917B0129C08091D8018093BB0085EC02
:100F50008093BC0064CF9091FA018091F9019817B9
:100F600058F5E091FA0181E08E0F8093FA01F0E0EC
:100F7000E752FE4F8081E9CFE091FA0181E08E0FC8
:100F80008093FA018091BB00F0E0E752FE4F80832E
:100F90009091FA018091F9019817C8F285E8D8CFAD
:100FA000E091FA0181E08E0F8093FA018091BB00FD
:100FB000F0E0E752FE4F80838091FC0181115CCF0D
:100FC00081E08093D70184EA8093BC001092FD01F8
:100FD00026CF85EC8093BC001092FD0180919D018D
:100FE000803230F4E0919D01F0E0E358FE4F108232
:100FF00060919D0170E0E091A701F091A8018DE75B
:1010000091E0099510929D010ACF1092FB0134CF17
:10101000E7E2F2E01382128288EE93E0A0E0B0E013
:1010200084839583A683B7832AE031E031832083CC
:1010300025EC30E03587248724EC30E0378726879D
:1010400020EC30E0318B208B21EC30E0338B228B95
:1010500022EC30E0358B248B26EC30E0378B268B6E
:10106000118E128E138E148EE4ECF2E01382128233
:1010700084839583A683B7838CE191E091838083F9
:101080000895CF93DF93CDB7DEB7A7970FB6F89447
:10109000DEBF0FBECDBF789484B5826084BD84B5B9
:1010A000816084BD85B5826085BD85B5816085BD63
:1010B00080916E00816080936E001092810080911B
:1010C00081008260809381008091810081608093A3
:1010D0008100809180008160809380008091B100C8
:1010E00084608093B1008091B00081608093B000F3
:1010F00080917A00846080937A0080917A00826087
:1011000080937A0080917A00816080937A00809148
:101110007A00806880937A001092C100E0913702D3
:10112000F091380282E08083E0913302F091340242
:101130001082E0913502F091360280E180831092B6
:101140003F02E0913B02F0913C0286E08083E09117
:101150003902F0913A02808180618083E091390206
:10116000F0913A02808188608083E0913902F091A9
:101170003A02808180688083E0913902F0913A02DE
:1011800080818F7D80831092AC011092AB01109210
:101190000402109226020E94E70280E491E09093FC
:1011A000AA018093A90181E491E09093A801809322
:1011B000A70189E290E09093CE018093CD0143E0B6
:1011C00070E060E00E949F04882309F180E090E0D5
:1011D000A0E8BFE38093CF019093D001A093D10109
:1011E000B093D20186E993E4ABE0BDE38093D301F1
:1011F0009093D401A093D501B093D60140E161E072
:1012000070E08091CD019091CE010E949F0490E00A
:10121000292E90E0392E0E949B022B013C0188EE82
:10122000C82E83E0D82EE12CF12C0E949B02641979
:10123000750986099709683E734081059105A8F3F1
:1012400021E0C21AD108E108F10888EE480E83E0D7
:10125000581E611C711CC114D104E104F10429F76A
:10126000BE016E5D7F4F8CE090E00E94CE04811144
:1012700014C04AE150E06DE271E087E292E00E9422
:1012800042010E94C6042114310429F20E94AC01DB
:10129000882309F20E940000BECFBE016F5F7F4F1E
:1012A0008EE090E00E94CE04882319F38090CF0155
:1012B0009090D001A090D101B090D2014090D30184
:1012C0005090D4016090D5017090D6016AA17BA1A5
:1012D00090E080E00E94180DA50194010E94DB0EB1
:1012E000A30192010E94DB0E6B017C0120E030E043
:1012F000A9010E94130D882309F48AC069817A81AB
:1013000090E080E00E94180DA50194010E94DB0E80
:10131000A30192010E94DB0E4B015C01A701960123
:101320000E94DB0E2B013C0120E030E040E05FE357
:101330000E94130D18163CF123E333E343EB5FE304
:10134000C301B2010E944D0F4B015C012CE639E054
:1013500049EF5CE3C701B6010E94790D2B013C0106
:1013600026EB33EF4DE75DE3C701B6010E94790D2F
:10137000A50194010E94790D9B01AC01C301B2014A
:101380000E946E0E48C026EF38E24CE15FE3C301D5
:10139000B2010E94130D1816BCF024E330E847EBAD
:1013A0005CE3C701B6010E94790D6B017C0126EB5D
:1013B00033EF4DEF5CE3C501B4010E94790D9B0151
:1013C000AC01C701B601DCCF2DEC3CEC4CE45FE393
:1013D000C301B2010E94130D18167CF027E137EB10
:1013E00041E55CE3C701B6010E94790D6B017C0108
:1013F0002AED3CEA4AE75CE3DECF26E636E646EA3B
:101400005FE3C301B2010E94130D18160CF082C0F5
:1014100060E070E0CB011BA21AA21DA21CA21FA2B9
:101420001EA28E010F5F1F4F22E044E00E94BE0A01
:101430006C01009779F0FC0101900020E9F73197E9
:101440007F01E81AF90AB701CE0182960E94E705EA
:1014500081116FC0CE0182960E94D5051A82198231
:101460001C821B821E821D826CE070E0CE01019600
:101470000E94E705811165C0CE0101960E94D50545
:10148000CAA0DBA0C114D10409F466C0EEA0FFA07D
:10149000E114F104B9F08D819E81E80EF91EB701C7
:1014A000CE0101960E94E705882309F455C02981E1
:1014B0003A818D819E81B601820F931F0E94C312D3
:1014C000FE82ED82ED80FE8084E0E80EF11CB70123
:1014D000CE0101960E94E705811143C0CE0101961D
:1014E0000E94D5054D815E8169817A8187E292E013
:1014F0000E9442010E94C60489819A81009711F0DE
:101500000E9474118AA19BA1009709F4BCCE0E948D
:101510007411B9CE29E73DE54FEB5AE3C701B60197
:101520000E94790D6B017C0127EF3CEC42E95AE304
:1015300042CFFFA2EEA2B6018AA19BA10E94C312D4
:101540008DCF8CE090E09E838D8368E471E089818B
:101550009A810E94C31294CFCE0101960E94D505B4
:10156000B1CF29813A818D819E8165E571E0820F3D
:10157000931F0E94C312FE82ED82B4CFEF920F93AD
:101580001F93CF93DF93E80134E047FD34E1042E4D
:10159000000C550B57FF03C0519541955109E32E9F
:1015A000022F242FAE010E94DC0ACE01DF91CF91E1
:1015B0001F910F91EF900895A9E0B0E0E2EEFAE0FC
:1015C0000C943D0E6A01F22EB02E102FFBE3AF2ECD
:1015D000A01608F41BE31F5F012F27E0AE014F5F49
:1015E0005F4F0E943B0CBC018981982F997091300C
:1015F00009F43FC09BE2E1FC04C09E2D9170E0FC29
:101600003AC05E2D5071E82FE87083FF46C084E039
:10161000911101C083E0EF2DE81B8F1508F0E0E089
:10162000D6018E2F20E2552351F1992329F0D601BE
:101630009C93C60101966C0196012D5F3F4FE2FE1F
:1016400024C08EE4D6018C9391E411969C9311975B
:1016500012968C93D9018E2F90E281111BC0E20F5C
:10166000F32FF11D10828EEF9FEF2996ECE00C9482
:10167000590E9DE2C6CF90E2C4CF2D9381508111C7
:10168000FCCFCE0ED11CE0E0D0CF8EE6D6018C93FD
:1016900091E6DBCF9D938150E0CF482F447082FFCD
:1016A0003DC084E0911101C083E08F1510F4EF2D4F
:1016B000E81BD6018E2F20E2552309F1992329F04A
:1016C000D6019C93C60101966C0196012D5F3F4F98
:1016D000E2FE1BC089E4D6018C938EE411968C93B4
:1016E000119786E412968C93D9018E2F90E288236D
:1016F00009F4B5CF9D938150FACF2D93815081117C
:10170000FCCFCE0ED11CE0E0D9CF89E6D6018C9378
:101710008EE611968C93119786E6E4CF9B0177FFB6
:1017200002C030E020E0A1E0B0E0911102C0B0E0E2
:10173000A0E0F9013196AE0FBF1F8B2C912CBB207E
:1017400009F461C05401EFEFAE1ABE0AAA0DBB1D29
:10175000FA161B0619F014F04F2D4A1B511188C0C0
:10176000E3FC59C07601A42FB0E2A1114FC0C40E12
:10177000D11C992309F45BC040E0D6011196F60113
:1017800090836D01552309F448C0012F060F9A81FB
:10179000582F507184FF03C0913309F40150101683
:1017A0000CF047C0093008F008E0EEE2FE2E5B01C5
:1017B000A01AB10885019194819491082F3F3207B6
:1017C00029F4D601FC92F60131966F016217730776
:1017D00094F1021713077CF5DB01A21BB30BAA24BB
:1017E000A394B12CAC0EBD1EAA0DBB1D11968C91FD
:1017F00021503109D601119628153905F4F0F6016A
:1018000080836D01DBCFB12CA12CA0CFF701B19368
:101810007F01A150AACF9111B0CFD601942F50E3F0
:1018200002C05D9391509111FCCFC40ED11C40E0D9
:10183000ACCF01E0BACF80E3DBCF6217730731F49E
:10184000963388F4953311F4552369F0F6018083BB
:10185000FD01842F90E2811108C0A40FB11D1C92DC
:1018600090E080E002CF81E3F1CF91938150F3CFFC
:10187000911183CF8ACF283008F027E03327DA018F
:10188000990F311D87FD916000966105710539F44E
:1018900032602E5F3D9330E32A95E1F708959F3F34
:1018A00030F080387105610509F03C5F3C5F3D9385
:1018B000913008F08068911DDF93CF931F930F93B1
:1018C000FF92EF92192F987F9695E92F969596950E
:1018D000E90FFF27EC5BFE4F99273327EE24FF2407
:1018E000A701E70105900894079428F4360FE71E36
:1018F000F81E491F511D660F771F881F991F0694F8
:10190000A1F70590079428F4E70EF81E491F561F0B
:10191000C11D770F881F991F661F0694A1F70590B8
:10192000079428F4F80E491F561FC71FD11D880FB2
:10193000991F661F771F0694A1F70590079420F45E
:10194000490F561FC71FD81F990F661F771F881F83
:101950000694A9F784911095177041F0D695C79514
:1019600057954795F794E7941A95C1F7EAEEF0E09A
:1019700068941590159135916591959105907FE248
:101980007395E118F10A430B560BC90BD009C0F748
:10199000E10CF11E431F561FC91FD01D7EF470338A
:1019A00011F48A95E6CFE894015030F0080F0AF45C
:1019B0000027021708F4202F2395022F7A3328F0EE
:1019C00079E37D932A95E9F710C07D932A9589F6EE
:1019D000069497956795379517951794E118F10A2E
:1019E000430B560BC90BD00998F023957E91739544
:1019F0007A3308F070E37C932013B8F77E9170611E
:101A00007D9330F0839571E37D9370E32A95E1F740
:101A10001124EF90FF900F911F91CF91DF919927A3
:101A200087FD909508950E94550D08F481E0089572
:101A3000E89409C097FB3EF4909580957095619568
:101A40007F4F8F4F9F4F9923A9F0F92F96E9BB271E
:101A50009395F695879577956795B795F111F8CF9A
:101A6000FAF4BB0F11F460FF1BC06F5F7F4F8F4F05
:101A70009F4F16C0882311F096E911C0772321F0FB
:101A80009EE8872F762F05C0662371F096E8862F93
:101A900070E060E02AF09A95660F771F881FDAF7EA
:101AA000880F9695879597F90895990F0008550F17
:101AB000AA0BE0E8FEEF16161706E807F907C0F0D4
:101AC00012161306E407F50798F0621B730B840BDC
:101AD000950B39F40A2661F0232B242B252B21F4B6
:101AE00008950A2609F4A140A6958FEF811D811D56
:101AF00008950E948C0D0C94FD0D0E94EF0D38F09E
:101B00000E94F60D20F0952311F00C94E60D0C9434
:101B1000EC0D11240C94310E0E940E0E70F3959F63
:101B2000C1F3950F50E0551F629FF001729FBB27D4
:101B3000F00DB11D639FAA27F00DB11DAA1F649F70
:101B40006627B00DA11D661F829F2227B00DA11D23
:101B5000621F739FB00DA11D621F839FA00D611DA9
:101B6000221F749F3327A00D611D231F849F600DCA
:101B7000211D822F762F6A2F11249F5750409AF0F3
:101B8000F1F088234AF0EE0FFF1FBB1F661F771F7F
:101B9000881F91505040A9F79E3F510580F00C944A
:101BA000E60D0C94310E5F3FE4F3983ED4F3869536
:101BB00077956795B795F795E7959F5FC1F7FE2BEA
:101BC000880F911D9695879597F9089597F99F67C6
:101BD00080E870E060E008959FEF80EC08950024B5
:101BE0000A941616170618060906089500240A9482
:101BF00012161306140605060895092E0394000C08
:101C000011F4882352F0BB0F40F4BF2B11F460FF96
:101C100004C06F5F7F4F8F4F9F4F089557FD9058BF
:101C2000440F551F59F05F3F71F04795880F97FBA0
:101C3000991F61F09F3F79F087950895121613065A
:101C40001406551FF2CF4695F1DF08C01616170689
:101C50001806991FF1CF86957105610508940895BE
:101C6000E894BB2766277727CB0197F908952F9231
:101C70003F924F925F926F927F928F929F92AF921C
:101C8000BF92CF92DF92EF92FF920F931F93CF9369
:101C9000DF93CDB7DEB7CA1BDB0B0FB6F894DEBF00
:101CA0000FBECDBF09942A88398848885F846E8426
:101CB0007D848C849B84AA84B984C884DF80EE8070
:101CC000FD800C811B81AA81B981CE0FD11D0FB679
:101CD000F894DEBF0FBECDBFED0108955058BB276D
:101CE000AA270E94860E0C94FD0D0E94EF0D38F07D
:101CF0000E94F60D20F039F49F3F19F426F40C945D
:101D0000EC0D0EF4E095E7FB0C94E60DE92F0E9434
:101D10000E0E58F3BA17620773078407950720F071
:101D200079F4A6F50C94300E0EF4E0950B2EBA2F34
:101D3000A02D0B01B90190010C01CA01A0011124D1
:101D4000FF27591B99F0593F50F4503E68F11A167D
:101D5000F040A22F232F342F4427585FF3CF46950E
:101D600037952795A795F0405395C9F77EF41F1630
:101D7000BA0B620B730B840BBAF09150A1F0FF0FFA
:101D8000BB1F661F771F881FC2F70EC0BA0F621FE6
:101D9000731F841F48F4879577956795B795F795D6
:101DA0009E3F08F0B0CF9395880F08F09927EE0F6B
:101DB0009795879508950E94EF0E0C94FD0D0E9453
:101DC000F60D58F00E94EF0D40F029F45F3F29F026
:101DD0000C94E60D51110C94310E0C94EC0D0E94F4
:101DE0000E0E68F39923B1F3552391F3951B550B10
:101DF000BB27AA2762177307840738F09F5F5F4FDE
:101E0000220F331F441FAA1FA9F335D00E2E3AF01C
:101E1000E0E832D091505040E695001CCAF72BD034
:101E2000FE2F29D0660F771F881FBB1F2617370785
:101E30004807AB07B0E809F0BB0B802DBF01FF27B7
:101E400093585F4F3AF09E3F510578F00C94E60DA1
:101E50000C94310E5F3FE4F3983ED4F3869577956A
:101E60006795B795F7959F5FC9F7880F911D969570
:101E7000879597F90895E1E0660F771F881FBB1FCC
:101E8000621773078407BA0720F0621B730B840B79
:101E9000BA0BEE1F88F7E0950895FA01EE0FFF1FC9
:101EA000309621053105A1F16115710561F4803885
:101EB000BFE39B0749F168949038810561F0803851
:101EC000BFEF9B0741F099234AF5FF3FE10531053C
:101ED000210519F1E8940894E795D901AA2329F47A
:101EE000AB2FBE2FF85FD0F310C0FF5F70F4A69544
:101EF000E0F7F73950F019F0FF3A38F49F779F93E5
:101F00000DD00F9007FC9058089546F00C94EC0DFE
:101F100060E070E080E89FE308954FE79F775F936C
:101F20004F933F932F930E9448102F913F914F91D1
:101F30005F910E94790D0C94A50F29F416F00C9472
:101F4000E60D0C94300E0C94EC0D0E94160EA8F3C6
:101F50009638A0F707F80F92E8942BE33AEA48EB9B
:101F60005FE70E948F0D0F920F920F924DB75EB7F1
:101F70000F920E949010E8E6F0E00E94D70F4F9178
:101F80005F91EF91FF91E595EE1FFF1F49F0FE571E
:101F9000E0684427EE0F441FFA95E1F74195550B91
:101FA0000E940A100F9007FE0C94FE0F0895DF9315
:101FB000CF931F930F93FF92EF92DF927B018C01DF
:101FC000689406C0DA2EEF010E948C0DFE01E894A1
:101FD000A5912591359145915591A6F3EF010E9468
:101FE000860EFE019701A801DA9469F7DF90EF9061
:101FF000FF900F911F91CF91DF9108959B01AC014C
:1020000060E070E080E89FE30C94DB0E0C94E60D3A
:102010000C94C4100E94160ED8F39923C9F3940FA0
:10202000511DA3F39150504094F059F0882332F0A1
:10203000660F771F881F91505040C1F79E3F510592
:102040002CF7880F911D9695879597F908955F3F16
:10205000ACF0983E9CF0BB27869577956795B79531
:1020600008F4B1609395C1F7BB0F58F711F460FF06
:10207000E8CF6F5F7F4F8F4F9F4FE3CF0C94310EB0
:1020800016F00C94C4100C94EC0D68940C94E60DAE
:102090000E94160EA8F39923C1F3AEF3DF93CF93FA
:1020A0001F930F93FF92C92FDD2788232AF02197D2
:1020B000660F771F881FDAF720E030E040E85FEB1B
:1020C0009FE3883920F0803E38F021968F770E9478
:1020D0006F0EE0E9F0E004C00E946F0EEDEBF0E05F
:1020E0000E94D70F8B01BE01EC01FB2E6F577109C7
:1020F0007595771F880B990B0E941A0D28E132E71E
:1021000041E35FE30E948C0DAF2D9801AE01FF907B
:102110000F911F91CF91DF910E94860E0C94FD0DBF
:10212000FA01DC01AA0FBB1F9B01AC01BF5728F4C9
:10213000222733274427507820C0B75190F4AB2F83
:102140000024469537952795011CA395D2F30020CE
:1021500071F0220F331F441FB395DAF30ED00C94A5
:102160006E0E61307105A0E88A07B94630F49B0114
:10217000AC016627772788279078309621F0208356
:1021800031834283538308959F3F31F0915020F46F
:10219000879577956795B795880F911D9695879543
:1021A00097F90895EE0FFF1F0590F491E02D099423
:1021B0000F931F93CF93DF938230910510F482E049
:1021C00090E0E091D202F091D30230E020E0B0E064
:1021D000A0E0309799F42115310509F44AC0281B75
:1021E000390B24303105D8F58A819B816115710541
:1021F00089F1FB0193838283FE0111C040815181EB
:102200000281138148175907E0F04817590799F4DC
:10221000109761F012960C93129713961C933296B6
:10222000CF01DF91CF911F910F9108950093D202BA
:102230001093D302F4CF2115310551F04217530703
:1022400038F0A901DB019A01BD01DF01F801C1CF1E
:10225000EF01F9CF9093D3028093D202CDCFFE014C
:10226000E20FF31F81939193225031093983288320
:10227000D7CF2091D0023091D102232B41F420916D
:102280000201309103013093D1022093D0022091BA
:102290000001309101012115310541F42DB73EB700
:1022A0004091040150910501241B350BE091D002AF
:1022B000F091D102E217F307A0F42E1B3F0B281771
:1022C000390778F0AC014E5F5F4F2417350748F0AF
:1022D0004E0F5F1F5093D1024093D0028193919390
:1022E0009FCFF0E0E0E09CCFCF93DF930097E9F041
:1022F000FC01329713821282A091D202B091D302D4
:10230000ED0130E020E01097A1F420813181820FAF
:10231000931F2091D0023091D1022817390709F07C
:1023200061C0F093D102E093D002DF91CF91089584
:10233000EA01CE17DF07E8F54A815B819E0141156E
:102340005105B1F7E901FB83EA8349915991C40F23
:10235000D51FEC17FD0761F4808191810296840FEF
:10236000951FE90199838883828193819B838A8366
:10237000F0E0E0E012968D919C9113970097B9F5EB
:102380002D913C911197CD010296820F931F2091C0
:10239000D0023091D1022817390739F6309751F51C
:1023A0001092D3021092D202B093D102A093D00225
:1023B000BCCFD383C28340815181840F951FC8173E
:1023C000D90761F44E5F5F4F88819981480F591F8B
:1023D000518340838A819B819383828321153105B8
:1023E00009F0B0CFF093D302E093D2029ECFFD016B
:1023F000DC01C0CF13821282D7CFB0E0A0E0E3E0CF
:10240000F2E10C94390E8C01009751F4CB010E943B
:10241000D8108C01C801CDB7DEB7E0E10C94550EA1
:10242000FC01E60FF71F9C0122503109E217F30768
:1024300008F49DC0D901CD91DC911197C617D7073B
:1024400098F0C530D10530F3CE0104978617970771
:1024500008F3C61BD70B2297C193D1936D937C933E
:10246000CF010E947411D6CF5B01AC1ABD0A4C019A
:102470008C0E9D1EA091D202B091D302512C412C02
:10248000F12CE12C109731F58091D0029091D1027E
:102490008815990509F05CC04616570608F058C023
:1024A0008091000190910101009741F48DB79EB792
:1024B0004091040150910501841B950BE817F90721
:1024C00008F055C0F093D102E093D002F901718376
:1024D0006083A0CF8D919C91119712966C9012976A
:1024E00013967C901397A815B90559F56C0142E035
:1024F000C40ED11CCA14DB0420F1AC014A195B09DB
:10250000DA011296159780F06282738251834083BC
:10251000D9016D937C93E114F10471F0D701139606
:10252000FC93EE93129776CF22968C0F9D1FF901A4
:1025300091838083F301EFCFF093D302E093D20233
:1025400069CF4816590608F42C017D01D3019ACFB2
:10255000CB010E94D8107C01009749F0AE01B80170
:102560000E94BA12C8010E947411870153CF10E073
:1025700000E050CFFB01DC0102C001900D92415000
:102580005040D8F70895FB01DC0101900D92002026
:08259000E1F70895F894FFCF74
:102598000000D402800000000000E20142016F0147
:1025A8002F02A0017E019201000000006D0440048A
:1025B8009C0416043904260417040D0A0043616EAE
:1025C8006E6F74206D656173757265206C756D69C9
:1025D8006E6F7369747921004C756D696E6F7369DC
:0A25E80074793A2000206C75780029
:00000001FF
