:020000040000FA
:100000000C94D5000C94FD000C94FD000C94FD00A4
:100010000C94FD000C94FD000C94FD000C94FD006C
:100020000C94FD000C94FD000C94FD000C94FD005C
:100030000C94FD000C94FD000C94FD000C94FD004C
:100040000C9405050C94FD000C94D3040C94AD04A1
:100050000C94FD000C94FD000C94FD000C94FD002C
:100060000C944F050C94FD0000407A10F35A00A048
:10007000724E18090010A5D4E80000E87648170071
:1000800000E40B54020000CA9A3B000000E1F505B1
:10009000000080969800000040420F000000A086FB
:1000A00001000000102700000000E803000000002D
:1000B0006400000000000A000000000001000000D1
:1000C00000002C76D888DC674F0823DFC1DFAE59EB
:1000D000E1B1B796E5E3E453C63AE651997696E87E
:1000E000E6C28426EB898C9B62ED407C6FFCEFBC02
:1000F0009C9F40F2BAA56FA5F490055A2AF75C932D
:100100006B6CF9676DC11BFCE0E40D47FEF520E662
:10011000B500D0ED902E0300943577050080841E45
:10012000080000204E0A000000C80C333333330FA0
:10013000986E12831141EF8D2114893BE65516CF3D
:10014000FEE6DB18D1844B381BF77C1D901DA4BB49
:10015000E424203284725E228100C9F124ECA1E5FE
:100160003D2700000000250028002B0004040404A3
:100170000404040402020202020203030303030351
:10018000010204081020408001020408102001022E
:10019000040810200000000800020100000304070A
:1001A00000000000000000006E0611241FBECFEF0B
:1001B000D8E0DEBFCDBF22E0A4E7B1E001C01D92D0
:1001C000AE3EB207E1F711E0A0E0B1E0E0EFF0E20F
:1001D00002C005900D92A437B107D9F710E0C5ED24
:1001E000D0E004C02197FE010E947E0EC43DD107DD
:1001F000C9F70E94A7060C9476100C94000008958D
:100200000895AF92BF92CF92DF92EF92FF920F9339
:100210001F93CF93DF936C017B018B01040F151F9C
:10022000EB015E01AE18BF08C017D10759F0699104
:10023000D601ED91FC910190F081E02DC601099568
:10024000892B79F7C501DF91CF911F910F91FF9015
:10025000EF90DF90CF90BF90AF900895FC01538D49
:10026000448D252F30E0842F90E0821B930B541790
:1002700010F0CF96089501970895FC01918D828D1D
:10028000981761F0A28DAE0FBF2FB11D5D968C91B6
:10029000928D9F5F9F73928F90E008958FEF9FEFF5
:1002A0000895FC01918D828D981731F0828DE80FB1
:1002B000F11D858D90E008958FEF9FEF0895FC016B
:1002C000918D228D892F90E0805C9F4F821B910938
:1002D0008F739927089581E492E00E945F0121E0E5
:1002E000892B09F420E0822F089580E090E0892B8B
:1002F00029F00E946B0181110C9400000895FC010B
:10030000A48DA80FB92FB11DA35ABF4F2C91848D76
:1003100090E001968F739927848FA689B7892C93D3
:10032000A089B1898C91837080648C93938D848D26
:10033000981306C00288F389E02D80818F7D808329
:100340000895EF92FF920F931F93CF93DF93EC01E9
:1003500081E0888F9B8D8C8D98131AC0E889F9896C
:10036000808185FF15C09FB7F894EE89FF8960836F
:10037000E889F98980818370806480839FBF81E0F0
:1003800090E0DF91CF911F910F91FF90EF90089532
:10039000F62E0B8D10E00F5F1F4F0F731127E02E0D
:1003A0008C8D8E110CC00FB607FCFACFE889F98945
:1003B000808185FFF5CFCE010E947F01F1CFEB8DCB
:1003C000EC0FFD2FF11DE35AFF4FF0829FB7F89419
:1003D0000B8FEA89FB8980818062CFCFCF93DF9337
:1003E000EC01888D8823B9F0AA89BB89E889F9894D
:1003F0008C9185FD03C0808186FD0DC00FB607FC82
:10040000F7CF8C9185FFF2CF808185FFEDCFCE01B4
:100410000E947F01E9CFDF91CF91089590E0FC0128
:10042000EC56FE4F2491FC01E058FE4F3491FC0144
:10043000E459FE4FE491EE23C9F0222339F0233032
:1004400001F1A8F4213019F1223029F1F0E0EE0F8A
:10045000FF1FEE59FE4FA591B4918FB7F894EC9120
:10046000611126C030953E233C938FBF08952730FD
:10047000A9F02830C9F0243049F7809180008F7DA1
:1004800003C0809180008F7780938000DFCF84B598
:100490008F7784BDDBCF84B58F7DFBCF8091B0009B
:1004A0008F778093B000D2CF8091B0008F7DF9CF4D
:1004B0003E2BDACF3FB7F8948091BD019091BE01F9
:1004C000A091BF01B091C00126B5A89B05C02F3FE8
:1004D00019F00196A11DB11D3FBFBA2FA92F982F6A
:1004E0008827BC01CD01620F711D811D911D42E065
:1004F000660F771F881F991F4A95D1F708958F922D
:100500009F92AF92BF92CF92DF92EF92FF924B01F8
:100510005C010E945A026B017C010E945A026C1914
:100520007D098E099F09683E734081059105A8F3F6
:1005300021E0821A9108A108B10888EEC80E83E074
:10054000D81EE11CF11C81149104A104B10429F707
:10055000FF90EF90DF90CF90BF90AF909F908F90E3
:10056000089520919501260F3327331F213231053D
:10057000ECF420910D02FC0190E080E0243069F061
:1005800082E00895A09195012191AC014B585E4FF6
:10059000A40FB52FB11D2C930196861798F3809167
:1005A0009501680F6093950180E0089581E00895BA
:1005B00010920D0281E080930C021092E70161E03D
:1005C00082E10E940E0261E083E10E940E02E9EBEB
:1005D000F0E080818E7F808380818D7F808388E4BE
:1005E0008093B80085E48093BC000895CF93DF9397
:1005F00091E0909374018823B9F0C091B800D09134
:10060000BA008091BC008A7B8093BC0060E082E1EC
:100610000E940E0260E083E10E940E020E94D80256
:10062000D093BA00C093B800DF91CF910895089598
:10063000E091C6018091C501E81730F4F0E0E9537C
:10064000FE4F808190E008958FEF9FEF0895909185
:10065000C6018091C5012FEF3FEF981748F4E92FAD
:10066000F0E0E953FE4F208130E09F5F9093C60198
:10067000C90108958091C5019091C601891B990B0C
:100680000895CF92DF92EF92FF920F931F93CF9333
:10069000DF937C01CB018A0120913602222389F06D
:1006A000EB016B01C40ED51ECC15DD0569F0699117
:1006B000D701ED91FC910190F081E02DC7010995E2
:1006C000F3CF642F0E94B102C801DF91CF911F9137
:1006D0000F91FF90EF90DF90CF900895CF93DF932D
:1006E0001F92CDB7DEB76983209136022223F9F03D
:1006F00020913302203258F021E030E0FC013383B6
:10070000228390E080E00F90DF91CF910895809157
:100710003402E82FF0E0ED5EFD4F998190838F5F0A
:10072000809334028093330281E090E0ECCF61E06B
:10073000CE0101960E94B102F7CF90E080E00895CB
:1007400042E050E06AE271E081E492E00C94010141
:100750000F931F93CF93DF93EC01888199810097CA
:1007600059F02A813B812617370730F081E0DF916D
:10077000CF911F910F9108958B016F5F7F4F0E9462
:10078000A90F009759F0998388831B830A832C81D2
:100790003D81232B59F7FC011082E8CF80E0E7CFA1
:1007A000EF92FF920F931F93CF93DF936115710523
:1007B00041F480E0DF91CF911F910F91FF90EF9076
:1007C000089541155105B1F07B01EC010C811D81AB
:1007D000040F151FB8010E94A803882351F3288134
:1007E00039818C819D81B701820F931F0E946F1008
:1007F0001D830C8381E0DECFCF93DF93EC018881F2
:100800009981009711F00E94200F198218821D8291
:100810001C821B821A82DF91CF910895EF92FF9282
:100820000F931F93CF93DF93EC017B018A01BA01F1
:100830000E94A80381110BC0CE010E94FC03CE01CF
:10084000DF91CF911F910F91FF90EF9008951D833D
:100850000C83B701888199810E946F10F0CFEF92CD
:10086000FF920F931F93CF93DF93CDB7DEB7A1977E
:100870000FB6F894DEBF0FBECDBF7C01CB01BA012D
:10088000F7011182108213821282158214828E0166
:100890000F5F1F4F22E044E00E94180A0097C9F042
:1008A000FC0101900020E9F73197AF01481B590B7B
:1008B000BC01C7010E940E04A1960FB6F894DEBFDA
:1008C0000FBECDBFDF91CF911F910F91FF90EF90A1
:1008D0000895C7010E94FC03EFCFFC018081918144
:1008E000009711F00C94200F089585ED8093BC00C3
:1008F00080910F0290911002A0911102B09112020A
:100900000796A11DB11D23E0B695A79597958795EC
:100910002A95D1F72091BC0024FD03C010920D024E
:10092000089540910F025091100260911102709150
:100930001202452B462B472B69F30097A105B10501
:1009400041F025E32A95F1F700000197A109B109CB
:10095000E1CF80910E020C94F6021F920F920FB617
:100960000F9211242F933F934F935F936F937F9335
:100970008F939F93AF93BF93EF93FF9381E492E0A4
:100980000E947F01FF91EF91BF91AF919F918F9155
:100990007F916F915F914F913F912F910F900FBE7B
:1009A0000F901F9018951F920F920FB60F9211245F
:1009B0002F938F939F93EF93FF93E0915102F091C8
:1009C00052028081E0915702F091580282FD1BC0D3
:1009D000908180915A028F5F8F7320915B02821702
:1009E00041F0E0915A02F0E0EF5BFD4F958F80936C
:1009F0005A02FF91EF919F918F912F910F900FBE0F
:100A00000F901F9018958081F4CF1F920F920FB610
:100A10000F9211242F933F938F939F93AF93BF9384
:100A20008091B9019091BA01A091BB01B091BC0134
:100A30003091B80123E0230F2D3758F50196A11D01
:100A4000B11D2093B8018093B9019093BA01A0938E
:100A5000BB01B093BC018091BD019091BE01A091FA
:100A6000BF01B091C0010196A11DB11D8093BD01D0
:100A70009093BE01A093BF01B093C001BF91AF910D
:100A80009F918F913F912F910F900FBE0F901F90CC
:100A9000189526E8230F0296A11DB11DD2CF1F92F3
:100AA0000F920FB60F9211242F933F934F935F93A2
:100AB0006F937F938F939F93AF93BF93EF93FF9326
:100AC0008091B900887F803609F44AC0F0F58832F9
:100AD00009F4A7C018F5803109F49BC0B8F4882345
:100AE00009F4F9C0883009F494C0FF91EF91BF91E7
:100AF000AF919F918F917F916F915F914F913F91B6
:100B00002F910F900FBE0F901F901895883109F408
:100B100088C0803251F780930B0214C0803409F4EE
:100B20009DC040F48033B9F38833F9F680930B020B
:100B300085ECB0C0803509F485C0883509F496C0CD
:100B4000883499F60E947504D0CF883909F48CC096
:100B500038F5883729F050F4883611F0803729F6B7
:100B600083E080930D021092B70157C0883809F4D2
:100B70007BC0803919F0803809F0B7CF8091B70178
:100B8000803208F071C0E091B70181E08E0F809350
:100B9000B7018091BB00F0E0E956FE4F80833DC075
:100BA000803B39F0E0F4803A09F479C0883A09F0E2
:100BB0009CCF84E080930D021092960110929501D3
:100BC000E091C301F091C4010995809195018111D3
:100BD0000FC081E0809395011092750109C0803C9F
:100BE00009F4A6CF883C09F4A3CF883B09F07DCF58
:100BF000E091960181E08E0F80939601F0E0EB5832
:100C0000FE4F80818093BB00909196018091950169
:100C100029C08091E8018093BB0085EC8093BC00E3
:100C200064CF90910A0280910902981758F5E091DB
:100C30000A0281E08E0F80930A02F0E0E751FE4F36
:100C40008081E9CFE0910A0281E08E0F80930A0251
:100C50008091BB00F0E0E751FE4F808390910A0243
:100C6000809109029817C8F285E8D8CFE0910A026E
:100C700081E08E0F80930A028091BB00F0E0E75183
:100C8000FE4F808380910C0281115CCF81E08093C4
:100C9000E70184EA8093BC0010920D0226CF85EC18
:100CA0008093BC0010920D028091B701803230F425
:100CB000E091B701F0E0E956FE4F10826091B70174
:100CC00070E0E091C101F091C20187E991E00995DE
:100CD0001092B7010ACF10920B0234CFE1E4F2E098
:100CE0001382128288EE93E0A0E0B0E084839583C3
:100CF000A683B7832AE031E03183208325EC30E0FE
:100D00003587248724EC30E03787268720EC30E0D5
:100D1000318B208B21EC30E0338B228B22EC30E0C6
:100D2000358B248B26EC30E0378B268B118E128E80
:100D3000138E148EEEEDF2E013821282848395837B
:100D4000A683B7838CE191E0918380830895CF934C
:100D5000DF93CDB7DEB72C970FB6F894DEBF0FBE8A
:100D6000CDBF789484B5826084BD84B5816084BD34
:100D700085B5826085BD85B5816085BD80916E0039
:100D8000816080936E00109281008091810082606A
:100D900080938100809181008160809381008091A7
:100DA00080008160809380008091B1008460809396
:100DB000B1008091B00081608093B00080917A0092
:100DC000846080937A0080917A00826080937A00B8
:100DD00080917A00816080937A0080917A008068A7
:100DE00080937A001092C10087E290E090933802DD
:100DF000809337021092C6011092C5010E94D8025A
:100E00008FEF90E09093C4018093C30180E091E064
:100E10009093C2018093C101E0915102F09152027E
:100E200082E08083E0914D02F0914E021082E091C9
:100E30004F02F091500280E1808310925902E091BC
:100E40005502F091560286E08083E0915302F091C2
:100E50005402808180618083E0915302F0915402BA
:100E6000808188608083E0915302F09154028081F8
:100E700080688083E0915302F091540280818F7DDD
:100E80008083E0E0AE2EE0E0BE2E05ECF3E08F2E96
:100E900075EED72E11E062E0C62E809137021093D6
:100EA000360280933502109234021092330250E0E1
:100EB00040E070E060E08EED92E00E9441037C0132
:100EC0003090330280E2831508F445C190903502DA
:100ED0000E945A022B013C0180910D02811169C0D0
:100EE000C0920D0210930C028FEF80930B021092B0
:100EF0000A0230920902A3E1B2E0E9EEF1E080E0FB
:100F0000381200C11092E8018091E801990C982AEA
:100F10009092E8018091E701813009F0F7C01092CA
:100F2000E7010E945A022B013C018091E801809365
:100F3000BB0080910F0290911002A0911102B0911C
:100F40001202892B8A2B8B2BA1F00E945A0220912E
:100F50000F02309110024091110250911202641957
:100F6000750986099709261737074807590708F4AE
:100F700041C08091BC0083FDD8CF0093BC000E948B
:100F80005A022B013C0180910D02823009F4C1C04C
:100F900080910B028F3F09F4E0C080910B028032F8
:100FA00009F4DDC080910B02803309F4DAC084E0DB
:100FB00026C080910F0290911002A0911102B09171
:100FC0001202892B8A2B8B2B09F486CF0E945A029E
:100FD00020910F02309110024091110250911202A3
:100FE00064197509860997092617370748075907AD
:100FF00008F072CF80910E020E94F60285E01092F6
:1010000034021092330210923602811106C2EF2888
:1010100009F003C265E270E080E090E00E947F0288
:101020005AE0E52EF12C99249A94309037020E94D0
:101030005A022B013C0180910D02811194C0109342
:101040000D0210930C0290920B0210920A028092F1
:1010500009021093E8018091E801330C382A30929C
:10106000E8018091E701813009F0ABC11092E701FE
:101070000E945A022B013C018091E8018093BB0041
:1010800080910F0290911002A0911102B091120272
:10109000892B8A2B8B2BA1F00E945A0220910F02E0
:1010A0003091100240911102509112026419750999
:1010B00086099709261737074807590708F474C0A7
:1010C0008091BC0083FDD8CF0093BC000E945A02DF
:1010D0002B013C0180910D02813009F475C1809192
:1010E0000A02843008F092C180910A02A9EEB1E0B0
:1010F000E7ECF1E090E0981709F45BC02D912193A3
:101100009F5FF9CF9D9191938F5FFACED092BC00F3
:1011100036CF80910F0290911002A0911102B091F0
:101120001202892B8A2B8B2B09F42DCF0E945A0295
:1011300020910F0230911002409111025091120241
:10114000641975098609970926173707480759074B
:1011500008F019CF4FCF81E052CF80E050CF82E02E
:101160004ECF83E04CCF80910F0290911002A0915E
:101170001102B0911202892B8A2B8B2B09F45BCFC1
:101180000E945A0220910F023091100240911102E8
:1011900050911202641975098609970926173707B5
:1011A0004807590708F047CF80910E020E94F602C7
:1011B00080E01092C6018093C501843009F02DC1F2
:1011C0008EED92E00E9427039C01207C3327232B85
:1011D00009F01EC1F82EEE248EED92E00E94270346
:1011E0008E299F29BC01990F880B990B0E946F0CC7
:1011F00020E030E048EC52E40E94AA0C20E038EFF6
:101200004FE756E40E940C0E6093390270933A0245
:1012100080933B0290933C028EED92E00E94270364
:101220007C0136E0EE0CFF1C3A95E1F78EED92E082
:101230000E942703BC0175956795759567956E2982
:101240007F29072E000C880B990B0E946F0C20E061
:1012500030E045E253E40E94AA0C20E038EF4FE76B
:1012600056E40E940C0E20E030E040E252E40E947E
:101270009F0D60933D0270933E0280933F029093D6
:1012800040024091390250913A0260913B027091C4
:101290003C02CE0101960E942F0418861F821A86F6
:1012A00019861C861B864AE050E06DE271E0CE0193
:1012B00007960E940E044D815E8169817A81CE017C
:1012C00007960E94D003811104C0CE0107960E94A8
:1012D000FC0341E050E068E371E0CE0107960E9414
:1012E000D003811104C0CE0107960E94FC034B85F8
:1012F0005C856F81788581E492E00E940101CE01D6
:1013000007960E946D04CE0101960E946D044091E3
:101310003D0250913E0260913F0270914002CE0129
:1013200001960E942F0418861F821A8619861C8631
:101330001B864FE050E06AE371E0CE0107960E9401
:101340000E044D815E8169817A81CE0107960E94EB
:10135000D003811104C0CE0107960E94FC0344E033
:1013600050E06AE471E0CE0107960E94D00381113B
:1013700004C0CE0107960E94FC034B855C856F81FB
:10138000788581E492E00E9401010E94A003CE01D1
:1013900007960E946D04CE0101960E946D0468EECE
:1013A00073E080E090E00E947F02A114B10409F490
:1013B00074CD0E946B01882309F46CCD0E9400005B
:1013C00067CDD092BC0082CE80910F029091100226
:1013D000A0911102B0911202892B8A2B8B2B09F458
:1013E00079CE0E945A0220910F0230911002409152
:1013F000110250911202641975098609970926177E
:1014000037074807590708F065CECECE84E06ECE88
:1014100081E0E81AF10809F008CE44E250E06FE4F8
:1014200071E081E492E00E9401010E94A003B7CF25
:10143000EF920F931F93CF93DF93E80134E047FDC2
:1014400034E1042E000C550B57FF03C05195419514
:101450005109E32E022F242FAE010E94360ACE013D
:10146000DF91CF911F910F91EF900895A9E0B0E027
:10147000ECE3FAE00C946E0D6A01F22EB02E102F00
:10148000FBE3AF2EA01608F41BE31F5F012F27E03C
:10149000AE014F5F5F4F0E94950BBC018981982F71
:1014A0009970913009F43FC09BE2E1FC04C09E2D8D
:1014B0009170E0FC3AC05E2D5071E82FE87083FF18
:1014C00046C084E0911101C083E0EF2DE81B8F1529
:1014D00008F0E0E0D6018E2F20E2552351F1992348
:1014E00029F0D6019C93C60101966C0196012D5FEF
:1014F0003F4FE2FE24C08EE4D6018C9391E4119616
:101500009C93119712968C93D9018E2F90E28111A2
:101510001BC0E20FF32FF11D10828EEF9FEF299673
:10152000ECE00C948A0D9DE2C6CF90E2C4CF2D93DF
:1015300081508111FCCFCE0ED11CE0E0D0CF8EE6E1
:10154000D6018C9391E6DBCF9D938150E0CF482F5D
:10155000447082FF3DC084E0911101C083E08F158B
:1015600010F4EF2DE81BD6018E2F20E2552309F150
:10157000992329F0D6019C93C60101966C0196012E
:101580002D5F3F4FE2FE1BC089E4D6018C938EE4B1
:1015900011968C93119786E412968C93D9018E2F15
:1015A00090E2882309F4B5CF9D938150FACF2D9313
:1015B00081508111FCCFCE0ED11CE0E0D9CF89E65D
:1015C000D6018C938EE611968C93119786E6E4CF24
:1015D0009B0177FF02C030E020E0A1E0B0E0911174
:1015E00002C0B0E0A0E0F9013196AE0FBF1F8B2C16
:1015F000912CBB2009F461C05401EFEFAE1ABE0A72
:10160000AA0DBB1DFA161B0619F014F04F2D4A1B2C
:10161000511188C0E3FC59C07601A42FB0E2A1119A
:101620004FC0C40ED11C992309F45BC040E0D60121
:101630001196F60190836D01552309F448C0012FDE
:10164000060F9A81582F507184FF03C0913309F41B
:10165000015010160CF047C0093008F008E0EEE227
:10166000FE2E5B01A01AB108850191948194910826
:101670002F3F320729F4D601FC92F60131966F0113
:101680006217730794F1021713077CF5DB01A21BA5
:10169000B30BAA24A394B12CAC0EBD1EAA0DBB1D86
:1016A00011968C9121503109D601119628153905D2
:1016B000F4F0F60180836D01DBCFB12CA12CA0CF1B
:1016C000F701B1937F01A150AACF9111B0CFD601FC
:1016D000942F50E302C05D9391509111FCCFC40E42
:1016E000D11C40E0ACCF01E0BACF80E3DBCF621782
:1016F000730731F4963388F4953311F4552369F068
:10170000F6018083FD01842F90E2811108C0A40FAF
:10171000B11D1C9290E080E002CF81E3F1CF919364
:101720008150F3CF911183CF8ACF283008F027E082
:101730003327DA01990F311D87FD9160009661050D
:10174000710539F432602E5F3D9330E32A95E1F75D
:1017500008959F3F30F080387105610509F03C5FC6
:101760003C5F3D93913008F08068911DDF93CF93EB
:101770001F930F93FF92EF92192F987F9695E92F61
:1017800096959695E90FFF27EE53FF4F992733273C
:10179000EE24FF24A701E70105900894079428F49C
:1017A000360FE71EF81E491F511D660F771F881F51
:1017B000991F0694A1F70590079428F4E70EF81EE8
:1017C000491F561FC11D770F881F991F661F06945A
:1017D000A1F70590079428F4F80E491F561FC71F5C
:1017E000D11D880F991F661F771F0694A1F70590DA
:1017F000079420F4490F561FC71FD81F990F661F63
:10180000771F881F0694A9F784911095177041F0EF
:10181000D695C79557954795F794E7941A95C1F7CC
:10182000E8E6F0E0689415901591359165919591F1
:1018300005907FE27395E118F10A430B560BC90B33
:10184000D009C0F7E10CF11E431F561FC91FD01D60
:101850007EF4703311F48A95E6CFE894015030F0AD
:10186000080F0AF40027021708F4202F2395022FEF
:101870007A3328F079E37D932A95E9F710C07D93B8
:101880002A9589F606949795679537951795179435
:10189000E118F10A430B560BC90BD00998F02395B8
:1018A0007E9173957A3308F070E37C932013B8F738
:1018B0007E9170617D9330F0839571E37D9370E349
:1018C0002A95E1F71124EF90FF900F911F91CF918E
:1018D000DF91992787FD90950895E89409C097FBBB
:1018E0003EF490958095709561957F4F8F4F9F4FF7
:1018F0009923A9F0F92F96E9BB279395F69587953B
:1019000077956795B795F111F8CFFAF4BB0F11F4FD
:1019100060FF1BC06F5F7F4F8F4F9F4F16C08823A4
:1019200011F096E911C0772321F09EE8872F762FDA
:1019300005C0662371F096E8862F70E060E02AF01B
:101940009A95660F771F881FDAF7880F9695879507
:1019500097F908950E94BD0C0C942E0D0E94200D45
:1019600038F00E94270D20F0952311F00C94170DEC
:101970000C941D0D11240C94620D0E943F0D70F308
:10198000959FC1F3950F50E0551F629FF001729F24
:10199000BB27F00DB11D639FAA27F00DB11DAA1F33
:1019A000649F6627B00DA11D661F829F2227B00D80
:1019B000A11D621F739FB00DA11D621F839FA00D0B
:1019C000611D221F749F3327A00D611D231F849F5B
:1019D000600D211D822F762F6A2F11249F575040B2
:1019E0009AF0F1F088234AF0EE0FFF1FBB1F661F2D
:1019F000771F881F91505040A9F79E3F510580F0F6
:101A00000C94170D0C94620D5F3FE4F3983ED4F3F1
:101A1000869577956795B795F795E7959F5FC1F799
:101A2000FE2B880F911D9695879597F9089597F944
:101A30009F6780E870E060E008959FEF80EC089574
:101A400000240A941616170618060906089500249D
:101A50000A9412161306140605060895092E039417
:101A6000000C11F4882352F0BB0F40F4BF2B11F48B
:101A700060FF04C06F5F7F4F8F4F9F4F089557FDEA
:101A80009058440F551F59F05F3F71F04795880FEC
:101A900097FB991F61F09F3F79F087950895121683
:101AA00013061406551FF2CF4695F1DF08C016162F
:101AB00017061806991FF1CF8695710561050894E0
:101AC0000895E894BB2766277727CB0197F90895F7
:101AD0002F923F924F925F926F927F928F929F923E
:101AE000AF92BF92CF92DF92EF92FF920F931F932C
:101AF000CF93DF93CDB7DEB7CA1BDB0B0FB6F894DD
:101B0000DEBF0FBECDBF09942A88398848885F841C
:101B10006E847D848C849B84AA84B984C884DF808D
:101B2000EE80FD800C811B81AA81B981CE0FD11D71
:101B30000FB6F894DEBF0FBECDBFED01089550582B
:101B4000BB27AA270E94B70D0C942E0D0E94200DD2
:101B500038F00E94270D20F039F49F3F19F426F445
:101B60000C941D0D0EF4E095E7FB0C94170DE92F76
:101B70000E943F0D58F3BA17620773078407950751
:101B800020F079F4A6F50C94610D0EF4E0950B2E7F
:101B9000BA2FA02D0B01B90190010C01CA01A001BF
:101BA0001124FF27591B99F0593F50F4503E68F11A
:101BB0001A16F040A22F232F342F4427585FF3CF5B
:101BC000469537952795A795F0405395C9F77EF42C
:101BD0001F16BA0B620B730B840BBAF09150A1F075
:101BE000FF0FBB1F661F771F881FC2F70EC0BA0FFB
:101BF000621F731F841F48F4879577956795B79583
:101C0000F7959E3F08F0B0CF9395880F08F099277D
:101C1000EE0F9795879508950E94200E0C942E0D37
:101C20000E94270D58F00E94200D40F029F45F3FDC
:101C300029F00C94170D51110C94620D0C941D0D8C
:101C40000E943F0D68F39923B1F3552391F3951B3F
:101C5000550BBB27AA2762177307840738F09F5FCD
:101C60005F4F220F331F441FAA1FA9F335D00E2E3A
:101C70003AF0E0E832D091505040E695001CCAF7A7
:101C80002BD0FE2F29D0660F771F881FBB1F26176A
:101C900037074807AB07B0E809F0BB0B802DBF0141
:101CA000FF2793585F4F3AF09E3F510578F00C9410
:101CB000170D0C94620D5F3FE4F3983ED4F38695C4
:101CC00077956795B795F7959F5FC9F7880F911D31
:101CD0009695879597F90895E1E0660F771F881F1D
:101CE000BB1F621773078407BA0720F0621B730BD0
:101CF000840BBA0BEE1F88F7E0950895EE0FFF1FD7
:101D00000590F491E02D09940F931F93CF93DF93E7
:101D10008230910510F482E090E0E091EC02F091C5
:101D2000ED0230E020E0B0E0A0E0309799F421151A
:101D3000310509F44AC0281B390B24303105D8F588
:101D40008A819B816115710589F1FB0193838283EF
:101D5000FE0111C04081518102811381481759074A
:101D6000E0F04817590799F4109761F012960C9318
:101D7000129713961C933296CF01DF91CF911F914A
:101D80000F9108950093EC021093ED02F4CF21150A
:101D9000310551F04217530738F0A901DB019A01D0
:101DA000BD01DF01F801C1CFEF01F9CF9093ED0242
:101DB0008093EC02CDCFFE01E20FF31F819391934C
:101DC0002250310939832883D7CF2091EA023091FC
:101DD000EB02232B41F42091020130910301309357
:101DE000EB022093EA0220910001309101012115BC
:101DF000310541F42DB73EB74091040150910501E2
:101E0000241B350BE091EA02F091EB02E217F30795
:101E1000A0F42E1B3F0B2817390778F0AC014E5F5A
:101E20005F4F2417350748F04E0F5F1F5093EB02AA
:101E30004093EA02819391939FCFF0E0E0E09CCF42
:101E4000CF93DF930097E9F0FC013297138212825F
:101E5000A091EC02B091ED02ED0130E020E010978E
:101E6000A1F420813181820F931F2091EA023091E9
:101E7000EB022817390709F061C0F093EB02E093F9
:101E8000EA02DF91CF910895EA01CE17DF07E8F566
:101E90004A815B819E0141155105B1F7E901FB8340
:101EA000EA8349915991C40FD51FEC17FD0761F4DE
:101EB000808191810296840F951FE901998388831F
:101EC000828193819B838A83F0E0E0E012968D917A
:101ED0009C9113970097B9F52D913C911197CD01E5
:101EE0000296820F931F2091EA023091EB0228178D
:101EF000390739F6309751F51092ED021092EC0245
:101F0000B093EB02A093EA02BCCFD383C28340819B
:101F10005181840F951FC817D90761F44E5F5F4F39
:101F200088819981480F591F518340838A819B8101
:101F3000938382832115310509F0B0CFF093ED0230
:101F4000E093EC029ECFFD01DC01C0CF1382128230
:101F5000D7CFB0E0A0E0EFEAFFE00C946A0D8C016F
:101F6000009751F4CB010E94840E8C01C801CDB7BB
:101F7000DEB7E0E10C94860DFC01E60FF71F9C0133
:101F800022503109E217F30708F49DC0D901CD9121
:101F9000DC911197C617D70798F0C530D10530F3FB
:101FA000CE0104978617970708F3C61BD70B229715
:101FB000C193D1936D937C93CF010E94200FD6CF14
:101FC0005B01AC1ABD0A4C018C0E9D1EA091EC0267
:101FD000B091ED02512C412CF12CE12C109731F5F0
:101FE0008091EA029091EB028815990509F05CC096
:101FF0004616570608F058C08091000190910101E3
:10200000009741F48DB79EB74091040150910501AE
:10201000841B950BE817F90708F055C0F093EB0205
:10202000E093EA02F90171836083A0CF8D919C91C6
:10203000119712966C90129713967C901397A8158F
:10204000B90559F56C0142E0C40ED11CCA14DB0479
:1020500020F1AC014A195B09DA011296159780F05C
:102060006282738251834083D9016D937C93E11422
:10207000F10471F0D7011396FC93EE93129776CF8B
:1020800022968C0F9D1FF90191838083F301EFCF7E
:10209000F093ED02E093EC0269CF4816590608F47C
:1020A0002C017D01D3019ACFCB010E94840E7C01CB
:1020B000009749F0AE01B8010E946610C8010E9465
:1020C000200F870153CF10E000E050CFFB01DC016F
:1020D00002C001900D9241505040D8F70895FB0185
:1020E000DC0101900D920020E1F70895F894FFCFF4
:1020F0000000EE02800000000000A10101012E019D
:10210000EE015F013D015101000000006E0341033B
:102110009D0317033A03270318030D0A0048756D42
:1021200069646974793A200025002C2074656D700B
:10213000657261747572653A200020C2B043004335
:10214000616E6E6F74206D65617375726520746564
:102150006D70657261747572652F68756D696469FB
:04216000747921006D
:107E0000112484B714BE81FFF0D085E080938100F7
:107E100082E08093C00088E18093C10086E0809377
:107E2000C20080E18093C4008EE0C9D0259A86E02C
:107E300020E33CEF91E0309385002093840096BBD3
:107E4000B09BFECF1D9AA8958150A9F7CC24DD24C4
:107E500088248394B5E0AB2EA1E19A2EF3E0BF2EE7
:107E6000A2D0813461F49FD0082FAFD0023811F036
:107E7000013811F484E001C083E08DD089C08234E0
:107E800011F484E103C0853419F485E0A6D080C0E4
:107E9000853579F488D0E82EFF2485D0082F10E0AE
:107EA000102F00270E291F29000F111F8ED06801E7
:107EB0006FC0863521F484E090D080E0DECF843638
:107EC00009F040C070D06FD0082F6DD080E0C81688
:107ED00080E7D80618F4F601B7BEE895C0E0D1E017
:107EE00062D089930C17E1F7F0E0CF16F0E7DF06D8
:107EF00018F0F601B7BEE89568D007B600FCFDCFD4
:107F0000A601A0E0B1E02C9130E011968C91119780
:107F100090E0982F8827822B932B1296FA010C0160
:107F200087BEE89511244E5F5F4FF1E0A038BF0790
:107F300051F7F601A7BEE89507B600FCFDCF97BE46
:107F4000E89526C08437B1F42ED02DD0F82E2BD052
:107F50003CD0F601EF2C8F010F5F1F4F84911BD097
:107F6000EA94F801C1F70894C11CD11CFA94CF0C13
:107F7000D11C0EC0853739F428D08EE10CD085E9AC
:107F80000AD08FE07ACF813511F488E018D01DD067
:107F900080E101D065CF982F8091C00085FFFCCF94
:107FA0009093C60008958091C00087FFFCCF809118
:107FB000C00084FD01C0A8958091C6000895E0E648
:107FC000F0E098E1908380830895EDDF803219F02E
:107FD00088E0F5DFFFCF84E1DECF1F93182FE3DFCA
:107FE0001150E9F7F2DF1F91089580E0E8DFEE27F6
:047FF000FF270994CA
:027FFE00040479
:00000001FF
