:020000040000FA
:100000000C9458000C9480000C9480000C94800098
:100010000C9480000C9480000C9480000C94800060
:100020000C9480000C9480000C9480000C94800050
:100030000C9480000C9480000C9480000C94800040
:100040000C94C6060C9480000C9494060C946E06D6
:100050000C9480000C9480000C9480000C94800020
:100060000C9410070C94800000000000250028006C
:100070002B00040404040404040402020202020229
:10008000030303030303010204081020408001025C
:1000900004081020010204081020000000080002DB
:1000A00001000003040700000000000000002F080A
:1000B00011241FBECFEFD8E0DEBFCDBF11E0A0E01E
:1000C000B1E0EAEAF7E102C005900D92AA35B10766
:1000D000D9F722E0AAE5B1E001C01D92A63CB20723
:1000E000E1F710E0C8E5D0E004C02197FE010E94CE
:1000F000CD0BC735D107C9F70E9468080C94D30B04
:100100000C9400008091AB019091AC01891B990B7C
:10011000089508950895AF92BF92CF92DF92EF9223
:10012000FF920F931F93CF93DF936C017B018B01A1
:10013000040F151FEB015E01AE18BF08C017D107F1
:1001400059F06991D601ED91FC910190F081E02D7B
:10015000C6010995892B79F7C501DF91CF911F91D0
:100160000F91FF90EF90DF90CF90BF90AF900895E8
:10017000FC01538D448D252F30E0842F90E0821BAD
:10018000930B541710F0CF96089501970895FC0132
:10019000918D828D981761F0A28DAE0FBF2FB11D8A
:1001A0005D968C91928D9F5F9F73928F90E00895E2
:1001B0008FEF9FEF0895FC01918D828D981731F09C
:1001C000828DE80FF11D858D90E008958FEF9FEFF0
:1001D0000895FC01918D228D892F90E0805C9F4FC6
:1001E000821B91098F73992708958DE192E00E94F7
:1001F000E90021E0892B09F420E0822F089580E0B6
:1002000090E0892B29F00E94F50081110C940000E8
:100210000895FC01A48DA80FB92FB11DA35ABF4F9B
:100220002C91848D90E001968F739927848FA689F5
:10023000B7892C93A089B1898C91837080648C9349
:10024000938D848D981306C00288F389E02D8081F8
:100250008F7D80830895EF92FF920F931F93CF932A
:10026000DF93EC0181E0888F9B8D8C8D98131AC0F1
:10027000E889F989808185FF15C09FB7F894EE89D8
:10028000FF896083E889F989808183708064808335
:100290009FBF81E090E0DF91CF911F910F91FF9080
:1002A000EF900895F62E0B8D10E00F5F1F4F0F7328
:1002B0001127E02E8C8D8E110CC00FB607FCFACFE3
:1002C000E889F989808185FFF5CFCE010E94090177
:1002D000F1CFEB8DEC0FFD2FF11DE35AFF4FF082B4
:1002E0009FB7F8940B8FEA89FB8980818062CFCF1A
:1002F000CF93DF93EC01888D8823B9F0AA89BB895D
:10030000E889F9898C9185FD03C0808186FD0DC047
:100310000FB607FCF7CF8C9185FFF2CF808185FF68
:10032000EDCFCE010E940901E9CFDF91CF91089571
:1003300090E0FC01E656FF4F2491FC01EA57FF4F85
:100340003491FC01EE58FF4FE491EE23C9F02223D3
:1003500039F0233001F1A8F4213019F1223029F1CC
:10036000F0E0EE0FFF1FE859FF4FA591B4918FB752
:10037000F894EC91611126C030953E233C938FBFD9
:1003800008952730A9F02830C9F0243049F780912A
:1003900080008F7D03C0809180008F7780938000E4
:1003A000DFCF84B58F7784BDDBCF84B58F7DFBCF66
:1003B0008091B0008F778093B000D2CF8091B00051
:1003C0008F7DF9CF3E2BDACF3FB7F89480919F0114
:1003D0009091A001A091A101B091A20126B5A89B86
:1003E00005C02F3F19F00196A11DB11D3FBFBA2FC7
:1003F000A92F982F8827BC01CD01620F711D811D87
:10040000911D42E0660F771F881F991F4A95D1F70B
:1004100008958F929F92AF92BF92CF92DF92EF9208
:10042000FF924B015C010E94E4016B017C010E9480
:10043000E4016C197D098E099F09683E73408105AE
:100440009105A8F321E0821A9108A108B10888EE6D
:10045000C80E83E0D81EE11CF11C81149104A10494
:10046000B10429F7FF90EF90DF90CF90BF90AF904D
:100470009F908F90089520917B01260F3327331F83
:1004800021323105ECF42091F301FC0190E080E091
:10049000243069F082E00895A0917B012191AC01A4
:1004A000455A5E4FA40FB52FB11D2C9301968617A8
:1004B00098F380917B01680F60937B0180E0089541
:1004C00081E008951092F30181E08093F20110928F
:1004D000CD0161E082E10E94980161E083E10E9428
:1004E0009801E9EBF0E080818E7F808380818D7FB1
:1004F000808388E48093B80085E48093BC000895ED
:10050000CF93DF9391E090935A018823B9F0C09183
:10051000B800D091BA008091BC008A7B8093BC0067
:1005200060E082E10E94980160E083E10E9498010E
:100530000E946202D093BA00C093B800DF91CF91BD
:1005400008950895E091AC018091AB01E81730F473
:10055000F0E0E355FE4F808190E008958FEF9FEF2C
:1005600008959091AC018091AB012FEF3FEF981768
:1005700048F4E92FF0E0E355FE4F208130E09F5F23
:100580009093AC01C9010895CF92DF92EF92FF9250
:100590000F931F93CF93DF937C01CB018A012091AE
:1005A0001C02222389F0EB016B01C40ED51ECC1571
:1005B000DD0569F06991D701ED91FC910190F08121
:1005C000E02DC7010995F3CF642F0E943B02C801BB
:1005D000DF91CF911F910F91FF90EF90DF90CF901F
:1005E0000895CF93DF931F92CDB7DEB76983209133
:1005F0001C022223F9F020911902203258F021E048
:1006000030E0FC013383228390E080E00F90DF91A3
:10061000CF91089580911A02E82FF0E0E750FE4F45
:10062000998190838F5F80931A028093190281E0F1
:1006300090E0ECCF61E0CE0101960E943B02F7CF43
:1006400090E080E00895FC0101900020E9F73197E7
:10065000AF01481B590BBC018DE192E00C948B005B
:100660008F929F92AF92BF920F931F93CF93DF937E
:10067000CDB7DEB7A1970FB6F894DEBF0FBECDBFE2
:1006800019A2423008F44AE08E010F5D1F4F842EFC
:10069000912CB12CA12CA50194010E94AB0BE62F4B
:1006A000B901CA01EA30F4F4E05DD801EE938D019E
:1006B000232B242B252B79F790E080E0109719F05D
:1006C000CD010E942303A1960FB6F894DEBF0FBEA2
:1006D000CDBFDF91CF911F910F91BF90AF909F90B1
:1006E0008F900895E95CE1CF4F925F926F927F9275
:1006F0008F929F92AF92BF92CF92DF92EF92FF9232
:100700000F931F93CF936B017C01742EAC019B015F
:100710000E94A60B882399F084E291E0CF911F916B
:100720000F91FF90EF90DF90CF90BF90AF909F9090
:100730008F907F906F905F904F900C9423034601B1
:100740005701E894B7F82FEF3FEF4FE75FE7C50198
:10075000B4010E94A60B81110DC02FEF3FEF4FE7B0
:100760005FE7C501B4010E94DC0918161CF488E299
:1007700091E0D4CF2FEF3FEF4FE75FE4C701B60121
:100780000E94340B18161CF48CE291E0C7CF2FEFB7
:100790003FEF4FE75FECC701B6010E94DC0987FD20
:1007A000F3CF20E030E0A901C701B6010E94DC09C7
:1007B00010E000E087FF0AC06DE28DE192E00E9448
:1007C0002B018C01F7FAF094F7F8F094C0E060E0A8
:1007D00070E080E09FE37C1641F020E030E040E2F2
:1007E00051E40E94E109CF5FF6CFA70196010E9474
:1007F00070092B013C010E94530A4B015C014AE045
:100800000E9430037C01E00EF11ECC23C1F1C50132
:10081000B4010E94820A9B01AC01C301B2010E9493
:100820006F094B015C016EE28DE192E00E942B01A9
:10083000E80EF91EC15018F120E030E040E251E42A
:10084000C501B4010E94390B2B013C010E94530ADF
:100850004B01B12CA12C4AE0C501B4010E94300328
:10086000E80EF91EC501B4010E94820A9B01AC0189
:10087000C301B2010E946F094B015C01DBCFC701CC
:10088000CF911F910F91FF90EF90DF90CF90BF908D
:10089000AF909F908F907F906F905F904F90089552
:1008A000CF92DF92EF92FF920F931F93CF93DF933C
:1008B00091E090931C0290E490931B0210921A0214
:1008C00010921902682F8AEB92E00E94F10264E60E
:1008D00070E080E090E00E940902C0911902C132EC
:1008E00008F091C00E94E4016B017C018091F3014A
:1008F000811164C082E08093F30181E08093F20172
:100900008FEF8093F1011092F001C093EF01A9EFF6
:10091000B1E0EFECF1E080E0C813E9C01092CE0145
:100920008091CE0180688093CE018091CD0181308D
:1009300009F0E1C01092CD010E94E4016B017C013D
:100940008091CE018093BB008091F5019091F601DA
:10095000A091F701B091F801892B8A2B8B2B99F08C
:100960000E94E4010091F5011091F6012091F70138
:100970003091F8016C197D098E099F090617170738
:1009800028073907E0F18091BC0083FDD9CF85ECC1
:100990008093BC000E94E4016B017C018091F30113
:1009A000823009F4AAC08091F1018F3F61F18091FA
:1009B000F101803241F18091F10125C08091F50172
:1009C0009091F601A091F701B091F801892B8A2B43
:1009D0008B2B09F48BCF0E94E4010091F50110915B
:1009E000F6012091F7013091F8016C197D098E090B
:1009F0009F09061717072807390708F077CF809156
:100A0000F4010E94800210921A02109219021092B0
:100A10001C020E94E4016B017C018091F3018111B1
:100A20008EC081E08093F3018093F2019FEF909359
:100A3000F1011092F00192E09093EF018093CE01CA
:100A40008091CE0180688093CE018091CD0181306C
:100A500009F0CAC01092CD010E94E4016B017C0133
:100A60008091CE018093BB008091F5019091F601B9
:100A7000A091F701B091F801892B8A2B8B2BA1F063
:100A80000E94E4010091F5011091F6012091F70117
:100A90003091F8016C197D098E099F090617170717
:100AA0002807390708F46CC08091BC0083FDD8CFBB
:100AB00085EC8093BC000E94E4016B017C01809175
:100AC000F301813009F492C08091F001833008F085
:100AD000AFC08091F001AFECB1E0EDEAF1E090E061
:100AE000981709F452C02D9121939F5FF9CF9D91E2
:100AF00091938F5F11CF85EE4BCF8091F50190914F
:100B0000F601A091F701B091F801892B8A2B8B2B6C
:100B100009F444CF0E94E4010091F5011091F6011F
:100B20002091F7013091F8016C197D098E099F0918
:100B3000061717072807390708F030CF60CF8091D4
:100B4000F5019091F601A091F701B091F801892B80
:100B50008A2B8B2B09F461CF0E94E4010091F501EF
:100B60001091F6012091F7013091F8016C197D097F
:100B70008E099F09061717072807390708F04DCF78
:100B80008091F4010E94800280E01092AC01809379
:100B9000AB012FB7F8948091A7019091A801A09183
:100BA000A901B091AA012FBF845D9E4FAF4FBF4FE7
:100BB0002091AB013091AC01231B330B2330310565
:100BC000CCF52FB7F8944091A7015091A8016091FE
:100BD000A9017091AA012FBF84179507A607B7072F
:100BE00039F3D0E0C0E038C085EE63CF8091F501E5
:100BF0009091F601A091F701B091F801892B8A2B11
:100C00008B2B09F45CCF0E94E4010091F501109157
:100C1000F6012091F7013091F8016C197D098E09D8
:100C20009F09061717072807390708F048CFA8CFEC
:100C300083E051CF8AEB92E00E94B102D82F80E08E
:100C4000C82F8AEB92E00E94B102C80FD91FCC7F57
:100C50008AEB92E00E94B102CE01DF91CF911F9109
:100C60000F91FF90EF90DF90CF90089585ED8093E6
:100C7000BC008091F5019091F601A091F701B0912F
:100C8000F8010796A11DB11D23E0B695A79597958C
:100C900087952A95D1F72091BC0024FD03C01092BE
:100CA000F30108954091F5015091F6016091F7012B
:100CB0007091F801452B462B472B69F30097A1054E
:100CC000B10541F025E32A95F1F700000197A1094C
:100CD000B109E1CF8091F4010C9480021F920F9230
:100CE0000FB60F9211242F933F934F935F936F93FF
:100CF0007F938F939F93AF93BF93EF93FF938DE178
:100D000092E00E940901FF91EF91BF91AF919F91F5
:100D10008F917F916F915F914F913F912F910F90A4
:100D20000FBE0F901F9018951F920F920FB60F9243
:100D300011242F938F939F93EF93FF93E0912D02B4
:100D4000F0912E028081E0913302F091340282FD15
:100D50001BC09081809136028F5F8F732091370284
:100D6000821741F0E0913602F0E0E35EFD4F958F8F
:100D700080933602FF91EF919F918F912F910F9069
:100D80000FBE0F901F9018958081F4CF1F920F9285
:100D90000FB60F9211242F933F938F939F93AF938E
:100DA000BF938091A7019091A801A091A901B09152
:100DB000AA0130919E0123E0230F2D3758F50196AB
:100DC000A11DB11D20939E018093A7019093A801BE
:100DD000A093A901B093AA0180919F019091A001D5
:100DE000A091A101B091A2010196A11DB11D809316
:100DF0009F019093A001A093A101B093A201BF9184
:100E0000AF919F918F913F912F910F900FBE0F90B7
:100E10001F90189526E8230F0296A11DB11DD2CF71
:100E20001F920F920FB60F9211242F933F934F935F
:100E30005F936F937F938F939F93AF93BF93EF9342
:100E4000FF938091B900887F803609F44AC0F0F59D
:100E5000883209F4A7C018F5803109F49BC0B8F4B2
:100E6000882309F4F9C0883009F494C0FF91EF9108
:100E7000BF91AF919F918F917F916F915F914F91B2
:100E80003F912F910F900FBE0F901F9018958831B2
:100E900009F488C0803251F78093F10114C0803486
:100EA00009F49DC040F48033B9F38833F9F6809398
:100EB000F10185ECB0C0803509F485C0883509F4AE
:100EC00096C0883499F60E943606D0CF883909F446
:100ED0008CC038F5883729F050F4883611F0803707
:100EE00029F683E08093F30110929D0157C0883862
:100EF00009F47BC0803919F0803809F0B7CF8091B0
:100F00009D01803208F071C0E0919D0181E08E0F5B
:100F100080939D018091BB00F0E0E358FE4F8083F9
:100F20003DC0803B39F0E0F4803A09F479C0883A5A
:100F300009F09CCF84E08093F30110927C01109221
:100F40007B01E091A501F091A601099580917B01BB
:100F500081110FC081E080937B0110925B0109C079
:100F6000803C09F4A6CF883C09F4A3CF883B09F064
:100F70007DCFE0917C0181E08E0F80937C01F0E0D9
:100F8000E55AFE4F80818093BB0090917C01809157
:100F90007B0129C08091CE018093BB0085EC8093BA
:100FA000BC0064CF9091F0018091EF01981758F543
:100FB000E091F00181E08E0F8093F001F0E0E153C9
:100FC000FE4F8081E9CFE091F00181E08E0F8093A8
:100FD000F0018091BB00F0E0E153FE4F80839091DF
:100FE000F0018091EF019817C8F285E8D8CFE09121
:100FF000F00181E08E0F8093F0018091BB00F0E062
:10100000E153FE4F80838091F20181115CCF81E03A
:101010008093CD0184EA8093BC001092F30126CF27
:1010200085EC8093BC001092F30180919D01803289
:1010300030F4E0919D01F0E0E358FE4F10826091A2
:101040009D0170E0E091A301F091A4018DE791E092
:10105000099510929D010ACF1092F10134CFEDE174
:10106000F2E01382128288EE93E0A0E0B0E0848385
:101070009583A683B78324E031E03183208325EC78
:1010800030E03587248724EC30E03787268720EC52
:1010900030E0318B208B21EC30E0338B228B22EC43
:1010A00030E0358B248B26EC30E0378B268B118E8D
:1010B000128E138E148EEAEBF2E013821282848376
:1010C0009583A683B78386E191E091838083089519
:1010D000789484B5826084BD84B5816084BD85B513
:1010E000826085BD85B5816085BD80916E0081601F
:1010F00080936E00109281008091810082608093C5
:1011000081008091810081608093810080918000C6
:101110008160809380008091B10084608093B100F1
:101120008091B00081608093B00080917A008460EB
:1011300080937A0080917A00826080937A00809117
:101140007A00816080937A0080917A008068809331
:101150007A001092C1001092AC011092AB01109273
:101160001A02109219020E94620289E890E090939C
:10117000A6018093A5018AE890E09093A401809352
:10118000A301E0912D02F0912E0282E08083E09194
:101190002902F0912A021082E0912B02F0912C0298
:1011A0008FEC808310923502E0913102F09132028F
:1011B00086E08083E0912F02F0913002808180618F
:1011C0008083E0912F02F0913002808188608083DB
:1011D000E0912F02F0913002808180688083E0915D
:1011E0002F02F091300280818F7D8083C0E0D0E0BB
:1011F00080E391E00E94230385EE0E945004BC012D
:1012000090E080E00E94820A6B017C0120E030E0E7
:10121000A9010E94DC09882309F458C020E030E0CD
:101220004AEF5AE3C701B6010E94390B20E030E0D3
:1012300040EC50E40E946F0942E00E94740380E495
:1012400091E00E94230383E491E00E94230383EE54
:101250000E945004BC0190E080E00E94820A6B0171
:101260007C0120E030E0A9010E94DC09882391F193
:1012700022E538EB4FE25BE3C701B6010E94390B70
:1012800026E636E64BE352E40E946F0942E00E94F4
:10129000740380E491E00E94230384E591E00E94BE
:1012A000230380E491E00E94230368EE73E080E072
:1012B00090E00E940902209709F49ACF0E94F5005D
:1012C000882309F495CF0E94000092CF60E070E07F
:1012D000CB01B2CF60E070E888E893ECD7CF5058EC
:1012E000BB27AA270E9487090C94FA0A0E94EC0ADD
:1012F00038F00E94F30A20F039F49F3F19F426F4E5
:101300000C94E90A0EF4E095E7FB0C94E30AE92F4C
:101310000E940B0B58F3BA176207730784079507EF
:1013200020F079F4A6F50C942D0B0EF4E0950B2E1D
:10133000BA2FA02D0B01B90190010C01CA01A00127
:101340001124FF27591B99F0593F50F4503E68F182
:101350001A16F040A22F232F342F4427585FF3CFC3
:10136000469537952795A795F0405395C9F77EF494
:101370001F16BA0B620B730B840BBAF09150A1F0DD
:10138000FF0FBB1F661F771F881FC2F70EC0BA0F63
:10139000621F731F841F48F4879577956795B795EB
:1013A000F7959E3F08F0B0CF9395880F08F09927E6
:1013B000EE0F9795879508950E94BF0A08F481E083
:1013C00008950E94F5090C94FA0A0E94F30A58F055
:1013D0000E94EC0A40F029F45F3F29F00C94E30AE4
:1013E00051110C942E0B0C94E90A0E940B0B68F31C
:1013F0009923B1F3552391F3951B550BBB27AA27CE
:1014000062177307840738F09F5F5F4F220F331F07
:10141000441FAA1FA9F335D00E2E3AF0E0E832D0CF
:1014200091505040E695001CCAF72BD0FE2F29D0D2
:10143000660F771F881FBB1F261737074807AB07A4
:10144000B0E809F0BB0B802DBF01FF2793585F4F19
:101450003AF09E3F510578F00C94E30A0C942E0B61
:101460005F3FE4F3983ED4F3869577956795B795FB
:10147000F7959F5FC9F7880F911D9695879597F906
:101480000895E1E0660F771F881FBB1F621773077F
:101490008407BA0720F0621B730B840BBA0BEE1F94
:1014A00088F7E09508950E94130B88F09F5798F0F5
:1014B000B92F9927B751B0F0E1F0660F771F881F59
:1014C000991F1AF0BA95C9F714C0B13091F00E9473
:1014D0002D0BB1E008950C942D0B672F782F8827E2
:1014E000B85F39F0B93FCCF3869577956795B3959A
:1014F000D9F73EF490958095709561957F4F8F4F09
:101500009F4F0895E89409C097FB3EF4909580950D
:10151000709561957F4F8F4F9F4F9923A9F0F92FB9
:1015200096E9BB279395F695879577956795B79537
:10153000F111F8CFFAF4BB0F11F460FF1BC06F5F1D
:101540007F4F8F4F9F4F16C0882311F096E911C02F
:10155000772321F09EE8872F762F05C0662371F050
:1015600096E8862F70E060E02AF09A95660F771F64
:10157000881FDAF7880F9695879597F90895990F40
:101580000008550FAA0BE0E8FEEF16161706E8074D
:10159000F907C0F012161306E407F50798F0621B6E
:1015A000730B840B950B39F40A2661F0232B242B43
:1015B000252B21F408950A2609F4A140A6958FEF62
:1015C000811D811D089597F99F6780E870E060E0B4
:1015D00008959FEF80EC089500240A9416161706CC
:1015E00018060906089500240A9412161306140614
:1015F00005060895092E0394000C11F4882352F077
:10160000BB0F40F4BF2B11F460FF04C06F5F7F4F2E
:101610008F4F9F4F089557FD9058440F551F59F015
:101620005F3F71F04795880F97FB991F61F09F3FCF
:1016300079F087950895121613061406551FF2CFF8
:101640004695F1DF08C0161617061806991FF1CF48
:1016500086957105610508940895E894BB2766276F
:101660007727CB0197F908950E94BF0A08F48FEFFE
:1016700008950E944C0B0C94FA0A0E94EC0A38F070
:101680000E94F30A20F0952311F00C94E30A0C94C5
:10169000E90A11240C942E0B0E940B0B70F3959FFA
:1016A000C1F3950F50E0551F629FF001729FBB2759
:1016B000F00DB11D639FAA27F00DB11DAA1F649FF5
:1016C0006627B00DA11D661F829F2227B00DA11DA8
:1016D000621F739FB00DA11D621F839FA00D611D2E
:1016E000221F749F3327A00D611D231F849F600D4F
:1016F000211D822F762F6A2F11249F5750409AF078
:10170000F1F088234AF0EE0FFF1FBB1F661F771F03
:10171000881F91505040A9F79E3F510580F00C94CE
:10172000E30A0C942E0B5F3FE4F3983ED4F38695C6
:1017300077956795B795F795E7959F5FC1F7FE2B6E
:10174000880F911D9695879597F908950E94BF0A75
:10175000880B990B0895A1E21A2EAA1BBB1BFD0151
:101760000DC0AA1FBB1FEE1FFF1FA217B307E40780
:10177000F50720F0A21BB30BE40BF50B661F771FD8
:10178000881F991F1A9469F76095709580959095B8
:101790009B01AC01BD01CF010895EE0FFF1F059025
:1017A000F491E02D0994F894FFCF000000002B0184
:1017B0008B00B8007801E900C700DB0000000000E2
:1017C000F102C4022003A1028200B102A2026E61F2
:1017D0006E00696E66006F76660048756D696469B3
:1017E000747928255248293A20000D0A0054656D65
:1017F00070657261747572652843293A20002E2E37
:041800002E2E000088
:107E0000112484B714BE81FFF0D085E080938100F7
:107E100082E08093C00088E18093C10086E0809377
:107E2000C20080E18093C4008EE0C9D0259A86E02C
:107E300020E33CEF91E0309385002093840096BBD3
:107E4000B09BFECF1D9AA8958150A9F7CC24DD24C4
:107E500088248394B5E0AB2EA1E19A2EF3E0BF2EE7
:107E6000A2D0813461F49FD0082FAFD0023811F036
:107E7000013811F484E001C083E08DD089C08234E0
:107E800011F484E103C0853419F485E0A6D080C0E4
:107E9000853579F488D0E82EFF2485D0082F10E0AE
:107EA000102F00270E291F29000F111F8ED06801E7
:107EB0006FC0863521F484E090D080E0DECF843638
:107EC00009F040C070D06FD0082F6DD080E0C81688
:107ED00080E7D80618F4F601B7BEE895C0E0D1E017
:107EE00062D089930C17E1F7F0E0CF16F0E7DF06D8
:107EF00018F0F601B7BEE89568D007B600FCFDCFD4
:107F0000A601A0E0B1E02C9130E011968C91119780
:107F100090E0982F8827822B932B1296FA010C0160
:107F200087BEE89511244E5F5F4FF1E0A038BF0790
:107F300051F7F601A7BEE89507B600FCFDCF97BE46
:107F4000E89526C08437B1F42ED02DD0F82E2BD052
:107F50003CD0F601EF2C8F010F5F1F4F84911BD097
:107F6000EA94F801C1F70894C11CD11CFA94CF0C13
:107F7000D11C0EC0853739F428D08EE10CD085E9AC
:107F80000AD08FE07ACF813511F488E018D01DD067
:107F900080E101D065CF982F8091C00085FFFCCF94
:107FA0009093C60008958091C00087FFFCCF809118
:107FB000C00084FD01C0A8958091C6000895E0E648
:107FC000F0E098E1908380830895EDDF803219F02E
:107FD00088E0F5DFFFCF84E1DECF1F93182FE3DFCA
:107FE0001150E9F7F2DF1F91089580E0E8DFEE27F6
:047FF000FF270994CA
:027FFE00040479
:00000001FF
