:020000040000FA
:100000000C9499000C94C1000C94C1000C94C10094
:100010000C94C1000C94C1000C94C1000C94C1005C
:100020000C94C1000C94C1000C94C1000C94C1004C
:100030000C94C1000C94C1000C94C1000C94C1003C
:100040000C94030A0C94C1000C94D1090C94AB09D4
:100050000C94C1000C94C1000C94C1000C94C1001C
:100060000C944D0A0C94C10007634236B79BD8A785
:100070001A39685618AEBAAB558C1D3CB7CC5763CD
:10008000BD6DEDFD753EF6177231BF000000803F7B
:1000900008000000BE922449123EABAAAA2ABECD97
:1000A000CCCC4C3E00000080BEABAAAAAA3E000009
:1000B0000000BF000000803F000000000008417801
:1000C000D3BB4387D1133D190E3CC3BD4282AD2B38
:1000D0003E68EC8276BED98FE1A93E4C80EFFFBE30
:1000E00001C4FF7F3F000000000000000000250069
:1000F00028002B0004040404040404040202020285
:1001000002020303030303030102040810204080DA
:100110000102040810200102040810200000000859
:1001200000020100000304070000000000000000BE
:100130006C0B11241FBECFEFD8E0DEBFCDBF11E0A6
:10014000A0E0B1E0ECE3F6E202C005900D92AA3D1A
:10015000B107D9F723E0AAEDB1E001C01D92A336A3
:10016000B207E1F710E0C9E9D0E004C02197FE0131
:100170000E94E211C839D107C9F70E94A50B0C945F
:100180001C130C94000008950895AF92BF92CF9273
:10019000DF92EF92FF920F931F93CF93DF936C0147
:1001A0007B018B01040F151FEB015E01AE18BF0828
:1001B000C017D10759F06991D601ED91FC910190DA
:1001C000F081E02DC6010995892B79F7C501DF91F2
:1001D000CF911F910F91FF90EF90DF90CF90BF9044
:1001E000AF900895FC01538D448D252F30E0842F6E
:1001F00090E0821B930B541710F0CF96089501974F
:100200000895FC01918D828D981761F0A28DAE0F3B
:10021000BF2FB11D5D968C91928D9F5F9F73928FC2
:1002200090E008958FEF9FEF0895FC01918D828DEE
:10023000981731F0828DE80FF11D858D90E00895BB
:100240008FEF9FEF0895FC01918D228D892F90E013
:10025000805C9F4F821B91098F73992708958DE9C8
:1002600092E00E94230121E0892B09F420E0822FF3
:10027000089580E090E0892B29F00E942F018111E0
:100280000C9400000895FC01A48DA80FB92FB11D96
:10029000A35ABF4F2C91848D90E001968F739927BC
:1002A000848FA689B7892C93A089B1898C9183709A
:1002B00080648C93938D848D981306C00288F38993
:1002C000E02D80818F7D80830895EF92FF920F93C0
:1002D0001F93CF93DF93EC0181E0888F9B8D8C8DF2
:1002E00098131AC0E889F989808185FF15C09FB7E6
:1002F000F894EE89FF896083E889F98980818370A9
:10030000806480839FBF81E090E0DF91CF911F9157
:100310000F91FF90EF900895F62E0B8D10E00F5F78
:100320001F4F0F731127E02E8C8D8E110CC00FB64E
:1003300007FCFACFE889F989808185FFF5CFCE01E6
:100340000E944301F1CFEB8DEC0FFD2FF11DE35A1D
:10035000FF4FF0829FB7F8940B8FEA89FB89808169
:100360008062CFCFCF93DF93EC01888D8823B9F0E3
:10037000AA89BB89E889F9898C9185FD03C08081B0
:1003800086FD0DC00FB607FCF7CF8C9185FFF2CF2D
:10039000808185FFEDCFCE010E944301E9CFDF913F
:1003A000CF91089590E0FC01E45EFE4F2491FC01A2
:1003B000E85FFE4F3491FC01EC50FF4FE491EE23D7
:1003C000C9F0222339F0233001F1A8F4213019F1CA
:1003D000223029F1F0E0EE0FFF1FE651FF4FA5910B
:1003E000B4918FB7F894EC91611126C030953E23FB
:1003F0003C938FBF08952730A9F02830C9F02430EE
:1004000049F7809180008F7D03C0809180008F77B5
:1004100080938000DFCF84B58F7784BDDBCF84B538
:100420008F7DFBCF8091B0008F778093B000D2CFCB
:100430008091B0008F7DF9CF3E2BDACF3FB7F89493
:100440008091230290912402A0912502B09126026E
:1004500026B5A89B05C02F3F19F00196A11DB11D1F
:100460003FBFBA2FA92F982F8827BC01CD01620F5B
:10047000711D811D911D42E0660F771F881F991F16
:100480004A95D1F708958F929F92AF92BF92CF92E3
:10049000DF92EF92FF924B015C010E941E026B0102
:1004A0007C010E941E026C197D098E099F09683E1D
:1004B000734081059105A8F321E0821A9108A108F3
:1004C000B10888EEC80E83E0D81EE11CF11C81142F
:1004D0009104A104B10429F7FF90EF90DF90CF9031
:1004E000BF90AF909F908F9008952091FB01260FB1
:1004F0003327331F21323105ECF420917302FC01C4
:1005000090E080E0243069F082E00895A091FB0142
:100510002191AC0145525E4FA40FB52FB11D2C9314
:100520000196861798F38091FB01680F6093FB0199
:1005300080E0089581E008951092730281E0809335
:10054000720210924D0261E082E10E94D20161E0EC
:1005500083E10E94D201E9EBF0E080818E7F80830D
:1005600080818D7F808388E48093B80085E48093C8
:10057000BC000895CF93DF9391E09093DA01882334
:10058000B9F0C091B800D091BA008091BC008A7BCC
:100590008093BC0060E082E10E94D20160E083E1D0
:1005A0000E94D2010E949C02D093BA00C093B8006E
:1005B000DF91CF9108958F929F92AF92BF92CF9289
:1005C000DF92EF92FF920F931F93CF93DF93D0911F
:1005D0009C02D13208F0D7C0182FC0919B020E9414
:1005E0001E026B017C018091730281116BC082E05D
:1005F00080937302109372028FEF809371021092B6
:100600007002D0936F02ABE7B2E0EFE4F2E080E07B
:10061000D81391C010924E0280914E02CC0FC82B7D
:10062000C0934E0280914D02813009F088C0109233
:100630004D020E941E026B017C0180914E0280934C
:10064000BB008091750290917602A0917702B091E3
:100650007802892B8A2B8B2BA1F00E941E0200911D
:1006600075021091760220917702309178026C1910
:100670007D098E099F09061717072807390708F40F
:1006800042C08091BC0083FDD8CF85EC8093BC0034
:100690000E941E026B017C0180917302823009F47A
:1006A00050C0809171028F3F09F46FC08091710238
:1006B000803209F46CC080917102803309F469C002
:1006C00084E026C08091750290917602A091770215
:1006D000B0917802892B8A2B8B2B09F484CF0E944E
:1006E0001E028090750290907602A0907702B090E2
:1006F00078026C197D098E099F0986169706A8064F
:10070000B90608F070CF809174020E94BA0285E0A9
:1007100010927A0210929C0210927902DF91CF918E
:100720001F910F91FF90EF90DF90CF90BF90AF900F
:100730009F908F9008959D9191938F5F69CF85EEE3
:10074000A5CF8091750290917602A0917702B09129
:100750007802892B8A2B8B2B09F49ECF0E941E02D4
:100760000091750210917602209177023091780203
:100770006C197D098E099F09061717072807390785
:1007800008F08ACFC0CF81E0C3CF80E0C1CF82E044
:10079000BFCF83E0BDCFDC0111968D919C91DC0130
:1007A000ED91FC910280F381E02D41E050E009954C
:1007B000019729F481E00E94DB0291E0811190E031
:1007C000892F08950F931F93CF93DF93E1E0F0E01B
:1007D0002115310511F0E2E0F0E0EC01AC81BD81C2
:1007E000AE17BF0738F1DA018B0189819A81488100
:1007F00051E05093790240939B0210927A0210923A
:100800009C02232B41F4B801CE01DF91CF911F91BF
:100810000F910C94CB031097B1F3FC01208131812F
:10082000F9012281338141E050E0BD01F9010995D0
:10083000019749F380E0DF91CF911F910F910895C7
:10084000CF93DF93EC018B818823A1F0888191E025
:100850009093790280939B0210927A0210929C02EC
:1008600081E00E94DB0291E0811190E0892FDF910D
:10087000CF91089510922C0210922B0210927A02BE
:1008800010929C020E949C0283EC90E090932802BC
:100890008093270284EC90E090932A0280932902AF
:1008A00081E08B83CE010E942004982F8111CECF4E
:1008B000DDCF0895E0912C0280912B02E81730F4EF
:1008C000F0E0E35DFD4F808190E008958FEF9FEFB2
:1008D000089590912C0280912B022FEF3FEF9817F3
:1008E00048F4E92FF0E0E35DFD4F208130E09F5FA9
:1008F00090932C02C901089580912B0290912C02B3
:10090000891B990B0895CF92DF92EF92FF920F937C
:100910001F93CF93DF937C01CB018A012091790251
:10092000222389F0EB016B01C40ED51ECC15DD0529
:1009300069F06991D701ED91FC910190F081E02D72
:10094000C7010995F3CF642F0E947502C801DF919A
:10095000CF911F910F91FF90EF90DF90CF9008956E
:10096000CF93DF931F92CDB7DEB7698320917902D1
:100970002223F9F020919C02203258F021E030E04F
:10098000FC013383228390E080E00F90DF91CF91D0
:10099000089580917A02E82FF0E0E558FD4F9981A3
:1009A00090838F5F80937A0280939C0281E090E035
:1009B000ECCF61E0CE0101960E947502F7CF90E086
:1009C00080E00895FC0101900020E9F73197AF0124
:1009D000481B590BBC018DE992E00C94C5008F9225
:1009E0009F92AF92BF920F931F93CF93DF93CDB798
:1009F000DEB7A1970FB6F894DEBF0FBECDBF19A228
:100A0000423008F44AE08E010F5D1F4F842E912C76
:100A1000B12CA12CA50194010E948E11E62FB901E1
:100A2000CA01EA30F4F4E05DD801EE938D01232B86
:100A3000242B252B79F790E080E0109719F0CD0159
:100A40000E94E204A1960FB6F894DEBF0FBECDBFA0
:100A5000DF91CF911F910F91BF90AF909F908F909A
:100A60000895E95CE1CFCF92DF92EF92FF92CF93AE
:100A7000DF936B017C016DE28DE992E00E946501DC
:100A8000EC0166277727CB016C197D098E099F0938
:100A90004AE00E94EF048C0F9D1FDF91CF91FF90E1
:100AA000EF90DF90CF900895CF93DF930E94E20400
:100AB000EC018AE291E00E94E2048C0F9D1FDF911D
:100AC000CF9108954F925F926F927F92BF92CF9293
:100AD000DF92EF92FF920F931F93CF93DF93DC018E
:100AE0001496ED91FC911597EF2B09F404C1E901DF
:100AF000C52EB42E8C01FC01808191E09093790287
:100B000080939B0210927A0210929C02CD010E9467
:100B1000CB03D82E882309F4EEC0D80114968D910A
:100B20009C9115978C179D0708F4E5C0EC900E94E6
:100B30001E022B013C0180917302811167C0FC2EC3
:100B400081E080937302809372029FEF9093710211
:100B5000109270029C2F915090936F0280934E02DE
:100B600080914E02EE0CE82AE0924E0280914D02F6
:100B7000813009F09CC010924D020E941E022B0190
:100B80003C0180914E028093BB0080917502909150
:100B90007602A0917702B0917802892B8A2B8B2B59
:100BA000A1F00E941E0220917502309176024091C0
:100BB00077025091780264197509860997092617FA
:100BC00037074807590708F442C08091BC0083FDED
:100BD000D8CF85EC8093BC000E941E022B013C0103
:100BE00080917302813009F464C0809170028F1586
:100BF00010F4F0907002AFE4B2E0EDE2F2E080E0D9
:100C00008F1551F19D9191938F5FFACF809175026D
:100C100090917602A0917702B0917802892B8A2B6D
:100C20008B2B09F488CF0E941E022091750230910F
:100C3000760240917702509178026419750986090D
:100C40009709261737074807590708F074CF80918E
:100C500074020E94BA02F12C10922C02F0922B0224
:100C6000FC161D0609F047C0EB2CFC2CCE0DDF1D39
:100C7000F80181819281DC01ED91FC910284F38580
:100C8000E02D0995F70181937F01CE17DF0781F7EA
:100C90008D2DDF91CF911F910F91FF90EF90DF90FD
:100CA000CF90BF907F906F905F904F90089585EEAA
:100CB00091CF8091750290917602A0917702B091C8
:100CC0007802892B8A2B8B2B09F48ACF0E941E0273
:100CD000209175023091760240917702509178020E
:100CE00064197509860997092617370748075907B0
:100CF00008F076CFACCFD12CCBCFCF93DF9300D001
:100D00001F92CDB7DEB78B8322E030E0AE014F5F9C
:100D10005F4FBE016D5F7F4F809146039091470307
:100D20000E94620589819A819827892798270F90C8
:100D30000F900F90DF91CF910895CF93DF9300D064
:100D4000CDB7DEB78EE28A8384EF898321E030E07D
:100D5000AE014F5F5F4FBE016E5F7F4F80914603D4
:100D6000909147030E94E20365E070E080E090E02C
:100D70000E94430286EF0E947D060F900F90DF9144
:100D8000CF9108954F925F926F927F928F929F9230
:100D9000AF92BF92CF92DF92EF92FF921F93CF93C9
:100DA000DF93CDB7DEB728970FB6F894DEBF0FBE3E
:100DB000CDBF0E949D064C01B12CA12C809148030F
:100DC0008295880F880F807C8C5C8C8384EF8B836A
:100DD00021E030E0AE014D5F5F4FBE016C5F7F4FA1
:100DE00080914603909147030E94E203809148035B
:100DF00081117DC165E070E080E090E00E944302D7
:100E000086EF0E947D06B0E0A0E0CC24D82EE92E2B
:100E1000FA2E88EF8A8321E030E0AE014F5F5F4F0A
:100E2000BE016E5F7F4F80914603909147030E9401
:100E300062058981C82A1091480380915D039091D1
:100E40005E03A5019401281B390B41095109A091AA
:100E50005B03B0915C030E94CF112B013C01AFE01A
:100E60007594679457944794AA95D1F76091550368
:100E700070915603072E000C880B990BBBE0660F90
:100E8000771F881F991FBA95D1F72091570330918A
:100E90005803032E000C440B550B240D351D461D25
:100EA000571D0E94B011420E531E641E751E20EA8B
:100EB000421A2FE0520A61087108A3019201C3018E
:100EC000B2010E947E114B015C018CE0B594A794A5
:100ED000979487948A95D1F7A0914D03B0914E03D2
:100EE0000E94DA119B01AC019DE05595479537951D
:100EF00027959A95D1F72D833E834F835887A091EC
:100F00004F03B0915003A50194010E94DA119C0196
:100F1000552737FD5095452F8D819E81AF81B8852E
:100F2000280F391F4A1F5B1F2E5F3F4F4F4F5F4FE8
:100F300062E055954795379527956A95D1F73058D2
:100F40004F4F5F4FA0915903B0915A030E94CF11A8
:100F50009B01AC017FE056954795379527957A958B
:100F6000D1F72D833E834F83588788E090E0811B23
:100F7000910904C0F694E794D794C7948A95D2F760
:100F8000A0915103B0915203A50194010E94DA117E
:100F90004B015C01EBE0B594A79497948794EA9594
:100FA000D1F7A0914B03B0914C03A30192010E9491
:100FB000DA11FBE09595879577956795FA95D1F7C6
:100FC000680D791D8A1D9B1D8090490390904A03EE
:100FD000092C000CAA08BB08A2E0880C991CAA1CCA
:100FE000BB1CAA95D1F7680D791D8A1D9B1D012E8A
:100FF00004C0660F771F881F991F0A94D2F76E5F8F
:101000007F4F8F4F9F4F24E030E040E050E00E9440
:10101000B011D701C601821B930BA40BB50B9C0129
:10102000AD0160E573EC80E090E004C09695879593
:10103000779567951A95D2F70E947E1197FD6AC041
:10104000660F771F881F991F2D813E814F8158851C
:101050000E948E1169017A019927F7FC9A958F2DCC
:101060007E2D6D2D9B01AC010E947E119B01AC0178
:10107000AEEDBBE00E94CF114B015C01A3E4B3EEE7
:10108000A70196010E94DD11BC01992777FD90957B
:10109000892F4501BB2497FCB094AB2C680D791DBA
:1010A0008A1D9B1D6153714F8F4F9F4F44E0959553
:1010B0008795779567954A95D1F76C0D7D1D8E1DA7
:1010C0009F1D28960FB6F894DEBF0FBECDBFDF91EF
:1010D000CF911F91FF90EF90DF90CF90BF90AF9096
:1010E0009F908F907F906F905F904F900895813088
:1010F00029F468E070E080E090E080CE823029F44E
:101100006EE070E080E090E079CE6AE170E080E02F
:1011100090E074CE2D813E814F8158850E948E11C2
:1011200069017A01CC0CDD1CEE1CFF1C95CF4F929F
:101130005F926F927F928F929F92AF92BF92CF9267
:10114000DF92EF92FF920F931F93CF936B017C017D
:10115000742EAC019B010E944410882399F08DE20B
:1011600091E0CF911F910F91FF90EF90DF90CF9082
:10117000BF90AF909F908F907F906F905F904F90B7
:101180000C94E20446015701E894B7F82FEF3FEFC3
:101190004FE75FE7C501B4010E94441081110DC003
:1011A0002FEF3FEF4FE75FE7C501B4010E94230E29
:1011B00018161CF481E391E0D4CF2FEF3FEF4FE7F7
:1011C0005FE4C701B6010E94820F18161CF485E384
:1011D00091E0C7CF2FEF3FEF4FE75FECC701B601BC
:1011E0000E94230E87FDF3CF20E030E0A901C70164
:1011F000B6010E94230E10E000E087FF0AC06DE2F6
:101200008DE992E00E9465018C01F7FAF094F7F8FD
:10121000F094C0E060E070E080E09FE37C1641F075
:1012200020E030E040E251E40E94280ECF5FF6CF8C
:10123000A70196010E94B70D2B013C010E94A10E4F
:101240004B015C014AE00E94EF047C01E00EF11EBC
:10125000CC23C1F1C501B4010E94D00E9B01AC01A9
:10126000C301B2010E94B60D4B015C016EE28DE933
:1012700092E00E946501E80EF91EC15018F120E0CD
:1012800030E040E251E4C501B4010E94870F2B0118
:101290003C010E94A10E4B01B12CA12C4AE0C501DA
:1012A000B4010E94EF04E80EF91EC501B4010E94CA
:1012B000D00E9B01AC01C301B2010E94B60D4B01DF
:1012C0005C01DBCFC701CF911F910F91FF90EF9091
:1012D000DF90CF90BF90AF909F908F907F906F9056
:1012E0005F904F90089585ED8093BC0080917502CA
:1012F00090917602A0917702B09178020796A11D95
:10130000B11D23E0B695A795979587952A95D1F7B6
:101310002091BC0024FD03C01092730208954091F7
:101320007502509176026091770270917802452B98
:10133000462B472B69F30097A105B10541F025E342
:101340002A95F1F700000197A109B109E1CF809139
:1013500074020C94BA021F920F920FB60F921124CE
:101360002F933F934F935F936F937F938F939F93AD
:10137000AF93BF93EF93FF938DE992E00E944301F7
:10138000FF91EF91BF91AF919F918F917F916F915D
:101390005F914F913F912F910F900FBE0F901F9033
:1013A00018951F920F920FB60F9211242F938F93BF
:1013B0009F93EF93FF93E091AD02F091AE02808195
:1013C000E091B302F091B40282FD1BC09081809144
:1013D000B6028F5F8F732091B702821741F0E091C0
:1013E000B602F0E0E356FD4F958F8093B602FF9171
:1013F000EF919F918F912F910F900FBE0F901F90A3
:1014000018958081F4CF1F920F920FB60F9211247E
:101410002F933F938F939F93AF93BF9380911F021E
:1014200090912002A0912102B091220230911E02DF
:1014300023E0230F2D3758F50196A11DB11D2093F0
:101440001E0280931F0290932002A0932102B0936A
:1014500022028091230290912402A0912502B09152
:1014600026020196A11DB11D8093230290932402B0
:10147000A0932502B0932602BF91AF919F918F91C7
:101480003F912F910F900FBE0F901F90189526E857
:10149000230F0296A11DB11DD2CF1F920F920FB63E
:1014A0000F9211242F933F934F935F936F937F93EA
:1014B0008F939F93AF93BF93EF93FF938091B90066
:1014C000887F803609F44AC0F0F5883209F4A7C055
:1014D00018F5803109F49BC0B8F4882309F4F9C0E9
:1014E000883009F494C0FF91EF91BF91AF919F9123
:1014F0008F917F916F915F914F913F912F910F90BD
:101500000FBE0F901F901895883109F488C0803263
:1015100051F78093710214C0803409F49DC040F4E7
:101520008033B9F38833F9F68093710285ECB0C04B
:10153000803509F485C0883509F496C0883499F659
:101540000E947309D0CF883909F48CC038F58837E8
:1015500029F050F4883611F0803729F683E0809323
:10156000730210921D0257C0883809F47BC080397D
:1015700019F0803809F0B7CF80911D02803208F051
:1015800071C0E0911D0281E08E0F80931D02809159
:10159000BB00F0E0E350FE4F80833DC0803B39F05C
:1015A000E0F4803A09F479C0883A09F09CCF84E0ED
:1015B000809373021092FC011092FB01E0912702CC
:1015C000F091280209958091FB0181110FC081E003
:1015D0008093FB011092DB0109C0803C09F4A6CF87
:1015E000883C09F4A3CF883B09F07DCFE091FC0152
:1015F00081E08E0F8093FC01F0E0E552FE4F808188
:101600008093BB009091FC018091FB0129C08091E7
:101610004E028093BB0085EC8093BC0064CF909118
:10162000700280916F02981758F5E091700281E086
:101630008E0F80937002F0E0E15BFD4F8081E9CF77
:10164000E091700281E08E0F809370028091BB0068
:10165000F0E0E15BFD4F80839091700280916F021A
:101660009817C8F285E8D8CFE091700281E08E0F1C
:10167000809370028091BB00F0E0E15BFD4F8083BE
:101680008091720281115CCF81E080934D0284EAE7
:101690008093BC001092730226CF85EC8093BC002F
:1016A0001092730280911D02803230F4E0911D028D
:1016B000F0E0E350FE4F108260911D0270E0E09177
:1016C0002902F0912A028DEF91E0099510921D02F6
:1016D0000ACF1092710234CFEDE9F2E01382128248
:1016E00088EE93E0A0E0B0E084839583A683B7837F
:1016F0002AE031E03183208325EC30E035872487F0
:1017000024EC30E03787268720EC30E0318B208BCB
:1017100021EC30E0338B228B22EC30E0358B248BB4
:1017200026EC30E0378B268B118E128E138E148EA2
:10173000EAE3F3E01382128284839583A683B7835E
:101740008CE191E0918380830895CF93DF9300D063
:10175000CDB7DEB7789484B5826084BD84B58160EE
:1017600084BD85B5826085BD85B5816085BD80916C
:101770006E00816080936E001092810080918100E4
:1017800082608093810080918100816080938100DC
:10179000809180008160809380008091B10084609E
:1017A0008093B1008091B00081608093B0008091FF
:1017B0007A00846080937A0080917A0082608093BE
:1017C0007A0080917A00816080937A0080917A001B
:1017D000806880937A001092C100E091AD02F09190
:1017E000AE0282E08083E091A902F091AA02108209
:1017F000E091AB02F091AC028FEC80831092B502C5
:10180000E091B102F091B20286E08083E091AF02F4
:10181000F091B002808180618083E091AF02F0910D
:10182000B002808188608083E091AF02F091B002C5
:10183000808180688083E091AF02F091B002808166
:101840008F7D808383E0809348038091460390914D
:101850004703009711F00E94931286E090E00E94E7
:10186000F7118C0187E7F80180838AE393E0928384
:101870008183138280E290E09583848310934703F1
:101880000093460310922C0210922B0210927A02BF
:1018900010929C020E949C0283EC90E0909328029C
:1018A0008093270284EC90E090932A02809329028F
:1018B00081E0F8018383C8010E942004882309F491
:1018C00048C180ED8A8321E030E0AE014F5F5F4F79
:1018D000BE016E5F7F4F80914603909147030E9447
:1018E00062058981853509F034C18AEA0E947D0646
:1018F00090934A03809349038CEA0E947D0690935B
:101900004C0380934B038EEA0E947D0690934E0316
:1019100080934D0380EB0E947D0690935A03809341
:10192000590382EB0E947D0690935C0380935B03D6
:1019300084EB0E947D0690935E0380935D0386EBAB
:101940000E947D069093500380934F0388EB0E9482
:101950007D0690935203809351038AEB0E947D068B
:1019600090935403809353038CEB0E947D069093D5
:101970005603809355038EEB0E947D069093580387
:101980008093570300E010E08DE691E00E94E204AE
:101990000E949D069C0150E040E080915D03909183
:1019A0005E03281B390B41095109A0915B03B091DB
:1019B0005C030E94CF116B017C018FE0F594E794EA
:1019C000D794C7948A95D1F76091550370915603C7
:1019D000072E000C880B990B2BE0660F771F881FD2
:1019E000991F2A95D1F72091570330915803032E60
:1019F000000C440B550B2C0D3D1D4E1D5F1D0E9410
:101A0000B011CA01B9016C0D7D1D8E1D9F1D685F4F
:101A10007F4F8F4F9F4F34E09595879577956795CA
:101A20003A95D1F70E94D20E20E030E040E251E436
:101A30000E94280E42E00E9497088CE791E00E94E5
:101A4000540580E891E00E94E2040E94C20697FFDC
:101A500085C00E9433058CE891E00E94540580E91E
:101A600091E00E94E2040E94C2060E94D20E20E889
:101A700036EE45EC57E40E94280E21E03EED42E4AC
:101A80005EE30E94F40F9B01AC0160E070E080E82F
:101A90009FE30E94B60D20E03AE24DE257E40E9437
:101AA000870F42E00E9497088CE991E00E9454055C
:101AB00084EA91E00E94E2040E94C2060E94D20ED3
:101AC0000E949A0E97FF4EC00E9433058CE891E069
:101AD0000E94540589EC91E00E94E2040E94C20633
:101AE0000E94D20E20E836EE45EC57E40E94280E04
:101AF00021E03EED42E45EE30E94F40F9B01AC0165
:101B000060E070E080E89FE30E94B60D20E03AE2DA
:101B10004DE257E40E94870F42E00E9497088CE94B
:101B200091E00E9454058AE291E00E94E20464EF91
:101B300071E080E090E00E9443020115110509F474
:101B400023CF0E942F01882309F41ECF0E9400009A
:101B50001BCF89E391E00E945405FFCF4AE00E9429
:101B6000EF0479CF4AE00E94EF04B0CF5058BB2772
:101B7000AA270E94CE0D0C94480F0E943A0F38F00D
:101B80000E94410F20F039F49F3F19F426F40C9481
:101B9000370F0EF4E095E7FB0C94310FE92F0E940C
:101BA000590F58F3BA17620773078407950720F097
:101BB00079F4A6F50C947B0F0EF4E0950B2EBA2F5A
:101BC000A02D0B01B90190010C01CA01A001112443
:101BD000FF27591B99F0593F50F4503E68F11A16EF
:101BE000F040A22F232F342F4427585FF3CF469580
:101BF00037952795A795F0405395C9F77EF41F16A2
:101C0000BA0B620B730B840BBAF09150A1F0FF0F6B
:101C1000BB1F661F771F881FC2F70EC0BA0F621F57
:101C2000731F841F48F4879577956795B795F79547
:101C30009E3F08F0B0CF9395880F08F09927EE0FDC
:101C40009795879508950E940D0F08F481E00895F7
:101C50000E943C0E0C94480F0E94410F58F00E94C5
:101C60003A0F40F029F45F3F29F00C94310F5111E5
:101C70000C947C0F0C94370F0E94590F68F3992332
:101C8000B1F3552391F3951B550BBB27AA27621778
:101C90007307840738F09F5F5F4F220F331F441F85
:101CA000AA1FA9F335D00E2E3AF0E0E832D09150B9
:101CB0005040E695001CCAF72BD0FE2F29D0660FA6
:101CC000771F881FBB1F261737074807AB07B0E8E9
:101CD00009F0BB0B802DBF01FF2793585F4F3AF0EF
:101CE0009E3F510578F00C94310F0C947C0F5F3FB0
:101CF000E4F3983ED4F3869577956795B795F79575
:101D00009F5FC9F7880F911D9695879597F908955C
:101D1000E1E0660F771F881FBB1F621773078407F8
:101D2000BA0720F0621B730B840BBA0BEE1F88F707
:101D3000E09508950E94A10E6894B1110C947C0F57
:101D400008950E94610F88F09F5798F0B92F992746
:101D5000B751B0F0E1F0660F771F881F991F1AF096
:101D6000BA95C9F714C0B13091F00E947B0FB1E071
:101D700008950C947B0F672F782F8827B85F39F070
:101D8000B93FCCF3869577956795B395D9F73EF42F
:101D900090958095709561957F4F8F4F9F4F0895D7
:101DA000E89409C097FB3EF49095809570956195F5
:101DB0007F4F8F4F9F4F9923A9F0F92F96E9BB27AB
:101DC0009395F695879577956795B795F111F8CF27
:101DD000FAF4BB0F11F460FF1BC06F5F7F4F8F4F92
:101DE0009F4F16C0882311F096E911C0772321F088
:101DF0009EE8872F762F05C0662371F096E8862F20
:101E000070E060E02AF09A95660F771F881FDAF776
:101E1000880F9695879597F90895990F0008550FA3
:101E2000AA0BE0E8FEEF16161706E807F907C0F060
:101E300012161306E407F50798F0621B730B840B68
:101E4000950B39F40A2661F0232B242B252B21F442
:101E500008950A2609F4A140A6958FEF811D811DE2
:101E6000089597F99F6780E870E060E008959FEF1C
:101E700080EC089500240A94161617061806090621
:101E8000089500240A9412161306140605060895F0
:101E9000092E0394000C11F4882352F0BB0F40F478
:101EA000BF2B11F460FF04C06F5F7F4F8F4F9F4FB8
:101EB000089557FD9058440F551F59F05F3F71F03A
:101EC0004795880F97FB991F61F09F3F79F08795A1
:101ED0000895121613061406551FF2CF4695F1DF2A
:101EE00008C0161617061806991FF1CF86957105BA
:101EF000610508940895E894BB2766277727CB01EE
:101F000097F908950E940D0F08F48FEF08950E942D
:101F10009A0F0C94480F0E943A0F38F00E94410F1C
:101F200020F0952311F00C94310F0C94370F1124ED
:101F30000C947C0F0E94590F70F3959FC1F3950F7D
:101F400050E0551F629FF001729FBB27F00DB11D3D
:101F5000639FAA27F00DB11DAA1F649F6627B00DCD
:101F6000A11D661F829F2227B00DA11D621F739FB6
:101F7000B00DA11D621F839FA00D611D221F749FC4
:101F80003327A00D611D231F849F600D211D822F0B
:101F9000762F6A2F11249F5750409AF0F1F0882332
:101FA0004AF0EE0FFF1FBB1F661F771F881F91505F
:101FB0005040A9F79E3F510580F00C94310F0C94CE
:101FC0007C0F5F3FE4F3983ED4F386957795679551
:101FD000B795F795E7959F5FC1F7FE2B880F911D89
:101FE0009695879597F90895FA01EE0FFF1F3096A1
:101FF00021053105A1F16115710561F48038BFE358
:102000009B0749F168949038810561F08038BFEFF3
:102010009B0741F099234AF5FF3FE1053105210572
:1020200019F1E8940894E795D901AA2329F4AB2F74
:10203000BE2FF85FD0F310C0FF5F70F4A695E0F7F5
:10204000F73950F019F0FF3A38F49F779F930DD08D
:102050000F9007FC9058089546F00C94370F60E0FD
:1020600070E080E89FE308954FE79F775F934F9379
:102070003F932F930E94F4102F913F914F915F91C6
:102080000E94870F0C9451100E940D0F880B990B22
:10209000089529F416F00C94310F0C947B0F0C94D6
:1020A000370F0E94610FA8F39638A0F707F80F9238
:1020B000E8942BE33AEA48EB5FE70E949D0F0F920A
:1020C0000F920F924DB75EB70F920E943C11E8E657
:1020D000F0E00E9483104F915F91EF91FF91E595A1
:1020E000EE1FFF1F49F0FE57E0684427EE0F441F24
:1020F000FA95E1F74195550B0E94B6100F9007FE37
:102100000C94AA100895DF93CF931F930F93FF921F
:10211000EF92DF927B018C01689406C0DA2EEF010A
:102120000E949A0FFE01E894A59125913591459161
:102130005591A6F3EF010E94CE0DFE019701A80173
:10214000DA9469F7DF90EF90FF900F911F91CF9194
:10215000DF9108959B01AC0160E070E080E89FE3AF
:102160000C94280E0C94310F0C9470110E94610F86
:10217000D8F39923C9F3940F511DA3F39150504004
:1021800094F059F0882332F0660F771F881F915022
:102190005040C1F79E3F51052CF7880F911D969531
:1021A000879597F908955F3FACF0983E9CF0BB2768
:1021B000869577956795B79508F4B1609395C1F7C3
:1021C000BB0F58F711F460FFE8CF6F5F7F4F8F4F61
:1021D0009F4FE3CF0C947C0F16F00C9470110C946D
:1021E000370F68940C94310F0E94610FA8F3992364
:1021F000C1F3AEF3DF93CF931F930F93FF92C92FD9
:10220000DD2788232AF02197660F771F881FDAF7CA
:1022100020E030E040E85FEB9FE3883920F0803E2B
:1022200038F021968F770E94B70DE0E9F0E004C006
:102230000E94B70DEDEBF0E00E9483108B01BE0110
:10224000EC01FB2E6F5771097595771F880B990B61
:102250000E94D20E28E132E741E35FE30E949A0F29
:10226000AF2D9801AE01FF900F911F91CF91DF919B
:102270000E94CE0D0C94480FFA01DC01AA0FBB1F7F
:102280009B01AC01BF5728F42227332744275078FD
:1022900020C0B75190F4AB2F002446953795279571
:1022A000011CA395D2F3002071F0220F331F441FAD
:1022B000B395DAF30ED00C94B60D61307105A0E839
:1022C0008A07B94630F49B01AC0166277727882737
:1022D0009078309621F02083318342835383089590
:1022E0009F3F31F0915020F4879577956795B7958A
:1022F000880F911D9695879597F90895DB018F9327
:102300009F930E94CF11BF91AF91A29F800D911D0D
:10231000A39F900DB29F900D11240895A1E21A2E53
:10232000AA1BBB1BFD010DC0AA1FBB1FEE1FFF1F79
:10233000A217B307E407F50720F0A21BB30BE40BC9
:10234000F50B661F771F881F991F1A9469F7609510
:102350007095809590959B01AC01BD01CF010895CA
:10236000052E97FB1EF400940E94C71157FD07D05D
:102370000E948E1107FC03D04EF40C94C7115095A7
:102380004095309521953F4F4F4F5F4F0895909561
:102390008095709561957F4F8F4F9F4F08950E9454
:1023A000E811A59F900DB49F900DA49F800D911DE5
:1023B00011240895B7FF0C94CF110E94CF11821BF6
:1023C000930B0895EE0FFF1F0590F491E02D0994F3
:1023D000A29FB001B39FC001A39F700D811D112466
:1023E000911DB29F700D811D1124911D08950F93B1
:1023F0001F93CF93DF938230910510F482E090E039
:10240000E0916103F091620330E020E0B0E0A0E0F1
:10241000309799F42115310509F44AC0281B390B6E
:1024200024303105D8F58A819B816115710589F1C8
:10243000FB0193838283FE0111C04081518102819F
:10244000138148175907E0F04817590799F4109776
:1024500061F012960C93129713961C933296CF014B
:10246000DF91CF911F910F91089500936103109315
:102470006203F4CF2115310551F04217530738F0AC
:10248000A901DB019A01BD01DF01F801C1CFEF0114
:10249000F9CF9093620380936103CDCFFE01E20FE9
:1024A000F31F819391932250310939832883D7CF29
:1024B00020915F0330916003232B41F420910201AE
:1024C000309103013093600320935F03209100015A
:1024D000309101012115310541F42DB73EB74091EE
:1024E000040150910501241B350BE0915F03F0912D
:1024F0006003E217F307A0F42E1B3F0B28173907E0
:1025000078F0AC014E5F5F4F2417350748F04E0F4F
:102510005F1F5093600340935F03819391939FCF1C
:10252000F0E0E0E09CCFCF93DF930097E9F0FC016F
:10253000329713821282A0916103B0916203ED0180
:1025400030E020E01097A1F420813181820F931FA9
:1025500020915F03309160032817390709F061C0AB
:10256000F0936003E0935F03DF91CF910895EA0158
:10257000CE17DF07E8F54A815B819E0141155105C1
:10258000B1F7E901FB83EA8349915991C40FD51F43
:10259000EC17FD0761F4808191810296840F951FED
:1025A000E90199838883828193819B838A83F0E008
:1025B000E0E012968D919C9113970097B9F52D91BB
:1025C0003C911197CD010296820F931F20915F03DA
:1025D000309160032817390739F6309751F510927A
:1025E000620310926103B0936003A0935F03BCCFBA
:1025F000D383C28340815181840F951FC817D907A7
:1026000061F44E5F5F4F88819981480F591F518354
:1026100040838A819B81938382832115310509F050
:10262000B0CFF0936203E09361039ECFFD01DC0124
:10263000C0CF13821282D7CFF894FFCF000063037C
:102640008000000000006501C500F200B201230116
:102650000101150100000000B0048304DF045904E7
:102660007C0469045A040D0A006E616E00696E668E
:10267000006F766600436F756C64206E6F74206621
:10268000696E6420612076616C696420424D50302F
:1026900038352073656E736F722C20636865636BC9
:1026A00020776972696E67210054656D706572618B
:1026B00074757265203D2000202A430050726573B6
:1026C00073757265203D200020506100416C746973
:1026D00074756465203D2000206D6574657273001B
:1026E0005072657373757265206174207365616CD7
:1026F0006576656C202863616C63756C61746564D4
:1027000029203D20005265616C20616C74697475EC
:062710006465203D20007D
:107E0000112484B714BE81FFF0D085E080938100F7
:107E100082E08093C00088E18093C10086E0809377
:107E2000C20080E18093C4008EE0C9D0259A86E02C
:107E300020E33CEF91E0309385002093840096BBD3
:107E4000B09BFECF1D9AA8958150A9F7CC24DD24C4
:107E500088248394B5E0AB2EA1E19A2EF3E0BF2EE7
:107E6000A2D0813461F49FD0082FAFD0023811F036
:107E7000013811F484E001C083E08DD089C08234E0
:107E800011F484E103C0853419F485E0A6D080C0E4
:107E9000853579F488D0E82EFF2485D0082F10E0AE
:107EA000102F00270E291F29000F111F8ED06801E7
:107EB0006FC0863521F484E090D080E0DECF843638
:107EC00009F040C070D06FD0082F6DD080E0C81688
:107ED00080E7D80618F4F601B7BEE895C0E0D1E017
:107EE00062D089930C17E1F7F0E0CF16F0E7DF06D8
:107EF00018F0F601B7BEE89568D007B600FCFDCFD4
:107F0000A601A0E0B1E02C9130E011968C91119780
:107F100090E0982F8827822B932B1296FA010C0160
:107F200087BEE89511244E5F5F4FF1E0A038BF0790
:107F300051F7F601A7BEE89507B600FCFDCF97BE46
:107F4000E89526C08437B1F42ED02DD0F82E2BD052
:107F50003CD0F601EF2C8F010F5F1F4F84911BD097
:107F6000EA94F801C1F70894C11CD11CFA94CF0C13
:107F7000D11C0EC0853739F428D08EE10CD085E9AC
:107F80000AD08FE07ACF813511F488E018D01DD067
:107F900080E101D065CF982F8091C00085FFFCCF94
:107FA0009093C60008958091C00087FFFCCF809118
:107FB000C00084FD01C0A8958091C6000895E0E648
:107FC000F0E098E1908380830895EDDF803219F02E
:107FD00088E0F5DFFFCF84E1DECF1F93182FE3DFCA
:107FE0001150E9F7F2DF1F91089580E0E8DFEE27F6
:047FF000FF270994CA
:027FFE00040479
:00000001FF
